{
  "contractName": "Election",
  "abi": [
    {
      "inputs": [],
      "payable": false,
      "stateMutability": "nonpayable",
      "type": "constructor"
    },
    {
      "constant": true,
      "inputs": [],
      "name": "admin",
      "outputs": [
        {
          "internalType": "address",
          "name": "",
          "type": "address"
        }
      ],
      "payable": false,
      "stateMutability": "view",
      "type": "function"
    },
    {
      "constant": true,
      "inputs": [
        {
          "internalType": "uint256",
          "name": "",
          "type": "uint256"
        }
      ],
      "name": "electionPhases",
      "outputs": [
        {
          "internalType": "string",
          "name": "",
          "type": "string"
        }
      ],
      "payable": false,
      "stateMutability": "view",
      "type": "function"
    },
    {
      "constant": true,
      "inputs": [
        {
          "internalType": "address",
          "name": "",
          "type": "address"
        }
      ],
      "name": "voterDetails",
      "outputs": [
        {
          "internalType": "string",
          "name": "username",
          "type": "string"
        },
        {
          "internalType": "string",
          "name": "email",
          "type": "string"
        },
        {
          "internalType": "string",
          "name": "password",
          "type": "string"
        },
        {
          "internalType": "string",
          "name": "prn",
          "type": "string"
        },
        {
          "internalType": "string",
          "name": "mobile",
          "type": "string"
        },
        {
          "internalType": "address",
          "name": "voterAddress",
          "type": "address"
        },
        {
          "internalType": "bool",
          "name": "isVerified",
          "type": "bool"
        },
        {
          "internalType": "bool",
          "name": "hasVoted",
          "type": "bool"
        },
        {
          "internalType": "bool",
          "name": "hasApplied",
          "type": "bool"
        },
        {
          "internalType": "bool",
          "name": "isCandidate",
          "type": "bool"
        },
        {
          "internalType": "string",
          "name": "tagLine",
          "type": "string"
        },
        {
          "internalType": "uint256",
          "name": "votesCount",
          "type": "uint256"
        }
      ],
      "payable": false,
      "stateMutability": "view",
      "type": "function"
    },
    {
      "constant": true,
      "inputs": [
        {
          "internalType": "uint256",
          "name": "",
          "type": "uint256"
        }
      ],
      "name": "voters",
      "outputs": [
        {
          "internalType": "address",
          "name": "",
          "type": "address"
        }
      ],
      "payable": false,
      "stateMutability": "view",
      "type": "function"
    },
    {
      "constant": false,
      "inputs": [
        {
          "internalType": "address",
          "name": "pendingVoterAddress",
          "type": "address"
        },
        {
          "internalType": "string",
          "name": "_prn",
          "type": "string"
        },
        {
          "internalType": "string",
          "name": "_mobile",
          "type": "string"
        }
      ],
      "name": "addVerificationRequest",
      "outputs": [],
      "payable": false,
      "stateMutability": "nonpayable",
      "type": "function"
    },
    {
      "constant": false,
      "inputs": [
        {
          "internalType": "address",
          "name": "pendingVoterAddress",
          "type": "address"
        }
      ],
      "name": "approveVerificationRequests",
      "outputs": [],
      "payable": false,
      "stateMutability": "nonpayable",
      "type": "function"
    },
    {
      "constant": false,
      "inputs": [
        {
          "internalType": "address",
          "name": "pendingVoterAddress",
          "type": "address"
        },
        {
          "internalType": "string",
          "name": "_tagLine",
          "type": "string"
        }
      ],
      "name": "addCandidateRequest",
      "outputs": [],
      "payable": false,
      "stateMutability": "nonpayable",
      "type": "function"
    },
    {
      "constant": false,
      "inputs": [
        {
          "internalType": "address",
          "name": "pendingVoterAddress",
          "type": "address"
        }
      ],
      "name": "approveCandidateRequests",
      "outputs": [],
      "payable": false,
      "stateMutability": "nonpayable",
      "type": "function"
    },
    {
      "constant": true,
      "inputs": [],
      "name": "getAllVoterDetails",
      "outputs": [
        {
          "components": [
            {
              "internalType": "string",
              "name": "username",
              "type": "string"
            },
            {
              "internalType": "string",
              "name": "email",
              "type": "string"
            },
            {
              "internalType": "string",
              "name": "password",
              "type": "string"
            },
            {
              "internalType": "string",
              "name": "prn",
              "type": "string"
            },
            {
              "internalType": "string",
              "name": "mobile",
              "type": "string"
            },
            {
              "internalType": "address",
              "name": "voterAddress",
              "type": "address"
            },
            {
              "internalType": "bool",
              "name": "isVerified",
              "type": "bool"
            },
            {
              "internalType": "bool",
              "name": "hasVoted",
              "type": "bool"
            },
            {
              "internalType": "bool",
              "name": "hasApplied",
              "type": "bool"
            },
            {
              "internalType": "bool",
              "name": "isCandidate",
              "type": "bool"
            },
            {
              "internalType": "string",
              "name": "tagLine",
              "type": "string"
            },
            {
              "internalType": "uint256",
              "name": "votesCount",
              "type": "uint256"
            }
          ],
          "internalType": "struct Election.voter[]",
          "name": "",
          "type": "tuple[]"
        }
      ],
      "payable": false,
      "stateMutability": "view",
      "type": "function"
    },
    {
      "constant": true,
      "inputs": [
        {
          "internalType": "address",
          "name": "voterAddress",
          "type": "address"
        }
      ],
      "name": "getVoterDetails",
      "outputs": [
        {
          "components": [
            {
              "internalType": "string",
              "name": "username",
              "type": "string"
            },
            {
              "internalType": "string",
              "name": "email",
              "type": "string"
            },
            {
              "internalType": "string",
              "name": "password",
              "type": "string"
            },
            {
              "internalType": "string",
              "name": "prn",
              "type": "string"
            },
            {
              "internalType": "string",
              "name": "mobile",
              "type": "string"
            },
            {
              "internalType": "address",
              "name": "voterAddress",
              "type": "address"
            },
            {
              "internalType": "bool",
              "name": "isVerified",
              "type": "bool"
            },
            {
              "internalType": "bool",
              "name": "hasVoted",
              "type": "bool"
            },
            {
              "internalType": "bool",
              "name": "hasApplied",
              "type": "bool"
            },
            {
              "internalType": "bool",
              "name": "isCandidate",
              "type": "bool"
            },
            {
              "internalType": "string",
              "name": "tagLine",
              "type": "string"
            },
            {
              "internalType": "uint256",
              "name": "votesCount",
              "type": "uint256"
            }
          ],
          "internalType": "struct Election.voter",
          "name": "",
          "type": "tuple"
        }
      ],
      "payable": false,
      "stateMutability": "view",
      "type": "function"
    },
    {
      "constant": false,
      "inputs": [
        {
          "internalType": "string",
          "name": "_username",
          "type": "string"
        },
        {
          "internalType": "string",
          "name": "_email",
          "type": "string"
        },
        {
          "internalType": "string",
          "name": "_password",
          "type": "string"
        }
      ],
      "name": "addVoterDetails",
      "outputs": [],
      "payable": false,
      "stateMutability": "nonpayable",
      "type": "function"
    },
    {
      "constant": true,
      "inputs": [
        {
          "internalType": "address",
          "name": "voterAddress",
          "type": "address"
        },
        {
          "internalType": "string",
          "name": "mail",
          "type": "string"
        }
      ],
      "name": "isVoterExists",
      "outputs": [
        {
          "internalType": "bool",
          "name": "",
          "type": "bool"
        }
      ],
      "payable": false,
      "stateMutability": "view",
      "type": "function"
    },
    {
      "constant": true,
      "inputs": [
        {
          "internalType": "address",
          "name": "loginAddress",
          "type": "address"
        }
      ],
      "name": "getLoginDetails",
      "outputs": [
        {
          "internalType": "string",
          "name": "",
          "type": "string"
        },
        {
          "internalType": "string",
          "name": "",
          "type": "string"
        },
        {
          "internalType": "address",
          "name": "",
          "type": "address"
        },
        {
          "internalType": "string",
          "name": "",
          "type": "string"
        },
        {
          "internalType": "bool",
          "name": "",
          "type": "bool"
        }
      ],
      "payable": false,
      "stateMutability": "view",
      "type": "function"
    },
    {
      "constant": true,
      "inputs": [],
      "name": "getAdmin",
      "outputs": [
        {
          "internalType": "address",
          "name": "",
          "type": "address"
        }
      ],
      "payable": false,
      "stateMutability": "view",
      "type": "function"
    },
    {
      "constant": true,
      "inputs": [],
      "name": "getStart",
      "outputs": [
        {
          "internalType": "bool",
          "name": "",
          "type": "bool"
        }
      ],
      "payable": false,
      "stateMutability": "view",
      "type": "function"
    },
    {
      "constant": true,
      "inputs": [],
      "name": "getEnd",
      "outputs": [
        {
          "internalType": "bool",
          "name": "",
          "type": "bool"
        }
      ],
      "payable": false,
      "stateMutability": "view",
      "type": "function"
    },
    {
      "constant": false,
      "inputs": [],
      "name": "changeElectionPhase",
      "outputs": [],
      "payable": false,
      "stateMutability": "nonpayable",
      "type": "function"
    },
    {
      "constant": true,
      "inputs": [],
      "name": "getElectionDetails",
      "outputs": [
        {
          "internalType": "bool",
          "name": "",
          "type": "bool"
        },
        {
          "internalType": "bool",
          "name": "",
          "type": "bool"
        },
        {
          "internalType": "string",
          "name": "",
          "type": "string"
        },
        {
          "internalType": "string",
          "name": "",
          "type": "string"
        },
        {
          "internalType": "string",
          "name": "",
          "type": "string"
        },
        {
          "internalType": "string",
          "name": "",
          "type": "string"
        }
      ],
      "payable": false,
      "stateMutability": "view",
      "type": "function"
    },
    {
      "constant": false,
      "inputs": [
        {
          "internalType": "string",
          "name": "_electionTitle",
          "type": "string"
        },
        {
          "internalType": "string",
          "name": "_electionOrganization",
          "type": "string"
        }
      ],
      "name": "startElection",
      "outputs": [],
      "payable": false,
      "stateMutability": "nonpayable",
      "type": "function"
    },
    {
      "constant": false,
      "inputs": [
        {
          "internalType": "address",
          "name": "voterAddress",
          "type": "address"
        },
        {
          "internalType": "address",
          "name": "candidateAddress",
          "type": "address"
        }
      ],
      "name": "addVote",
      "outputs": [],
      "payable": false,
      "stateMutability": "nonpayable",
      "type": "function"
    },
    {
      "constant": true,
      "inputs": [
        {
          "internalType": "address",
          "name": "voterAddress",
          "type": "address"
        }
      ],
      "name": "hasVoted",
      "outputs": [
        {
          "internalType": "bool",
          "name": "",
          "type": "bool"
        }
      ],
      "payable": false,
      "stateMutability": "view",
      "type": "function"
    }
  ],
  "bytecode": "0x60806040523480156200001157600080fd5b50336000806101000a81548173ffffffffffffffffffffffffffffffffffffffff021916908373ffffffffffffffffffffffffffffffffffffffff160217905550600060018190555060006002819055506000600360006101000a81548160ff0219169083151502179055506000600360016101000a81548160ff0219169083151502179055506040518060200160405280600081525060049080519060200190620000bf929190620002b8565b506040518060200160405280600081525060059080519060200190620000e7929190620002b8565b5060006008819055506040518060a001604052806040518060400160405280600481526020017f4e6f6e650000000000000000000000000000000000000000000000000000000081525081526020016040518060400160405280601281526020017f566f74657220566572696669636174696f6e000000000000000000000000000081525081526020016040518060400160405280601481526020017f4170706c7920617320612043616e64696461746500000000000000000000000081525081526020016040518060400160405280600681526020017f566f74696e67000000000000000000000000000000000000000000000000000081525081526020016040518060400160405280600681526020017f526573756c7400000000000000000000000000000000000000000000000000008152508152506009906005620002329291906200033f565b506009600854815481106200024357fe5b906000526020600020016006908054600181600116156101000203166002900462000270929190620003a6565b506009600160085401815481106200028457fe5b9060005260206000200160079080546001816001161561010002031660029004620002b1929190620003a6565b5062000560565b828054600181600116156101000203166002900490600052602060002090601f016020900481019282601f10620002fb57805160ff19168380011785556200032c565b828001600101855582156200032c579182015b828111156200032b5782518255916020019190600101906200030e565b5b5090506200033b919062000434565b5090565b82805482825590600052602060002090810192821562000393579160200282015b8281111562000392578251829080519060200190620003819291906200045c565b509160200191906001019062000360565b5b509050620003a29190620004e3565b5090565b828054600181600116156101000203166002900490600052602060002090601f016020900481019282601f10620003e1578054855562000421565b828001600101855582156200042157600052602060002091601f016020900482015b828111156200042057825482559160010191906001019062000403565b5b50905062000430919062000434565b5090565b6200045991905b80821115620004555760008160009055506001016200043b565b5090565b90565b828054600181600116156101000203166002900490600052602060002090601f016020900481019282601f106200049f57805160ff1916838001178555620004d0565b82800160010185558215620004d0579182015b82811115620004cf578251825591602001919060010190620004b2565b5b509050620004df919062000434565b5090565b6200051191905b808211156200050d576000818162000503919062000514565b50600101620004ea565b5090565b90565b50805460018160011615610100020316600290046000825580601f106200053c57506200055d565b601f0160209004906000526020600020908101906200055c919062000434565b5b50565b61327d80620005706000396000f3fe608060405234801561001057600080fd5b50600436106101375760003560e01c806392bcab34116100b8578063c5292c671161007c578063c5292c6714610347578063c604f5b414610365578063c8eb9ef114610395578063da58c7d9146103b1578063ed836bc3146103e1578063f851a4401461040457610137565b806392bcab34146102a35780639f05a36d146102c1578063a65b8f3b146102df578063ba51d32b146102fb578063ba71bef01461031757610137565b80635938750d116100ff5780635938750d146101de5780635cc2d13f146102195780636e9960c3146102355780637691e99014610253578063917addbd1461028757610137565b806303087c391461013c57806309eef43e1461015857806319f017b714610188578063316b018d146101b85780633d09c2a8146101c2575b600080fd5b610156600480360361015191908101906127a2565b610422565b005b610172600480360361016d919081019061273d565b6104d8565b60405161017f9190612e5f565b60405180910390f35b6101a2600480360361019d9190810190612978565b610531565b6040516101af9190612ef7565b60405180910390f35b6101c06105ea565b005b6101dc60048036036101d79190810190612766565b6106ba565b005b6101f860048036036101f3919081019061273d565b61076b565b6040516102109c9b9a99989796959493929190612f81565b60405180910390f35b610233600480360361022e91908101906128e1565b610baf565b005b61023d610e9f565b60405161024a9190612e22565b60405180910390f35b61026d6004803603610268919081019061273d565b610ec8565b60405161027e959493929190612f19565b60405180910390f35b6102a1600480360361029c9190810190612875565b611231565b005b6102ab611286565b6040516102b89190612e3d565b60405180910390f35b6102c961181e565b6040516102d69190612e5f565b60405180910390f35b6102f960048036036102f491908101906127f6565b611835565b005b6103156004803603610310919081019061273d565b611943565b005b610331600480360361032c919081019061273d565b6119fc565b60405161033e9190613065565b60405180910390f35b61034f611eee565b60405161035c9190612e5f565b60405180910390f35b61037f600480360361037a91908101906127a2565b611f05565b60405161038c9190612e5f565b60405180910390f35b6103af60048036036103aa919081019061273d565b612046565b005b6103cb60048036036103c69190810190612978565b6120ff565b6040516103d89190612e22565b60405180910390f35b6103e961213b565b6040516103fb96959493929190612e7a565b60405180910390f35b61040c6123f0565b6040516104199190612e22565b60405180910390f35b6001600a60008473ffffffffffffffffffffffffffffffffffffffff1673ffffffffffffffffffffffffffffffffffffffff16815260200190815260200160002060050160166101000a81548160ff02191690831515021790555080600a60008473ffffffffffffffffffffffffffffffffffffffff1673ffffffffffffffffffffffffffffffffffffffff16815260200190815260200160002060060190805190602001906104d3929190612415565b505050565b6000600a60008373ffffffffffffffffffffffffffffffffffffffff1673ffffffffffffffffffffffffffffffffffffffff16815260200190815260200160002060050160159054906101000a900460ff169050919050565b6009818154811061053e57fe5b906000526020600020016000915090508054600181600116156101000203166002900480601f0160208091040260200160405190810160405280929190818152602001828054600181600116156101000203166002900480156105e25780601f106105b7576101008083540402835291602001916105e2565b820191906000526020600020905b8154815290600101906020018083116105c557829003601f168201915b505050505081565b600980549050600160085401816105fd57fe5b0660088190555060096008548154811061061357fe5b906000526020600020016006908054600181600116156101000203166002900461063e929190612495565b50600980805490506001600854018161065357fe5b068154811061065e57fe5b9060005260206000200160079080546001816001161561010002031660029004610689929190612495565b5060016009805490500360085414156106b8576001600360016101000a81548160ff0219169083151502179055505b565b6001600a60008473ffffffffffffffffffffffffffffffffffffffff1673ffffffffffffffffffffffffffffffffffffffff16815260200190815260200160002060050160156101000a81548160ff021916908315150217905550600a60008273ffffffffffffffffffffffffffffffffffffffff1673ffffffffffffffffffffffffffffffffffffffff168152602001908152602001600020600701600081548092919060010191905055505050565b600a602052806000526040600020600091509050806000018054600181600116156101000203166002900480601f0160208091040260200160405190810160405280929190818152602001828054600181600116156101000203166002900480156108175780601f106107ec57610100808354040283529160200191610817565b820191906000526020600020905b8154815290600101906020018083116107fa57829003601f168201915b505050505090806001018054600181600116156101000203166002900480601f0160208091040260200160405190810160405280929190818152602001828054600181600116156101000203166002900480156108b55780601f1061088a576101008083540402835291602001916108b5565b820191906000526020600020905b81548152906001019060200180831161089857829003601f168201915b505050505090806002018054600181600116156101000203166002900480601f0160208091040260200160405190810160405280929190818152602001828054600181600116156101000203166002900480156109535780601f1061092857610100808354040283529160200191610953565b820191906000526020600020905b81548152906001019060200180831161093657829003601f168201915b505050505090806003018054600181600116156101000203166002900480601f0160208091040260200160405190810160405280929190818152602001828054600181600116156101000203166002900480156109f15780601f106109c6576101008083540402835291602001916109f1565b820191906000526020600020905b8154815290600101906020018083116109d457829003601f168201915b505050505090806004018054600181600116156101000203166002900480601f016020809104026020016040519081016040528092919081815260200182805460018160011615610100020316600290048015610a8f5780601f10610a6457610100808354040283529160200191610a8f565b820191906000526020600020905b815481529060010190602001808311610a7257829003601f168201915b5050505050908060050160009054906101000a900473ffffffffffffffffffffffffffffffffffffffff16908060050160149054906101000a900460ff16908060050160159054906101000a900460ff16908060050160169054906101000a900460ff16908060050160179054906101000a900460ff1690806006018054600181600116156101000203166002900480601f016020809104026020016040519081016040528092919081815260200182805460018160011615610100020316600290048015610b9f5780601f10610b7457610100808354040283529160200191610b9f565b820191906000526020600020905b815481529060010190602001808311610b8257829003601f168201915b505050505090806007015490508c565b610bb761251c565b6040518061018001604052808581526020018481526020018381526020016040518060200160405280600081525081526020016040518060200160405280600081525081526020013373ffffffffffffffffffffffffffffffffffffffff1681526020016000151581526020016000151581526020016000151581526020016000151581526020016040518060200160405280600081525081526020016000815250905080600a60003373ffffffffffffffffffffffffffffffffffffffff1673ffffffffffffffffffffffffffffffffffffffff1681526020019081526020016000206000820151816000019080519060200190610cb792919061259b565b506020820151816001019080519060200190610cd492919061259b565b506040820151816002019080519060200190610cf192919061259b565b506060820151816003019080519060200190610d0e92919061259b565b506080820151816004019080519060200190610d2b92919061259b565b5060a08201518160050160006101000a81548173ffffffffffffffffffffffffffffffffffffffff021916908373ffffffffffffffffffffffffffffffffffffffff16021790555060c08201518160050160146101000a81548160ff02191690831515021790555060e08201518160050160156101000a81548160ff0219169083151502179055506101008201518160050160166101000a81548160ff0219169083151502179055506101208201518160050160176101000a81548160ff021916908315150217905550610140820151816006019080519060200190610e1292919061259b565b506101608201518160070155905050600260008154809291906001019190505550600b3390806001815401808255809150509060018203906000526020600020016000909192909190916101000a81548173ffffffffffffffffffffffffffffffffffffffff021916908373ffffffffffffffffffffffffffffffffffffffff1602179055505050505050565b60008060009054906101000a900473ffffffffffffffffffffffffffffffffffffffff16905090565b606080600060606000600a60008773ffffffffffffffffffffffffffffffffffffffff1673ffffffffffffffffffffffffffffffffffffffff168152602001908152602001600020600101600a60008873ffffffffffffffffffffffffffffffffffffffff1673ffffffffffffffffffffffffffffffffffffffff168152602001908152602001600020600201600a60008973ffffffffffffffffffffffffffffffffffffffff1673ffffffffffffffffffffffffffffffffffffffff16815260200190815260200160002060050160009054906101000a900473ffffffffffffffffffffffffffffffffffffffff16600a60008a73ffffffffffffffffffffffffffffffffffffffff1673ffffffffffffffffffffffffffffffffffffffff168152602001908152602001600020600001600a60008b73ffffffffffffffffffffffffffffffffffffffff1673ffffffffffffffffffffffffffffffffffffffff16815260200190815260200160002060050160149054906101000a900460ff16848054600181600116156101000203166002900480601f0160208091040260200160405190810160405280929190818152602001828054600181600116156101000203166002900480156110df5780601f106110b4576101008083540402835291602001916110df565b820191906000526020600020905b8154815290600101906020018083116110c257829003601f168201915b50505050509450838054600181600116156101000203166002900480601f01602080910402602001604051908101604052809291908181526020018280546001816001161561010002031660029004801561117b5780601f106111505761010080835404028352916020019161117b565b820191906000526020600020905b81548152906001019060200180831161115e57829003601f168201915b50505050509350818054600181600116156101000203166002900480601f0160208091040260200160405190810160405280929190818152602001828054600181600116156101000203166002900480156112175780601f106111ec57610100808354040283529160200191611217565b820191906000526020600020905b8154815290600101906020018083116111fa57829003601f168201915b505050505091509450945094509450945091939590929450565b6001600360006101000a81548160ff0219169083151502179055508160049080519060200190611262929190612415565b508060059080519060200190611279929190612415565b506112826105ea565b5050565b6060806002546040519080825280602002602001820160405280156112c557816020015b6112b261261b565b8152602001906001900390816112aa5790505b50905060008090505b60025481101561181657600a6000600b83815481106112e957fe5b9060005260206000200160009054906101000a900473ffffffffffffffffffffffffffffffffffffffff1673ffffffffffffffffffffffffffffffffffffffff1673ffffffffffffffffffffffffffffffffffffffff16815260200190815260200160002060405180610180016040529081600082018054600181600116156101000203166002900480601f0160208091040260200160405190810160405280929190818152602001828054600181600116156101000203166002900480156113f35780601f106113c8576101008083540402835291602001916113f3565b820191906000526020600020905b8154815290600101906020018083116113d657829003601f168201915b50505050508152602001600182018054600181600116156101000203166002900480601f0160208091040260200160405190810160405280929190818152602001828054600181600116156101000203166002900480156114955780601f1061146a57610100808354040283529160200191611495565b820191906000526020600020905b81548152906001019060200180831161147857829003601f168201915b50505050508152602001600282018054600181600116156101000203166002900480601f0160208091040260200160405190810160405280929190818152602001828054600181600116156101000203166002900480156115375780601f1061150c57610100808354040283529160200191611537565b820191906000526020600020905b81548152906001019060200180831161151a57829003601f168201915b50505050508152602001600382018054600181600116156101000203166002900480601f0160208091040260200160405190810160405280929190818152602001828054600181600116156101000203166002900480156115d95780601f106115ae576101008083540402835291602001916115d9565b820191906000526020600020905b8154815290600101906020018083116115bc57829003601f168201915b50505050508152602001600482018054600181600116156101000203166002900480601f01602080910402602001604051908101604052809291908181526020018280546001816001161561010002031660029004801561167b5780601f106116505761010080835404028352916020019161167b565b820191906000526020600020905b81548152906001019060200180831161165e57829003601f168201915b505050505081526020016005820160009054906101000a900473ffffffffffffffffffffffffffffffffffffffff1673ffffffffffffffffffffffffffffffffffffffff1673ffffffffffffffffffffffffffffffffffffffff1681526020016005820160149054906101000a900460ff161515151581526020016005820160159054906101000a900460ff161515151581526020016005820160169054906101000a900460ff161515151581526020016005820160179054906101000a900460ff16151515158152602001600682018054600181600116156101000203166002900480601f0160208091040260200160405190810160405280929190818152602001828054600181600116156101000203166002900480156117df5780601f106117b4576101008083540402835291602001916117df565b820191906000526020600020905b8154815290600101906020018083116117c257829003601f168201915b505050505081526020016007820154815250508282815181106117fe57fe5b602002602001018190525080806001019150506112ce565b508091505090565b6000600360019054906101000a900460ff16905090565b6001600a60008573ffffffffffffffffffffffffffffffffffffffff1673ffffffffffffffffffffffffffffffffffffffff16815260200190815260200160002060050160166101000a81548160ff02191690831515021790555081600a60008573ffffffffffffffffffffffffffffffffffffffff1673ffffffffffffffffffffffffffffffffffffffff16815260200190815260200160002060030190805190602001906118e6929190612415565b5080600a60008573ffffffffffffffffffffffffffffffffffffffff1673ffffffffffffffffffffffffffffffffffffffff168152602001908152602001600020600401908051906020019061193d929190612415565b50505050565b6000600a60008373ffffffffffffffffffffffffffffffffffffffff1673ffffffffffffffffffffffffffffffffffffffff16815260200190815260200160002060050160166101000a81548160ff0219169083151502179055506001600a60008373ffffffffffffffffffffffffffffffffffffffff1673ffffffffffffffffffffffffffffffffffffffff16815260200190815260200160002060050160146101000a81548160ff02191690831515021790555050565b611a0461251c565b600a60008373ffffffffffffffffffffffffffffffffffffffff1673ffffffffffffffffffffffffffffffffffffffff16815260200190815260200160002060405180610180016040529081600082018054600181600116156101000203166002900480601f016020809104026020016040519081016040528092919081815260200182805460018160011615610100020316600290048015611ae85780601f10611abd57610100808354040283529160200191611ae8565b820191906000526020600020905b815481529060010190602001808311611acb57829003601f168201915b50505050508152602001600182018054600181600116156101000203166002900480601f016020809104026020016040519081016040528092919081815260200182805460018160011615610100020316600290048015611b8a5780601f10611b5f57610100808354040283529160200191611b8a565b820191906000526020600020905b815481529060010190602001808311611b6d57829003601f168201915b50505050508152602001600282018054600181600116156101000203166002900480601f016020809104026020016040519081016040528092919081815260200182805460018160011615610100020316600290048015611c2c5780601f10611c0157610100808354040283529160200191611c2c565b820191906000526020600020905b815481529060010190602001808311611c0f57829003601f168201915b50505050508152602001600382018054600181600116156101000203166002900480601f016020809104026020016040519081016040528092919081815260200182805460018160011615610100020316600290048015611cce5780601f10611ca357610100808354040283529160200191611cce565b820191906000526020600020905b815481529060010190602001808311611cb157829003601f168201915b50505050508152602001600482018054600181600116156101000203166002900480601f016020809104026020016040519081016040528092919081815260200182805460018160011615610100020316600290048015611d705780601f10611d4557610100808354040283529160200191611d70565b820191906000526020600020905b815481529060010190602001808311611d5357829003601f168201915b505050505081526020016005820160009054906101000a900473ffffffffffffffffffffffffffffffffffffffff1673ffffffffffffffffffffffffffffffffffffffff1673ffffffffffffffffffffffffffffffffffffffff1681526020016005820160149054906101000a900460ff161515151581526020016005820160159054906101000a900460ff161515151581526020016005820160169054906101000a900460ff161515151581526020016005820160179054906101000a900460ff16151515158152602001600682018054600181600116156101000203166002900480601f016020809104026020016040519081016040528092919081815260200182805460018160011615610100020316600290048015611ed45780601f10611ea957610100808354040283529160200191611ed4565b820191906000526020600020905b815481529060010190602001808311611eb757829003601f168201915b505050505081526020016007820154815250509050919050565b6000600360009054906101000a900460ff16905090565b600080600090505b600b8054905081101561203a57600b8181548110611f2757fe5b9060005260206000200160009054906101000a900473ffffffffffffffffffffffffffffffffffffffff1673ffffffffffffffffffffffffffffffffffffffff168473ffffffffffffffffffffffffffffffffffffffff16148061201e5750600a6000600b8381548110611f9757fe5b9060005260206000200160009054906101000a900473ffffffffffffffffffffffffffffffffffffffff1673ffffffffffffffffffffffffffffffffffffffff1673ffffffffffffffffffffffffffffffffffffffff16815260200190815260200160002060010160405161200c9190612e0b565b60405180910390208380519060200120145b1561202d576001915050612040565b8080600101915050611f0d565b50600090505b92915050565b6000600a60008373ffffffffffffffffffffffffffffffffffffffff1673ffffffffffffffffffffffffffffffffffffffff16815260200190815260200160002060050160166101000a81548160ff0219169083151502179055506001600a60008373ffffffffffffffffffffffffffffffffffffffff1673ffffffffffffffffffffffffffffffffffffffff16815260200190815260200160002060050160176101000a81548160ff02191690831515021790555050565b600b818154811061210c57fe5b906000526020600020016000915054906101000a900473ffffffffffffffffffffffffffffffffffffffff1681565b600080606080606080600360009054906101000a900460ff16600360019054906101000a900460ff166004600560066007838054600181600116156101000203166002900480601f0160208091040260200160405190810160405280929190818152602001828054600181600116156101000203166002900480156122015780601f106121d657610100808354040283529160200191612201565b820191906000526020600020905b8154815290600101906020018083116121e457829003601f168201915b50505050509350828054600181600116156101000203166002900480601f01602080910402602001604051908101604052809291908181526020018280546001816001161561010002031660029004801561229d5780601f106122725761010080835404028352916020019161229d565b820191906000526020600020905b81548152906001019060200180831161228057829003601f168201915b50505050509250818054600181600116156101000203166002900480601f0160208091040260200160405190810160405280929190818152602001828054600181600116156101000203166002900480156123395780601f1061230e57610100808354040283529160200191612339565b820191906000526020600020905b81548152906001019060200180831161231c57829003601f168201915b50505050509150808054600181600116156101000203166002900480601f0160208091040260200160405190810160405280929190818152602001828054600181600116156101000203166002900480156123d55780601f106123aa576101008083540402835291602001916123d5565b820191906000526020600020905b8154815290600101906020018083116123b857829003601f168201915b50505050509050955095509550955095509550909192939495565b6000809054906101000a900473ffffffffffffffffffffffffffffffffffffffff1681565b828054600181600116156101000203166002900490600052602060002090601f016020900481019282601f1061245657805160ff1916838001178555612484565b82800160010185558215612484579182015b82811115612483578251825591602001919060010190612468565b5b509050612491919061269a565b5090565b828054600181600116156101000203166002900490600052602060002090601f016020900481019282601f106124ce578054855561250b565b8280016001018555821561250b57600052602060002091601f016020900482015b8281111561250a5782548255916001019190600101906124ef565b5b509050612518919061269a565b5090565b6040518061018001604052806060815260200160608152602001606081526020016060815260200160608152602001600073ffffffffffffffffffffffffffffffffffffffff16815260200160001515815260200160001515815260200160001515815260200160001515815260200160608152602001600081525090565b828054600181600116156101000203166002900490600052602060002090601f016020900481019282601f106125dc57805160ff191683800117855561260a565b8280016001018555821561260a579182015b828111156126095782518255916020019190600101906125ee565b5b509050612617919061269a565b5090565b6040518061018001604052806060815260200160608152602001606081526020016060815260200160608152602001600073ffffffffffffffffffffffffffffffffffffffff16815260200160001515815260200160001515815260200160001515815260200160001515815260200160608152602001600081525090565b6126bc91905b808211156126b85760008160009055506001016126a0565b5090565b90565b6000813590506126ce8161320c565b92915050565b600082601f8301126126e557600080fd5b81356126f86126f3826130b4565b613087565b9150808252602083016020830185838301111561271457600080fd5b61271f8382846131b9565b50505092915050565b60008135905061273781613223565b92915050565b60006020828403121561274f57600080fd5b600061275d848285016126bf565b91505092915050565b6000806040838503121561277957600080fd5b6000612787858286016126bf565b9250506020612798858286016126bf565b9150509250929050565b600080604083850312156127b557600080fd5b60006127c3858286016126bf565b925050602083013567ffffffffffffffff8111156127e057600080fd5b6127ec858286016126d4565b9150509250929050565b60008060006060848603121561280b57600080fd5b6000612819868287016126bf565b935050602084013567ffffffffffffffff81111561283657600080fd5b612842868287016126d4565b925050604084013567ffffffffffffffff81111561285f57600080fd5b61286b868287016126d4565b9150509250925092565b6000806040838503121561288857600080fd5b600083013567ffffffffffffffff8111156128a257600080fd5b6128ae858286016126d4565b925050602083013567ffffffffffffffff8111156128cb57600080fd5b6128d7858286016126d4565b9150509250929050565b6000806000606084860312156128f657600080fd5b600084013567ffffffffffffffff81111561291057600080fd5b61291c868287016126d4565b935050602084013567ffffffffffffffff81111561293957600080fd5b612945868287016126d4565b925050604084013567ffffffffffffffff81111561296257600080fd5b61296e868287016126d4565b9150509250925092565b60006020828403121561298a57600080fd5b600061299884828501612728565b91505092915050565b60006129ad8383612cc6565b905092915050565b6129be81613171565b82525050565b6129cd81613171565b82525050565b60006129de82613105565b6129e88185613133565b9350836020820285016129fa856130e0565b8060005b85811015612a365784840389528151612a1785826129a1565b9450612a2283613126565b925060208a019950506001810190506129fe565b50829750879550505050505092915050565b612a5181613183565b82525050565b612a6081613183565b82525050565b600081546001811660008114612a835760018114612aa857612aec565b607f6002830416612a948187613144565b955060ff1983168652808601935050612aec565b60028204612ab68187613144565b9550612ac1856130f0565b60005b82811015612ae357815481890152600182019150602081019050612ac4565b82880195505050505b505092915050565b6000612aff8261311b565b612b098185613160565b9350612b198185602086016131c8565b612b22816131fb565b840191505092915050565b6000612b3882613110565b612b42818561314f565b9350612b528185602086016131c8565b612b5b816131fb565b840191505092915050565b6000612b7182613110565b612b7b8185613160565b9350612b8b8185602086016131c8565b612b94816131fb565b840191505092915050565b6000610180830160008301518482036000860152612bbd8282612b2d565b91505060208301518482036020860152612bd78282612b2d565b91505060408301518482036040860152612bf18282612b2d565b91505060608301518482036060860152612c0b8282612b2d565b91505060808301518482036080860152612c258282612b2d565b91505060a0830151612c3a60a08601826129b5565b5060c0830151612c4d60c0860182612a48565b5060e0830151612c6060e0860182612a48565b50610100830151612c75610100860182612a48565b50610120830151612c8a610120860182612a48565b50610140830151848203610140860152612ca48282612b2d565b915050610160830151612cbb610160860182612ded565b508091505092915050565b6000610180830160008301518482036000860152612ce48282612b2d565b91505060208301518482036020860152612cfe8282612b2d565b91505060408301518482036040860152612d188282612b2d565b91505060608301518482036060860152612d328282612b2d565b91505060808301518482036080860152612d4c8282612b2d565b91505060a0830151612d6160a08601826129b5565b5060c0830151612d7460c0860182612a48565b5060e0830151612d8760e0860182612a48565b50610100830151612d9c610100860182612a48565b50610120830151612db1610120860182612a48565b50610140830151848203610140860152612dcb8282612b2d565b915050610160830151612de2610160860182612ded565b508091505092915050565b612df6816131af565b82525050565b612e05816131af565b82525050565b6000612e178284612a66565b915081905092915050565b6000602082019050612e3760008301846129c4565b92915050565b60006020820190508181036000830152612e5781846129d3565b905092915050565b6000602082019050612e746000830184612a57565b92915050565b600060c082019050612e8f6000830189612a57565b612e9c6020830188612a57565b8181036040830152612eae8187612af4565b90508181036060830152612ec28186612af4565b90508181036080830152612ed68185612af4565b905081810360a0830152612eea8184612af4565b9050979650505050505050565b60006020820190508181036000830152612f118184612b66565b905092915050565b600060a0820190508181036000830152612f338188612af4565b90508181036020830152612f478187612af4565b9050612f5660408301866129c4565b8181036060830152612f688185612af4565b9050612f776080830184612a57565b9695505050505050565b6000610180820190508181036000830152612f9c818f612b66565b90508181036020830152612fb0818e612b66565b90508181036040830152612fc4818d612b66565b90508181036060830152612fd8818c612b66565b90508181036080830152612fec818b612b66565b9050612ffb60a083018a6129c4565b61300860c0830189612a57565b61301560e0830188612a57565b613023610100830187612a57565b613031610120830186612a57565b8181036101408301526130448185612b66565b9050613054610160830184612dfc565b9d9c50505050505050505050505050565b6000602082019050818103600083015261307f8184612b9f565b905092915050565b6000604051905081810181811067ffffffffffffffff821117156130aa57600080fd5b8060405250919050565b600067ffffffffffffffff8211156130cb57600080fd5b601f19601f8301169050602081019050919050565b6000819050602082019050919050565b60008190508160005260206000209050919050565b600081519050919050565b600081519050919050565b600081519050919050565b6000602082019050919050565b600082825260208201905092915050565b600081905092915050565b600082825260208201905092915050565b600082825260208201905092915050565b600061317c8261318f565b9050919050565b60008115159050919050565b600073ffffffffffffffffffffffffffffffffffffffff82169050919050565b6000819050919050565b82818337600083830152505050565b60005b838110156131e65780820151818401526020810190506131cb565b838111156131f5576000848401525b50505050565b6000601f19601f8301169050919050565b61321581613171565b811461322057600080fd5b50565b61322c816131af565b811461323757600080fd5b5056fea365627a7a7231582053fb5a1a7ceb6d90f12c7b744bf2485bd9192ce3e0945085a8cde8db1713a9806c6578706572696d656e74616cf564736f6c63430005100040",
  "source": "// SPDX-License-Identifier: MIT\r\npragma solidity >=0.4.21 <0.9.0;\r\npragma experimental ABIEncoderV2;\r\n\r\ncontract Election {\r\n    address public admin;\r\n    uint256 candidateCount;\r\n    uint256 voterCount;\r\n    bool isElectionStarted;\r\n    bool isElectionEnded;\r\n    string electionTitle;\r\n    string electionOrganization;\r\n    string currentElectionPhase;\r\n    string nextElectionPhase;\r\n    uint256 electionPhaseIndex;\r\n    string[] public electionPhases;\r\n\r\n    constructor() public {\r\n        // Initilizing default values\r\n        admin = msg.sender;\r\n        candidateCount = 0;\r\n        voterCount = 0;\r\n        isElectionStarted = false;\r\n        isElectionEnded = false;\r\n        electionTitle = \"\";\r\n        electionOrganization = \"\";\r\n        electionPhaseIndex = 0;\r\n        electionPhases = [\r\n            \"None\",\r\n            \"Voter Verification\",\r\n            \"Apply as a Candidate\",\r\n            \"Voting\",\r\n            \"Result\"\r\n        ];\r\n        currentElectionPhase = electionPhases[electionPhaseIndex];\r\n        nextElectionPhase = electionPhases[electionPhaseIndex + 1];\r\n    }\r\n\r\n    struct voter {\r\n        string username;\r\n        string email;\r\n        string password;\r\n        string prn;\r\n        string mobile;\r\n        address voterAddress;\r\n        bool isVerified;\r\n        bool hasVoted;\r\n        bool hasApplied;\r\n        bool isCandidate;\r\n        // bool isDenied;\r\n        // string deniedFor;\r\n        string tagLine;\r\n        uint256 votesCount;\r\n    }\r\n\r\n    mapping(address => voter) public voterDetails;\r\n    address[] public voters; // Array of address to store address of voters\r\n\r\n    /*------------------------ Voter Verification --------------------------- */\r\n\r\n    // Update verification details\r\n    function addVerificationRequest(\r\n        address pendingVoterAddress,\r\n        string memory _prn,\r\n        string memory _mobile\r\n    ) public {\r\n        voterDetails[pendingVoterAddress].hasApplied = true;\r\n        voterDetails[pendingVoterAddress].prn = _prn;\r\n        voterDetails[pendingVoterAddress].mobile = _mobile;\r\n    }\r\n\r\n    // Approve verification requests\r\n    function approveVerificationRequests(address pendingVoterAddress) public {\r\n        voterDetails[pendingVoterAddress].hasApplied = false;\r\n        voterDetails[pendingVoterAddress].isVerified = true;\r\n        // if (voterDetails[pendingVoterAddress].isDenied) {\r\n        //     voterDetails[pendingVoterAddress].deniedFor = \"\";\r\n        //     voterDetails[pendingVoterAddress].isDenied = false;\r\n        // }\r\n    }\r\n\r\n    // Deny verification requests\r\n    // function denyVerificationRequests(\r\n    //     address pendingVoterAddress,\r\n    //     string memory _deniedFor\r\n    // ) public {\r\n    //     voterDetails[pendingVoterAddress].hasApplied = false;\r\n    //     voterDetails[pendingVoterAddress].isDenied = true;\r\n    //     voterDetails[pendingVoterAddress].deniedFor = _deniedFor;\r\n    // }\r\n\r\n    // sending candidate request\r\n\r\n    function addCandidateRequest(\r\n        address pendingVoterAddress,\r\n        string memory _tagLine\r\n    ) public {\r\n        voterDetails[pendingVoterAddress].hasApplied = true;\r\n        voterDetails[pendingVoterAddress].tagLine = _tagLine;\r\n    }\r\n\r\n    // Approve candidate requests\r\n    function approveCandidateRequests(address pendingVoterAddress) public {\r\n        voterDetails[pendingVoterAddress].hasApplied = false;\r\n        voterDetails[pendingVoterAddress].isCandidate = true;\r\n        // if (voterDetails[pendingVoterAddress].isDenied) {\r\n        //     voterDetails[pendingVoterAddress].deniedFor = \"\";\r\n        //     voterDetails[pendingVoterAddress].isDenied = false;\r\n        // }\r\n    }\r\n\r\n    // Get all voter details\r\n    function getAllVoterDetails() public view returns (voter[] memory) {\r\n        voter[] memory allVoterDetails = new voter[](voterCount);\r\n        for (uint256 i = 0; i < voterCount; i++) {\r\n            allVoterDetails[i] = voterDetails[voters[i]];\r\n        }\r\n        return allVoterDetails;\r\n    }\r\n\r\n    function getVoterDetails(address voterAddress) public view returns (voter memory){\r\n        return voterDetails[voterAddress];\r\n    }\r\n\r\n    /*------------------------ Voter Handlers --------------------------- */\r\n\r\n    function addVoterDetails(\r\n        string memory _username,\r\n        string memory _email,\r\n        string memory _password\r\n    ) public {\r\n        voter memory newVoter = voter({\r\n            username: _username,\r\n            email: _email,\r\n            password: _password,\r\n            voterAddress: msg.sender,\r\n            prn: \"\",\r\n            mobile: \"\",\r\n            votesCount: 0,\r\n            isVerified: false,\r\n            hasVoted: false,\r\n            hasApplied: false,\r\n            isCandidate: false,\r\n            // isDenied: false,\r\n            // deniedFor: \"\",\r\n            tagLine: \"\"\r\n        });\r\n        voterDetails[msg.sender] = newVoter;\r\n        voterCount++;\r\n        voters.push(msg.sender);\r\n    }\r\n\r\n    function isVoterExists(address voterAddress, string memory mail) public view returns (bool) {\r\n        //Loop through voters array\r\n        for (uint256 i = 0; i < voters.length; i++) {\r\n            if ((voterAddress) == voters[i] ||\r\n                (keccak256(bytes(mail)) == keccak256(bytes(voterDetails[voters[i]].email)))){\r\n                return true;\r\n            }\r\n        }\r\n        return false;\r\n    }\r\n\r\n    function getLoginDetails(address loginAddress)\r\n        public\r\n        view\r\n        returns (\r\n            string memory,\r\n            string memory,\r\n            address,\r\n            string memory,\r\n            bool\r\n        )\r\n    {\r\n        return (\r\n            voterDetails[loginAddress].email,\r\n            voterDetails[loginAddress].password,\r\n            voterDetails[loginAddress].voterAddress,\r\n            voterDetails[loginAddress].username,\r\n            voterDetails[loginAddress].isVerified\r\n        );\r\n    }\r\n\r\n    /*------------------------ Election Handlers --------------------------- */\r\n\r\n    function getAdmin() public view returns (address) {\r\n        // Returns account address used to deploy contract (i.e. admin)\r\n        return admin;\r\n    }\r\n\r\n    // Get election isElectionStarted and isElectionEnded values\r\n    function getStart() public view returns (bool) {\r\n        return isElectionStarted;\r\n    }\r\n\r\n    function getEnd() public view returns (bool) {\r\n        return isElectionEnded;\r\n    }\r\n\r\n    function changeElectionPhase() public {\r\n        electionPhaseIndex = (electionPhaseIndex + 1) % electionPhases.length;\r\n        currentElectionPhase = electionPhases[electionPhaseIndex];\r\n        nextElectionPhase = electionPhases[\r\n            (electionPhaseIndex + 1) % electionPhases.length\r\n        ];\r\n        if (electionPhaseIndex == electionPhases.length - 1) {\r\n            isElectionEnded = true;\r\n        }\r\n    }\r\n\r\n    function getElectionDetails()\r\n        public\r\n        view\r\n        returns (\r\n            bool,\r\n            bool,\r\n            string memory,\r\n            string memory,\r\n            string memory,\r\n            string memory\r\n        )\r\n    {\r\n        return (\r\n            isElectionStarted,\r\n            isElectionEnded,\r\n            electionTitle,\r\n            electionOrganization,\r\n            currentElectionPhase,\r\n            nextElectionPhase\r\n        );\r\n    }\r\n\r\n    function startElection(\r\n        string memory _electionTitle,\r\n        string memory _electionOrganization\r\n    ) public {\r\n        isElectionStarted = true;\r\n        electionTitle = _electionTitle;\r\n        electionOrganization = _electionOrganization;\r\n        changeElectionPhase();\r\n    }\r\n\r\n    /*------------------------ Voting Handlers --------------------------- */\r\n\r\n    function addVote(address voterAddress, address candidateAddress) public {\r\n        voterDetails[voterAddress].hasVoted = true;\r\n        voterDetails[candidateAddress].votesCount++;\r\n    }\r\n\r\n    function hasVoted(address voterAddress) public view returns (bool) {\r\n        return voterDetails[voterAddress].hasVoted;\r\n    }\r\n}\r\n",
  "sourcePath": "C:\\Users\\saura\\Desktop\\Pooja\\Voting-system-using-Blockchain\\contracts\\Election.sol",
  "compiler": {
    "name": "solc",
    "version": "0.5.16+commit.9c3226ce.Emscripten.clang"
  },
  "schemaVersion": "3.4.6",
  "updatedAt": "2022-05-10T06:31:05.583Z",
  "networkType": "ethereum",
  "devdoc": {
    "methods": {}
  },
  "userdoc": {
    "methods": {}
  }
}