{
  "contractName": "Election",
  "abi": [
    {
      "inputs": [],
      "payable": false,
      "stateMutability": "nonpayable",
      "type": "constructor"
    },
    {
      "constant": true,
      "inputs": [],
      "name": "admin",
      "outputs": [
        {
          "internalType": "address",
          "name": "",
          "type": "address"
        }
      ],
      "payable": false,
      "stateMutability": "view",
      "type": "function"
    },
    {
      "constant": true,
      "inputs": [
        {
          "internalType": "uint256",
          "name": "",
          "type": "uint256"
        }
      ],
      "name": "electionPhases",
      "outputs": [
        {
          "internalType": "string",
          "name": "",
          "type": "string"
        }
      ],
      "payable": false,
      "stateMutability": "view",
      "type": "function"
    },
    {
      "constant": true,
      "inputs": [
        {
          "internalType": "address",
          "name": "",
          "type": "address"
        }
      ],
      "name": "voterDetails",
      "outputs": [
        {
          "internalType": "string",
          "name": "username",
          "type": "string"
        },
        {
          "internalType": "string",
          "name": "email",
          "type": "string"
        },
        {
          "internalType": "string",
          "name": "password",
          "type": "string"
        },
        {
          "internalType": "string",
          "name": "prn",
          "type": "string"
        },
        {
          "internalType": "string",
          "name": "mobile",
          "type": "string"
        },
        {
          "internalType": "address",
          "name": "voterAddress",
          "type": "address"
        },
        {
          "internalType": "bool",
          "name": "isVerified",
          "type": "bool"
        },
        {
          "internalType": "bool",
          "name": "hasVoted",
          "type": "bool"
        },
        {
          "internalType": "bool",
          "name": "hasApplied",
          "type": "bool"
        },
        {
          "internalType": "bool",
          "name": "isCandidate",
          "type": "bool"
        },
        {
          "internalType": "string",
          "name": "tagLine",
          "type": "string"
        },
        {
          "internalType": "uint256",
          "name": "votesCount",
          "type": "uint256"
        }
      ],
      "payable": false,
      "stateMutability": "view",
      "type": "function"
    },
    {
      "constant": true,
      "inputs": [
        {
          "internalType": "uint256",
          "name": "",
          "type": "uint256"
        }
      ],
      "name": "voters",
      "outputs": [
        {
          "internalType": "address",
          "name": "",
          "type": "address"
        }
      ],
      "payable": false,
      "stateMutability": "view",
      "type": "function"
    },
    {
      "constant": false,
      "inputs": [
        {
          "internalType": "address",
          "name": "pendingVoterAddress",
          "type": "address"
        },
        {
          "internalType": "string",
          "name": "_prn",
          "type": "string"
        },
        {
          "internalType": "string",
          "name": "_mobile",
          "type": "string"
        }
      ],
      "name": "addVerificationRequest",
      "outputs": [],
      "payable": false,
      "stateMutability": "nonpayable",
      "type": "function"
    },
    {
      "constant": false,
      "inputs": [
        {
          "internalType": "address",
          "name": "pendingVoterAddress",
          "type": "address"
        }
      ],
      "name": "approveVerificationRequests",
      "outputs": [],
      "payable": false,
      "stateMutability": "nonpayable",
      "type": "function"
    },
    {
      "constant": false,
      "inputs": [
        {
          "internalType": "address",
          "name": "pendingVoterAddress",
          "type": "address"
        },
        {
          "internalType": "string",
          "name": "_tagLine",
          "type": "string"
        }
      ],
      "name": "addCandidateRequest",
      "outputs": [],
      "payable": false,
      "stateMutability": "nonpayable",
      "type": "function"
    },
    {
      "constant": false,
      "inputs": [
        {
          "internalType": "address",
          "name": "pendingVoterAddress",
          "type": "address"
        }
      ],
      "name": "approveCandidateRequests",
      "outputs": [],
      "payable": false,
      "stateMutability": "nonpayable",
      "type": "function"
    },
    {
      "constant": true,
      "inputs": [],
      "name": "getAllVoterDetails",
      "outputs": [
        {
          "components": [
            {
              "internalType": "string",
              "name": "username",
              "type": "string"
            },
            {
              "internalType": "string",
              "name": "email",
              "type": "string"
            },
            {
              "internalType": "string",
              "name": "password",
              "type": "string"
            },
            {
              "internalType": "string",
              "name": "prn",
              "type": "string"
            },
            {
              "internalType": "string",
              "name": "mobile",
              "type": "string"
            },
            {
              "internalType": "address",
              "name": "voterAddress",
              "type": "address"
            },
            {
              "internalType": "bool",
              "name": "isVerified",
              "type": "bool"
            },
            {
              "internalType": "bool",
              "name": "hasVoted",
              "type": "bool"
            },
            {
              "internalType": "bool",
              "name": "hasApplied",
              "type": "bool"
            },
            {
              "internalType": "bool",
              "name": "isCandidate",
              "type": "bool"
            },
            {
              "internalType": "string",
              "name": "tagLine",
              "type": "string"
            },
            {
              "internalType": "uint256",
              "name": "votesCount",
              "type": "uint256"
            }
          ],
          "internalType": "struct Election.voter[]",
          "name": "",
          "type": "tuple[]"
        }
      ],
      "payable": false,
      "stateMutability": "view",
      "type": "function"
    },
    {
      "constant": false,
      "inputs": [
        {
          "internalType": "string",
          "name": "_username",
          "type": "string"
        },
        {
          "internalType": "string",
          "name": "_email",
          "type": "string"
        },
        {
          "internalType": "string",
          "name": "_password",
          "type": "string"
        }
      ],
      "name": "addVoterDetails",
      "outputs": [],
      "payable": false,
      "stateMutability": "nonpayable",
      "type": "function"
    },
    {
      "constant": true,
      "inputs": [
        {
          "internalType": "address",
          "name": "voterAddress",
          "type": "address"
        }
      ],
      "name": "isVoterExists",
      "outputs": [
        {
          "internalType": "bool",
          "name": "",
          "type": "bool"
        }
      ],
      "payable": false,
      "stateMutability": "view",
      "type": "function"
    },
    {
      "constant": true,
      "inputs": [
        {
          "internalType": "address",
          "name": "loginAddress",
          "type": "address"
        }
      ],
      "name": "getLoginDetails",
      "outputs": [
        {
          "internalType": "string",
          "name": "",
          "type": "string"
        },
        {
          "internalType": "string",
          "name": "",
          "type": "string"
        },
        {
          "internalType": "address",
          "name": "",
          "type": "address"
        },
        {
          "internalType": "string",
          "name": "",
          "type": "string"
        },
        {
          "internalType": "bool",
          "name": "",
          "type": "bool"
        }
      ],
      "payable": false,
      "stateMutability": "view",
      "type": "function"
    },
    {
      "constant": true,
      "inputs": [],
      "name": "getAdmin",
      "outputs": [
        {
          "internalType": "address",
          "name": "",
          "type": "address"
        }
      ],
      "payable": false,
      "stateMutability": "view",
      "type": "function"
    },
    {
      "constant": true,
      "inputs": [],
      "name": "getStart",
      "outputs": [
        {
          "internalType": "bool",
          "name": "",
          "type": "bool"
        }
      ],
      "payable": false,
      "stateMutability": "view",
      "type": "function"
    },
    {
      "constant": true,
      "inputs": [],
      "name": "getEnd",
      "outputs": [
        {
          "internalType": "bool",
          "name": "",
          "type": "bool"
        }
      ],
      "payable": false,
      "stateMutability": "view",
      "type": "function"
    },
    {
      "constant": false,
      "inputs": [],
      "name": "changeElectionPhase",
      "outputs": [],
      "payable": false,
      "stateMutability": "nonpayable",
      "type": "function"
    },
    {
      "constant": true,
      "inputs": [],
      "name": "getElectionDetails",
      "outputs": [
        {
          "internalType": "bool",
          "name": "",
          "type": "bool"
        },
        {
          "internalType": "bool",
          "name": "",
          "type": "bool"
        },
        {
          "internalType": "string",
          "name": "",
          "type": "string"
        },
        {
          "internalType": "string",
          "name": "",
          "type": "string"
        },
        {
          "internalType": "string",
          "name": "",
          "type": "string"
        },
        {
          "internalType": "string",
          "name": "",
          "type": "string"
        }
      ],
      "payable": false,
      "stateMutability": "view",
      "type": "function"
    },
    {
      "constant": false,
      "inputs": [
        {
          "internalType": "string",
          "name": "_electionTitle",
          "type": "string"
        },
        {
          "internalType": "string",
          "name": "_electionOrganization",
          "type": "string"
        }
      ],
      "name": "startElection",
      "outputs": [],
      "payable": false,
      "stateMutability": "nonpayable",
      "type": "function"
    },
    {
      "constant": false,
      "inputs": [
        {
          "internalType": "address",
          "name": "voterAddress",
          "type": "address"
        },
        {
          "internalType": "address",
          "name": "candidateAddress",
          "type": "address"
        }
      ],
      "name": "addVote",
      "outputs": [],
      "payable": false,
      "stateMutability": "nonpayable",
      "type": "function"
    },
    {
      "constant": true,
      "inputs": [
        {
          "internalType": "address",
          "name": "voterAddress",
          "type": "address"
        }
      ],
      "name": "hasVoted",
      "outputs": [
        {
          "internalType": "bool",
          "name": "",
          "type": "bool"
        }
      ],
      "payable": false,
      "stateMutability": "view",
      "type": "function"
    }
  ],
  "bytecode": "0x60806040523480156200001157600080fd5b50336000806101000a81548173ffffffffffffffffffffffffffffffffffffffff021916908373ffffffffffffffffffffffffffffffffffffffff160217905550600060018190555060006002819055506000600360006101000a81548160ff0219169083151502179055506000600360016101000a81548160ff0219169083151502179055506040518060200160405280600081525060049080519060200190620000bf929190620002b8565b506040518060200160405280600081525060059080519060200190620000e7929190620002b8565b5060006008819055506040518060a001604052806040518060400160405280600481526020017f4e6f6e650000000000000000000000000000000000000000000000000000000081525081526020016040518060400160405280600c81526020017f526567697374726174696f6e000000000000000000000000000000000000000081525081526020016040518060400160405280601481526020017f4170706c7920617320612043616e64696461746500000000000000000000000081525081526020016040518060400160405280600681526020017f566f74696e67000000000000000000000000000000000000000000000000000081525081526020016040518060400160405280600681526020017f526573756c7400000000000000000000000000000000000000000000000000008152508152506009906005620002329291906200033f565b506009600854815481106200024357fe5b906000526020600020016006908054600181600116156101000203166002900462000270929190620003a6565b506009600160085401815481106200028457fe5b9060005260206000200160079080546001816001161561010002031660029004620002b1929190620003a6565b5062000560565b828054600181600116156101000203166002900490600052602060002090601f016020900481019282601f10620002fb57805160ff19168380011785556200032c565b828001600101855582156200032c579182015b828111156200032b5782518255916020019190600101906200030e565b5b5090506200033b919062000434565b5090565b82805482825590600052602060002090810192821562000393579160200282015b8281111562000392578251829080519060200190620003819291906200045c565b509160200191906001019062000360565b5b509050620003a29190620004e3565b5090565b828054600181600116156101000203166002900490600052602060002090601f016020900481019282601f10620003e1578054855562000421565b828001600101855582156200042157600052602060002091601f016020900482015b828111156200042057825482559160010191906001019062000403565b5b50905062000430919062000434565b5090565b6200045991905b80821115620004555760008160009055506001016200043b565b5090565b90565b828054600181600116156101000203166002900490600052602060002090601f016020900481019282601f106200049f57805160ff1916838001178555620004d0565b82800160010185558215620004d0579182015b82811115620004cf578251825591602001919060010190620004b2565b5b509050620004df919062000434565b5090565b6200051191905b808211156200050d576000818162000503919062000514565b50600101620004ea565b5090565b90565b50805460018160011615610100020316600290046000825580601f106200053c57506200055d565b601f0160209004906000526020600020908101906200055c919062000434565b5b50565b612aa380620005706000396000f3fe608060405234801561001057600080fd5b506004361061012c5760003560e01c8063917addbd116100ad578063c5292c6711610071578063c5292c671461033c578063c8eb9ef11461035a578063da58c7d914610376578063ed836bc3146103a6578063f851a440146103c95761012c565b8063917addbd146102ac57806392bcab34146102c85780639f05a36d146102e6578063a65b8f3b14610304578063ba51d32b146103205761012c565b80633d09c2a8116100f45780633d09c2a8146101e75780635938750d146102035780635cc2d13f1461023e5780636e9960c31461025a5780637691e990146102785761012c565b806303087c391461013157806309eef43e1461014d57806319f017b71461017d57806328dc4182146101ad578063316b018d146101dd575b600080fd5b61014b600480360361014691908101906121d6565b6103e7565b005b61016760048036036101629190810190612171565b61049d565b60405161017491906126c7565b60405180910390f35b610197600480360361019291908101906123ac565b6104f6565b6040516101a4919061275f565b60405180910390f35b6101c760048036036101c29190810190612171565b6105af565b6040516101d491906126c7565b60405180910390f35b6101e5610651565b005b61020160048036036101fc919081019061219a565b610721565b005b61021d60048036036102189190810190612171565b6107d2565b6040516102359c9b9a999897969594939291906127e9565b60405180910390f35b61025860048036036102539190810190612315565b610c16565b005b610262610f06565b60405161026f919061268a565b60405180910390f35b610292600480360361028d9190810190612171565b610f2f565b6040516102a3959493929190612781565b60405180910390f35b6102c660048036036102c191908101906122a9565b611298565b005b6102d06112ed565b6040516102dd91906126a5565b60405180910390f35b6102ee611885565b6040516102fb91906126c7565b60405180910390f35b61031e6004803603610319919081019061222a565b61189c565b005b61033a60048036036103359190810190612171565b6119aa565b005b610344611a63565b60405161035191906126c7565b60405180910390f35b610374600480360361036f9190810190612171565b611a7a565b005b610390600480360361038b91908101906123ac565b611b33565b60405161039d919061268a565b60405180910390f35b6103ae611b6f565b6040516103c0969594939291906126e2565b60405180910390f35b6103d1611e24565b6040516103de919061268a565b60405180910390f35b6001600a60008473ffffffffffffffffffffffffffffffffffffffff1673ffffffffffffffffffffffffffffffffffffffff16815260200190815260200160002060050160166101000a81548160ff02191690831515021790555080600a60008473ffffffffffffffffffffffffffffffffffffffff1673ffffffffffffffffffffffffffffffffffffffff1681526020019081526020016000206006019080519060200190610498929190611e49565b505050565b6000600a60008373ffffffffffffffffffffffffffffffffffffffff1673ffffffffffffffffffffffffffffffffffffffff16815260200190815260200160002060050160159054906101000a900460ff169050919050565b6009818154811061050357fe5b906000526020600020016000915090508054600181600116156101000203166002900480601f0160208091040260200160405190810160405280929190818152602001828054600181600116156101000203166002900480156105a75780601f1061057c576101008083540402835291602001916105a7565b820191906000526020600020905b81548152906001019060200180831161058a57829003601f168201915b505050505081565b600080600090505b600b8054905081101561064657600b81815481106105d157fe5b9060005260206000200160009054906101000a900473ffffffffffffffffffffffffffffffffffffffff1673ffffffffffffffffffffffffffffffffffffffff168373ffffffffffffffffffffffffffffffffffffffff16141561063957600191505061064c565b80806001019150506105b7565b50600090505b919050565b6009805490506001600854018161066457fe5b0660088190555060096008548154811061067a57fe5b90600052602060002001600690805460018160011615610100020316600290046106a5929190611ec9565b5060098080549050600160085401816106ba57fe5b06815481106106c557fe5b90600052602060002001600790805460018160011615610100020316600290046106f0929190611ec9565b50600160098054905003600854141561071f576001600360016101000a81548160ff0219169083151502179055505b565b6001600a60008473ffffffffffffffffffffffffffffffffffffffff1673ffffffffffffffffffffffffffffffffffffffff16815260200190815260200160002060050160156101000a81548160ff021916908315150217905550600a60008273ffffffffffffffffffffffffffffffffffffffff1673ffffffffffffffffffffffffffffffffffffffff168152602001908152602001600020600701600081548092919060010191905055505050565b600a602052806000526040600020600091509050806000018054600181600116156101000203166002900480601f01602080910402602001604051908101604052809291908181526020018280546001816001161561010002031660029004801561087e5780601f106108535761010080835404028352916020019161087e565b820191906000526020600020905b81548152906001019060200180831161086157829003601f168201915b505050505090806001018054600181600116156101000203166002900480601f01602080910402602001604051908101604052809291908181526020018280546001816001161561010002031660029004801561091c5780601f106108f15761010080835404028352916020019161091c565b820191906000526020600020905b8154815290600101906020018083116108ff57829003601f168201915b505050505090806002018054600181600116156101000203166002900480601f0160208091040260200160405190810160405280929190818152602001828054600181600116156101000203166002900480156109ba5780601f1061098f576101008083540402835291602001916109ba565b820191906000526020600020905b81548152906001019060200180831161099d57829003601f168201915b505050505090806003018054600181600116156101000203166002900480601f016020809104026020016040519081016040528092919081815260200182805460018160011615610100020316600290048015610a585780601f10610a2d57610100808354040283529160200191610a58565b820191906000526020600020905b815481529060010190602001808311610a3b57829003601f168201915b505050505090806004018054600181600116156101000203166002900480601f016020809104026020016040519081016040528092919081815260200182805460018160011615610100020316600290048015610af65780601f10610acb57610100808354040283529160200191610af6565b820191906000526020600020905b815481529060010190602001808311610ad957829003601f168201915b5050505050908060050160009054906101000a900473ffffffffffffffffffffffffffffffffffffffff16908060050160149054906101000a900460ff16908060050160159054906101000a900460ff16908060050160169054906101000a900460ff16908060050160179054906101000a900460ff1690806006018054600181600116156101000203166002900480601f016020809104026020016040519081016040528092919081815260200182805460018160011615610100020316600290048015610c065780601f10610bdb57610100808354040283529160200191610c06565b820191906000526020600020905b815481529060010190602001808311610be957829003601f168201915b505050505090806007015490508c565b610c1e611f50565b6040518061018001604052808581526020018481526020018381526020016040518060200160405280600081525081526020016040518060200160405280600081525081526020013373ffffffffffffffffffffffffffffffffffffffff1681526020016000151581526020016000151581526020016000151581526020016000151581526020016040518060200160405280600081525081526020016000815250905080600a60003373ffffffffffffffffffffffffffffffffffffffff1673ffffffffffffffffffffffffffffffffffffffff1681526020019081526020016000206000820151816000019080519060200190610d1e929190611fcf565b506020820151816001019080519060200190610d3b929190611fcf565b506040820151816002019080519060200190610d58929190611fcf565b506060820151816003019080519060200190610d75929190611fcf565b506080820151816004019080519060200190610d92929190611fcf565b5060a08201518160050160006101000a81548173ffffffffffffffffffffffffffffffffffffffff021916908373ffffffffffffffffffffffffffffffffffffffff16021790555060c08201518160050160146101000a81548160ff02191690831515021790555060e08201518160050160156101000a81548160ff0219169083151502179055506101008201518160050160166101000a81548160ff0219169083151502179055506101208201518160050160176101000a81548160ff021916908315150217905550610140820151816006019080519060200190610e79929190611fcf565b506101608201518160070155905050600260008154809291906001019190505550600b3390806001815401808255809150509060018203906000526020600020016000909192909190916101000a81548173ffffffffffffffffffffffffffffffffffffffff021916908373ffffffffffffffffffffffffffffffffffffffff1602179055505050505050565b60008060009054906101000a900473ffffffffffffffffffffffffffffffffffffffff16905090565b606080600060606000600a60008773ffffffffffffffffffffffffffffffffffffffff1673ffffffffffffffffffffffffffffffffffffffff168152602001908152602001600020600101600a60008873ffffffffffffffffffffffffffffffffffffffff1673ffffffffffffffffffffffffffffffffffffffff168152602001908152602001600020600201600a60008973ffffffffffffffffffffffffffffffffffffffff1673ffffffffffffffffffffffffffffffffffffffff16815260200190815260200160002060050160009054906101000a900473ffffffffffffffffffffffffffffffffffffffff16600a60008a73ffffffffffffffffffffffffffffffffffffffff1673ffffffffffffffffffffffffffffffffffffffff168152602001908152602001600020600001600a60008b73ffffffffffffffffffffffffffffffffffffffff1673ffffffffffffffffffffffffffffffffffffffff16815260200190815260200160002060050160149054906101000a900460ff16848054600181600116156101000203166002900480601f0160208091040260200160405190810160405280929190818152602001828054600181600116156101000203166002900480156111465780601f1061111b57610100808354040283529160200191611146565b820191906000526020600020905b81548152906001019060200180831161112957829003601f168201915b50505050509450838054600181600116156101000203166002900480601f0160208091040260200160405190810160405280929190818152602001828054600181600116156101000203166002900480156111e25780601f106111b7576101008083540402835291602001916111e2565b820191906000526020600020905b8154815290600101906020018083116111c557829003601f168201915b50505050509350818054600181600116156101000203166002900480601f01602080910402602001604051908101604052809291908181526020018280546001816001161561010002031660029004801561127e5780601f106112535761010080835404028352916020019161127e565b820191906000526020600020905b81548152906001019060200180831161126157829003601f168201915b505050505091509450945094509450945091939590929450565b6001600360006101000a81548160ff02191690831515021790555081600490805190602001906112c9929190611e49565b5080600590805190602001906112e0929190611e49565b506112e9610651565b5050565b60608060025460405190808252806020026020018201604052801561132c57816020015b61131961204f565b8152602001906001900390816113115790505b50905060008090505b60025481101561187d57600a6000600b838154811061135057fe5b9060005260206000200160009054906101000a900473ffffffffffffffffffffffffffffffffffffffff1673ffffffffffffffffffffffffffffffffffffffff1673ffffffffffffffffffffffffffffffffffffffff16815260200190815260200160002060405180610180016040529081600082018054600181600116156101000203166002900480601f01602080910402602001604051908101604052809291908181526020018280546001816001161561010002031660029004801561145a5780601f1061142f5761010080835404028352916020019161145a565b820191906000526020600020905b81548152906001019060200180831161143d57829003601f168201915b50505050508152602001600182018054600181600116156101000203166002900480601f0160208091040260200160405190810160405280929190818152602001828054600181600116156101000203166002900480156114fc5780601f106114d1576101008083540402835291602001916114fc565b820191906000526020600020905b8154815290600101906020018083116114df57829003601f168201915b50505050508152602001600282018054600181600116156101000203166002900480601f01602080910402602001604051908101604052809291908181526020018280546001816001161561010002031660029004801561159e5780601f106115735761010080835404028352916020019161159e565b820191906000526020600020905b81548152906001019060200180831161158157829003601f168201915b50505050508152602001600382018054600181600116156101000203166002900480601f0160208091040260200160405190810160405280929190818152602001828054600181600116156101000203166002900480156116405780601f1061161557610100808354040283529160200191611640565b820191906000526020600020905b81548152906001019060200180831161162357829003601f168201915b50505050508152602001600482018054600181600116156101000203166002900480601f0160208091040260200160405190810160405280929190818152602001828054600181600116156101000203166002900480156116e25780601f106116b7576101008083540402835291602001916116e2565b820191906000526020600020905b8154815290600101906020018083116116c557829003601f168201915b505050505081526020016005820160009054906101000a900473ffffffffffffffffffffffffffffffffffffffff1673ffffffffffffffffffffffffffffffffffffffff1673ffffffffffffffffffffffffffffffffffffffff1681526020016005820160149054906101000a900460ff161515151581526020016005820160159054906101000a900460ff161515151581526020016005820160169054906101000a900460ff161515151581526020016005820160179054906101000a900460ff16151515158152602001600682018054600181600116156101000203166002900480601f0160208091040260200160405190810160405280929190818152602001828054600181600116156101000203166002900480156118465780601f1061181b57610100808354040283529160200191611846565b820191906000526020600020905b81548152906001019060200180831161182957829003601f168201915b5050505050815260200160078201548152505082828151811061186557fe5b60200260200101819052508080600101915050611335565b508091505090565b6000600360019054906101000a900460ff16905090565b6001600a60008573ffffffffffffffffffffffffffffffffffffffff1673ffffffffffffffffffffffffffffffffffffffff16815260200190815260200160002060050160166101000a81548160ff02191690831515021790555081600a60008573ffffffffffffffffffffffffffffffffffffffff1673ffffffffffffffffffffffffffffffffffffffff168152602001908152602001600020600301908051906020019061194d929190611e49565b5080600a60008573ffffffffffffffffffffffffffffffffffffffff1673ffffffffffffffffffffffffffffffffffffffff16815260200190815260200160002060040190805190602001906119a4929190611e49565b50505050565b6000600a60008373ffffffffffffffffffffffffffffffffffffffff1673ffffffffffffffffffffffffffffffffffffffff16815260200190815260200160002060050160166101000a81548160ff0219169083151502179055506001600a60008373ffffffffffffffffffffffffffffffffffffffff1673ffffffffffffffffffffffffffffffffffffffff16815260200190815260200160002060050160146101000a81548160ff02191690831515021790555050565b6000600360009054906101000a900460ff16905090565b6000600a60008373ffffffffffffffffffffffffffffffffffffffff1673ffffffffffffffffffffffffffffffffffffffff16815260200190815260200160002060050160166101000a81548160ff0219169083151502179055506001600a60008373ffffffffffffffffffffffffffffffffffffffff1673ffffffffffffffffffffffffffffffffffffffff16815260200190815260200160002060050160176101000a81548160ff02191690831515021790555050565b600b8181548110611b4057fe5b906000526020600020016000915054906101000a900473ffffffffffffffffffffffffffffffffffffffff1681565b600080606080606080600360009054906101000a900460ff16600360019054906101000a900460ff166004600560066007838054600181600116156101000203166002900480601f016020809104026020016040519081016040528092919081815260200182805460018160011615610100020316600290048015611c355780601f10611c0a57610100808354040283529160200191611c35565b820191906000526020600020905b815481529060010190602001808311611c1857829003601f168201915b50505050509350828054600181600116156101000203166002900480601f016020809104026020016040519081016040528092919081815260200182805460018160011615610100020316600290048015611cd15780601f10611ca657610100808354040283529160200191611cd1565b820191906000526020600020905b815481529060010190602001808311611cb457829003601f168201915b50505050509250818054600181600116156101000203166002900480601f016020809104026020016040519081016040528092919081815260200182805460018160011615610100020316600290048015611d6d5780601f10611d4257610100808354040283529160200191611d6d565b820191906000526020600020905b815481529060010190602001808311611d5057829003601f168201915b50505050509150808054600181600116156101000203166002900480601f016020809104026020016040519081016040528092919081815260200182805460018160011615610100020316600290048015611e095780601f10611dde57610100808354040283529160200191611e09565b820191906000526020600020905b815481529060010190602001808311611dec57829003601f168201915b50505050509050955095509550955095509550909192939495565b6000809054906101000a900473ffffffffffffffffffffffffffffffffffffffff1681565b828054600181600116156101000203166002900490600052602060002090601f016020900481019282601f10611e8a57805160ff1916838001178555611eb8565b82800160010185558215611eb8579182015b82811115611eb7578251825591602001919060010190611e9c565b5b509050611ec591906120ce565b5090565b828054600181600116156101000203166002900490600052602060002090601f016020900481019282601f10611f025780548555611f3f565b82800160010185558215611f3f57600052602060002091601f016020900482015b82811115611f3e578254825591600101919060010190611f23565b5b509050611f4c91906120ce565b5090565b6040518061018001604052806060815260200160608152602001606081526020016060815260200160608152602001600073ffffffffffffffffffffffffffffffffffffffff16815260200160001515815260200160001515815260200160001515815260200160001515815260200160608152602001600081525090565b828054600181600116156101000203166002900490600052602060002090601f016020900481019282601f1061201057805160ff191683800117855561203e565b8280016001018555821561203e579182015b8281111561203d578251825591602001919060010190612022565b5b50905061204b91906120ce565b5090565b6040518061018001604052806060815260200160608152602001606081526020016060815260200160608152602001600073ffffffffffffffffffffffffffffffffffffffff16815260200160001515815260200160001515815260200160001515815260200160001515815260200160608152602001600081525090565b6120f091905b808211156120ec5760008160009055506001016120d4565b5090565b90565b60008135905061210281612a32565b92915050565b600082601f83011261211957600080fd5b813561212c612127826128fa565b6128cd565b9150808252602083016020830185838301111561214857600080fd5b6121538382846129df565b50505092915050565b60008135905061216b81612a49565b92915050565b60006020828403121561218357600080fd5b6000612191848285016120f3565b91505092915050565b600080604083850312156121ad57600080fd5b60006121bb858286016120f3565b92505060206121cc858286016120f3565b9150509250929050565b600080604083850312156121e957600080fd5b60006121f7858286016120f3565b925050602083013567ffffffffffffffff81111561221457600080fd5b61222085828601612108565b9150509250929050565b60008060006060848603121561223f57600080fd5b600061224d868287016120f3565b935050602084013567ffffffffffffffff81111561226a57600080fd5b61227686828701612108565b925050604084013567ffffffffffffffff81111561229357600080fd5b61229f86828701612108565b9150509250925092565b600080604083850312156122bc57600080fd5b600083013567ffffffffffffffff8111156122d657600080fd5b6122e285828601612108565b925050602083013567ffffffffffffffff8111156122ff57600080fd5b61230b85828601612108565b9150509250929050565b60008060006060848603121561232a57600080fd5b600084013567ffffffffffffffff81111561234457600080fd5b61235086828701612108565b935050602084013567ffffffffffffffff81111561236d57600080fd5b61237986828701612108565b925050604084013567ffffffffffffffff81111561239657600080fd5b6123a286828701612108565b9150509250925092565b6000602082840312156123be57600080fd5b60006123cc8482850161215c565b91505092915050565b60006123e18383612545565b905092915050565b6123f281612997565b82525050565b61240181612997565b82525050565b600061241282612936565b61241c8185612964565b93508360208202850161242e85612926565b8060005b8581101561246a578484038952815161244b85826123d5565b945061245683612957565b925060208a01995050600181019050612432565b50829750879550505050505092915050565b612485816129a9565b82525050565b612494816129a9565b82525050565b60006124a58261294c565b6124af8185612986565b93506124bf8185602086016129ee565b6124c881612a21565b840191505092915050565b60006124de82612941565b6124e88185612975565b93506124f88185602086016129ee565b61250181612a21565b840191505092915050565b600061251782612941565b6125218185612986565b93506125318185602086016129ee565b61253a81612a21565b840191505092915050565b600061018083016000830151848203600086015261256382826124d3565b9150506020830151848203602086015261257d82826124d3565b9150506040830151848203604086015261259782826124d3565b915050606083015184820360608601526125b182826124d3565b915050608083015184820360808601526125cb82826124d3565b91505060a08301516125e060a08601826123e9565b5060c08301516125f360c086018261247c565b5060e083015161260660e086018261247c565b5061010083015161261b61010086018261247c565b5061012083015161263061012086018261247c565b5061014083015184820361014086015261264a82826124d3565b91505061016083015161266161016086018261266c565b508091505092915050565b612675816129d5565b82525050565b612684816129d5565b82525050565b600060208201905061269f60008301846123f8565b92915050565b600060208201905081810360008301526126bf8184612407565b905092915050565b60006020820190506126dc600083018461248b565b92915050565b600060c0820190506126f7600083018961248b565b612704602083018861248b565b8181036040830152612716818761249a565b9050818103606083015261272a818661249a565b9050818103608083015261273e818561249a565b905081810360a0830152612752818461249a565b9050979650505050505050565b60006020820190508181036000830152612779818461250c565b905092915050565b600060a082019050818103600083015261279b818861249a565b905081810360208301526127af818761249a565b90506127be60408301866123f8565b81810360608301526127d0818561249a565b90506127df608083018461248b565b9695505050505050565b6000610180820190508181036000830152612804818f61250c565b90508181036020830152612818818e61250c565b9050818103604083015261282c818d61250c565b90508181036060830152612840818c61250c565b90508181036080830152612854818b61250c565b905061286360a083018a6123f8565b61287060c083018961248b565b61287d60e083018861248b565b61288b61010083018761248b565b61289961012083018661248b565b8181036101408301526128ac818561250c565b90506128bc61016083018461267b565b9d9c50505050505050505050505050565b6000604051905081810181811067ffffffffffffffff821117156128f057600080fd5b8060405250919050565b600067ffffffffffffffff82111561291157600080fd5b601f19601f8301169050602081019050919050565b6000819050602082019050919050565b600081519050919050565b600081519050919050565b600081519050919050565b6000602082019050919050565b600082825260208201905092915050565b600082825260208201905092915050565b600082825260208201905092915050565b60006129a2826129b5565b9050919050565b60008115159050919050565b600073ffffffffffffffffffffffffffffffffffffffff82169050919050565b6000819050919050565b82818337600083830152505050565b60005b83811015612a0c5780820151818401526020810190506129f1565b83811115612a1b576000848401525b50505050565b6000601f19601f8301169050919050565b612a3b81612997565b8114612a4657600080fd5b50565b612a52816129d5565b8114612a5d57600080fd5b5056fea365627a7a723158202ac24e314ec7f0a6e5a4c508b71fdb25dc2f07421e4a21d3373f0051eee412986c6578706572696d656e74616cf564736f6c63430005100040",
  "source": "// SPDX-License-Identifier: MIT\r\npragma solidity >=0.4.21 <0.9.0;\r\npragma experimental ABIEncoderV2;\r\n\r\ncontract Election {\r\n    address public admin;\r\n    uint256 candidateCount;\r\n    uint256 voterCount;\r\n    bool isElectionStarted;\r\n    bool isElectionEnded;\r\n    bool isVerified;\r\n    string electionTitle;\r\n    string electionOrganization;\r\n    string currentElectionPhase;\r\n    string nextElectionPhase;\r\n    uint256 electionPhaseIndex;\r\n    string[] public electionPhases;\r\n\r\n    constructor() public{\r\n        // Initilizing default values\r\n        admin = msg.sender;\r\n        candidateCount = 0;\r\n        voterCount = 0;\r\n        isElectionStarted = false;\r\n        isElectionEnded = false;\r\n        electionTitle = \"\";\r\n        electionOrganization = \"\";\r\n        electionPhaseIndex = 0;\r\n        electionPhases = [\r\n            \"None\",\r\n            \"Registration\",\r\n            \"Apply as a Candidate\",\r\n            \"Voting\",\r\n            \"Result\"\r\n        ];\r\n        currentElectionPhase = electionPhases[electionPhaseIndex];\r\n        nextElectionPhase = electionPhases[electionPhaseIndex + 1]; \r\n    }\r\n\r\n    struct voter {\r\n        string username;\r\n        string email;\r\n        string password;\r\n        string prn;\r\n        string mobile;\r\n        address voterAddress;\r\n        bool isVerified;\r\n        bool hasVoted;\r\n        bool hasApplied;\r\n        bool isCandidate;\r\n        string tagLine;\r\n        uint256 votesCount;\r\n    }\r\n\r\n    mapping(address => voter) public voterDetails;\r\n    address[] public voters; // Array of address to store address of voters\r\n\r\n\r\n    /*------------------------ Voter Verification --------------------------- */\r\n\r\n    // Update verification details\r\n    function addVerificationRequest(address pendingVoterAddress, string memory _prn, string memory _mobile) public{\r\n        voterDetails[pendingVoterAddress].hasApplied = true;\r\n        voterDetails[pendingVoterAddress].prn = _prn;\r\n        voterDetails[pendingVoterAddress].mobile = _mobile;\r\n    }\r\n\r\n    // Approve verification requests\r\n    function approveVerificationRequests(address pendingVoterAddress) public{\r\n        voterDetails[pendingVoterAddress].hasApplied = false;\r\n        voterDetails[pendingVoterAddress].isVerified = true;\r\n    }\r\n\r\n    // sending candidate request\r\n\r\n    function addCandidateRequest(address pendingVoterAddress, string memory _tagLine) public{\r\n        voterDetails[pendingVoterAddress].hasApplied = true;\r\n        voterDetails[pendingVoterAddress].tagLine = _tagLine;\r\n    }\r\n\r\n    // Approve candidate requests\r\n    function approveCandidateRequests(address pendingVoterAddress) public{\r\n        voterDetails[pendingVoterAddress].hasApplied = false;\r\n        voterDetails[pendingVoterAddress].isCandidate = true;\r\n    }\r\n\r\n    // Get all voter details\r\n    function getAllVoterDetails() public view returns(voter[] memory){\r\n       voter[] memory allVoterDetails = new voter[](voterCount);\r\n       for(uint i = 0; i <voterCount; i++)\r\n       {\r\n           allVoterDetails[i] =  voterDetails[voters[i]];\r\n       }\r\n       return allVoterDetails;\r\n    }\r\n\r\n    /*------------------------ Voter Handlers --------------------------- */\r\n\r\n    function addVoterDetails(\r\n        string memory _username,\r\n        string memory _email,\r\n        string memory _password\r\n    ) public {\r\n        voter memory newVoter = voter({\r\n            username: _username,\r\n            email: _email,\r\n            password: _password,\r\n            voterAddress: msg.sender,\r\n            prn: \"\",\r\n            mobile: \"\",\r\n            votesCount: 0,\r\n            isVerified: false,\r\n            hasVoted: false,\r\n            hasApplied: false,\r\n            isCandidate : false,\r\n            tagLine : \"\"\r\n        });\r\n        voterDetails[msg.sender] = newVoter;\r\n        voterCount++;\r\n        voters.push(msg.sender);\r\n    }\r\n\r\n    function isVoterExists(address voterAddress) public view returns (bool) {\r\n        //Loop through voters array\r\n        for (uint256 i = 0; i < voters.length; i++) {\r\n            if ((voterAddress) == voters[i]) {\r\n                return true;\r\n            }\r\n        }\r\n        return false;\r\n    }\r\n\r\n    function getLoginDetails(address loginAddress)\r\n        public\r\n        view\r\n        returns (\r\n            string memory,\r\n            string memory,\r\n            address,\r\n            string memory,\r\n            bool\r\n        )\r\n    {\r\n        return (\r\n            voterDetails[loginAddress].email,\r\n            voterDetails[loginAddress].password,\r\n            voterDetails[loginAddress].voterAddress,\r\n            voterDetails[loginAddress].username,\r\n            voterDetails[loginAddress].isVerified\r\n        );\r\n    }   \r\n\r\n    /*------------------------ Election Handlers --------------------------- */\r\n\r\n    function getAdmin() public view returns (address) {\r\n        // Returns account address used to deploy contract (i.e. admin)\r\n        return admin;\r\n    }\r\n\r\n    // Get election isElectionStarted and isElectionEnded values\r\n    function getStart() public view returns (bool) {\r\n        return isElectionStarted;\r\n    }\r\n\r\n    function getEnd() public view returns (bool) {\r\n        return isElectionEnded;\r\n    }\r\n\r\n    function changeElectionPhase() public {\r\n        electionPhaseIndex = (electionPhaseIndex + 1) % electionPhases.length;\r\n        currentElectionPhase = electionPhases[electionPhaseIndex];\r\n        nextElectionPhase = electionPhases[\r\n            (electionPhaseIndex + 1) % electionPhases.length\r\n        ];\r\n        if (electionPhaseIndex == electionPhases.length - 1) {\r\n            isElectionEnded = true;\r\n        }\r\n    }\r\n\r\n    function getElectionDetails()\r\n        public\r\n        view\r\n        returns (\r\n            bool,\r\n            bool,\r\n            string memory,\r\n            string memory,\r\n            string memory,\r\n            string memory\r\n        )\r\n    {\r\n        return (\r\n            isElectionStarted,\r\n            isElectionEnded,\r\n            electionTitle,\r\n            electionOrganization,\r\n            currentElectionPhase,\r\n            nextElectionPhase\r\n        );\r\n    }\r\n\r\n    function startElection(\r\n        string memory _electionTitle,\r\n        string memory _electionOrganization\r\n    ) public {\r\n        isElectionStarted = true;\r\n        electionTitle = _electionTitle;\r\n        electionOrganization = _electionOrganization;\r\n        changeElectionPhase();\r\n    }\r\n\r\n\r\n\r\n    /*------------------------ Voting Handlers --------------------------- */\r\n    \r\n    function addVote (address voterAddress, address candidateAddress) public{\r\n        voterDetails[voterAddress].hasVoted = true;\r\n        voterDetails[candidateAddress].votesCount ++;\r\n    }\r\n\r\n    function hasVoted (address voterAddress) public view returns (bool){\r\n        return voterDetails[voterAddress].hasVoted;\r\n    }\r\n\r\n}   ",
  "sourcePath": "C:\\Users\\saura\\Voting-system-using-Blockchain\\contracts\\Election.sol",
  "compiler": {
    "name": "solc",
    "version": "0.5.16+commit.9c3226ce.Emscripten.clang"
  },
  "schemaVersion": "3.4.6",
  "updatedAt": "2022-05-03T13:48:27.157Z",
  "networkType": "ethereum",
  "devdoc": {
    "methods": {}
  },
  "userdoc": {
    "methods": {}
  }
}