{
  "contractName": "Election",
  "abi": [
    {
      "inputs": [],
      "payable": false,
      "stateMutability": "nonpayable",
      "type": "constructor"
    },
    {
      "constant": true,
      "inputs": [],
      "name": "admin",
      "outputs": [
        {
          "internalType": "address",
          "name": "",
          "type": "address"
        }
      ],
      "payable": false,
      "stateMutability": "view",
      "type": "function"
    },
    {
      "constant": true,
      "inputs": [],
      "name": "electionInstance",
      "outputs": [
        {
          "internalType": "bool",
          "name": "isElectionStarted",
          "type": "bool"
        },
        {
          "internalType": "bool",
          "name": "isElectionEnded",
          "type": "bool"
        },
        {
          "internalType": "string",
          "name": "electionTitle",
          "type": "string"
        },
        {
          "internalType": "string",
          "name": "electionOrganization",
          "type": "string"
        },
        {
          "internalType": "string",
          "name": "currentElectionPhase",
          "type": "string"
        },
        {
          "internalType": "string",
          "name": "nextElectionPhase",
          "type": "string"
        },
        {
          "internalType": "uint256",
          "name": "electionPhaseIndex",
          "type": "uint256"
        }
      ],
      "payable": false,
      "stateMutability": "view",
      "type": "function"
    },
    {
      "constant": true,
      "inputs": [
        {
          "internalType": "address",
          "name": "",
          "type": "address"
        }
      ],
      "name": "voterDetails",
      "outputs": [
        {
          "internalType": "string",
          "name": "username",
          "type": "string"
        },
        {
          "internalType": "string",
          "name": "email",
          "type": "string"
        },
        {
          "internalType": "string",
          "name": "password",
          "type": "string"
        },
        {
          "internalType": "string",
          "name": "prn",
          "type": "string"
        },
        {
          "internalType": "string",
          "name": "mobile",
          "type": "string"
        },
        {
          "internalType": "address",
          "name": "voterAddress",
          "type": "address"
        },
        {
          "internalType": "uint256",
          "name": "votesCount",
          "type": "uint256"
        },
        {
          "components": [
            {
              "internalType": "bool",
              "name": "isVerified",
              "type": "bool"
            },
            {
              "internalType": "bool",
              "name": "hasVoted",
              "type": "bool"
            },
            {
              "internalType": "bool",
              "name": "hasApplied",
              "type": "bool"
            },
            {
              "internalType": "bool",
              "name": "isCandidate",
              "type": "bool"
            },
            {
              "internalType": "bool",
              "name": "isDenied",
              "type": "bool"
            },
            {
              "internalType": "string",
              "name": "tagLine",
              "type": "string"
            }
          ],
          "internalType": "struct Election.voterElectionData",
          "name": "voterElectionDetails",
          "type": "tuple"
        }
      ],
      "payable": false,
      "stateMutability": "view",
      "type": "function"
    },
    {
      "constant": true,
      "inputs": [
        {
          "internalType": "uint256",
          "name": "",
          "type": "uint256"
        }
      ],
      "name": "voters",
      "outputs": [
        {
          "internalType": "address",
          "name": "",
          "type": "address"
        }
      ],
      "payable": false,
      "stateMutability": "view",
      "type": "function"
    },
    {
      "constant": false,
      "inputs": [
        {
          "internalType": "address",
          "name": "pendingVoterAddress",
          "type": "address"
        },
        {
          "internalType": "string",
          "name": "_prn",
          "type": "string"
        },
        {
          "internalType": "string",
          "name": "_mobile",
          "type": "string"
        }
      ],
      "name": "addVerificationRequest",
      "outputs": [],
      "payable": false,
      "stateMutability": "nonpayable",
      "type": "function"
    },
    {
      "constant": false,
      "inputs": [
        {
          "internalType": "address",
          "name": "pendingVoterAddress",
          "type": "address"
        }
      ],
      "name": "approveVerificationRequests",
      "outputs": [],
      "payable": false,
      "stateMutability": "nonpayable",
      "type": "function"
    },
    {
      "constant": false,
      "inputs": [
        {
          "internalType": "address",
          "name": "pendingVoterAddress",
          "type": "address"
        }
      ],
      "name": "denyVerificationRequests",
      "outputs": [],
      "payable": false,
      "stateMutability": "nonpayable",
      "type": "function"
    },
    {
      "constant": false,
      "inputs": [
        {
          "internalType": "address",
          "name": "pendingVoterAddress",
          "type": "address"
        },
        {
          "internalType": "string",
          "name": "_tagLine",
          "type": "string"
        }
      ],
      "name": "addCandidateRequest",
      "outputs": [],
      "payable": false,
      "stateMutability": "nonpayable",
      "type": "function"
    },
    {
      "constant": false,
      "inputs": [
        {
          "internalType": "address",
          "name": "pendingVoterAddress",
          "type": "address"
        }
      ],
      "name": "approveCandidateRequests",
      "outputs": [],
      "payable": false,
      "stateMutability": "nonpayable",
      "type": "function"
    },
    {
      "constant": true,
      "inputs": [],
      "name": "isPendingRequest",
      "outputs": [
        {
          "internalType": "bool",
          "name": "",
          "type": "bool"
        }
      ],
      "payable": false,
      "stateMutability": "view",
      "type": "function"
    },
    {
      "constant": true,
      "inputs": [],
      "name": "getAllVoterDetails",
      "outputs": [
        {
          "components": [
            {
              "internalType": "string",
              "name": "username",
              "type": "string"
            },
            {
              "internalType": "string",
              "name": "email",
              "type": "string"
            },
            {
              "internalType": "string",
              "name": "password",
              "type": "string"
            },
            {
              "internalType": "string",
              "name": "prn",
              "type": "string"
            },
            {
              "internalType": "string",
              "name": "mobile",
              "type": "string"
            },
            {
              "internalType": "address",
              "name": "voterAddress",
              "type": "address"
            },
            {
              "internalType": "uint256",
              "name": "votesCount",
              "type": "uint256"
            },
            {
              "components": [
                {
                  "internalType": "bool",
                  "name": "isVerified",
                  "type": "bool"
                },
                {
                  "internalType": "bool",
                  "name": "hasVoted",
                  "type": "bool"
                },
                {
                  "internalType": "bool",
                  "name": "hasApplied",
                  "type": "bool"
                },
                {
                  "internalType": "bool",
                  "name": "isCandidate",
                  "type": "bool"
                },
                {
                  "internalType": "bool",
                  "name": "isDenied",
                  "type": "bool"
                },
                {
                  "internalType": "string",
                  "name": "tagLine",
                  "type": "string"
                }
              ],
              "internalType": "struct Election.voterElectionData",
              "name": "voterElectionDetails",
              "type": "tuple"
            }
          ],
          "internalType": "struct Election.voter[]",
          "name": "",
          "type": "tuple[]"
        }
      ],
      "payable": false,
      "stateMutability": "view",
      "type": "function"
    },
    {
      "constant": true,
      "inputs": [
        {
          "internalType": "address",
          "name": "voterAddress",
          "type": "address"
        }
      ],
      "name": "getVoterDetails",
      "outputs": [
        {
          "components": [
            {
              "internalType": "string",
              "name": "username",
              "type": "string"
            },
            {
              "internalType": "string",
              "name": "email",
              "type": "string"
            },
            {
              "internalType": "string",
              "name": "password",
              "type": "string"
            },
            {
              "internalType": "string",
              "name": "prn",
              "type": "string"
            },
            {
              "internalType": "string",
              "name": "mobile",
              "type": "string"
            },
            {
              "internalType": "address",
              "name": "voterAddress",
              "type": "address"
            },
            {
              "internalType": "uint256",
              "name": "votesCount",
              "type": "uint256"
            },
            {
              "components": [
                {
                  "internalType": "bool",
                  "name": "isVerified",
                  "type": "bool"
                },
                {
                  "internalType": "bool",
                  "name": "hasVoted",
                  "type": "bool"
                },
                {
                  "internalType": "bool",
                  "name": "hasApplied",
                  "type": "bool"
                },
                {
                  "internalType": "bool",
                  "name": "isCandidate",
                  "type": "bool"
                },
                {
                  "internalType": "bool",
                  "name": "isDenied",
                  "type": "bool"
                },
                {
                  "internalType": "string",
                  "name": "tagLine",
                  "type": "string"
                }
              ],
              "internalType": "struct Election.voterElectionData",
              "name": "voterElectionDetails",
              "type": "tuple"
            }
          ],
          "internalType": "struct Election.voter",
          "name": "",
          "type": "tuple"
        }
      ],
      "payable": false,
      "stateMutability": "view",
      "type": "function"
    },
    {
      "constant": false,
      "inputs": [
        {
          "internalType": "string",
          "name": "_username",
          "type": "string"
        },
        {
          "internalType": "string",
          "name": "_email",
          "type": "string"
        },
        {
          "internalType": "string",
          "name": "_password",
          "type": "string"
        }
      ],
      "name": "addVoterDetails",
      "outputs": [],
      "payable": false,
      "stateMutability": "nonpayable",
      "type": "function"
    },
    {
      "constant": true,
      "inputs": [
        {
          "internalType": "address",
          "name": "voterAddress",
          "type": "address"
        },
        {
          "internalType": "string",
          "name": "mail",
          "type": "string"
        }
      ],
      "name": "isVoterExists",
      "outputs": [
        {
          "internalType": "bool",
          "name": "",
          "type": "bool"
        }
      ],
      "payable": false,
      "stateMutability": "view",
      "type": "function"
    },
    {
      "constant": true,
      "inputs": [],
      "name": "getAdmin",
      "outputs": [
        {
          "internalType": "address",
          "name": "",
          "type": "address"
        }
      ],
      "payable": false,
      "stateMutability": "view",
      "type": "function"
    },
    {
      "constant": false,
      "inputs": [],
      "name": "changeElectionPhase",
      "outputs": [],
      "payable": false,
      "stateMutability": "nonpayable",
      "type": "function"
    },
    {
      "constant": true,
      "inputs": [],
      "name": "getElectionDetails",
      "outputs": [
        {
          "internalType": "bool",
          "name": "",
          "type": "bool"
        },
        {
          "internalType": "bool",
          "name": "",
          "type": "bool"
        },
        {
          "internalType": "string",
          "name": "",
          "type": "string"
        },
        {
          "internalType": "string",
          "name": "",
          "type": "string"
        },
        {
          "internalType": "string",
          "name": "",
          "type": "string"
        },
        {
          "internalType": "string",
          "name": "",
          "type": "string"
        }
      ],
      "payable": false,
      "stateMutability": "view",
      "type": "function"
    },
    {
      "constant": false,
      "inputs": [
        {
          "internalType": "string",
          "name": "_electionTitle",
          "type": "string"
        },
        {
          "internalType": "string",
          "name": "_electionOrganization",
          "type": "string"
        }
      ],
      "name": "startElection",
      "outputs": [],
      "payable": false,
      "stateMutability": "nonpayable",
      "type": "function"
    },
    {
      "constant": false,
      "inputs": [
        {
          "internalType": "address",
          "name": "voterAddress",
          "type": "address"
        },
        {
          "internalType": "address",
          "name": "candidateAddress",
          "type": "address"
        }
      ],
      "name": "addVote",
      "outputs": [],
      "payable": false,
      "stateMutability": "nonpayable",
      "type": "function"
    },
    {
      "constant": true,
      "inputs": [
        {
          "internalType": "address",
          "name": "voterAddress",
          "type": "address"
        }
      ],
      "name": "hasVoted",
      "outputs": [
        {
          "internalType": "bool",
          "name": "",
          "type": "bool"
        }
      ],
      "payable": false,
      "stateMutability": "view",
      "type": "function"
    }
  ],
  "bytecode": "0x60806040523480156200001157600080fd5b50336000806101000a81548173ffffffffffffffffffffffffffffffffffffffff021916908373ffffffffffffffffffffffffffffffffffffffff1602179055506000600181905550600060028190555060006003819055506040518061010001604052806000151581526020016000151581526020016040518060200160405280600081525081526020016040518060200160405280600081525081526020016006800160066005015460058110620000c757fe5b018054600181600116156101000203166002900480601f016020809104026020016040519081016040528092919081815260200182805460018160011615610100020316600290048015620001605780601f10620001345761010080835404028352916020019162000160565b820191906000526020600020905b8154815290600101906020018083116200014257829003601f168201915b5050505050815260200160068001600160066005015401600581106200018257fe5b018054600181600116156101000203166002900480601f0160208091040260200160405190810160405280929190818152602001828054600181600116156101000203166002900480156200021b5780601f10620001ef576101008083540402835291602001916200021b565b820191906000526020600020905b815481529060010190602001808311620001fd57829003601f168201915b50505050508152602001600081526020016040518060a001604052806040518060400160405280600e81526020017f536574757020456c656374696f6e00000000000000000000000000000000000081525081526020016040518060400160405280601281526020017f566f74657220566572696669636174696f6e000000000000000000000000000081525081526020016040518060400160405280601581526020017f43616e646964617465204170706c69636174696f6e000000000000000000000081525081526020016040518060400160405280600681526020017f566f74696e67000000000000000000000000000000000000000000000000000081525081526020016040518060400160405280600681526020017f526573756c740000000000000000000000000000000000000000000000000000815250815250815250600660008201518160000160006101000a81548160ff02191690831515021790555060208201518160000160016101000a81548160ff0219169083151502179055506040820151816001019080519060200190620003bf9291906200044a565b506060820151816002019080519060200190620003de9291906200044a565b506080820151816003019080519060200190620003fd9291906200044a565b5060a08201518160040190805190602001906200041c9291906200044a565b5060c0820151816005015560e08201518160060190600562000440929190620004d1565b50905050620005d0565b828054600181600116156101000203166002900490600052602060002090601f016020900481019282601f106200048d57805160ff1916838001178555620004be565b82800160010185558215620004be579182015b82811115620004bd578251825591602001919060010190620004a0565b5b509050620004cd91906200052b565b5090565b826005810192821562000518579160200282015b8281111562000517578251829080519060200190620005069291906200044a565b5091602001919060010190620004e5565b5b50905062000527919062000553565b5090565b6200055091905b808211156200054c57600081600090555060010162000532565b5090565b90565b6200058191905b808211156200057d576000818162000573919062000584565b506001016200055a565b5090565b90565b50805460018160011615610100020316600290046000825580601f10620005ac5750620005cd565b601f016020900490600052602060002090810190620005cc91906200052b565b5b50565b6134ca80620005e06000396000f3fe608060405234801561001057600080fd5b506004361061012c5760003560e01c806392bcab34116100ad578063c8eb9ef111610071578063c8eb9ef114610326578063c97c395814610342578063da58c7d914610360578063ed836bc314610390578063f851a440146103b35761012c565b806392bcab3414610270578063a65b8f3b1461028e578063ba51d32b146102aa578063ba71bef0146102c6578063c604f5b4146102f65761012c565b806341103455116100f457806341103455146101bf5780635938750d146101e35780635cc2d13f1461021a5780636e9960c314610236578063917addbd146102545761012c565b806303087c3914610131578063082571681461014d57806309eef43e14610169578063316b018d146101995780633d09c2a8146101a3575b600080fd5b61014b600480360361014691908101906129c0565b6103d1565b005b6101676004803603610162919081019061295b565b61049f565b005b610183600480360361017e919081019061295b565b610571565b60405161019091906130e7565b60405180910390f35b6101a16105cd565b005b6101bd60048036036101b89190810190612984565b61069c565b005b6101c7610750565b6040516101da979695949392919061317f565b60405180910390f35b6101fd60048036036101f8919081019061295b565b6109fa565b60405161021198979695949392919061320a565b60405180910390f35b610234600480360361022f9190810190612aff565b610e8d565b005b61023e6111c7565b60405161024b91906130aa565b60405180910390f35b61026e60048036036102699190810190612a93565b6111f0565b005b61027861124e565b60405161028591906130c5565b60405180910390f35b6102a860048036036102a39190810190612a14565b611815565b005b6102c460048036036102bf919081019061295b565b611938565b005b6102e060048036036102db919081019061295b565b611ac1565b6040516102ed91906132b2565b60405180910390f35b610310600480360361030b91908101906129c0565b611fe2565b60405161031d91906130e7565b60405180910390f35b610340600480360361033b919081019061295b565b612123565b005b61034a6122ac565b60405161035791906130e7565b60405180910390f35b61037a60048036036103759190810190612b96565b6122c7565b60405161038791906130aa565b60405180910390f35b610398612303565b6040516103aa96959493929190613102565b60405180910390f35b6103bb6125ca565b6040516103c891906130aa565b60405180910390f35b6001600460008473ffffffffffffffffffffffffffffffffffffffff1673ffffffffffffffffffffffffffffffffffffffff16815260200190815260200160002060070160000160026101000a81548160ff02191690831515021790555080600460008473ffffffffffffffffffffffffffffffffffffffff1673ffffffffffffffffffffffffffffffffffffffff16815260200190815260200160002060070160010190805190602001906104889291906125ef565b506003600081548092919060010191905055505050565b6000600460008373ffffffffffffffffffffffffffffffffffffffff1673ffffffffffffffffffffffffffffffffffffffff16815260200190815260200160002060070160000160026101000a81548160ff0219169083151502179055506001600460008373ffffffffffffffffffffffffffffffffffffffff1673ffffffffffffffffffffffffffffffffffffffff16815260200190815260200160002060070160000160046101000a81548160ff0219169083151502179055506003600081548092919060019003919050555050565b6000600460008373ffffffffffffffffffffffffffffffffffffffff1673ffffffffffffffffffffffffffffffffffffffff16815260200190815260200160002060070160000160019054906101000a900460ff169050919050565b6005600160066005015401816105df57fe5b0660066005018190555060068001600660050154600581106105fd57fe5b016006600301908054600181600116156101000203166002900461062292919061266f565b506006800160056001600660050154018161063957fe5b066005811061064457fe5b016006600401908054600181600116156101000203166002900461066992919061266f565b506001600503600660050154141561069a576001600660000160016101000a81548160ff0219169083151502179055505b565b6001600460008473ffffffffffffffffffffffffffffffffffffffff1673ffffffffffffffffffffffffffffffffffffffff16815260200190815260200160002060070160000160016101000a81548160ff021916908315150217905550600460008273ffffffffffffffffffffffffffffffffffffffff1673ffffffffffffffffffffffffffffffffffffffff168152602001908152602001600020600601600081548092919060010191905055505050565b60068060000160009054906101000a900460ff16908060000160019054906101000a900460ff1690806001018054600181600116156101000203166002900480601f0160208091040260200160405190810160405280929190818152602001828054600181600116156101000203166002900480156108105780601f106107e557610100808354040283529160200191610810565b820191906000526020600020905b8154815290600101906020018083116107f357829003601f168201915b505050505090806002018054600181600116156101000203166002900480601f0160208091040260200160405190810160405280929190818152602001828054600181600116156101000203166002900480156108ae5780601f10610883576101008083540402835291602001916108ae565b820191906000526020600020905b81548152906001019060200180831161089157829003601f168201915b505050505090806003018054600181600116156101000203166002900480601f01602080910402602001604051908101604052809291908181526020018280546001816001161561010002031660029004801561094c5780601f106109215761010080835404028352916020019161094c565b820191906000526020600020905b81548152906001019060200180831161092f57829003601f168201915b505050505090806004018054600181600116156101000203166002900480601f0160208091040260200160405190810160405280929190818152602001828054600181600116156101000203166002900480156109ea5780601f106109bf576101008083540402835291602001916109ea565b820191906000526020600020905b8154815290600101906020018083116109cd57829003601f168201915b5050505050908060050154905087565b6004602052806000526040600020600091509050806000018054600181600116156101000203166002900480601f016020809104026020016040519081016040528092919081815260200182805460018160011615610100020316600290048015610aa65780601f10610a7b57610100808354040283529160200191610aa6565b820191906000526020600020905b815481529060010190602001808311610a8957829003601f168201915b505050505090806001018054600181600116156101000203166002900480601f016020809104026020016040519081016040528092919081815260200182805460018160011615610100020316600290048015610b445780601f10610b1957610100808354040283529160200191610b44565b820191906000526020600020905b815481529060010190602001808311610b2757829003601f168201915b505050505090806002018054600181600116156101000203166002900480601f016020809104026020016040519081016040528092919081815260200182805460018160011615610100020316600290048015610be25780601f10610bb757610100808354040283529160200191610be2565b820191906000526020600020905b815481529060010190602001808311610bc557829003601f168201915b505050505090806003018054600181600116156101000203166002900480601f016020809104026020016040519081016040528092919081815260200182805460018160011615610100020316600290048015610c805780601f10610c5557610100808354040283529160200191610c80565b820191906000526020600020905b815481529060010190602001808311610c6357829003601f168201915b505050505090806004018054600181600116156101000203166002900480601f016020809104026020016040519081016040528092919081815260200182805460018160011615610100020316600290048015610d1e5780601f10610cf357610100808354040283529160200191610d1e565b820191906000526020600020905b815481529060010190602001808311610d0157829003601f168201915b5050505050908060050160009054906101000a900473ffffffffffffffffffffffffffffffffffffffff1690806006015490806007016040518060c00160405290816000820160009054906101000a900460ff161515151581526020016000820160019054906101000a900460ff161515151581526020016000820160029054906101000a900460ff161515151581526020016000820160039054906101000a900460ff161515151581526020016000820160049054906101000a900460ff16151515158152602001600182018054600181600116156101000203166002900480601f016020809104026020016040519081016040528092919081815260200182805460018160011615610100020316600290048015610e7f5780601f10610e5457610100808354040283529160200191610e7f565b820191906000526020600020905b815481529060010190602001808311610e6257829003601f168201915b505050505081525050905088565b610e956126f6565b6040518060c00160405280600015158152602001600015158152602001600015158152602001600015158152602001600015158152602001604051806020016040528060008152508152509050610eea612736565b6040518061010001604052808681526020018581526020018481526020016040518060200160405280600081525081526020016040518060200160405280600081525081526020013373ffffffffffffffffffffffffffffffffffffffff1681526020016000815260200183815250905080600460003373ffffffffffffffffffffffffffffffffffffffff1673ffffffffffffffffffffffffffffffffffffffff1681526020019081526020016000206000820151816000019080519060200190610fb7929190612797565b506020820151816001019080519060200190610fd4929190612797565b506040820151816002019080519060200190610ff1929190612797565b50606082015181600301908051906020019061100e929190612797565b50608082015181600401908051906020019061102b929190612797565b5060a08201518160050160006101000a81548173ffffffffffffffffffffffffffffffffffffffff021916908373ffffffffffffffffffffffffffffffffffffffff16021790555060c0820151816006015560e08201518160070160008201518160000160006101000a81548160ff02191690831515021790555060208201518160000160016101000a81548160ff02191690831515021790555060408201518160000160026101000a81548160ff02191690831515021790555060608201518160000160036101000a81548160ff02191690831515021790555060808201518160000160046101000a81548160ff02191690831515021790555060a0820151816001019080519060200190611142929190612797565b50505090505060026000815480929190600101919050555060053390806001815401808255809150509060018203906000526020600020016000909192909190916101000a81548173ffffffffffffffffffffffffffffffffffffffff021916908373ffffffffffffffffffffffffffffffffffffffff160217905550505050505050565b60008060009054906101000a900473ffffffffffffffffffffffffffffffffffffffff16905090565b6001600660000160006101000a81548160ff02191690831515021790555081600660010190805190602001906112279291906125ef565b5080600660020190805190602001906112419291906125ef565b5061124a6105cd565b5050565b60608060025460405190808252806020026020018201604052801561128d57816020015b61127a612817565b8152602001906001900390816112725790505b50905060008090505b60025481101561180d5760046000600583815481106112b157fe5b9060005260206000200160009054906101000a900473ffffffffffffffffffffffffffffffffffffffff1673ffffffffffffffffffffffffffffffffffffffff1673ffffffffffffffffffffffffffffffffffffffff16815260200190815260200160002060405180610100016040529081600082018054600181600116156101000203166002900480601f0160208091040260200160405190810160405280929190818152602001828054600181600116156101000203166002900480156113bb5780601f10611390576101008083540402835291602001916113bb565b820191906000526020600020905b81548152906001019060200180831161139e57829003601f168201915b50505050508152602001600182018054600181600116156101000203166002900480601f01602080910402602001604051908101604052809291908181526020018280546001816001161561010002031660029004801561145d5780601f106114325761010080835404028352916020019161145d565b820191906000526020600020905b81548152906001019060200180831161144057829003601f168201915b50505050508152602001600282018054600181600116156101000203166002900480601f0160208091040260200160405190810160405280929190818152602001828054600181600116156101000203166002900480156114ff5780601f106114d4576101008083540402835291602001916114ff565b820191906000526020600020905b8154815290600101906020018083116114e257829003601f168201915b50505050508152602001600382018054600181600116156101000203166002900480601f0160208091040260200160405190810160405280929190818152602001828054600181600116156101000203166002900480156115a15780601f10611576576101008083540402835291602001916115a1565b820191906000526020600020905b81548152906001019060200180831161158457829003601f168201915b50505050508152602001600482018054600181600116156101000203166002900480601f0160208091040260200160405190810160405280929190818152602001828054600181600116156101000203166002900480156116435780601f1061161857610100808354040283529160200191611643565b820191906000526020600020905b81548152906001019060200180831161162657829003601f168201915b505050505081526020016005820160009054906101000a900473ffffffffffffffffffffffffffffffffffffffff1673ffffffffffffffffffffffffffffffffffffffff1673ffffffffffffffffffffffffffffffffffffffff16815260200160068201548152602001600782016040518060c00160405290816000820160009054906101000a900460ff161515151581526020016000820160019054906101000a900460ff161515151581526020016000820160029054906101000a900460ff161515151581526020016000820160039054906101000a900460ff161515151581526020016000820160049054906101000a900460ff16151515158152602001600182018054600181600116156101000203166002900480601f0160208091040260200160405190810160405280929190818152602001828054600181600116156101000203166002900480156117dc5780601f106117b1576101008083540402835291602001916117dc565b820191906000526020600020905b8154815290600101906020018083116117bf57829003601f168201915b505050505081525050815250508282815181106117f557fe5b60200260200101819052508080600101915050611296565b508091505090565b6001600460008573ffffffffffffffffffffffffffffffffffffffff1673ffffffffffffffffffffffffffffffffffffffff16815260200190815260200160002060070160000160026101000a81548160ff02191690831515021790555081600460008573ffffffffffffffffffffffffffffffffffffffff1673ffffffffffffffffffffffffffffffffffffffff16815260200190815260200160002060030190805190602001906118c99291906125ef565b5080600460008573ffffffffffffffffffffffffffffffffffffffff1673ffffffffffffffffffffffffffffffffffffffff16815260200190815260200160002060040190805190602001906119209291906125ef565b50600360008154809291906001019190505550505050565b6000600460008373ffffffffffffffffffffffffffffffffffffffff1673ffffffffffffffffffffffffffffffffffffffff16815260200190815260200160002060070160000160026101000a81548160ff0219169083151502179055506001600460008373ffffffffffffffffffffffffffffffffffffffff1673ffffffffffffffffffffffffffffffffffffffff16815260200190815260200160002060070160000160006101000a81548160ff02191690831515021790555060036000815480929190600190039190505550600460008273ffffffffffffffffffffffffffffffffffffffff1673ffffffffffffffffffffffffffffffffffffffff16815260200190815260200160002060070160000160049054906101000a900460ff1615611abe576000600460008373ffffffffffffffffffffffffffffffffffffffff1673ffffffffffffffffffffffffffffffffffffffff16815260200190815260200160002060070160000160046101000a81548160ff0219169083151502179055505b50565b611ac9612736565b600460008373ffffffffffffffffffffffffffffffffffffffff1673ffffffffffffffffffffffffffffffffffffffff16815260200190815260200160002060405180610100016040529081600082018054600181600116156101000203166002900480601f016020809104026020016040519081016040528092919081815260200182805460018160011615610100020316600290048015611bad5780601f10611b8257610100808354040283529160200191611bad565b820191906000526020600020905b815481529060010190602001808311611b9057829003601f168201915b50505050508152602001600182018054600181600116156101000203166002900480601f016020809104026020016040519081016040528092919081815260200182805460018160011615610100020316600290048015611c4f5780601f10611c2457610100808354040283529160200191611c4f565b820191906000526020600020905b815481529060010190602001808311611c3257829003601f168201915b50505050508152602001600282018054600181600116156101000203166002900480601f016020809104026020016040519081016040528092919081815260200182805460018160011615610100020316600290048015611cf15780601f10611cc657610100808354040283529160200191611cf1565b820191906000526020600020905b815481529060010190602001808311611cd457829003601f168201915b50505050508152602001600382018054600181600116156101000203166002900480601f016020809104026020016040519081016040528092919081815260200182805460018160011615610100020316600290048015611d935780601f10611d6857610100808354040283529160200191611d93565b820191906000526020600020905b815481529060010190602001808311611d7657829003601f168201915b50505050508152602001600482018054600181600116156101000203166002900480601f016020809104026020016040519081016040528092919081815260200182805460018160011615610100020316600290048015611e355780601f10611e0a57610100808354040283529160200191611e35565b820191906000526020600020905b815481529060010190602001808311611e1857829003601f168201915b505050505081526020016005820160009054906101000a900473ffffffffffffffffffffffffffffffffffffffff1673ffffffffffffffffffffffffffffffffffffffff1673ffffffffffffffffffffffffffffffffffffffff16815260200160068201548152602001600782016040518060c00160405290816000820160009054906101000a900460ff161515151581526020016000820160019054906101000a900460ff161515151581526020016000820160029054906101000a900460ff161515151581526020016000820160039054906101000a900460ff161515151581526020016000820160049054906101000a900460ff16151515158152602001600182018054600181600116156101000203166002900480601f016020809104026020016040519081016040528092919081815260200182805460018160011615610100020316600290048015611fce5780601f10611fa357610100808354040283529160200191611fce565b820191906000526020600020905b815481529060010190602001808311611fb157829003601f168201915b505050505081525050815250509050919050565b600080600090505b600580549050811015612117576005818154811061200457fe5b9060005260206000200160009054906101000a900473ffffffffffffffffffffffffffffffffffffffff1673ffffffffffffffffffffffffffffffffffffffff168473ffffffffffffffffffffffffffffffffffffffff1614806120fb5750600460006005838154811061207457fe5b9060005260206000200160009054906101000a900473ffffffffffffffffffffffffffffffffffffffff1673ffffffffffffffffffffffffffffffffffffffff1673ffffffffffffffffffffffffffffffffffffffff1681526020019081526020016000206001016040516120e99190613093565b60405180910390208380519060200120145b1561210a57600191505061211d565b8080600101915050611fea565b50600090505b92915050565b6000600460008373ffffffffffffffffffffffffffffffffffffffff1673ffffffffffffffffffffffffffffffffffffffff16815260200190815260200160002060070160000160026101000a81548160ff0219169083151502179055506001600460008373ffffffffffffffffffffffffffffffffffffffff1673ffffffffffffffffffffffffffffffffffffffff16815260200190815260200160002060070160000160036101000a81548160ff02191690831515021790555060036000815480929190600190039190505550600460008273ffffffffffffffffffffffffffffffffffffffff1673ffffffffffffffffffffffffffffffffffffffff16815260200190815260200160002060070160000160049054906101000a900460ff16156122a9576000600460008373ffffffffffffffffffffffffffffffffffffffff1673ffffffffffffffffffffffffffffffffffffffff16815260200190815260200160002060070160000160046101000a81548160ff0219169083151502179055505b50565b60008060035414156122bf5760006122c2565b60015b905090565b600581815481106122d457fe5b906000526020600020016000915054906101000a900473ffffffffffffffffffffffffffffffffffffffff1681565b600080606080606080600660000160009054906101000a900460ff16600660000160019054906101000a900460ff166006600101600660020160066003016006600401838054600181600116156101000203166002900480601f0160208091040260200160405190810160405280929190818152602001828054600181600116156101000203166002900480156123db5780601f106123b0576101008083540402835291602001916123db565b820191906000526020600020905b8154815290600101906020018083116123be57829003601f168201915b50505050509350828054600181600116156101000203166002900480601f0160208091040260200160405190810160405280929190818152602001828054600181600116156101000203166002900480156124775780601f1061244c57610100808354040283529160200191612477565b820191906000526020600020905b81548152906001019060200180831161245a57829003601f168201915b50505050509250818054600181600116156101000203166002900480601f0160208091040260200160405190810160405280929190818152602001828054600181600116156101000203166002900480156125135780601f106124e857610100808354040283529160200191612513565b820191906000526020600020905b8154815290600101906020018083116124f657829003601f168201915b50505050509150808054600181600116156101000203166002900480601f0160208091040260200160405190810160405280929190818152602001828054600181600116156101000203166002900480156125af5780601f10612584576101008083540402835291602001916125af565b820191906000526020600020905b81548152906001019060200180831161259257829003601f168201915b50505050509050955095509550955095509550909192939495565b6000809054906101000a900473ffffffffffffffffffffffffffffffffffffffff1681565b828054600181600116156101000203166002900490600052602060002090601f016020900481019282601f1061263057805160ff191683800117855561265e565b8280016001018555821561265e579182015b8281111561265d578251825591602001919060010190612642565b5b50905061266b9190612878565b5090565b828054600181600116156101000203166002900490600052602060002090601f016020900481019282601f106126a857805485556126e5565b828001600101855582156126e557600052602060002091601f016020900482015b828111156126e45782548255916001019190600101906126c9565b5b5090506126f29190612878565b5090565b6040518060c00160405280600015158152602001600015158152602001600015158152602001600015158152602001600015158152602001606081525090565b6040518061010001604052806060815260200160608152602001606081526020016060815260200160608152602001600073ffffffffffffffffffffffffffffffffffffffff1681526020016000815260200161279161289d565b81525090565b828054600181600116156101000203166002900490600052602060002090601f016020900481019282601f106127d857805160ff1916838001178555612806565b82800160010185558215612806579182015b828111156128055782518255916020019190600101906127ea565b5b5090506128139190612878565b5090565b6040518061010001604052806060815260200160608152602001606081526020016060815260200160608152602001600073ffffffffffffffffffffffffffffffffffffffff1681526020016000815260200161287261289d565b81525090565b61289a91905b8082111561289657600081600090555060010161287e565b5090565b90565b6040518060c00160405280600015158152602001600015158152602001600015158152602001600015158152602001600015158152602001606081525090565b6000813590506128ec81613459565b92915050565b600082601f83011261290357600080fd5b813561291661291182613301565b6132d4565b9150808252602083016020830185838301111561293257600080fd5b61293d838284613406565b50505092915050565b60008135905061295581613470565b92915050565b60006020828403121561296d57600080fd5b600061297b848285016128dd565b91505092915050565b6000806040838503121561299757600080fd5b60006129a5858286016128dd565b92505060206129b6858286016128dd565b9150509250929050565b600080604083850312156129d357600080fd5b60006129e1858286016128dd565b925050602083013567ffffffffffffffff8111156129fe57600080fd5b612a0a858286016128f2565b9150509250929050565b600080600060608486031215612a2957600080fd5b6000612a37868287016128dd565b935050602084013567ffffffffffffffff811115612a5457600080fd5b612a60868287016128f2565b925050604084013567ffffffffffffffff811115612a7d57600080fd5b612a89868287016128f2565b9150509250925092565b60008060408385031215612aa657600080fd5b600083013567ffffffffffffffff811115612ac057600080fd5b612acc858286016128f2565b925050602083013567ffffffffffffffff811115612ae957600080fd5b612af5858286016128f2565b9150509250929050565b600080600060608486031215612b1457600080fd5b600084013567ffffffffffffffff811115612b2e57600080fd5b612b3a868287016128f2565b935050602084013567ffffffffffffffff811115612b5757600080fd5b612b63868287016128f2565b925050604084013567ffffffffffffffff811115612b8057600080fd5b612b8c868287016128f2565b9150509250925092565b600060208284031215612ba857600080fd5b6000612bb684828501612946565b91505092915050565b6000612bcb8383612fa2565b905092915050565b612bdc816133be565b82525050565b612beb816133be565b82525050565b6000612bfc82613352565b612c068185613380565b935083602082028501612c188561332d565b8060005b85811015612c545784840389528151612c358582612bbf565b9450612c4083613373565b925060208a01995050600181019050612c1c565b50829750879550505050505092915050565b612c6f816133d0565b82525050565b612c7e816133d0565b82525050565b600081546001811660008114612ca15760018114612cc657612d0a565b607f6002830416612cb28187613391565b955060ff1983168652808601935050612d0a565b60028204612cd48187613391565b9550612cdf8561333d565b60005b82811015612d0157815481890152600182019150602081019050612ce2565b82880195505050505b505092915050565b6000612d1d82613368565b612d2781856133ad565b9350612d37818560208601613415565b612d4081613448565b840191505092915050565b6000612d568261335d565b612d60818561339c565b9350612d70818560208601613415565b612d7981613448565b840191505092915050565b6000612d8f8261335d565b612d9981856133ad565b9350612da9818560208601613415565b612db281613448565b840191505092915050565b600060c083016000830151612dd56000860182612c66565b506020830151612de86020860182612c66565b506040830151612dfb6040860182612c66565b506060830151612e0e6060860182612c66565b506080830151612e216080860182612c66565b5060a083015184820360a0860152612e398282612d4b565b9150508091505092915050565b600060c083016000830151612e5e6000860182612c66565b506020830151612e716020860182612c66565b506040830151612e846040860182612c66565b506060830151612e976060860182612c66565b506080830151612eaa6080860182612c66565b5060a083015184820360a0860152612ec28282612d4b565b9150508091505092915050565b6000610100830160008301518482036000860152612eed8282612d4b565b91505060208301518482036020860152612f078282612d4b565b91505060408301518482036040860152612f218282612d4b565b91505060608301518482036060860152612f3b8282612d4b565b91505060808301518482036080860152612f558282612d4b565b91505060a0830151612f6a60a0860182612bd3565b5060c0830151612f7d60c0860182613075565b5060e083015184820360e0860152612f958282612dbd565b9150508091505092915050565b6000610100830160008301518482036000860152612fc08282612d4b565b91505060208301518482036020860152612fda8282612d4b565b91505060408301518482036040860152612ff48282612d4b565b9150506060830151848203606086015261300e8282612d4b565b915050608083015184820360808601526130288282612d4b565b91505060a083015161303d60a0860182612bd3565b5060c083015161305060c0860182613075565b5060e083015184820360e08601526130688282612dbd565b9150508091505092915050565b61307e816133fc565b82525050565b61308d816133fc565b82525050565b600061309f8284612c84565b915081905092915050565b60006020820190506130bf6000830184612be2565b92915050565b600060208201905081810360008301526130df8184612bf1565b905092915050565b60006020820190506130fc6000830184612c75565b92915050565b600060c0820190506131176000830189612c75565b6131246020830188612c75565b81810360408301526131368187612d12565b9050818103606083015261314a8186612d12565b9050818103608083015261315e8185612d12565b905081810360a08301526131728184612d12565b9050979650505050505050565b600060e082019050613194600083018a612c75565b6131a16020830189612c75565b81810360408301526131b38188612d84565b905081810360608301526131c78187612d84565b905081810360808301526131db8186612d84565b905081810360a08301526131ef8185612d84565b90506131fe60c0830184613084565b98975050505050505050565b6000610100820190508181036000830152613225818b612d84565b90508181036020830152613239818a612d84565b9050818103604083015261324d8189612d84565b905081810360608301526132618188612d84565b905081810360808301526132758187612d84565b905061328460a0830186612be2565b61329160c0830185613084565b81810360e08301526132a38184612e46565b90509998505050505050505050565b600060208201905081810360008301526132cc8184612ecf565b905092915050565b6000604051905081810181811067ffffffffffffffff821117156132f757600080fd5b8060405250919050565b600067ffffffffffffffff82111561331857600080fd5b601f19601f8301169050602081019050919050565b6000819050602082019050919050565b60008190508160005260206000209050919050565b600081519050919050565b600081519050919050565b600081519050919050565b6000602082019050919050565b600082825260208201905092915050565b600081905092915050565b600082825260208201905092915050565b600082825260208201905092915050565b60006133c9826133dc565b9050919050565b60008115159050919050565b600073ffffffffffffffffffffffffffffffffffffffff82169050919050565b6000819050919050565b82818337600083830152505050565b60005b83811015613433578082015181840152602081019050613418565b83811115613442576000848401525b50505050565b6000601f19601f8301169050919050565b613462816133be565b811461346d57600080fd5b50565b613479816133fc565b811461348457600080fd5b5056fea365627a7a72315820740e367d86feb5c5770fd68a1344df8519a813a13e20ff4f979d30bfa63f1fb16c6578706572696d656e74616cf564736f6c63430005100040",
  "source": "// SPDX-License-Identifier: MIT\r\npragma solidity >=0.4.21 <0.9.0;\r\npragma experimental ABIEncoderV2;\r\n\r\ncontract Election {\r\n    address public admin;\r\n    uint256 candidateCount;\r\n    uint256 voterCount;\r\n    uint256 pendingRequests;\r\n\r\n    struct electionSetup{\r\n\r\n        bool isElectionStarted;\r\n        bool isElectionEnded;\r\n        string electionTitle;\r\n        string electionOrganization;\r\n        string currentElectionPhase;\r\n        string nextElectionPhase;\r\n        uint256 electionPhaseIndex;\r\n        string[5] electionPhases;\r\n    }\r\n\r\n    struct voterElectionData {\r\n        bool isVerified;\r\n        bool hasVoted;\r\n        bool hasApplied;\r\n        bool isCandidate;\r\n        bool isDenied;\r\n        string tagLine;\r\n    }\r\n\r\n    struct voter {\r\n        string username;\r\n        string email;\r\n        string password;\r\n        string prn;\r\n        string mobile;\r\n        address voterAddress;\r\n        uint256 votesCount;\r\n        voterElectionData voterElectionDetails;\r\n        \r\n    }\r\n\r\n    mapping(address => voter) public voterDetails;\r\n    address[] public voters; // Array of address to store address of voters\r\n    electionSetup public electionInstance;\r\n\r\n    constructor() public{\r\n        // Initilizing default values\r\n        admin = msg.sender;\r\n        candidateCount = 0;\r\n        voterCount = 0;\r\n        pendingRequests = 0;\r\n\r\n        electionInstance = electionSetup({\r\n        isElectionStarted : false,\r\n        isElectionEnded : false,\r\n        electionTitle : \"\",\r\n        electionOrganization : \"\",\r\n        electionPhaseIndex : 0,\r\n        electionPhases : [\r\n            \"Setup Election\",\r\n            \"Voter Verification\",\r\n            \"Candidate Application\",\r\n            \"Voting\",\r\n            \"Result\"\r\n        ],\r\n        currentElectionPhase : electionInstance.electionPhases[electionInstance.electionPhaseIndex],\r\n        nextElectionPhase : electionInstance.electionPhases[electionInstance.electionPhaseIndex + 1]\r\n        });\r\n        \r\n    }\r\n\r\n    /*------------------------ Voter Verification --------------------------- */\r\n\r\n    // Update verification details\r\n    function addVerificationRequest(\r\n        address pendingVoterAddress,\r\n        string memory _prn,\r\n        string memory _mobile\r\n    ) public {\r\n        voterDetails[pendingVoterAddress].voterElectionDetails.hasApplied = true;\r\n        voterDetails[pendingVoterAddress].prn = _prn;\r\n        voterDetails[pendingVoterAddress].mobile = _mobile;\r\n        pendingRequests ++;\r\n    }\r\n\r\n    // Approve verification requests\r\n    function approveVerificationRequests(address pendingVoterAddress) public {\r\n        voterDetails[pendingVoterAddress].voterElectionDetails.hasApplied = false;\r\n        voterDetails[pendingVoterAddress].voterElectionDetails.isVerified = true;\r\n        pendingRequests --;\r\n        if (voterDetails[pendingVoterAddress].voterElectionDetails.isDenied) {\r\n        \r\n            voterDetails[pendingVoterAddress].voterElectionDetails.isDenied = false;\r\n\r\n        }\r\n    }\r\n\r\n    // Deny verification requests\r\n    function denyVerificationRequests(\r\n        address pendingVoterAddress\r\n        \r\n    ) public {\r\n        voterDetails[pendingVoterAddress].voterElectionDetails.hasApplied = false;\r\n        voterDetails[pendingVoterAddress].voterElectionDetails.isDenied = true;\r\n       \r\n        pendingRequests --;\r\n    }\r\n\r\n    // sending candidate request\r\n\r\n    function addCandidateRequest(\r\n        address pendingVoterAddress,\r\n        string memory _tagLine\r\n    ) public {\r\n        voterDetails[pendingVoterAddress].voterElectionDetails.hasApplied = true;\r\n        voterDetails[pendingVoterAddress].voterElectionDetails.tagLine = _tagLine;\r\n        pendingRequests ++;\r\n    }\r\n\r\n    // Approve candidate requests\r\n    function approveCandidateRequests(address pendingVoterAddress) public {\r\n        voterDetails[pendingVoterAddress].voterElectionDetails.hasApplied = false;\r\n        voterDetails[pendingVoterAddress].voterElectionDetails.isCandidate = true;\r\n        pendingRequests --;\r\n\r\n        if (voterDetails[pendingVoterAddress].voterElectionDetails.isDenied) {\r\n            voterDetails[pendingVoterAddress].voterElectionDetails.isDenied = false;\r\n        }\r\n    }\r\n    \r\n    function isPendingRequest() public view returns(bool) {\r\n       return (pendingRequests != 0) ? true : false ;\r\n    }\r\n\r\n    // Get all voter details\r\n    function getAllVoterDetails() public view returns (voter[] memory) {\r\n        voter[] memory allVoterDetails = new voter[](voterCount);\r\n        for (uint256 i = 0; i < voterCount; i++) {\r\n            allVoterDetails[i] = voterDetails[voters[i]];\r\n        }\r\n        return allVoterDetails;\r\n    }\r\n\r\n    function getVoterDetails(address voterAddress)\r\n        public\r\n        view\r\n        returns (voter memory)\r\n    {\r\n        return voterDetails[voterAddress];\r\n    }\r\n\r\n    /*------------------------ Voter Handlers --------------------------- */\r\n\r\n    function addVoterDetails(\r\n        string memory _username,\r\n        string memory _email,\r\n        string memory _password\r\n    ) public {\r\n        voterElectionData memory newvoterElectionData = voterElectionData({\r\n            isVerified : false,\r\n            hasVoted: false,\r\n            hasApplied: false,\r\n            isCandidate: false,\r\n            isDenied: false,\r\n            tagLine: \"\"\r\n        });\r\n        voter memory newVoter = voter({\r\n            username: _username,\r\n            email: _email,\r\n            password: _password,\r\n            voterAddress: msg.sender,\r\n            prn: \"\",\r\n            mobile: \"\",\r\n            votesCount: 0,\r\n            voterElectionDetails: newvoterElectionData\r\n            \r\n        });\r\n        voterDetails[msg.sender] = newVoter;\r\n        voterCount++;\r\n        voters.push(msg.sender);\r\n    }\r\n\r\n    function isVoterExists(address voterAddress, string memory mail)\r\n        public\r\n        view\r\n        returns (bool)\r\n    {\r\n        //Loop through voters array\r\n        for (uint256 i = 0; i < voters.length; i++) {\r\n            if (\r\n                (voterAddress) == voters[i] ||\r\n                (keccak256(bytes(mail)) ==\r\n                    keccak256(bytes(voterDetails[voters[i]].email)))\r\n            ) {\r\n                return true;\r\n            }\r\n        }\r\n        return false;\r\n    }\r\n\r\n    /*------------------------ Election Handlers --------------------------- */\r\n\r\n    function getAdmin() public view returns (address) {\r\n        // Returns account address used to deploy contract (i.e. admin)\r\n        return admin;\r\n    }\r\n\r\n    function changeElectionPhase() public {\r\n        electionInstance.electionPhaseIndex = (electionInstance.electionPhaseIndex + 1) % electionInstance.electionPhases.length;\r\n        electionInstance.currentElectionPhase = electionInstance.electionPhases[electionInstance.electionPhaseIndex];\r\n        electionInstance.nextElectionPhase = electionInstance.electionPhases[\r\n            (electionInstance.electionPhaseIndex + 1) % electionInstance.electionPhases.length\r\n        ];\r\n        if (electionInstance.electionPhaseIndex == electionInstance.electionPhases.length - 1) {\r\n            electionInstance.isElectionEnded = true;\r\n        }\r\n    }\r\n\r\n    function getElectionDetails()\r\n        public\r\n        view\r\n        returns (\r\n            bool,\r\n            bool,\r\n            string memory,\r\n            string memory,\r\n            string memory,\r\n            string memory\r\n        )\r\n    {\r\n        return (\r\n            electionInstance.isElectionStarted,\r\n            electionInstance.isElectionEnded,\r\n            electionInstance.electionTitle,\r\n            electionInstance.electionOrganization,\r\n            electionInstance.currentElectionPhase,\r\n            electionInstance.nextElectionPhase\r\n        );\r\n    }\r\n\r\n    \r\n\r\n    function startElection(\r\n        string memory _electionTitle,\r\n        string memory _electionOrganization\r\n    ) public {\r\n        \r\n\r\n        electionInstance.isElectionStarted = true;\r\n        electionInstance.electionTitle = _electionTitle;\r\n        electionInstance.electionOrganization = _electionOrganization;\r\n        changeElectionPhase();\r\n    }\r\n\r\n    /*------------------------ Voting Handlers --------------------------- */\r\n\r\n    function addVote(address voterAddress, address candidateAddress) public {\r\n        voterDetails[voterAddress].voterElectionDetails.hasVoted = true;\r\n        voterDetails[candidateAddress].votesCount++;\r\n    }\r\n\r\n    function hasVoted(address voterAddress) public view returns (bool) {\r\n        return voterDetails[voterAddress].voterElectionDetails.hasVoted;\r\n    }\r\n}",
  "sourcePath": "D:\\MyBooks\\BlockChain\\Bluepineapple_Project\\evote\\contracts\\Election.sol",
  "compiler": {
    "name": "solc",
    "version": "0.5.16+commit.9c3226ce.Emscripten.clang"
  },
  "schemaVersion": "3.4.6",
  "updatedAt": "2022-05-14T14:31:03.029Z",
  "networkType": "ethereum",
  "devdoc": {
    "methods": {}
  },
  "userdoc": {
    "methods": {}
  }
}