{
  "contractName": "Election",
  "abi": [
    {
      "inputs": [],
      "payable": false,
      "stateMutability": "nonpayable",
      "type": "constructor"
    },
    {
      "constant": true,
      "inputs": [],
      "name": "admin",
      "outputs": [
        {
          "internalType": "address",
          "name": "",
          "type": "address"
        }
      ],
      "payable": false,
      "stateMutability": "view",
      "type": "function"
    },
    {
      "constant": true,
      "inputs": [
        {
          "internalType": "uint256",
          "name": "",
          "type": "uint256"
        }
      ],
      "name": "electionPhases",
      "outputs": [
        {
          "internalType": "string",
          "name": "",
          "type": "string"
        }
      ],
      "payable": false,
      "stateMutability": "view",
      "type": "function"
    },
    {
      "constant": true,
      "inputs": [
        {
          "internalType": "address",
          "name": "",
          "type": "address"
        }
      ],
      "name": "voterDetails",
      "outputs": [
        {
          "internalType": "string",
          "name": "username",
          "type": "string"
        },
        {
          "internalType": "string",
          "name": "email",
          "type": "string"
        },
        {
          "internalType": "string",
          "name": "password",
          "type": "string"
        },
        {
          "internalType": "string",
          "name": "prn",
          "type": "string"
        },
        {
          "internalType": "string",
          "name": "mobile",
          "type": "string"
        },
        {
          "internalType": "address",
          "name": "voterAddress",
          "type": "address"
        },
        {
          "internalType": "bool",
          "name": "isVerified",
          "type": "bool"
        },
        {
          "internalType": "bool",
          "name": "hasVoted",
          "type": "bool"
        },
        {
          "internalType": "bool",
          "name": "hasApplied",
          "type": "bool"
        },
        {
          "internalType": "bool",
          "name": "isCandidate",
          "type": "bool"
        },
        {
          "internalType": "string",
          "name": "tagLine",
          "type": "string"
        },
        {
          "internalType": "uint256",
          "name": "votesCount",
          "type": "uint256"
        }
      ],
      "payable": false,
      "stateMutability": "view",
      "type": "function"
    },
    {
      "constant": true,
      "inputs": [
        {
          "internalType": "uint256",
          "name": "",
          "type": "uint256"
        }
      ],
      "name": "voters",
      "outputs": [
        {
          "internalType": "address",
          "name": "",
          "type": "address"
        }
      ],
      "payable": false,
      "stateMutability": "view",
      "type": "function"
    },
    {
      "constant": false,
      "inputs": [
        {
          "internalType": "address",
          "name": "pendingVoterAddress",
          "type": "address"
        },
        {
          "internalType": "string",
          "name": "_prn",
          "type": "string"
        },
        {
          "internalType": "string",
          "name": "_mobile",
          "type": "string"
        }
      ],
      "name": "addVerificationRequest",
      "outputs": [],
      "payable": false,
      "stateMutability": "nonpayable",
      "type": "function"
    },
    {
      "constant": false,
      "inputs": [
        {
          "internalType": "address",
          "name": "pendingVoterAddress",
          "type": "address"
        }
      ],
      "name": "approveVerificationRequests",
      "outputs": [],
      "payable": false,
      "stateMutability": "nonpayable",
      "type": "function"
    },
    {
      "constant": false,
      "inputs": [
        {
          "internalType": "address",
          "name": "pendingVoterAddress",
          "type": "address"
        },
        {
          "internalType": "string",
          "name": "_tagLine",
          "type": "string"
        }
      ],
      "name": "addCandidateRequest",
      "outputs": [],
      "payable": false,
      "stateMutability": "nonpayable",
      "type": "function"
    },
    {
      "constant": false,
      "inputs": [
        {
          "internalType": "address",
          "name": "pendingVoterAddress",
          "type": "address"
        }
      ],
      "name": "approveCandidateRequests",
      "outputs": [],
      "payable": false,
      "stateMutability": "nonpayable",
      "type": "function"
    },
    {
      "constant": true,
      "inputs": [],
      "name": "getAllVoterDetails",
      "outputs": [
        {
          "components": [
            {
              "internalType": "string",
              "name": "username",
              "type": "string"
            },
            {
              "internalType": "string",
              "name": "email",
              "type": "string"
            },
            {
              "internalType": "string",
              "name": "password",
              "type": "string"
            },
            {
              "internalType": "string",
              "name": "prn",
              "type": "string"
            },
            {
              "internalType": "string",
              "name": "mobile",
              "type": "string"
            },
            {
              "internalType": "address",
              "name": "voterAddress",
              "type": "address"
            },
            {
              "internalType": "bool",
              "name": "isVerified",
              "type": "bool"
            },
            {
              "internalType": "bool",
              "name": "hasVoted",
              "type": "bool"
            },
            {
              "internalType": "bool",
              "name": "hasApplied",
              "type": "bool"
            },
            {
              "internalType": "bool",
              "name": "isCandidate",
              "type": "bool"
            },
            {
              "internalType": "string",
              "name": "tagLine",
              "type": "string"
            },
            {
              "internalType": "uint256",
              "name": "votesCount",
              "type": "uint256"
            }
          ],
          "internalType": "struct Election.voter[]",
          "name": "",
          "type": "tuple[]"
        }
      ],
      "payable": false,
      "stateMutability": "view",
      "type": "function"
    },
    {
      "constant": true,
      "inputs": [
        {
          "internalType": "address",
          "name": "voterAddress",
          "type": "address"
        }
      ],
      "name": "getVoterDetails",
      "outputs": [
        {
          "components": [
            {
              "internalType": "string",
              "name": "username",
              "type": "string"
            },
            {
              "internalType": "string",
              "name": "email",
              "type": "string"
            },
            {
              "internalType": "string",
              "name": "password",
              "type": "string"
            },
            {
              "internalType": "string",
              "name": "prn",
              "type": "string"
            },
            {
              "internalType": "string",
              "name": "mobile",
              "type": "string"
            },
            {
              "internalType": "address",
              "name": "voterAddress",
              "type": "address"
            },
            {
              "internalType": "bool",
              "name": "isVerified",
              "type": "bool"
            },
            {
              "internalType": "bool",
              "name": "hasVoted",
              "type": "bool"
            },
            {
              "internalType": "bool",
              "name": "hasApplied",
              "type": "bool"
            },
            {
              "internalType": "bool",
              "name": "isCandidate",
              "type": "bool"
            },
            {
              "internalType": "string",
              "name": "tagLine",
              "type": "string"
            },
            {
              "internalType": "uint256",
              "name": "votesCount",
              "type": "uint256"
            }
          ],
          "internalType": "struct Election.voter",
          "name": "",
          "type": "tuple"
        }
      ],
      "payable": false,
      "stateMutability": "view",
      "type": "function"
    },
    {
      "constant": false,
      "inputs": [
        {
          "internalType": "string",
          "name": "_username",
          "type": "string"
        },
        {
          "internalType": "string",
          "name": "_email",
          "type": "string"
        },
        {
          "internalType": "string",
          "name": "_password",
          "type": "string"
        }
      ],
      "name": "addVoterDetails",
      "outputs": [],
      "payable": false,
      "stateMutability": "nonpayable",
      "type": "function"
    },
    {
      "constant": true,
      "inputs": [
        {
          "internalType": "address",
          "name": "voterAddress",
          "type": "address"
        },
        {
          "internalType": "string",
          "name": "mail",
          "type": "string"
        }
      ],
      "name": "isVoterExists",
      "outputs": [
        {
          "internalType": "bool",
          "name": "",
          "type": "bool"
        }
      ],
      "payable": false,
      "stateMutability": "view",
      "type": "function"
    },
    {
      "constant": true,
      "inputs": [
        {
          "internalType": "address",
          "name": "loginAddress",
          "type": "address"
        }
      ],
      "name": "getLoginDetails",
      "outputs": [
        {
          "internalType": "string",
          "name": "",
          "type": "string"
        },
        {
          "internalType": "string",
          "name": "",
          "type": "string"
        },
        {
          "internalType": "address",
          "name": "",
          "type": "address"
        },
        {
          "internalType": "string",
          "name": "",
          "type": "string"
        },
        {
          "internalType": "bool",
          "name": "",
          "type": "bool"
        }
      ],
      "payable": false,
      "stateMutability": "view",
      "type": "function"
    },
    {
      "constant": true,
      "inputs": [],
      "name": "getAdmin",
      "outputs": [
        {
          "internalType": "address",
          "name": "",
          "type": "address"
        }
      ],
      "payable": false,
      "stateMutability": "view",
      "type": "function"
    },
    {
      "constant": true,
      "inputs": [],
      "name": "getStart",
      "outputs": [
        {
          "internalType": "bool",
          "name": "",
          "type": "bool"
        }
      ],
      "payable": false,
      "stateMutability": "view",
      "type": "function"
    },
    {
      "constant": true,
      "inputs": [],
      "name": "getEnd",
      "outputs": [
        {
          "internalType": "bool",
          "name": "",
          "type": "bool"
        }
      ],
      "payable": false,
      "stateMutability": "view",
      "type": "function"
    },
    {
      "constant": false,
      "inputs": [],
      "name": "changeElectionPhase",
      "outputs": [],
      "payable": false,
      "stateMutability": "nonpayable",
      "type": "function"
    },
    {
      "constant": true,
      "inputs": [],
      "name": "isPendingRequest",
      "outputs": [
        {
          "internalType": "bool",
          "name": "",
          "type": "bool"
        }
      ],
      "payable": false,
      "stateMutability": "view",
      "type": "function"
    },
    {
      "constant": true,
      "inputs": [],
      "name": "getElectionDetails",
      "outputs": [
        {
          "internalType": "bool",
          "name": "",
          "type": "bool"
        },
        {
          "internalType": "bool",
          "name": "",
          "type": "bool"
        },
        {
          "internalType": "string",
          "name": "",
          "type": "string"
        },
        {
          "internalType": "string",
          "name": "",
          "type": "string"
        },
        {
          "internalType": "string",
          "name": "",
          "type": "string"
        },
        {
          "internalType": "string",
          "name": "",
          "type": "string"
        }
      ],
      "payable": false,
      "stateMutability": "view",
      "type": "function"
    },
    {
      "constant": false,
      "inputs": [
        {
          "internalType": "string",
          "name": "_electionTitle",
          "type": "string"
        },
        {
          "internalType": "string",
          "name": "_electionOrganization",
          "type": "string"
        }
      ],
      "name": "startElection",
      "outputs": [],
      "payable": false,
      "stateMutability": "nonpayable",
      "type": "function"
    },
    {
      "constant": false,
      "inputs": [
        {
          "internalType": "address",
          "name": "voterAddress",
          "type": "address"
        },
        {
          "internalType": "address",
          "name": "candidateAddress",
          "type": "address"
        }
      ],
      "name": "addVote",
      "outputs": [],
      "payable": false,
      "stateMutability": "nonpayable",
      "type": "function"
    },
    {
      "constant": true,
      "inputs": [
        {
          "internalType": "address",
          "name": "voterAddress",
          "type": "address"
        }
      ],
      "name": "hasVoted",
      "outputs": [
        {
          "internalType": "bool",
          "name": "",
          "type": "bool"
        }
      ],
      "payable": false,
      "stateMutability": "view",
      "type": "function"
    }
  ],
  "bytecode": "0x60806040523480156200001157600080fd5b50336000806101000a81548173ffffffffffffffffffffffffffffffffffffffff021916908373ffffffffffffffffffffffffffffffffffffffff160217905550600060018190555060006002819055506000600a819055506000600360006101000a81548160ff0219169083151502179055506000600360016101000a81548160ff0219169083151502179055506040518060200160405280600081525060049080519060200190620000c7929190620002c0565b506040518060200160405280600081525060059080519060200190620000ef929190620002c0565b5060006008819055506040518060a001604052806040518060400160405280600481526020017f4e6f6e650000000000000000000000000000000000000000000000000000000081525081526020016040518060400160405280601281526020017f566f74657220566572696669636174696f6e000000000000000000000000000081525081526020016040518060400160405280601581526020017f43616e646964617465204170706c69636174696f6e000000000000000000000081525081526020016040518060400160405280600681526020017f566f74696e67000000000000000000000000000000000000000000000000000081525081526020016040518060400160405280600681526020017f526573756c74000000000000000000000000000000000000000000000000000081525081525060099060056200023a92919062000347565b506009600854815481106200024b57fe5b906000526020600020016006908054600181600116156101000203166002900462000278929190620003ae565b506009600160085401815481106200028c57fe5b9060005260206000200160079080546001816001161561010002031660029004620002b9929190620003ae565b5062000568565b828054600181600116156101000203166002900490600052602060002090601f016020900481019282601f106200030357805160ff191683800117855562000334565b8280016001018555821562000334579182015b828111156200033357825182559160200191906001019062000316565b5b5090506200034391906200043c565b5090565b8280548282559060005260206000209081019282156200039b579160200282015b828111156200039a5782518290805190602001906200038992919062000464565b509160200191906001019062000368565b5b509050620003aa9190620004eb565b5090565b828054600181600116156101000203166002900490600052602060002090601f016020900481019282601f10620003e9578054855562000429565b828001600101855582156200042957600052602060002091601f016020900482015b82811115620004285782548255916001019190600101906200040b565b5b5090506200043891906200043c565b5090565b6200046191905b808211156200045d57600081600090555060010162000443565b5090565b90565b828054600181600116156101000203166002900490600052602060002090601f016020900481019282601f10620004a757805160ff1916838001178555620004d8565b82800160010185558215620004d8579182015b82811115620004d7578251825591602001919060010190620004ba565b5b509050620004e791906200043c565b5090565b6200051991905b808211156200051557600081816200050b91906200051c565b50600101620004f2565b5090565b90565b50805460018160011615610100020316600290046000825580601f1062000544575062000565565b601f0160209004906000526020600020908101906200056491906200043c565b5b50565b61330b80620005786000396000f3fe608060405234801561001057600080fd5b50600436106101425760003560e01c80639f05a36d116100b8578063c604f5b41161007c578063c604f5b414610370578063c8eb9ef1146103a0578063c97c3958146103bc578063da58c7d9146103da578063ed836bc31461040a578063f851a4401461042d57610142565b80639f05a36d146102cc578063a65b8f3b146102ea578063ba51d32b14610306578063ba71bef014610322578063c5292c671461035257610142565b80635938750d1161010a5780635938750d146101e95780635cc2d13f146102245780636e9960c3146102405780637691e9901461025e578063917addbd1461029257806392bcab34146102ae57610142565b806303087c391461014757806309eef43e1461016357806319f017b714610193578063316b018d146101c35780633d09c2a8146101cd575b600080fd5b610161600480360361015c9190810190612830565b61044b565b005b61017d600480360361017891908101906127cb565b610513565b60405161018a9190612eed565b60405180910390f35b6101ad60048036036101a89190810190612a06565b61056c565b6040516101ba9190612f85565b60405180910390f35b6101cb610625565b005b6101e760048036036101e291908101906127f4565b6106f5565b005b61020360048036036101fe91908101906127cb565b6107a6565b60405161021b9c9b9a9998979695949392919061300f565b60405180910390f35b61023e6004803603610239919081019061296f565b610bea565b005b610248610eda565b6040516102559190612eb0565b60405180910390f35b610278600480360361027391908101906127cb565b610f03565b604051610289959493929190612fa7565b60405180910390f35b6102ac60048036036102a79190810190612903565b61126c565b005b6102b66112c1565b6040516102c39190612ecb565b60405180910390f35b6102d4611859565b6040516102e19190612eed565b60405180910390f35b61030460048036036102ff9190810190612884565b611870565b005b610320600480360361031b91908101906127cb565b611990565b005b61033c600480360361033791908101906127cb565b611a5c565b60405161034991906130f3565b60405180910390f35b61035a611f4e565b6040516103679190612eed565b60405180910390f35b61038a60048036036103859190810190612830565b611f65565b6040516103979190612eed565b60405180910390f35b6103ba60048036036103b591908101906127cb565b6120a6565b005b6103c4612172565b6040516103d19190612eed565b60405180910390f35b6103f460048036036103ef9190810190612a06565b61218d565b6040516104019190612eb0565b60405180910390f35b6104126121c9565b60405161042496959493929190612f08565b60405180910390f35b61043561247e565b6040516104429190612eb0565b60405180910390f35b6001600b60008473ffffffffffffffffffffffffffffffffffffffff1673ffffffffffffffffffffffffffffffffffffffff16815260200190815260200160002060050160166101000a81548160ff02191690831515021790555080600b60008473ffffffffffffffffffffffffffffffffffffffff1673ffffffffffffffffffffffffffffffffffffffff16815260200190815260200160002060060190805190602001906104fc9291906124a3565b50600a600081548092919060010191905055505050565b6000600b60008373ffffffffffffffffffffffffffffffffffffffff1673ffffffffffffffffffffffffffffffffffffffff16815260200190815260200160002060050160159054906101000a900460ff169050919050565b6009818154811061057957fe5b906000526020600020016000915090508054600181600116156101000203166002900480601f01602080910402602001604051908101604052809291908181526020018280546001816001161561010002031660029004801561061d5780601f106105f25761010080835404028352916020019161061d565b820191906000526020600020905b81548152906001019060200180831161060057829003601f168201915b505050505081565b6009805490506001600854018161063857fe5b0660088190555060096008548154811061064e57fe5b9060005260206000200160069080546001816001161561010002031660029004610679929190612523565b50600980805490506001600854018161068e57fe5b068154811061069957fe5b90600052602060002001600790805460018160011615610100020316600290046106c4929190612523565b5060016009805490500360085414156106f3576001600360016101000a81548160ff0219169083151502179055505b565b6001600b60008473ffffffffffffffffffffffffffffffffffffffff1673ffffffffffffffffffffffffffffffffffffffff16815260200190815260200160002060050160156101000a81548160ff021916908315150217905550600b60008273ffffffffffffffffffffffffffffffffffffffff1673ffffffffffffffffffffffffffffffffffffffff168152602001908152602001600020600701600081548092919060010191905055505050565b600b602052806000526040600020600091509050806000018054600181600116156101000203166002900480601f0160208091040260200160405190810160405280929190818152602001828054600181600116156101000203166002900480156108525780601f1061082757610100808354040283529160200191610852565b820191906000526020600020905b81548152906001019060200180831161083557829003601f168201915b505050505090806001018054600181600116156101000203166002900480601f0160208091040260200160405190810160405280929190818152602001828054600181600116156101000203166002900480156108f05780601f106108c5576101008083540402835291602001916108f0565b820191906000526020600020905b8154815290600101906020018083116108d357829003601f168201915b505050505090806002018054600181600116156101000203166002900480601f01602080910402602001604051908101604052809291908181526020018280546001816001161561010002031660029004801561098e5780601f106109635761010080835404028352916020019161098e565b820191906000526020600020905b81548152906001019060200180831161097157829003601f168201915b505050505090806003018054600181600116156101000203166002900480601f016020809104026020016040519081016040528092919081815260200182805460018160011615610100020316600290048015610a2c5780601f10610a0157610100808354040283529160200191610a2c565b820191906000526020600020905b815481529060010190602001808311610a0f57829003601f168201915b505050505090806004018054600181600116156101000203166002900480601f016020809104026020016040519081016040528092919081815260200182805460018160011615610100020316600290048015610aca5780601f10610a9f57610100808354040283529160200191610aca565b820191906000526020600020905b815481529060010190602001808311610aad57829003601f168201915b5050505050908060050160009054906101000a900473ffffffffffffffffffffffffffffffffffffffff16908060050160149054906101000a900460ff16908060050160159054906101000a900460ff16908060050160169054906101000a900460ff16908060050160179054906101000a900460ff1690806006018054600181600116156101000203166002900480601f016020809104026020016040519081016040528092919081815260200182805460018160011615610100020316600290048015610bda5780601f10610baf57610100808354040283529160200191610bda565b820191906000526020600020905b815481529060010190602001808311610bbd57829003601f168201915b505050505090806007015490508c565b610bf26125aa565b6040518061018001604052808581526020018481526020018381526020016040518060200160405280600081525081526020016040518060200160405280600081525081526020013373ffffffffffffffffffffffffffffffffffffffff1681526020016000151581526020016000151581526020016000151581526020016000151581526020016040518060200160405280600081525081526020016000815250905080600b60003373ffffffffffffffffffffffffffffffffffffffff1673ffffffffffffffffffffffffffffffffffffffff1681526020019081526020016000206000820151816000019080519060200190610cf2929190612629565b506020820151816001019080519060200190610d0f929190612629565b506040820151816002019080519060200190610d2c929190612629565b506060820151816003019080519060200190610d49929190612629565b506080820151816004019080519060200190610d66929190612629565b5060a08201518160050160006101000a81548173ffffffffffffffffffffffffffffffffffffffff021916908373ffffffffffffffffffffffffffffffffffffffff16021790555060c08201518160050160146101000a81548160ff02191690831515021790555060e08201518160050160156101000a81548160ff0219169083151502179055506101008201518160050160166101000a81548160ff0219169083151502179055506101208201518160050160176101000a81548160ff021916908315150217905550610140820151816006019080519060200190610e4d929190612629565b506101608201518160070155905050600260008154809291906001019190505550600c3390806001815401808255809150509060018203906000526020600020016000909192909190916101000a81548173ffffffffffffffffffffffffffffffffffffffff021916908373ffffffffffffffffffffffffffffffffffffffff1602179055505050505050565b60008060009054906101000a900473ffffffffffffffffffffffffffffffffffffffff16905090565b606080600060606000600b60008773ffffffffffffffffffffffffffffffffffffffff1673ffffffffffffffffffffffffffffffffffffffff168152602001908152602001600020600101600b60008873ffffffffffffffffffffffffffffffffffffffff1673ffffffffffffffffffffffffffffffffffffffff168152602001908152602001600020600201600b60008973ffffffffffffffffffffffffffffffffffffffff1673ffffffffffffffffffffffffffffffffffffffff16815260200190815260200160002060050160009054906101000a900473ffffffffffffffffffffffffffffffffffffffff16600b60008a73ffffffffffffffffffffffffffffffffffffffff1673ffffffffffffffffffffffffffffffffffffffff168152602001908152602001600020600001600b60008b73ffffffffffffffffffffffffffffffffffffffff1673ffffffffffffffffffffffffffffffffffffffff16815260200190815260200160002060050160149054906101000a900460ff16848054600181600116156101000203166002900480601f01602080910402602001604051908101604052809291908181526020018280546001816001161561010002031660029004801561111a5780601f106110ef5761010080835404028352916020019161111a565b820191906000526020600020905b8154815290600101906020018083116110fd57829003601f168201915b50505050509450838054600181600116156101000203166002900480601f0160208091040260200160405190810160405280929190818152602001828054600181600116156101000203166002900480156111b65780601f1061118b576101008083540402835291602001916111b6565b820191906000526020600020905b81548152906001019060200180831161119957829003601f168201915b50505050509350818054600181600116156101000203166002900480601f0160208091040260200160405190810160405280929190818152602001828054600181600116156101000203166002900480156112525780601f1061122757610100808354040283529160200191611252565b820191906000526020600020905b81548152906001019060200180831161123557829003601f168201915b505050505091509450945094509450945091939590929450565b6001600360006101000a81548160ff021916908315150217905550816004908051906020019061129d9291906124a3565b5080600590805190602001906112b49291906124a3565b506112bd610625565b5050565b60608060025460405190808252806020026020018201604052801561130057816020015b6112ed6126a9565b8152602001906001900390816112e55790505b50905060008090505b60025481101561185157600b6000600c838154811061132457fe5b9060005260206000200160009054906101000a900473ffffffffffffffffffffffffffffffffffffffff1673ffffffffffffffffffffffffffffffffffffffff1673ffffffffffffffffffffffffffffffffffffffff16815260200190815260200160002060405180610180016040529081600082018054600181600116156101000203166002900480601f01602080910402602001604051908101604052809291908181526020018280546001816001161561010002031660029004801561142e5780601f106114035761010080835404028352916020019161142e565b820191906000526020600020905b81548152906001019060200180831161141157829003601f168201915b50505050508152602001600182018054600181600116156101000203166002900480601f0160208091040260200160405190810160405280929190818152602001828054600181600116156101000203166002900480156114d05780601f106114a5576101008083540402835291602001916114d0565b820191906000526020600020905b8154815290600101906020018083116114b357829003601f168201915b50505050508152602001600282018054600181600116156101000203166002900480601f0160208091040260200160405190810160405280929190818152602001828054600181600116156101000203166002900480156115725780601f1061154757610100808354040283529160200191611572565b820191906000526020600020905b81548152906001019060200180831161155557829003601f168201915b50505050508152602001600382018054600181600116156101000203166002900480601f0160208091040260200160405190810160405280929190818152602001828054600181600116156101000203166002900480156116145780601f106115e957610100808354040283529160200191611614565b820191906000526020600020905b8154815290600101906020018083116115f757829003601f168201915b50505050508152602001600482018054600181600116156101000203166002900480601f0160208091040260200160405190810160405280929190818152602001828054600181600116156101000203166002900480156116b65780601f1061168b576101008083540402835291602001916116b6565b820191906000526020600020905b81548152906001019060200180831161169957829003601f168201915b505050505081526020016005820160009054906101000a900473ffffffffffffffffffffffffffffffffffffffff1673ffffffffffffffffffffffffffffffffffffffff1673ffffffffffffffffffffffffffffffffffffffff1681526020016005820160149054906101000a900460ff161515151581526020016005820160159054906101000a900460ff161515151581526020016005820160169054906101000a900460ff161515151581526020016005820160179054906101000a900460ff16151515158152602001600682018054600181600116156101000203166002900480601f01602080910402602001604051908101604052809291908181526020018280546001816001161561010002031660029004801561181a5780601f106117ef5761010080835404028352916020019161181a565b820191906000526020600020905b8154815290600101906020018083116117fd57829003601f168201915b5050505050815260200160078201548152505082828151811061183957fe5b60200260200101819052508080600101915050611309565b508091505090565b6000600360019054906101000a900460ff16905090565b6001600b60008573ffffffffffffffffffffffffffffffffffffffff1673ffffffffffffffffffffffffffffffffffffffff16815260200190815260200160002060050160166101000a81548160ff02191690831515021790555081600b60008573ffffffffffffffffffffffffffffffffffffffff1673ffffffffffffffffffffffffffffffffffffffff16815260200190815260200160002060030190805190602001906119219291906124a3565b5080600b60008573ffffffffffffffffffffffffffffffffffffffff1673ffffffffffffffffffffffffffffffffffffffff16815260200190815260200160002060040190805190602001906119789291906124a3565b50600a60008154809291906001019190505550505050565b6000600b60008373ffffffffffffffffffffffffffffffffffffffff1673ffffffffffffffffffffffffffffffffffffffff16815260200190815260200160002060050160166101000a81548160ff0219169083151502179055506001600b60008373ffffffffffffffffffffffffffffffffffffffff1673ffffffffffffffffffffffffffffffffffffffff16815260200190815260200160002060050160146101000a81548160ff021916908315150217905550600a600081548092919060019003919050555050565b611a646125aa565b600b60008373ffffffffffffffffffffffffffffffffffffffff1673ffffffffffffffffffffffffffffffffffffffff16815260200190815260200160002060405180610180016040529081600082018054600181600116156101000203166002900480601f016020809104026020016040519081016040528092919081815260200182805460018160011615610100020316600290048015611b485780601f10611b1d57610100808354040283529160200191611b48565b820191906000526020600020905b815481529060010190602001808311611b2b57829003601f168201915b50505050508152602001600182018054600181600116156101000203166002900480601f016020809104026020016040519081016040528092919081815260200182805460018160011615610100020316600290048015611bea5780601f10611bbf57610100808354040283529160200191611bea565b820191906000526020600020905b815481529060010190602001808311611bcd57829003601f168201915b50505050508152602001600282018054600181600116156101000203166002900480601f016020809104026020016040519081016040528092919081815260200182805460018160011615610100020316600290048015611c8c5780601f10611c6157610100808354040283529160200191611c8c565b820191906000526020600020905b815481529060010190602001808311611c6f57829003601f168201915b50505050508152602001600382018054600181600116156101000203166002900480601f016020809104026020016040519081016040528092919081815260200182805460018160011615610100020316600290048015611d2e5780601f10611d0357610100808354040283529160200191611d2e565b820191906000526020600020905b815481529060010190602001808311611d1157829003601f168201915b50505050508152602001600482018054600181600116156101000203166002900480601f016020809104026020016040519081016040528092919081815260200182805460018160011615610100020316600290048015611dd05780601f10611da557610100808354040283529160200191611dd0565b820191906000526020600020905b815481529060010190602001808311611db357829003601f168201915b505050505081526020016005820160009054906101000a900473ffffffffffffffffffffffffffffffffffffffff1673ffffffffffffffffffffffffffffffffffffffff1673ffffffffffffffffffffffffffffffffffffffff1681526020016005820160149054906101000a900460ff161515151581526020016005820160159054906101000a900460ff161515151581526020016005820160169054906101000a900460ff161515151581526020016005820160179054906101000a900460ff16151515158152602001600682018054600181600116156101000203166002900480601f016020809104026020016040519081016040528092919081815260200182805460018160011615610100020316600290048015611f345780601f10611f0957610100808354040283529160200191611f34565b820191906000526020600020905b815481529060010190602001808311611f1757829003601f168201915b505050505081526020016007820154815250509050919050565b6000600360009054906101000a900460ff16905090565b600080600090505b600c8054905081101561209a57600c8181548110611f8757fe5b9060005260206000200160009054906101000a900473ffffffffffffffffffffffffffffffffffffffff1673ffffffffffffffffffffffffffffffffffffffff168473ffffffffffffffffffffffffffffffffffffffff16148061207e5750600b6000600c8381548110611ff757fe5b9060005260206000200160009054906101000a900473ffffffffffffffffffffffffffffffffffffffff1673ffffffffffffffffffffffffffffffffffffffff1673ffffffffffffffffffffffffffffffffffffffff16815260200190815260200160002060010160405161206c9190612e99565b60405180910390208380519060200120145b1561208d5760019150506120a0565b8080600101915050611f6d565b50600090505b92915050565b6000600b60008373ffffffffffffffffffffffffffffffffffffffff1673ffffffffffffffffffffffffffffffffffffffff16815260200190815260200160002060050160166101000a81548160ff0219169083151502179055506001600b60008373ffffffffffffffffffffffffffffffffffffffff1673ffffffffffffffffffffffffffffffffffffffff16815260200190815260200160002060050160176101000a81548160ff021916908315150217905550600a600081548092919060019003919050555050565b600080600a541415612185576000612188565b60015b905090565b600c818154811061219a57fe5b906000526020600020016000915054906101000a900473ffffffffffffffffffffffffffffffffffffffff1681565b600080606080606080600360009054906101000a900460ff16600360019054906101000a900460ff166004600560066007838054600181600116156101000203166002900480601f01602080910402602001604051908101604052809291908181526020018280546001816001161561010002031660029004801561228f5780601f106122645761010080835404028352916020019161228f565b820191906000526020600020905b81548152906001019060200180831161227257829003601f168201915b50505050509350828054600181600116156101000203166002900480601f01602080910402602001604051908101604052809291908181526020018280546001816001161561010002031660029004801561232b5780601f106123005761010080835404028352916020019161232b565b820191906000526020600020905b81548152906001019060200180831161230e57829003601f168201915b50505050509250818054600181600116156101000203166002900480601f0160208091040260200160405190810160405280929190818152602001828054600181600116156101000203166002900480156123c75780601f1061239c576101008083540402835291602001916123c7565b820191906000526020600020905b8154815290600101906020018083116123aa57829003601f168201915b50505050509150808054600181600116156101000203166002900480601f0160208091040260200160405190810160405280929190818152602001828054600181600116156101000203166002900480156124635780601f1061243857610100808354040283529160200191612463565b820191906000526020600020905b81548152906001019060200180831161244657829003601f168201915b50505050509050955095509550955095509550909192939495565b6000809054906101000a900473ffffffffffffffffffffffffffffffffffffffff1681565b828054600181600116156101000203166002900490600052602060002090601f016020900481019282601f106124e457805160ff1916838001178555612512565b82800160010185558215612512579182015b828111156125115782518255916020019190600101906124f6565b5b50905061251f9190612728565b5090565b828054600181600116156101000203166002900490600052602060002090601f016020900481019282601f1061255c5780548555612599565b8280016001018555821561259957600052602060002091601f016020900482015b8281111561259857825482559160010191906001019061257d565b5b5090506125a69190612728565b5090565b6040518061018001604052806060815260200160608152602001606081526020016060815260200160608152602001600073ffffffffffffffffffffffffffffffffffffffff16815260200160001515815260200160001515815260200160001515815260200160001515815260200160608152602001600081525090565b828054600181600116156101000203166002900490600052602060002090601f016020900481019282601f1061266a57805160ff1916838001178555612698565b82800160010185558215612698579182015b8281111561269757825182559160200191906001019061267c565b5b5090506126a59190612728565b5090565b6040518061018001604052806060815260200160608152602001606081526020016060815260200160608152602001600073ffffffffffffffffffffffffffffffffffffffff16815260200160001515815260200160001515815260200160001515815260200160001515815260200160608152602001600081525090565b61274a91905b8082111561274657600081600090555060010161272e565b5090565b90565b60008135905061275c8161329a565b92915050565b600082601f83011261277357600080fd5b813561278661278182613142565b613115565b915080825260208301602083018583830111156127a257600080fd5b6127ad838284613247565b50505092915050565b6000813590506127c5816132b1565b92915050565b6000602082840312156127dd57600080fd5b60006127eb8482850161274d565b91505092915050565b6000806040838503121561280757600080fd5b60006128158582860161274d565b92505060206128268582860161274d565b9150509250929050565b6000806040838503121561284357600080fd5b60006128518582860161274d565b925050602083013567ffffffffffffffff81111561286e57600080fd5b61287a85828601612762565b9150509250929050565b60008060006060848603121561289957600080fd5b60006128a78682870161274d565b935050602084013567ffffffffffffffff8111156128c457600080fd5b6128d086828701612762565b925050604084013567ffffffffffffffff8111156128ed57600080fd5b6128f986828701612762565b9150509250925092565b6000806040838503121561291657600080fd5b600083013567ffffffffffffffff81111561293057600080fd5b61293c85828601612762565b925050602083013567ffffffffffffffff81111561295957600080fd5b61296585828601612762565b9150509250929050565b60008060006060848603121561298457600080fd5b600084013567ffffffffffffffff81111561299e57600080fd5b6129aa86828701612762565b935050602084013567ffffffffffffffff8111156129c757600080fd5b6129d386828701612762565b925050604084013567ffffffffffffffff8111156129f057600080fd5b6129fc86828701612762565b9150509250925092565b600060208284031215612a1857600080fd5b6000612a26848285016127b6565b91505092915050565b6000612a3b8383612d54565b905092915050565b612a4c816131ff565b82525050565b612a5b816131ff565b82525050565b6000612a6c82613193565b612a7681856131c1565b935083602082028501612a888561316e565b8060005b85811015612ac45784840389528151612aa58582612a2f565b9450612ab0836131b4565b925060208a01995050600181019050612a8c565b50829750879550505050505092915050565b612adf81613211565b82525050565b612aee81613211565b82525050565b600081546001811660008114612b115760018114612b3657612b7a565b607f6002830416612b2281876131d2565b955060ff1983168652808601935050612b7a565b60028204612b4481876131d2565b9550612b4f8561317e565b60005b82811015612b7157815481890152600182019150602081019050612b52565b82880195505050505b505092915050565b6000612b8d826131a9565b612b9781856131ee565b9350612ba7818560208601613256565b612bb081613289565b840191505092915050565b6000612bc68261319e565b612bd081856131dd565b9350612be0818560208601613256565b612be981613289565b840191505092915050565b6000612bff8261319e565b612c0981856131ee565b9350612c19818560208601613256565b612c2281613289565b840191505092915050565b6000610180830160008301518482036000860152612c4b8282612bbb565b91505060208301518482036020860152612c658282612bbb565b91505060408301518482036040860152612c7f8282612bbb565b91505060608301518482036060860152612c998282612bbb565b91505060808301518482036080860152612cb38282612bbb565b91505060a0830151612cc860a0860182612a43565b5060c0830151612cdb60c0860182612ad6565b5060e0830151612cee60e0860182612ad6565b50610100830151612d03610100860182612ad6565b50610120830151612d18610120860182612ad6565b50610140830151848203610140860152612d328282612bbb565b915050610160830151612d49610160860182612e7b565b508091505092915050565b6000610180830160008301518482036000860152612d728282612bbb565b91505060208301518482036020860152612d8c8282612bbb565b91505060408301518482036040860152612da68282612bbb565b91505060608301518482036060860152612dc08282612bbb565b91505060808301518482036080860152612dda8282612bbb565b91505060a0830151612def60a0860182612a43565b5060c0830151612e0260c0860182612ad6565b5060e0830151612e1560e0860182612ad6565b50610100830151612e2a610100860182612ad6565b50610120830151612e3f610120860182612ad6565b50610140830151848203610140860152612e598282612bbb565b915050610160830151612e70610160860182612e7b565b508091505092915050565b612e848161323d565b82525050565b612e938161323d565b82525050565b6000612ea58284612af4565b915081905092915050565b6000602082019050612ec56000830184612a52565b92915050565b60006020820190508181036000830152612ee58184612a61565b905092915050565b6000602082019050612f026000830184612ae5565b92915050565b600060c082019050612f1d6000830189612ae5565b612f2a6020830188612ae5565b8181036040830152612f3c8187612b82565b90508181036060830152612f508186612b82565b90508181036080830152612f648185612b82565b905081810360a0830152612f788184612b82565b9050979650505050505050565b60006020820190508181036000830152612f9f8184612bf4565b905092915050565b600060a0820190508181036000830152612fc18188612b82565b90508181036020830152612fd58187612b82565b9050612fe46040830186612a52565b8181036060830152612ff68185612b82565b90506130056080830184612ae5565b9695505050505050565b600061018082019050818103600083015261302a818f612bf4565b9050818103602083015261303e818e612bf4565b90508181036040830152613052818d612bf4565b90508181036060830152613066818c612bf4565b9050818103608083015261307a818b612bf4565b905061308960a083018a612a52565b61309660c0830189612ae5565b6130a360e0830188612ae5565b6130b1610100830187612ae5565b6130bf610120830186612ae5565b8181036101408301526130d28185612bf4565b90506130e2610160830184612e8a565b9d9c50505050505050505050505050565b6000602082019050818103600083015261310d8184612c2d565b905092915050565b6000604051905081810181811067ffffffffffffffff8211171561313857600080fd5b8060405250919050565b600067ffffffffffffffff82111561315957600080fd5b601f19601f8301169050602081019050919050565b6000819050602082019050919050565b60008190508160005260206000209050919050565b600081519050919050565b600081519050919050565b600081519050919050565b6000602082019050919050565b600082825260208201905092915050565b600081905092915050565b600082825260208201905092915050565b600082825260208201905092915050565b600061320a8261321d565b9050919050565b60008115159050919050565b600073ffffffffffffffffffffffffffffffffffffffff82169050919050565b6000819050919050565b82818337600083830152505050565b60005b83811015613274578082015181840152602081019050613259565b83811115613283576000848401525b50505050565b6000601f19601f8301169050919050565b6132a3816131ff565b81146132ae57600080fd5b50565b6132ba8161323d565b81146132c557600080fd5b5056fea365627a7a7231582041597a68e1c643ecfcafbfec0d38952d5d0f9b9fa49771a4908f43e1fedcbd566c6578706572696d656e74616cf564736f6c63430005100040",
  "source": "// SPDX-License-Identifier: MIT\r\npragma solidity >=0.4.21 <0.9.0;\r\npragma experimental ABIEncoderV2;\r\n\r\ncontract Election {\r\n    address public admin;\r\n    uint256 candidateCount;\r\n    uint256 voterCount;\r\n    bool isElectionStarted;\r\n    bool isElectionEnded;\r\n    string electionTitle;\r\n    string electionOrganization;\r\n    string currentElectionPhase;\r\n    string nextElectionPhase;\r\n    uint256 electionPhaseIndex;\r\n    string[] public electionPhases;\r\n    uint256 pendingRequests;\r\n\r\n    constructor() public {\r\n        // Initilizing default values\r\n        admin = msg.sender;\r\n        candidateCount = 0;\r\n        voterCount = 0;\r\n        pendingRequests = 0;\r\n        isElectionStarted = false;\r\n        isElectionEnded = false;\r\n        electionTitle = \"\";\r\n        electionOrganization = \"\";\r\n        electionPhaseIndex = 0;\r\n        electionPhases = [\r\n            \"None\",\r\n            \"Voter Verification\",\r\n            \"Candidate Application\",\r\n            \"Voting\",\r\n            \"Result\"\r\n        ];\r\n        currentElectionPhase = electionPhases[electionPhaseIndex];\r\n        nextElectionPhase = electionPhases[electionPhaseIndex + 1];\r\n        \r\n    }\r\n\r\n    struct voter {\r\n        string username;\r\n        string email;\r\n        string password;\r\n        string prn;\r\n        string mobile;\r\n        address voterAddress;\r\n        bool isVerified;\r\n        bool hasVoted;\r\n        bool hasApplied;\r\n        bool isCandidate;\r\n        // bool isDenied;\r\n        // string deniedFor;\r\n        string tagLine;\r\n        uint256 votesCount;\r\n    }\r\n\r\n    mapping(address => voter) public voterDetails;\r\n    address[] public voters; // Array of address to store address of voters\r\n\r\n    /*------------------------ Voter Verification --------------------------- */\r\n\r\n    // Update verification details\r\n    function addVerificationRequest(\r\n        address pendingVoterAddress,\r\n        string memory _prn,\r\n        string memory _mobile\r\n    ) public {\r\n        voterDetails[pendingVoterAddress].hasApplied = true;\r\n        voterDetails[pendingVoterAddress].prn = _prn;\r\n        voterDetails[pendingVoterAddress].mobile = _mobile;\r\n        pendingRequests ++;\r\n    }\r\n\r\n    // Approve verification requests\r\n    function approveVerificationRequests(address pendingVoterAddress) public {\r\n        voterDetails[pendingVoterAddress].hasApplied = false;\r\n        voterDetails[pendingVoterAddress].isVerified = true;\r\n        pendingRequests --;\r\n        // if (voterDetails[pendingVoterAddress].isDenied) {\r\n        //     voterDetails[pendingVoterAddress].deniedFor = \"\";\r\n        //     voterDetails[pendingVoterAddress].isDenied = false;\r\n        // }\r\n    }\r\n\r\n    // Deny verification requests\r\n    // function denyVerificationRequests(\r\n    //     address pendingVoterAddress,\r\n    //     string memory _deniedFor\r\n    // ) public {\r\n    //     voterDetails[pendingVoterAddress].hasApplied = false;\r\n    //     voterDetails[pendingVoterAddress].isDenied = true;\r\n    //     voterDetails[pendingVoterAddress].deniedFor = _deniedFor;\r\n    // }\r\n\r\n    // sending candidate request\r\n\r\n    function addCandidateRequest(\r\n        address pendingVoterAddress,\r\n        string memory _tagLine\r\n    ) public {\r\n        voterDetails[pendingVoterAddress].hasApplied = true;\r\n        voterDetails[pendingVoterAddress].tagLine = _tagLine;\r\n        pendingRequests ++;\r\n    }\r\n\r\n    // Approve candidate requests\r\n    function approveCandidateRequests(address pendingVoterAddress) public {\r\n        voterDetails[pendingVoterAddress].hasApplied = false;\r\n        voterDetails[pendingVoterAddress].isCandidate = true;\r\n        pendingRequests--;\r\n        // if (voterDetails[pendingVoterAddress].isDenied) {\r\n        //     voterDetails[pendingVoterAddress].deniedFor = \"\";\r\n        //     voterDetails[pendingVoterAddress].isDenied = false;\r\n        // }\r\n    }\r\n\r\n    // Get all voter details\r\n    function getAllVoterDetails() public view returns (voter[] memory) {\r\n        voter[] memory allVoterDetails = new voter[](voterCount);\r\n        for (uint256 i = 0; i < voterCount; i++) {\r\n            allVoterDetails[i] = voterDetails[voters[i]];\r\n        }\r\n        return allVoterDetails;\r\n    }\r\n\r\n    function getVoterDetails(address voterAddress) public view returns (voter memory){\r\n        return voterDetails[voterAddress];\r\n    }\r\n\r\n    /*------------------------ Voter Handlers --------------------------- */\r\n\r\n    function addVoterDetails(\r\n        string memory _username,\r\n        string memory _email,\r\n        string memory _password\r\n    ) public {\r\n        voter memory newVoter = voter({\r\n            username: _username,\r\n            email: _email,\r\n            password: _password,\r\n            voterAddress: msg.sender,\r\n            prn: \"\",\r\n            mobile: \"\",\r\n            votesCount: 0,\r\n            isVerified: false,\r\n            hasVoted: false,\r\n            hasApplied: false,\r\n            isCandidate: false,\r\n            // isDenied: false,\r\n            // deniedFor: \"\",\r\n            tagLine: \"\"\r\n        });\r\n        voterDetails[msg.sender] = newVoter;\r\n        voterCount++;\r\n        voters.push(msg.sender);\r\n    }\r\n\r\n    function isVoterExists(address voterAddress, string memory mail) public view returns (bool) {\r\n        //Loop through voters array\r\n        for (uint256 i = 0; i < voters.length; i++) {\r\n            if ((voterAddress) == voters[i] ||\r\n                (keccak256(bytes(mail)) == keccak256(bytes(voterDetails[voters[i]].email)))){\r\n                return true;\r\n            }\r\n        }\r\n        return false;\r\n    }\r\n\r\n    function getLoginDetails(address loginAddress)\r\n        public\r\n        view\r\n        returns (\r\n            string memory,\r\n            string memory,\r\n            address,\r\n            string memory,\r\n            bool\r\n        )\r\n    {\r\n        return (\r\n            voterDetails[loginAddress].email,\r\n            voterDetails[loginAddress].password,\r\n            voterDetails[loginAddress].voterAddress,\r\n            voterDetails[loginAddress].username,\r\n            voterDetails[loginAddress].isVerified\r\n        );\r\n    }\r\n\r\n    /*------------------------ Election Handlers --------------------------- */\r\n\r\n    function getAdmin() public view returns (address) {\r\n        // Returns account address used to deploy contract (i.e. admin)\r\n        return admin;\r\n    }\r\n\r\n    // Get election isElectionStarted and isElectionEnded values\r\n    function getStart() public view returns (bool) {\r\n        return isElectionStarted;\r\n    }\r\n\r\n    function getEnd() public view returns (bool) {\r\n        return isElectionEnded;\r\n    }\r\n\r\n    function changeElectionPhase() public {\r\n        electionPhaseIndex = (electionPhaseIndex + 1) % electionPhases.length;\r\n        currentElectionPhase = electionPhases[electionPhaseIndex];\r\n        nextElectionPhase = electionPhases[\r\n            (electionPhaseIndex + 1) % electionPhases.length\r\n        ];\r\n        if (electionPhaseIndex == electionPhases.length - 1) {\r\n            isElectionEnded = true;\r\n        }\r\n    }\r\n\r\n    function isPendingRequest() public view returns(bool) {\r\n       return (pendingRequests != 0) ? true : false ;\r\n    }\r\n    function getElectionDetails()\r\n        public\r\n        view\r\n        returns (\r\n            bool,\r\n            bool,\r\n            string memory,\r\n            string memory,\r\n            string memory,\r\n            string memory\r\n        )\r\n    {\r\n        return (\r\n            isElectionStarted,\r\n            isElectionEnded,\r\n            electionTitle,\r\n            electionOrganization,\r\n            currentElectionPhase,\r\n            nextElectionPhase\r\n        );\r\n    }\r\n\r\n    function startElection(\r\n        string memory _electionTitle,\r\n        string memory _electionOrganization\r\n    ) public {\r\n        isElectionStarted = true;\r\n        electionTitle = _electionTitle;\r\n        electionOrganization = _electionOrganization;\r\n        changeElectionPhase();\r\n    }\r\n\r\n    /*------------------------ Voting Handlers --------------------------- */\r\n\r\n    function addVote(address voterAddress, address candidateAddress) public {\r\n        voterDetails[voterAddress].hasVoted = true;\r\n        voterDetails[candidateAddress].votesCount++;\r\n    }\r\n\r\n    function hasVoted(address voterAddress) public view returns (bool) {\r\n        return voterDetails[voterAddress].hasVoted;\r\n    }\r\n}\r\n",
  "sourcePath": "C:\\Users\\91774\\OneDrive\\Desktop\\Voting-system-using-Blockchain\\contracts\\Election.sol",
  "compiler": {
    "name": "solc",
    "version": "0.5.16+commit.9c3226ce.Emscripten.clang"
  },
  "schemaVersion": "3.4.6",
  "updatedAt": "2022-05-11T13:10:23.492Z",
  "networkType": "ethereum",
  "devdoc": {
    "methods": {}
  },
  "userdoc": {
    "methods": {}
  }
}