{
  "contractName": "Election",
  "abi": [
    {
      "inputs": [],
      "payable": false,
      "stateMutability": "nonpayable",
      "type": "constructor"
    },
    {
      "constant": true,
      "inputs": [],
      "name": "admin",
      "outputs": [
        {
          "internalType": "address",
          "name": "",
          "type": "address"
        }
      ],
      "payable": false,
      "stateMutability": "view",
      "type": "function"
    },
    {
      "constant": true,
      "inputs": [],
      "name": "electionInstance",
      "outputs": [
        {
          "internalType": "bool",
          "name": "isElectionStarted",
          "type": "bool"
        },
        {
          "internalType": "bool",
          "name": "isElectionEnded",
          "type": "bool"
        },
        {
          "internalType": "string",
          "name": "electionTitle",
          "type": "string"
        },
        {
          "internalType": "string",
          "name": "electionOrganization",
          "type": "string"
        },
        {
          "internalType": "string",
          "name": "currentElectionPhase",
          "type": "string"
        },
        {
          "internalType": "string",
          "name": "nextElectionPhase",
          "type": "string"
        },
        {
          "internalType": "uint256",
          "name": "electionPhaseIndex",
          "type": "uint256"
        }
      ],
      "payable": false,
      "stateMutability": "view",
      "type": "function"
    },
    {
      "constant": true,
      "inputs": [
        {
          "internalType": "address",
          "name": "",
          "type": "address"
        }
      ],
      "name": "voterDetails",
      "outputs": [
        {
          "internalType": "string",
          "name": "username",
          "type": "string"
        },
        {
          "internalType": "string",
          "name": "email",
          "type": "string"
        },
        {
          "internalType": "string",
          "name": "password",
          "type": "string"
        },
        {
          "internalType": "string",
          "name": "prn",
          "type": "string"
        },
        {
          "internalType": "string",
          "name": "mobile",
          "type": "string"
        },
        {
          "internalType": "address",
          "name": "voterAddress",
          "type": "address"
        },
        {
          "internalType": "uint256",
          "name": "votesCount",
          "type": "uint256"
        },
        {
          "components": [
            {
              "internalType": "bool",
              "name": "isVerified",
              "type": "bool"
            },
            {
              "internalType": "bool",
              "name": "hasVoted",
              "type": "bool"
            },
            {
              "internalType": "bool",
              "name": "hasApplied",
              "type": "bool"
            },
            {
              "internalType": "bool",
              "name": "isCandidate",
              "type": "bool"
            },
            {
              "internalType": "bool",
              "name": "isDenied",
              "type": "bool"
            },
            {
              "internalType": "string",
              "name": "deniedFor",
              "type": "string"
            },
            {
              "internalType": "string",
              "name": "tagLine",
              "type": "string"
            }
          ],
          "internalType": "struct Election.voterExtraDetails",
          "name": "voterElectionDetails",
          "type": "tuple"
        }
      ],
      "payable": false,
      "stateMutability": "view",
      "type": "function"
    },
    {
      "constant": true,
      "inputs": [
        {
          "internalType": "uint256",
          "name": "",
          "type": "uint256"
        }
      ],
      "name": "voters",
      "outputs": [
        {
          "internalType": "address",
          "name": "",
          "type": "address"
        }
      ],
      "payable": false,
      "stateMutability": "view",
      "type": "function"
    },
    {
      "constant": false,
      "inputs": [
        {
          "internalType": "address",
          "name": "pendingVoterAddress",
          "type": "address"
        },
        {
          "internalType": "string",
          "name": "_prn",
          "type": "string"
        },
        {
          "internalType": "string",
          "name": "_mobile",
          "type": "string"
        }
      ],
      "name": "addVerificationRequest",
      "outputs": [],
      "payable": false,
      "stateMutability": "nonpayable",
      "type": "function"
    },
    {
      "constant": false,
      "inputs": [
        {
          "internalType": "address",
          "name": "pendingVoterAddress",
          "type": "address"
        }
      ],
      "name": "approveVerificationRequests",
      "outputs": [],
      "payable": false,
      "stateMutability": "nonpayable",
      "type": "function"
    },
    {
      "constant": false,
      "inputs": [
        {
          "internalType": "address",
          "name": "pendingVoterAddress",
          "type": "address"
        },
        {
          "internalType": "string",
          "name": "_deniedFor",
          "type": "string"
        }
      ],
      "name": "denyVerificationRequests",
      "outputs": [],
      "payable": false,
      "stateMutability": "nonpayable",
      "type": "function"
    },
    {
      "constant": false,
      "inputs": [
        {
          "internalType": "address",
          "name": "pendingVoterAddress",
          "type": "address"
        },
        {
          "internalType": "string",
          "name": "_tagLine",
          "type": "string"
        }
      ],
      "name": "addCandidateRequest",
      "outputs": [],
      "payable": false,
      "stateMutability": "nonpayable",
      "type": "function"
    },
    {
      "constant": false,
      "inputs": [
        {
          "internalType": "address",
          "name": "pendingVoterAddress",
          "type": "address"
        }
      ],
      "name": "approveCandidateRequests",
      "outputs": [],
      "payable": false,
      "stateMutability": "nonpayable",
      "type": "function"
    },
    {
      "constant": true,
      "inputs": [],
      "name": "isPendingRequest",
      "outputs": [
        {
          "internalType": "bool",
          "name": "",
          "type": "bool"
        }
      ],
      "payable": false,
      "stateMutability": "view",
      "type": "function"
    },
    {
      "constant": true,
      "inputs": [],
      "name": "getAllVoterDetails",
      "outputs": [
        {
          "components": [
            {
              "internalType": "string",
              "name": "username",
              "type": "string"
            },
            {
              "internalType": "string",
              "name": "email",
              "type": "string"
            },
            {
              "internalType": "string",
              "name": "password",
              "type": "string"
            },
            {
              "internalType": "string",
              "name": "prn",
              "type": "string"
            },
            {
              "internalType": "string",
              "name": "mobile",
              "type": "string"
            },
            {
              "internalType": "address",
              "name": "voterAddress",
              "type": "address"
            },
            {
              "internalType": "uint256",
              "name": "votesCount",
              "type": "uint256"
            },
            {
              "components": [
                {
                  "internalType": "bool",
                  "name": "isVerified",
                  "type": "bool"
                },
                {
                  "internalType": "bool",
                  "name": "hasVoted",
                  "type": "bool"
                },
                {
                  "internalType": "bool",
                  "name": "hasApplied",
                  "type": "bool"
                },
                {
                  "internalType": "bool",
                  "name": "isCandidate",
                  "type": "bool"
                },
                {
                  "internalType": "bool",
                  "name": "isDenied",
                  "type": "bool"
                },
                {
                  "internalType": "string",
                  "name": "deniedFor",
                  "type": "string"
                },
                {
                  "internalType": "string",
                  "name": "tagLine",
                  "type": "string"
                }
              ],
              "internalType": "struct Election.voterExtraDetails",
              "name": "voterElectionDetails",
              "type": "tuple"
            }
          ],
          "internalType": "struct Election.voter[]",
          "name": "",
          "type": "tuple[]"
        }
      ],
      "payable": false,
      "stateMutability": "view",
      "type": "function"
    },
    {
      "constant": true,
      "inputs": [
        {
          "internalType": "address",
          "name": "voterAddress",
          "type": "address"
        }
      ],
      "name": "getVoterDetails",
      "outputs": [
        {
          "components": [
            {
              "internalType": "string",
              "name": "username",
              "type": "string"
            },
            {
              "internalType": "string",
              "name": "email",
              "type": "string"
            },
            {
              "internalType": "string",
              "name": "password",
              "type": "string"
            },
            {
              "internalType": "string",
              "name": "prn",
              "type": "string"
            },
            {
              "internalType": "string",
              "name": "mobile",
              "type": "string"
            },
            {
              "internalType": "address",
              "name": "voterAddress",
              "type": "address"
            },
            {
              "internalType": "uint256",
              "name": "votesCount",
              "type": "uint256"
            },
            {
              "components": [
                {
                  "internalType": "bool",
                  "name": "isVerified",
                  "type": "bool"
                },
                {
                  "internalType": "bool",
                  "name": "hasVoted",
                  "type": "bool"
                },
                {
                  "internalType": "bool",
                  "name": "hasApplied",
                  "type": "bool"
                },
                {
                  "internalType": "bool",
                  "name": "isCandidate",
                  "type": "bool"
                },
                {
                  "internalType": "bool",
                  "name": "isDenied",
                  "type": "bool"
                },
                {
                  "internalType": "string",
                  "name": "deniedFor",
                  "type": "string"
                },
                {
                  "internalType": "string",
                  "name": "tagLine",
                  "type": "string"
                }
              ],
              "internalType": "struct Election.voterExtraDetails",
              "name": "voterElectionDetails",
              "type": "tuple"
            }
          ],
          "internalType": "struct Election.voter",
          "name": "",
          "type": "tuple"
        }
      ],
      "payable": false,
      "stateMutability": "view",
      "type": "function"
    },
    {
      "constant": false,
      "inputs": [
        {
          "internalType": "string",
          "name": "_username",
          "type": "string"
        },
        {
          "internalType": "string",
          "name": "_email",
          "type": "string"
        },
        {
          "internalType": "string",
          "name": "_password",
          "type": "string"
        }
      ],
      "name": "addVoterDetails",
      "outputs": [],
      "payable": false,
      "stateMutability": "nonpayable",
      "type": "function"
    },
    {
      "constant": true,
      "inputs": [
        {
          "internalType": "address",
          "name": "voterAddress",
          "type": "address"
        },
        {
          "internalType": "string",
          "name": "mail",
          "type": "string"
        }
      ],
      "name": "isVoterExists",
      "outputs": [
        {
          "internalType": "bool",
          "name": "",
          "type": "bool"
        }
      ],
      "payable": false,
      "stateMutability": "view",
      "type": "function"
    },
    {
      "constant": true,
      "inputs": [],
      "name": "getAdmin",
      "outputs": [
        {
          "internalType": "address",
          "name": "",
          "type": "address"
        }
      ],
      "payable": false,
      "stateMutability": "view",
      "type": "function"
    },
    {
      "constant": false,
      "inputs": [],
      "name": "changeElectionPhase",
      "outputs": [],
      "payable": false,
      "stateMutability": "nonpayable",
      "type": "function"
    },
    {
      "constant": true,
      "inputs": [],
      "name": "getElectionDetails",
      "outputs": [
        {
          "internalType": "bool",
          "name": "",
          "type": "bool"
        },
        {
          "internalType": "bool",
          "name": "",
          "type": "bool"
        },
        {
          "internalType": "string",
          "name": "",
          "type": "string"
        },
        {
          "internalType": "string",
          "name": "",
          "type": "string"
        },
        {
          "internalType": "string",
          "name": "",
          "type": "string"
        },
        {
          "internalType": "string",
          "name": "",
          "type": "string"
        }
      ],
      "payable": false,
      "stateMutability": "view",
      "type": "function"
    },
    {
      "constant": false,
      "inputs": [
        {
          "internalType": "string",
          "name": "_electionTitle",
          "type": "string"
        },
        {
          "internalType": "string",
          "name": "_electionOrganization",
          "type": "string"
        }
      ],
      "name": "startElection",
      "outputs": [],
      "payable": false,
      "stateMutability": "nonpayable",
      "type": "function"
    },
    {
      "constant": false,
      "inputs": [
        {
          "internalType": "address",
          "name": "voterAddress",
          "type": "address"
        },
        {
          "internalType": "address",
          "name": "candidateAddress",
          "type": "address"
        }
      ],
      "name": "addVote",
      "outputs": [],
      "payable": false,
      "stateMutability": "nonpayable",
      "type": "function"
    },
    {
      "constant": true,
      "inputs": [
        {
          "internalType": "address",
          "name": "voterAddress",
          "type": "address"
        }
      ],
      "name": "hasVoted",
      "outputs": [
        {
          "internalType": "bool",
          "name": "",
          "type": "bool"
        }
      ],
      "payable": false,
      "stateMutability": "view",
      "type": "function"
    }
  ],
  "bytecode": "0x60806040523480156200001157600080fd5b50336000806101000a81548173ffffffffffffffffffffffffffffffffffffffff021916908373ffffffffffffffffffffffffffffffffffffffff1602179055506000600181905550600060028190555060006003819055506040518061010001604052806000151581526020016000151581526020016040518060200160405280600081525081526020016040518060200160405280600081525081526020016006800160066005015460058110620000c757fe5b018054600181600116156101000203166002900480601f016020809104026020016040519081016040528092919081815260200182805460018160011615610100020316600290048015620001605780601f10620001345761010080835404028352916020019162000160565b820191906000526020600020905b8154815290600101906020018083116200014257829003601f168201915b5050505050815260200160068001600160066005015401600581106200018257fe5b018054600181600116156101000203166002900480601f0160208091040260200160405190810160405280929190818152602001828054600181600116156101000203166002900480156200021b5780601f10620001ef576101008083540402835291602001916200021b565b820191906000526020600020905b815481529060010190602001808311620001fd57829003601f168201915b50505050508152602001600081526020016040518060a001604052806040518060400160405280600e81526020017f536574757020456c656374696f6e00000000000000000000000000000000000081525081526020016040518060400160405280601281526020017f566f74657220566572696669636174696f6e000000000000000000000000000081525081526020016040518060400160405280601581526020017f43616e646964617465204170706c69636174696f6e000000000000000000000081525081526020016040518060400160405280600681526020017f566f74696e67000000000000000000000000000000000000000000000000000081525081526020016040518060400160405280600681526020017f526573756c740000000000000000000000000000000000000000000000000000815250815250815250600660008201518160000160006101000a81548160ff02191690831515021790555060208201518160000160016101000a81548160ff0219169083151502179055506040820151816001019080519060200190620003bf9291906200044a565b506060820151816002019080519060200190620003de9291906200044a565b506080820151816003019080519060200190620003fd9291906200044a565b5060a08201518160040190805190602001906200041c9291906200044a565b5060c0820151816005015560e08201518160060190600562000440929190620004d1565b50905050620005d0565b828054600181600116156101000203166002900490600052602060002090601f016020900481019282601f106200048d57805160ff1916838001178555620004be565b82800160010185558215620004be579182015b82811115620004bd578251825591602001919060010190620004a0565b5b509050620004cd91906200052b565b5090565b826005810192821562000518579160200282015b8281111562000517578251829080519060200190620005069291906200044a565b5091602001919060010190620004e5565b5b50905062000527919062000553565b5090565b6200055091905b808211156200054c57600081600090555060010162000532565b5090565b90565b6200058191905b808211156200057d576000818162000573919062000584565b506001016200055a565b5090565b90565b50805460018160011615610100020316600290046000825580601f10620005ac5750620005cd565b601f016020900490600052602060002090810190620005cc91906200052b565b5b50565b61383e80620005e06000396000f3fe608060405234801561001057600080fd5b506004361061012c5760003560e01c8063a65b8f3b116100ad578063c97c395811610071578063c97c395814610326578063d681bbac14610344578063da58c7d914610360578063ed836bc314610390578063f851a440146103b35761012c565b8063a65b8f3b14610272578063ba51d32b1461028e578063ba71bef0146102aa578063c604f5b4146102da578063c8eb9ef11461030a5761012c565b80635938750d116100f45780635938750d146101c75780635cc2d13f146101fe5780636e9960c31461021a578063917addbd1461023857806392bcab34146102545761012c565b806303087c391461013157806309eef43e1461014d578063316b018d1461017d5780633d09c2a81461018757806341103455146101a3575b600080fd5b61014b60048036036101469190810190612d00565b6103d1565b005b61016760048036036101629190810190612c9b565b61049f565b604051610174919061345b565b60405180910390f35b6101856104fb565b005b6101a1600480360361019c9190810190612cc4565b6105ca565b005b6101ab61067e565b6040516101be97969594939291906134f3565b60405180910390f35b6101e160048036036101dc9190810190612c9b565b610928565b6040516101f598979695949392919061357e565b60405180910390f35b61021860048036036102139190810190612e3f565b610e5d565b005b6102226111c9565b60405161022f919061341e565b60405180910390f35b610252600480360361024d9190810190612dd3565b6111f2565b005b61025c611250565b6040516102699190613439565b60405180910390f35b61028c60048036036102879190810190612d54565b6118b9565b005b6102a860048036036102a39190810190612c9b565b6119dc565b005b6102c460048036036102bf9190810190612c9b565b611bce565b6040516102d19190613626565b60405180910390f35b6102f460048036036102ef9190810190612d00565b612191565b604051610301919061345b565b60405180910390f35b610324600480360361031f9190810190612c9b565b6122d2565b005b61032e6124c4565b60405161033b919061345b565b60405180910390f35b61035e60048036036103599190810190612d00565b6124df565b005b61037a60048036036103759190810190612ed6565b6125f9565b604051610387919061341e565b60405180910390f35b610398612635565b6040516103aa96959493929190613476565b60405180910390f35b6103bb6128fc565b6040516103c8919061341e565b60405180910390f35b6001600460008473ffffffffffffffffffffffffffffffffffffffff1673ffffffffffffffffffffffffffffffffffffffff16815260200190815260200160002060070160000160026101000a81548160ff02191690831515021790555080600460008473ffffffffffffffffffffffffffffffffffffffff1673ffffffffffffffffffffffffffffffffffffffff1681526020019081526020016000206007016002019080519060200190610488929190612921565b506003600081548092919060010191905055505050565b6000600460008373ffffffffffffffffffffffffffffffffffffffff1673ffffffffffffffffffffffffffffffffffffffff16815260200190815260200160002060070160000160019054906101000a900460ff169050919050565b60056001600660050154018161050d57fe5b06600660050181905550600680016006600501546005811061052b57fe5b01600660030190805460018160011615610100020316600290046105509291906129a1565b506006800160056001600660050154018161056757fe5b066005811061057257fe5b01600660040190805460018160011615610100020316600290046105979291906129a1565b50600160050360066005015414156105c8576001600660000160016101000a81548160ff0219169083151502179055505b565b6001600460008473ffffffffffffffffffffffffffffffffffffffff1673ffffffffffffffffffffffffffffffffffffffff16815260200190815260200160002060070160000160016101000a81548160ff021916908315150217905550600460008273ffffffffffffffffffffffffffffffffffffffff1673ffffffffffffffffffffffffffffffffffffffff168152602001908152602001600020600601600081548092919060010191905055505050565b60068060000160009054906101000a900460ff16908060000160019054906101000a900460ff1690806001018054600181600116156101000203166002900480601f01602080910402602001604051908101604052809291908181526020018280546001816001161561010002031660029004801561073e5780601f106107135761010080835404028352916020019161073e565b820191906000526020600020905b81548152906001019060200180831161072157829003601f168201915b505050505090806002018054600181600116156101000203166002900480601f0160208091040260200160405190810160405280929190818152602001828054600181600116156101000203166002900480156107dc5780601f106107b1576101008083540402835291602001916107dc565b820191906000526020600020905b8154815290600101906020018083116107bf57829003601f168201915b505050505090806003018054600181600116156101000203166002900480601f01602080910402602001604051908101604052809291908181526020018280546001816001161561010002031660029004801561087a5780601f1061084f5761010080835404028352916020019161087a565b820191906000526020600020905b81548152906001019060200180831161085d57829003601f168201915b505050505090806004018054600181600116156101000203166002900480601f0160208091040260200160405190810160405280929190818152602001828054600181600116156101000203166002900480156109185780601f106108ed57610100808354040283529160200191610918565b820191906000526020600020905b8154815290600101906020018083116108fb57829003601f168201915b5050505050908060050154905087565b6004602052806000526040600020600091509050806000018054600181600116156101000203166002900480601f0160208091040260200160405190810160405280929190818152602001828054600181600116156101000203166002900480156109d45780601f106109a9576101008083540402835291602001916109d4565b820191906000526020600020905b8154815290600101906020018083116109b757829003601f168201915b505050505090806001018054600181600116156101000203166002900480601f016020809104026020016040519081016040528092919081815260200182805460018160011615610100020316600290048015610a725780601f10610a4757610100808354040283529160200191610a72565b820191906000526020600020905b815481529060010190602001808311610a5557829003601f168201915b505050505090806002018054600181600116156101000203166002900480601f016020809104026020016040519081016040528092919081815260200182805460018160011615610100020316600290048015610b105780601f10610ae557610100808354040283529160200191610b10565b820191906000526020600020905b815481529060010190602001808311610af357829003601f168201915b505050505090806003018054600181600116156101000203166002900480601f016020809104026020016040519081016040528092919081815260200182805460018160011615610100020316600290048015610bae5780601f10610b8357610100808354040283529160200191610bae565b820191906000526020600020905b815481529060010190602001808311610b9157829003601f168201915b505050505090806004018054600181600116156101000203166002900480601f016020809104026020016040519081016040528092919081815260200182805460018160011615610100020316600290048015610c4c5780601f10610c2157610100808354040283529160200191610c4c565b820191906000526020600020905b815481529060010190602001808311610c2f57829003601f168201915b5050505050908060050160009054906101000a900473ffffffffffffffffffffffffffffffffffffffff1690806006015490806007016040518060e00160405290816000820160009054906101000a900460ff161515151581526020016000820160019054906101000a900460ff161515151581526020016000820160029054906101000a900460ff161515151581526020016000820160039054906101000a900460ff161515151581526020016000820160049054906101000a900460ff16151515158152602001600182018054600181600116156101000203166002900480601f016020809104026020016040519081016040528092919081815260200182805460018160011615610100020316600290048015610dad5780601f10610d8257610100808354040283529160200191610dad565b820191906000526020600020905b815481529060010190602001808311610d9057829003601f168201915b50505050508152602001600282018054600181600116156101000203166002900480601f016020809104026020016040519081016040528092919081815260200182805460018160011615610100020316600290048015610e4f5780601f10610e2457610100808354040283529160200191610e4f565b820191906000526020600020905b815481529060010190602001808311610e3257829003601f168201915b505050505081525050905088565b610e65612a28565b6040518060e00160405280600015158152602001600015158152602001600015158152602001600015158152602001600015158152602001604051806020016040528060008152508152602001604051806020016040528060008152508152509050610ecf612a6f565b6040518061010001604052808681526020018581526020018481526020016040518060200160405280600081525081526020016040518060200160405280600081525081526020013373ffffffffffffffffffffffffffffffffffffffff1681526020016000815260200183815250905080600460003373ffffffffffffffffffffffffffffffffffffffff1673ffffffffffffffffffffffffffffffffffffffff1681526020019081526020016000206000820151816000019080519060200190610f9c929190612ad0565b506020820151816001019080519060200190610fb9929190612ad0565b506040820151816002019080519060200190610fd6929190612ad0565b506060820151816003019080519060200190610ff3929190612ad0565b506080820151816004019080519060200190611010929190612ad0565b5060a08201518160050160006101000a81548173ffffffffffffffffffffffffffffffffffffffff021916908373ffffffffffffffffffffffffffffffffffffffff16021790555060c0820151816006015560e08201518160070160008201518160000160006101000a81548160ff02191690831515021790555060208201518160000160016101000a81548160ff02191690831515021790555060408201518160000160026101000a81548160ff02191690831515021790555060608201518160000160036101000a81548160ff02191690831515021790555060808201518160000160046101000a81548160ff02191690831515021790555060a0820151816001019080519060200190611127929190612ad0565b5060c0820151816002019080519060200190611144929190612ad0565b50505090505060026000815480929190600101919050555060053390806001815401808255809150509060018203906000526020600020016000909192909190916101000a81548173ffffffffffffffffffffffffffffffffffffffff021916908373ffffffffffffffffffffffffffffffffffffffff160217905550505050505050565b60008060009054906101000a900473ffffffffffffffffffffffffffffffffffffffff16905090565b6001600660000160006101000a81548160ff0219169083151502179055508160066001019080519060200190611229929190612921565b508060066002019080519060200190611243929190612921565b5061124c6104fb565b5050565b60608060025460405190808252806020026020018201604052801561128f57816020015b61127c612b50565b8152602001906001900390816112745790505b50905060008090505b6002548110156118b15760046000600583815481106112b357fe5b9060005260206000200160009054906101000a900473ffffffffffffffffffffffffffffffffffffffff1673ffffffffffffffffffffffffffffffffffffffff1673ffffffffffffffffffffffffffffffffffffffff16815260200190815260200160002060405180610100016040529081600082018054600181600116156101000203166002900480601f0160208091040260200160405190810160405280929190818152602001828054600181600116156101000203166002900480156113bd5780601f10611392576101008083540402835291602001916113bd565b820191906000526020600020905b8154815290600101906020018083116113a057829003601f168201915b50505050508152602001600182018054600181600116156101000203166002900480601f01602080910402602001604051908101604052809291908181526020018280546001816001161561010002031660029004801561145f5780601f106114345761010080835404028352916020019161145f565b820191906000526020600020905b81548152906001019060200180831161144257829003601f168201915b50505050508152602001600282018054600181600116156101000203166002900480601f0160208091040260200160405190810160405280929190818152602001828054600181600116156101000203166002900480156115015780601f106114d657610100808354040283529160200191611501565b820191906000526020600020905b8154815290600101906020018083116114e457829003601f168201915b50505050508152602001600382018054600181600116156101000203166002900480601f0160208091040260200160405190810160405280929190818152602001828054600181600116156101000203166002900480156115a35780601f10611578576101008083540402835291602001916115a3565b820191906000526020600020905b81548152906001019060200180831161158657829003601f168201915b50505050508152602001600482018054600181600116156101000203166002900480601f0160208091040260200160405190810160405280929190818152602001828054600181600116156101000203166002900480156116455780601f1061161a57610100808354040283529160200191611645565b820191906000526020600020905b81548152906001019060200180831161162857829003601f168201915b505050505081526020016005820160009054906101000a900473ffffffffffffffffffffffffffffffffffffffff1673ffffffffffffffffffffffffffffffffffffffff1673ffffffffffffffffffffffffffffffffffffffff16815260200160068201548152602001600782016040518060e00160405290816000820160009054906101000a900460ff161515151581526020016000820160019054906101000a900460ff161515151581526020016000820160029054906101000a900460ff161515151581526020016000820160039054906101000a900460ff161515151581526020016000820160049054906101000a900460ff16151515158152602001600182018054600181600116156101000203166002900480601f0160208091040260200160405190810160405280929190818152602001828054600181600116156101000203166002900480156117de5780601f106117b3576101008083540402835291602001916117de565b820191906000526020600020905b8154815290600101906020018083116117c157829003601f168201915b50505050508152602001600282018054600181600116156101000203166002900480601f0160208091040260200160405190810160405280929190818152602001828054600181600116156101000203166002900480156118805780601f1061185557610100808354040283529160200191611880565b820191906000526020600020905b81548152906001019060200180831161186357829003601f168201915b5050505050815250508152505082828151811061189957fe5b60200260200101819052508080600101915050611298565b508091505090565b6001600460008573ffffffffffffffffffffffffffffffffffffffff1673ffffffffffffffffffffffffffffffffffffffff16815260200190815260200160002060070160000160026101000a81548160ff02191690831515021790555081600460008573ffffffffffffffffffffffffffffffffffffffff1673ffffffffffffffffffffffffffffffffffffffff168152602001908152602001600020600301908051906020019061196d929190612921565b5080600460008573ffffffffffffffffffffffffffffffffffffffff1673ffffffffffffffffffffffffffffffffffffffff16815260200190815260200160002060040190805190602001906119c4929190612921565b50600360008154809291906001019190505550505050565b6000600460008373ffffffffffffffffffffffffffffffffffffffff1673ffffffffffffffffffffffffffffffffffffffff16815260200190815260200160002060070160000160026101000a81548160ff0219169083151502179055506001600460008373ffffffffffffffffffffffffffffffffffffffff1673ffffffffffffffffffffffffffffffffffffffff16815260200190815260200160002060070160000160006101000a81548160ff02191690831515021790555060036000815480929190600190039190505550600460008273ffffffffffffffffffffffffffffffffffffffff1673ffffffffffffffffffffffffffffffffffffffff16815260200190815260200160002060070160000160049054906101000a900460ff1615611bcb5760405180602001604052806000815250600460008373ffffffffffffffffffffffffffffffffffffffff1673ffffffffffffffffffffffffffffffffffffffff1681526020019081526020016000206007016001019080519060200190611b6b929190612921565b506000600460008373ffffffffffffffffffffffffffffffffffffffff1673ffffffffffffffffffffffffffffffffffffffff16815260200190815260200160002060070160000160046101000a81548160ff0219169083151502179055505b50565b611bd6612a6f565b600460008373ffffffffffffffffffffffffffffffffffffffff1673ffffffffffffffffffffffffffffffffffffffff16815260200190815260200160002060405180610100016040529081600082018054600181600116156101000203166002900480601f016020809104026020016040519081016040528092919081815260200182805460018160011615610100020316600290048015611cba5780601f10611c8f57610100808354040283529160200191611cba565b820191906000526020600020905b815481529060010190602001808311611c9d57829003601f168201915b50505050508152602001600182018054600181600116156101000203166002900480601f016020809104026020016040519081016040528092919081815260200182805460018160011615610100020316600290048015611d5c5780601f10611d3157610100808354040283529160200191611d5c565b820191906000526020600020905b815481529060010190602001808311611d3f57829003601f168201915b50505050508152602001600282018054600181600116156101000203166002900480601f016020809104026020016040519081016040528092919081815260200182805460018160011615610100020316600290048015611dfe5780601f10611dd357610100808354040283529160200191611dfe565b820191906000526020600020905b815481529060010190602001808311611de157829003601f168201915b50505050508152602001600382018054600181600116156101000203166002900480601f016020809104026020016040519081016040528092919081815260200182805460018160011615610100020316600290048015611ea05780601f10611e7557610100808354040283529160200191611ea0565b820191906000526020600020905b815481529060010190602001808311611e8357829003601f168201915b50505050508152602001600482018054600181600116156101000203166002900480601f016020809104026020016040519081016040528092919081815260200182805460018160011615610100020316600290048015611f425780601f10611f1757610100808354040283529160200191611f42565b820191906000526020600020905b815481529060010190602001808311611f2557829003601f168201915b505050505081526020016005820160009054906101000a900473ffffffffffffffffffffffffffffffffffffffff1673ffffffffffffffffffffffffffffffffffffffff1673ffffffffffffffffffffffffffffffffffffffff16815260200160068201548152602001600782016040518060e00160405290816000820160009054906101000a900460ff161515151581526020016000820160019054906101000a900460ff161515151581526020016000820160029054906101000a900460ff161515151581526020016000820160039054906101000a900460ff161515151581526020016000820160049054906101000a900460ff16151515158152602001600182018054600181600116156101000203166002900480601f0160208091040260200160405190810160405280929190818152602001828054600181600116156101000203166002900480156120db5780601f106120b0576101008083540402835291602001916120db565b820191906000526020600020905b8154815290600101906020018083116120be57829003601f168201915b50505050508152602001600282018054600181600116156101000203166002900480601f01602080910402602001604051908101604052809291908181526020018280546001816001161561010002031660029004801561217d5780601f106121525761010080835404028352916020019161217d565b820191906000526020600020905b81548152906001019060200180831161216057829003601f168201915b505050505081525050815250509050919050565b600080600090505b6005805490508110156122c657600581815481106121b357fe5b9060005260206000200160009054906101000a900473ffffffffffffffffffffffffffffffffffffffff1673ffffffffffffffffffffffffffffffffffffffff168473ffffffffffffffffffffffffffffffffffffffff1614806122aa5750600460006005838154811061222357fe5b9060005260206000200160009054906101000a900473ffffffffffffffffffffffffffffffffffffffff1673ffffffffffffffffffffffffffffffffffffffff1673ffffffffffffffffffffffffffffffffffffffff1681526020019081526020016000206001016040516122989190613407565b60405180910390208380519060200120145b156122b95760019150506122cc565b8080600101915050612199565b50600090505b92915050565b6000600460008373ffffffffffffffffffffffffffffffffffffffff1673ffffffffffffffffffffffffffffffffffffffff16815260200190815260200160002060070160000160026101000a81548160ff0219169083151502179055506001600460008373ffffffffffffffffffffffffffffffffffffffff1673ffffffffffffffffffffffffffffffffffffffff16815260200190815260200160002060070160000160036101000a81548160ff02191690831515021790555060036000815480929190600190039190505550600460008273ffffffffffffffffffffffffffffffffffffffff1673ffffffffffffffffffffffffffffffffffffffff16815260200190815260200160002060070160000160049054906101000a900460ff16156124c15760405180602001604052806000815250600460008373ffffffffffffffffffffffffffffffffffffffff1673ffffffffffffffffffffffffffffffffffffffff1681526020019081526020016000206007016001019080519060200190612461929190612921565b506000600460008373ffffffffffffffffffffffffffffffffffffffff1673ffffffffffffffffffffffffffffffffffffffff16815260200190815260200160002060070160000160046101000a81548160ff0219169083151502179055505b50565b60008060035414156124d75760006124da565b60015b905090565b6000600460008473ffffffffffffffffffffffffffffffffffffffff1673ffffffffffffffffffffffffffffffffffffffff16815260200190815260200160002060070160000160026101000a81548160ff0219169083151502179055506001600460008473ffffffffffffffffffffffffffffffffffffffff1673ffffffffffffffffffffffffffffffffffffffff16815260200190815260200160002060070160000160046101000a81548160ff02191690831515021790555080600460008473ffffffffffffffffffffffffffffffffffffffff1673ffffffffffffffffffffffffffffffffffffffff16815260200190815260200160002060070160010190805190602001906125f4929190612921565b505050565b6005818154811061260657fe5b906000526020600020016000915054906101000a900473ffffffffffffffffffffffffffffffffffffffff1681565b600080606080606080600660000160009054906101000a900460ff16600660000160019054906101000a900460ff166006600101600660020160066003016006600401838054600181600116156101000203166002900480601f01602080910402602001604051908101604052809291908181526020018280546001816001161561010002031660029004801561270d5780601f106126e25761010080835404028352916020019161270d565b820191906000526020600020905b8154815290600101906020018083116126f057829003601f168201915b50505050509350828054600181600116156101000203166002900480601f0160208091040260200160405190810160405280929190818152602001828054600181600116156101000203166002900480156127a95780601f1061277e576101008083540402835291602001916127a9565b820191906000526020600020905b81548152906001019060200180831161278c57829003601f168201915b50505050509250818054600181600116156101000203166002900480601f0160208091040260200160405190810160405280929190818152602001828054600181600116156101000203166002900480156128455780601f1061281a57610100808354040283529160200191612845565b820191906000526020600020905b81548152906001019060200180831161282857829003601f168201915b50505050509150808054600181600116156101000203166002900480601f0160208091040260200160405190810160405280929190818152602001828054600181600116156101000203166002900480156128e15780601f106128b6576101008083540402835291602001916128e1565b820191906000526020600020905b8154815290600101906020018083116128c457829003601f168201915b50505050509050955095509550955095509550909192939495565b6000809054906101000a900473ffffffffffffffffffffffffffffffffffffffff1681565b828054600181600116156101000203166002900490600052602060002090601f016020900481019282601f1061296257805160ff1916838001178555612990565b82800160010185558215612990579182015b8281111561298f578251825591602001919060010190612974565b5b50905061299d9190612bb1565b5090565b828054600181600116156101000203166002900490600052602060002090601f016020900481019282601f106129da5780548555612a17565b82800160010185558215612a1757600052602060002091601f016020900482015b82811115612a165782548255916001019190600101906129fb565b5b509050612a249190612bb1565b5090565b6040518060e0016040528060001515815260200160001515815260200160001515815260200160001515815260200160001515815260200160608152602001606081525090565b6040518061010001604052806060815260200160608152602001606081526020016060815260200160608152602001600073ffffffffffffffffffffffffffffffffffffffff16815260200160008152602001612aca612bd6565b81525090565b828054600181600116156101000203166002900490600052602060002090601f016020900481019282601f10612b1157805160ff1916838001178555612b3f565b82800160010185558215612b3f579182015b82811115612b3e578251825591602001919060010190612b23565b5b509050612b4c9190612bb1565b5090565b6040518061010001604052806060815260200160608152602001606081526020016060815260200160608152602001600073ffffffffffffffffffffffffffffffffffffffff16815260200160008152602001612bab612bd6565b81525090565b612bd391905b80821115612bcf576000816000905550600101612bb7565b5090565b90565b6040518060e0016040528060001515815260200160001515815260200160001515815260200160001515815260200160001515815260200160608152602001606081525090565b600081359050612c2c816137cd565b92915050565b600082601f830112612c4357600080fd5b8135612c56612c5182613675565b613648565b91508082526020830160208301858383011115612c7257600080fd5b612c7d83828461377a565b50505092915050565b600081359050612c95816137e4565b92915050565b600060208284031215612cad57600080fd5b6000612cbb84828501612c1d565b91505092915050565b60008060408385031215612cd757600080fd5b6000612ce585828601612c1d565b9250506020612cf685828601612c1d565b9150509250929050565b60008060408385031215612d1357600080fd5b6000612d2185828601612c1d565b925050602083013567ffffffffffffffff811115612d3e57600080fd5b612d4a85828601612c32565b9150509250929050565b600080600060608486031215612d6957600080fd5b6000612d7786828701612c1d565b935050602084013567ffffffffffffffff811115612d9457600080fd5b612da086828701612c32565b925050604084013567ffffffffffffffff811115612dbd57600080fd5b612dc986828701612c32565b9150509250925092565b60008060408385031215612de657600080fd5b600083013567ffffffffffffffff811115612e0057600080fd5b612e0c85828601612c32565b925050602083013567ffffffffffffffff811115612e2957600080fd5b612e3585828601612c32565b9150509250929050565b600080600060608486031215612e5457600080fd5b600084013567ffffffffffffffff811115612e6e57600080fd5b612e7a86828701612c32565b935050602084013567ffffffffffffffff811115612e9757600080fd5b612ea386828701612c32565b925050604084013567ffffffffffffffff811115612ec057600080fd5b612ecc86828701612c32565b9150509250925092565b600060208284031215612ee857600080fd5b6000612ef684828501612c86565b91505092915050565b6000612f0b8383613316565b905092915050565b612f1c81613732565b82525050565b612f2b81613732565b82525050565b6000612f3c826136c6565b612f4681856136f4565b935083602082028501612f58856136a1565b8060005b85811015612f945784840389528151612f758582612eff565b9450612f80836136e7565b925060208a01995050600181019050612f5c565b50829750879550505050505092915050565b612faf81613744565b82525050565b612fbe81613744565b82525050565b600081546001811660008114612fe157600181146130065761304a565b607f6002830416612ff28187613705565b955060ff198316865280860193505061304a565b600282046130148187613705565b955061301f856136b1565b60005b8281101561304157815481890152600182019150602081019050613022565b82880195505050505b505092915050565b600061305d826136dc565b6130678185613721565b9350613077818560208601613789565b613080816137bc565b840191505092915050565b6000613096826136d1565b6130a08185613710565b93506130b0818560208601613789565b6130b9816137bc565b840191505092915050565b60006130cf826136d1565b6130d98185613721565b93506130e9818560208601613789565b6130f2816137bc565b840191505092915050565b600060e0830160008301516131156000860182612fa6565b5060208301516131286020860182612fa6565b50604083015161313b6040860182612fa6565b50606083015161314e6060860182612fa6565b5060808301516131616080860182612fa6565b5060a083015184820360a0860152613179828261308b565b91505060c083015184820360c0860152613193828261308b565b9150508091505092915050565b600060e0830160008301516131b86000860182612fa6565b5060208301516131cb6020860182612fa6565b5060408301516131de6040860182612fa6565b5060608301516131f16060860182612fa6565b5060808301516132046080860182612fa6565b5060a083015184820360a086015261321c828261308b565b91505060c083015184820360c0860152613236828261308b565b9150508091505092915050565b6000610100830160008301518482036000860152613261828261308b565b9150506020830151848203602086015261327b828261308b565b91505060408301518482036040860152613295828261308b565b915050606083015184820360608601526132af828261308b565b915050608083015184820360808601526132c9828261308b565b91505060a08301516132de60a0860182612f13565b5060c08301516132f160c08601826133e9565b5060e083015184820360e086015261330982826130fd565b9150508091505092915050565b6000610100830160008301518482036000860152613334828261308b565b9150506020830151848203602086015261334e828261308b565b91505060408301518482036040860152613368828261308b565b91505060608301518482036060860152613382828261308b565b9150506080830151848203608086015261339c828261308b565b91505060a08301516133b160a0860182612f13565b5060c08301516133c460c08601826133e9565b5060e083015184820360e08601526133dc82826130fd565b9150508091505092915050565b6133f281613770565b82525050565b61340181613770565b82525050565b60006134138284612fc4565b915081905092915050565b60006020820190506134336000830184612f22565b92915050565b600060208201905081810360008301526134538184612f31565b905092915050565b60006020820190506134706000830184612fb5565b92915050565b600060c08201905061348b6000830189612fb5565b6134986020830188612fb5565b81810360408301526134aa8187613052565b905081810360608301526134be8186613052565b905081810360808301526134d28185613052565b905081810360a08301526134e68184613052565b9050979650505050505050565b600060e082019050613508600083018a612fb5565b6135156020830189612fb5565b818103604083015261352781886130c4565b9050818103606083015261353b81876130c4565b9050818103608083015261354f81866130c4565b905081810360a083015261356381856130c4565b905061357260c08301846133f8565b98975050505050505050565b6000610100820190508181036000830152613599818b6130c4565b905081810360208301526135ad818a6130c4565b905081810360408301526135c181896130c4565b905081810360608301526135d581886130c4565b905081810360808301526135e981876130c4565b90506135f860a0830186612f22565b61360560c08301856133f8565b81810360e083015261361781846131a0565b90509998505050505050505050565b600060208201905081810360008301526136408184613243565b905092915050565b6000604051905081810181811067ffffffffffffffff8211171561366b57600080fd5b8060405250919050565b600067ffffffffffffffff82111561368c57600080fd5b601f19601f8301169050602081019050919050565b6000819050602082019050919050565b60008190508160005260206000209050919050565b600081519050919050565b600081519050919050565b600081519050919050565b6000602082019050919050565b600082825260208201905092915050565b600081905092915050565b600082825260208201905092915050565b600082825260208201905092915050565b600061373d82613750565b9050919050565b60008115159050919050565b600073ffffffffffffffffffffffffffffffffffffffff82169050919050565b6000819050919050565b82818337600083830152505050565b60005b838110156137a757808201518184015260208101905061378c565b838111156137b6576000848401525b50505050565b6000601f19601f8301169050919050565b6137d681613732565b81146137e157600080fd5b50565b6137ed81613770565b81146137f857600080fd5b5056fea365627a7a72315820e072b7ca92ea2ef7f64746fd7376ad724ec18cd31c855ac707be238a4aa0d0296c6578706572696d656e74616cf564736f6c63430005100040",
  "source": "// SPDX-License-Identifier: MIT\r\npragma solidity >=0.4.21 <0.9.0;\r\npragma experimental ABIEncoderV2;\r\n\r\ncontract Election {\r\n    address public admin;\r\n    uint256 candidateCount;\r\n    uint256 voterCount;\r\n    uint256 pendingRequests;\r\n\r\n    struct electionSetup{\r\n\r\n        bool isElectionStarted;\r\n        bool isElectionEnded;\r\n        string electionTitle;\r\n        string electionOrganization;\r\n        string currentElectionPhase;\r\n        string nextElectionPhase;\r\n        uint256 electionPhaseIndex;\r\n        string[5] electionPhases;\r\n    }\r\n\r\n    struct voterExtraDetails {\r\n        bool isVerified;\r\n        bool hasVoted;\r\n        bool hasApplied;\r\n        bool isCandidate;\r\n        bool isDenied;\r\n        string deniedFor;\r\n        string tagLine;\r\n    }\r\n\r\n    struct voter {\r\n        string username;\r\n        string email;\r\n        string password;\r\n        string prn;\r\n        string mobile;\r\n        address voterAddress;\r\n        uint256 votesCount;\r\n        voterExtraDetails voterElectionDetails;\r\n        \r\n    }\r\n\r\n    mapping(address => voter) public voterDetails;\r\n    address[] public voters; // Array of address to store address of voters\r\n    electionSetup public electionInstance;\r\n\r\n    constructor() public{\r\n        // Initilizing default values\r\n        admin = msg.sender;\r\n        candidateCount = 0;\r\n        voterCount = 0;\r\n        pendingRequests = 0;\r\n\r\n        electionInstance = electionSetup({\r\n        isElectionStarted : false,\r\n        isElectionEnded : false,\r\n        electionTitle : \"\",\r\n        electionOrganization : \"\",\r\n        electionPhaseIndex : 0,\r\n        electionPhases : [\r\n            \"Setup Election\",\r\n            \"Voter Verification\",\r\n            \"Candidate Application\",\r\n            \"Voting\",\r\n            \"Result\"\r\n        ],\r\n        currentElectionPhase : electionInstance.electionPhases[electionInstance.electionPhaseIndex],\r\n        nextElectionPhase : electionInstance.electionPhases[electionInstance.electionPhaseIndex + 1]\r\n        });\r\n        \r\n    }\r\n\r\n    /*------------------------ Voter Verification --------------------------- */\r\n\r\n    // Update verification details\r\n    function addVerificationRequest(\r\n        address pendingVoterAddress,\r\n        string memory _prn,\r\n        string memory _mobile\r\n    ) public {\r\n        voterDetails[pendingVoterAddress].voterElectionDetails.hasApplied = true;\r\n        voterDetails[pendingVoterAddress].prn = _prn;\r\n        voterDetails[pendingVoterAddress].mobile = _mobile;\r\n        pendingRequests ++;\r\n    }\r\n\r\n    // Approve verification requests\r\n    function approveVerificationRequests(address pendingVoterAddress) public {\r\n        voterDetails[pendingVoterAddress].voterElectionDetails.hasApplied = false;\r\n        voterDetails[pendingVoterAddress].voterElectionDetails.isVerified = true;\r\n        pendingRequests --;\r\n        if (voterDetails[pendingVoterAddress].voterElectionDetails.isDenied) {\r\n            voterDetails[pendingVoterAddress].voterElectionDetails.deniedFor = \"\";\r\n            voterDetails[pendingVoterAddress].voterElectionDetails.isDenied = false;\r\n        }\r\n    }\r\n\r\n    // Deny verification requests\r\n    function denyVerificationRequests(\r\n        address pendingVoterAddress,\r\n        string memory _deniedFor\r\n    ) public {\r\n        voterDetails[pendingVoterAddress].voterElectionDetails.hasApplied = false;\r\n        voterDetails[pendingVoterAddress].voterElectionDetails.isDenied = true;\r\n        voterDetails[pendingVoterAddress].voterElectionDetails.deniedFor = _deniedFor;\r\n    }\r\n\r\n    // sending candidate request\r\n\r\n    function addCandidateRequest(\r\n        address pendingVoterAddress,\r\n        string memory _tagLine\r\n    ) public {\r\n        voterDetails[pendingVoterAddress].voterElectionDetails.hasApplied = true;\r\n        voterDetails[pendingVoterAddress].voterElectionDetails.tagLine = _tagLine;\r\n        pendingRequests ++;\r\n    }\r\n\r\n    // Approve candidate requests\r\n    function approveCandidateRequests(address pendingVoterAddress) public {\r\n        voterDetails[pendingVoterAddress].voterElectionDetails.hasApplied = false;\r\n        voterDetails[pendingVoterAddress].voterElectionDetails.isCandidate = true;\r\n        pendingRequests --;\r\n\r\n        if (voterDetails[pendingVoterAddress].voterElectionDetails.isDenied) {\r\n            voterDetails[pendingVoterAddress].voterElectionDetails.deniedFor = \"\";\r\n            voterDetails[pendingVoterAddress].voterElectionDetails.isDenied = false;\r\n        }\r\n    }\r\n    \r\n    function isPendingRequest() public view returns(bool) {\r\n       return (pendingRequests != 0) ? true : false ;\r\n    }\r\n\r\n    // Get all voter details\r\n    function getAllVoterDetails() public view returns (voter[] memory) {\r\n        voter[] memory allVoterDetails = new voter[](voterCount);\r\n        for (uint256 i = 0; i < voterCount; i++) {\r\n            allVoterDetails[i] = voterDetails[voters[i]];\r\n        }\r\n        return allVoterDetails;\r\n    }\r\n\r\n    function getVoterDetails(address voterAddress)\r\n        public\r\n        view\r\n        returns (voter memory)\r\n    {\r\n        return voterDetails[voterAddress];\r\n    }\r\n\r\n    /*------------------------ Voter Handlers --------------------------- */\r\n\r\n    function addVoterDetails(\r\n        string memory _username,\r\n        string memory _email,\r\n        string memory _password\r\n    ) public {\r\n        voterExtraDetails memory newVoterExtraDetails = voterExtraDetails({\r\n            isVerified : false,\r\n            hasVoted: false,\r\n            hasApplied: false,\r\n            isCandidate: false,\r\n            isDenied: false,\r\n            deniedFor: \"\",\r\n            tagLine: \"\"\r\n        });\r\n        voter memory newVoter = voter({\r\n            username: _username,\r\n            email: _email,\r\n            password: _password,\r\n            voterAddress: msg.sender,\r\n            prn: \"\",\r\n            mobile: \"\",\r\n            votesCount: 0,\r\n            voterElectionDetails: newVoterExtraDetails\r\n            \r\n        });\r\n        voterDetails[msg.sender] = newVoter;\r\n        voterCount++;\r\n        voters.push(msg.sender);\r\n    }\r\n\r\n    function isVoterExists(address voterAddress, string memory mail)\r\n        public\r\n        view\r\n        returns (bool)\r\n    {\r\n        //Loop through voters array\r\n        for (uint256 i = 0; i < voters.length; i++) {\r\n            if (\r\n                (voterAddress) == voters[i] ||\r\n                (keccak256(bytes(mail)) ==\r\n                    keccak256(bytes(voterDetails[voters[i]].email)))\r\n            ) {\r\n                return true;\r\n            }\r\n        }\r\n        return false;\r\n    }\r\n\r\n    /*------------------------ Election Handlers --------------------------- */\r\n\r\n    function getAdmin() public view returns (address) {\r\n        // Returns account address used to deploy contract (i.e. admin)\r\n        return admin;\r\n    }\r\n\r\n    function changeElectionPhase() public {\r\n        electionInstance.electionPhaseIndex = (electionInstance.electionPhaseIndex + 1) % electionInstance.electionPhases.length;\r\n        electionInstance.currentElectionPhase = electionInstance.electionPhases[electionInstance.electionPhaseIndex];\r\n        electionInstance.nextElectionPhase = electionInstance.electionPhases[\r\n            (electionInstance.electionPhaseIndex + 1) % electionInstance.electionPhases.length\r\n        ];\r\n        if (electionInstance.electionPhaseIndex == electionInstance.electionPhases.length - 1) {\r\n            electionInstance.isElectionEnded = true;\r\n        }\r\n    }\r\n\r\n    function getElectionDetails()\r\n        public\r\n        view\r\n        returns (\r\n            bool,\r\n            bool,\r\n            string memory,\r\n            string memory,\r\n            string memory,\r\n            string memory\r\n        )\r\n    {\r\n        return (\r\n            electionInstance.isElectionStarted,\r\n            electionInstance.isElectionEnded,\r\n            electionInstance.electionTitle,\r\n            electionInstance.electionOrganization,\r\n            electionInstance.currentElectionPhase,\r\n            electionInstance.nextElectionPhase\r\n        );\r\n    }\r\n\r\n    \r\n\r\n    function startElection(\r\n        string memory _electionTitle,\r\n        string memory _electionOrganization\r\n    ) public {\r\n        \r\n\r\n        electionInstance.isElectionStarted = true;\r\n        electionInstance.electionTitle = _electionTitle;\r\n        electionInstance.electionOrganization = _electionOrganization;\r\n        changeElectionPhase();\r\n    }\r\n\r\n    /*------------------------ Voting Handlers --------------------------- */\r\n\r\n    function addVote(address voterAddress, address candidateAddress) public {\r\n        voterDetails[voterAddress].voterElectionDetails.hasVoted = true;\r\n        voterDetails[candidateAddress].votesCount++;\r\n    }\r\n\r\n    function hasVoted(address voterAddress) public view returns (bool) {\r\n        return voterDetails[voterAddress].voterElectionDetails.hasVoted;\r\n    }\r\n}",
  "sourcePath": "C:\\Users\\saura\\Desktop\\Bluepineapple Project\\Voting-system-using-Blockchain\\contracts\\Election.sol",
  "compiler": {
    "name": "solc",
    "version": "0.5.16+commit.9c3226ce.Emscripten.clang"
  },
  "schemaVersion": "3.4.6",
  "updatedAt": "2022-05-13T17:30:35.811Z",
  "networkType": "ethereum",
  "devdoc": {
    "methods": {}
  },
  "userdoc": {
    "methods": {}
  }
}