{
  "contractName": "Election",
  "abi": [
    {
      "inputs": [],
      "payable": false,
      "stateMutability": "nonpayable",
      "type": "constructor"
    },
    {
      "constant": true,
      "inputs": [],
      "name": "admin",
      "outputs": [
        {
          "internalType": "address",
          "name": "",
          "type": "address"
        }
      ],
      "payable": false,
      "stateMutability": "view",
      "type": "function"
    },
    {
      "constant": true,
      "inputs": [
        {
          "internalType": "uint256",
          "name": "",
          "type": "uint256"
        }
      ],
      "name": "electionPhases",
      "outputs": [
        {
          "internalType": "string",
          "name": "",
          "type": "string"
        }
      ],
      "payable": false,
      "stateMutability": "view",
      "type": "function"
    },
    {
      "constant": true,
      "inputs": [
        {
          "internalType": "address",
          "name": "",
          "type": "address"
        }
      ],
      "name": "voterDetails",
      "outputs": [
        {
          "internalType": "string",
          "name": "username",
          "type": "string"
        },
        {
          "internalType": "string",
          "name": "email",
          "type": "string"
        },
        {
          "internalType": "string",
          "name": "password",
          "type": "string"
        },
        {
          "internalType": "string",
          "name": "prn",
          "type": "string"
        },
        {
          "internalType": "string",
          "name": "mobile",
          "type": "string"
        },
        {
          "internalType": "address",
          "name": "voterAddress",
          "type": "address"
        },
        {
          "internalType": "bool",
          "name": "isVerified",
          "type": "bool"
        },
        {
          "internalType": "bool",
          "name": "hasVoted",
          "type": "bool"
        },
        {
          "internalType": "bool",
          "name": "hasApplied",
          "type": "bool"
        }
      ],
      "payable": false,
      "stateMutability": "view",
      "type": "function"
    },
    {
      "constant": true,
      "inputs": [
        {
          "internalType": "uint256",
          "name": "",
          "type": "uint256"
        }
      ],
      "name": "voters",
      "outputs": [
        {
          "internalType": "address",
          "name": "",
          "type": "address"
        }
      ],
      "payable": false,
      "stateMutability": "view",
      "type": "function"
    },
    {
      "constant": false,
      "inputs": [
        {
          "internalType": "address",
          "name": "pendingVoterAddress",
          "type": "address"
        },
        {
          "internalType": "string",
          "name": "_prn",
          "type": "string"
        },
        {
          "internalType": "string",
          "name": "_mobile",
          "type": "string"
        }
      ],
      "name": "addVerificationRequest",
      "outputs": [],
      "payable": false,
      "stateMutability": "nonpayable",
      "type": "function"
    },
    {
      "constant": false,
      "inputs": [
        {
          "internalType": "address",
          "name": "pendingVoterAddress",
          "type": "address"
        }
      ],
      "name": "approveVerificationRequests",
      "outputs": [],
      "payable": false,
      "stateMutability": "nonpayable",
      "type": "function"
    },
    {
      "constant": true,
      "inputs": [],
      "name": "getAllVoterDetails",
      "outputs": [
        {
          "components": [
            {
              "internalType": "string",
              "name": "username",
              "type": "string"
            },
            {
              "internalType": "string",
              "name": "email",
              "type": "string"
            },
            {
              "internalType": "string",
              "name": "password",
              "type": "string"
            },
            {
              "internalType": "string",
              "name": "prn",
              "type": "string"
            },
            {
              "internalType": "string",
              "name": "mobile",
              "type": "string"
            },
            {
              "internalType": "address",
              "name": "voterAddress",
              "type": "address"
            },
            {
              "internalType": "bool",
              "name": "isVerified",
              "type": "bool"
            },
            {
              "internalType": "bool",
              "name": "hasVoted",
              "type": "bool"
            },
            {
              "internalType": "bool",
              "name": "hasApplied",
              "type": "bool"
            }
          ],
          "internalType": "struct Election.voter[]",
          "name": "",
          "type": "tuple[]"
        }
      ],
      "payable": false,
      "stateMutability": "view",
      "type": "function"
    },
    {
      "constant": false,
      "inputs": [
        {
          "internalType": "string",
          "name": "_username",
          "type": "string"
        },
        {
          "internalType": "string",
          "name": "_email",
          "type": "string"
        },
        {
          "internalType": "string",
          "name": "_password",
          "type": "string"
        }
      ],
      "name": "addVoterDetails",
      "outputs": [],
      "payable": false,
      "stateMutability": "nonpayable",
      "type": "function"
    },
    {
      "constant": true,
      "inputs": [
        {
          "internalType": "address",
          "name": "voterAddress",
          "type": "address"
        }
      ],
      "name": "isVoterExists",
      "outputs": [
        {
          "internalType": "bool",
          "name": "",
          "type": "bool"
        }
      ],
      "payable": false,
      "stateMutability": "view",
      "type": "function"
    },
    {
      "constant": true,
      "inputs": [
        {
          "internalType": "address",
          "name": "loginAddress",
          "type": "address"
        }
      ],
      "name": "getLoginDetails",
      "outputs": [
        {
          "internalType": "string",
          "name": "",
          "type": "string"
        },
        {
          "internalType": "string",
          "name": "",
          "type": "string"
        },
        {
          "internalType": "address",
          "name": "",
          "type": "address"
        },
        {
          "internalType": "string",
          "name": "",
          "type": "string"
        },
        {
          "internalType": "bool",
          "name": "",
          "type": "bool"
        }
      ],
      "payable": false,
      "stateMutability": "view",
      "type": "function"
    },
    {
      "constant": true,
      "inputs": [],
      "name": "getAdmin",
      "outputs": [
        {
          "internalType": "address",
          "name": "",
          "type": "address"
        }
      ],
      "payable": false,
      "stateMutability": "view",
      "type": "function"
    },
    {
      "constant": true,
      "inputs": [],
      "name": "getStart",
      "outputs": [
        {
          "internalType": "bool",
          "name": "",
          "type": "bool"
        }
      ],
      "payable": false,
      "stateMutability": "view",
      "type": "function"
    },
    {
      "constant": true,
      "inputs": [],
      "name": "getEnd",
      "outputs": [
        {
          "internalType": "bool",
          "name": "",
          "type": "bool"
        }
      ],
      "payable": false,
      "stateMutability": "view",
      "type": "function"
    },
    {
      "constant": false,
      "inputs": [],
      "name": "changeElectionPhase",
      "outputs": [],
      "payable": false,
      "stateMutability": "nonpayable",
      "type": "function"
    },
    {
      "constant": true,
      "inputs": [],
      "name": "getElectionDetails",
      "outputs": [
        {
          "internalType": "bool",
          "name": "",
          "type": "bool"
        },
        {
          "internalType": "bool",
          "name": "",
          "type": "bool"
        },
        {
          "internalType": "string",
          "name": "",
          "type": "string"
        },
        {
          "internalType": "string",
          "name": "",
          "type": "string"
        },
        {
          "internalType": "string",
          "name": "",
          "type": "string"
        },
        {
          "internalType": "string",
          "name": "",
          "type": "string"
        }
      ],
      "payable": false,
      "stateMutability": "view",
      "type": "function"
    },
    {
      "constant": false,
      "inputs": [
        {
          "internalType": "string",
          "name": "_electionTitle",
          "type": "string"
        },
        {
          "internalType": "string",
          "name": "_electionOrganization",
          "type": "string"
        }
      ],
      "name": "startElection",
      "outputs": [],
      "payable": false,
      "stateMutability": "nonpayable",
      "type": "function"
    }
  ],
  "bytecode": "0x60806040523480156200001157600080fd5b50336000806101000a81548173ffffffffffffffffffffffffffffffffffffffff021916908373ffffffffffffffffffffffffffffffffffffffff160217905550600060018190555060006002819055506000600360006101000a81548160ff0219169083151502179055506000600360016101000a81548160ff0219169083151502179055506040518060200160405280600081525060049080519060200190620000bf929190620002b8565b506040518060200160405280600081525060059080519060200190620000e7929190620002b8565b5060006008819055506040518060a001604052806040518060400160405280600481526020017f4e6f6e650000000000000000000000000000000000000000000000000000000081525081526020016040518060400160405280600c81526020017f526567697374726174696f6e000000000000000000000000000000000000000081525081526020016040518060400160405280601481526020017f4170706c7920617320612043616e64696461746500000000000000000000000081525081526020016040518060400160405280600681526020017f566f74696e67000000000000000000000000000000000000000000000000000081525081526020016040518060400160405280600681526020017f526573756c7400000000000000000000000000000000000000000000000000008152508152506009906005620002329291906200033f565b506009600854815481106200024357fe5b906000526020600020016006908054600181600116156101000203166002900462000270929190620003a6565b506009600160085401815481106200028457fe5b9060005260206000200160079080546001816001161561010002031660029004620002b1929190620003a6565b5062000560565b828054600181600116156101000203166002900490600052602060002090601f016020900481019282601f10620002fb57805160ff19168380011785556200032c565b828001600101855582156200032c579182015b828111156200032b5782518255916020019190600101906200030e565b5b5090506200033b919062000434565b5090565b82805482825590600052602060002090810192821562000393579160200282015b8281111562000392578251829080519060200190620003819291906200045c565b509160200191906001019062000360565b5b509050620003a29190620004e3565b5090565b828054600181600116156101000203166002900490600052602060002090601f016020900481019282601f10620003e1578054855562000421565b828001600101855582156200042157600052602060002091601f016020900482015b828111156200042057825482559160010191906001019062000403565b5b50905062000430919062000434565b5090565b6200045991905b80821115620004555760008160009055506001016200043b565b5090565b90565b828054600181600116156101000203166002900490600052602060002090601f016020900481019282601f106200049f57805160ff1916838001178555620004d0565b82800160010185558215620004d0579182015b82811115620004cf578251825591602001919060010190620004b2565b5b509050620004df919062000434565b5090565b6200051191905b808211156200050d576000818162000503919062000514565b50600101620004ea565b5090565b90565b50805460018160011615610100020316600290046000825580601f106200053c57506200055d565b601f0160209004906000526020600020908101906200055c919062000434565b5b50565b61243480620005706000396000f3fe608060405234801561001057600080fd5b50600436106101005760003560e01c806392bcab3411610097578063c5292c6711610066578063c5292c67146102a5578063da58c7d9146102c3578063ed836bc3146102f3578063f851a4401461031657610100565b806392bcab34146102315780639f05a36d1461024f578063a65b8f3b1461026d578063ba51d32b1461028957610100565b80635cc2d13f116100d35780635cc2d13f146101a75780636e9960c3146101c35780637691e990146101e1578063917addbd1461021557610100565b806319f017b71461010557806328dc418214610135578063316b018d146101655780635938750d1461016f575b600080fd5b61011f600480360361011a9190810190611dd5565b610334565b60405161012c9190612124565b60405180910390f35b61014f600480360361014a9190810190611c2a565b6103ed565b60405161015c919061208c565b60405180910390f35b61016d61048f565b005b61018960048036036101849190810190611c2a565b61055f565b60405161019e999897969594939291906121ae565b60405180910390f35b6101c160048036036101bc9190810190611d3e565b6108ec565b005b6101cb610b6d565b6040516101d8919061204f565b60405180910390f35b6101fb60048036036101f69190810190611c2a565b610b96565b60405161020c959493929190612146565b60405180910390f35b61022f600480360361022a9190810190611cd2565b610eff565b005b610239610f54565b604051610246919061206a565b60405180910390f35b610257611425565b604051610264919061208c565b60405180910390f35b61028760048036036102829190810190611c53565b61143c565b005b6102a3600480360361029e9190810190611c2a565b61154a565b005b6102ad611603565b6040516102ba919061208c565b60405180910390f35b6102dd60048036036102d89190810190611dd5565b61161a565b6040516102ea919061204f565b60405180910390f35b6102fb611656565b60405161030d969594939291906120a7565b60405180910390f35b61031e61190b565b60405161032b919061204f565b60405180910390f35b6009818154811061034157fe5b906000526020600020016000915090508054600181600116156101000203166002900480601f0160208091040260200160405190810160405280929190818152602001828054600181600116156101000203166002900480156103e55780601f106103ba576101008083540402835291602001916103e5565b820191906000526020600020905b8154815290600101906020018083116103c857829003601f168201915b505050505081565b600080600090505b600b8054905081101561048457600b818154811061040f57fe5b9060005260206000200160009054906101000a900473ffffffffffffffffffffffffffffffffffffffff1673ffffffffffffffffffffffffffffffffffffffff168373ffffffffffffffffffffffffffffffffffffffff16141561047757600191505061048a565b80806001019150506103f5565b50600090505b919050565b600980549050600160085401816104a257fe5b066008819055506009600854815481106104b857fe5b90600052602060002001600690805460018160011615610100020316600290046104e3929190611930565b5060098080549050600160085401816104f857fe5b068154811061050357fe5b906000526020600020016007908054600181600116156101000203166002900461052e929190611930565b50600160098054905003600854141561055d576001600360016101000a81548160ff0219169083151502179055505b565b600a602052806000526040600020600091509050806000018054600181600116156101000203166002900480601f01602080910402602001604051908101604052809291908181526020018280546001816001161561010002031660029004801561060b5780601f106105e05761010080835404028352916020019161060b565b820191906000526020600020905b8154815290600101906020018083116105ee57829003601f168201915b505050505090806001018054600181600116156101000203166002900480601f0160208091040260200160405190810160405280929190818152602001828054600181600116156101000203166002900480156106a95780601f1061067e576101008083540402835291602001916106a9565b820191906000526020600020905b81548152906001019060200180831161068c57829003601f168201915b505050505090806002018054600181600116156101000203166002900480601f0160208091040260200160405190810160405280929190818152602001828054600181600116156101000203166002900480156107475780601f1061071c57610100808354040283529160200191610747565b820191906000526020600020905b81548152906001019060200180831161072a57829003601f168201915b505050505090806003018054600181600116156101000203166002900480601f0160208091040260200160405190810160405280929190818152602001828054600181600116156101000203166002900480156107e55780601f106107ba576101008083540402835291602001916107e5565b820191906000526020600020905b8154815290600101906020018083116107c857829003601f168201915b505050505090806004018054600181600116156101000203166002900480601f0160208091040260200160405190810160405280929190818152602001828054600181600116156101000203166002900480156108835780601f1061085857610100808354040283529160200191610883565b820191906000526020600020905b81548152906001019060200180831161086657829003601f168201915b5050505050908060050160009054906101000a900473ffffffffffffffffffffffffffffffffffffffff16908060050160149054906101000a900460ff16908060050160159054906101000a900460ff16908060050160169054906101000a900460ff16905089565b6108f46119b7565b6040518061012001604052808581526020018481526020018381526020016040518060200160405280600081525081526020016040518060200160405280600081525081526020013373ffffffffffffffffffffffffffffffffffffffff16815260200160001515815260200160001515815260200160001515815250905080600a60003373ffffffffffffffffffffffffffffffffffffffff1673ffffffffffffffffffffffffffffffffffffffff16815260200190815260200160002060008201518160000190805190602001906109cf929190611a1f565b5060208201518160010190805190602001906109ec929190611a1f565b506040820151816002019080519060200190610a09929190611a1f565b506060820151816003019080519060200190610a26929190611a1f565b506080820151816004019080519060200190610a43929190611a1f565b5060a08201518160050160006101000a81548173ffffffffffffffffffffffffffffffffffffffff021916908373ffffffffffffffffffffffffffffffffffffffff16021790555060c08201518160050160146101000a81548160ff02191690831515021790555060e08201518160050160156101000a81548160ff0219169083151502179055506101008201518160050160166101000a81548160ff021916908315150217905550905050600260008154809291906001019190505550600b3390806001815401808255809150509060018203906000526020600020016000909192909190916101000a81548173ffffffffffffffffffffffffffffffffffffffff021916908373ffffffffffffffffffffffffffffffffffffffff1602179055505050505050565b60008060009054906101000a900473ffffffffffffffffffffffffffffffffffffffff16905090565b606080600060606000600a60008773ffffffffffffffffffffffffffffffffffffffff1673ffffffffffffffffffffffffffffffffffffffff168152602001908152602001600020600101600a60008873ffffffffffffffffffffffffffffffffffffffff1673ffffffffffffffffffffffffffffffffffffffff168152602001908152602001600020600201600a60008973ffffffffffffffffffffffffffffffffffffffff1673ffffffffffffffffffffffffffffffffffffffff16815260200190815260200160002060050160009054906101000a900473ffffffffffffffffffffffffffffffffffffffff16600a60008a73ffffffffffffffffffffffffffffffffffffffff1673ffffffffffffffffffffffffffffffffffffffff168152602001908152602001600020600001600a60008b73ffffffffffffffffffffffffffffffffffffffff1673ffffffffffffffffffffffffffffffffffffffff16815260200190815260200160002060050160149054906101000a900460ff16848054600181600116156101000203166002900480601f016020809104026020016040519081016040528092919081815260200182805460018160011615610100020316600290048015610dad5780601f10610d8257610100808354040283529160200191610dad565b820191906000526020600020905b815481529060010190602001808311610d9057829003601f168201915b50505050509450838054600181600116156101000203166002900480601f016020809104026020016040519081016040528092919081815260200182805460018160011615610100020316600290048015610e495780601f10610e1e57610100808354040283529160200191610e49565b820191906000526020600020905b815481529060010190602001808311610e2c57829003601f168201915b50505050509350818054600181600116156101000203166002900480601f016020809104026020016040519081016040528092919081815260200182805460018160011615610100020316600290048015610ee55780601f10610eba57610100808354040283529160200191610ee5565b820191906000526020600020905b815481529060010190602001808311610ec857829003601f168201915b505050505091509450945094509450945091939590929450565b6001600360006101000a81548160ff0219169083151502179055508160049080519060200190610f30929190611a9f565b508060059080519060200190610f47929190611a9f565b50610f5061048f565b5050565b606080600254604051908082528060200260200182016040528015610f9357816020015b610f80611b1f565b815260200190600190039081610f785790505b50905060008090505b60025481101561141d57600a6000600b8381548110610fb757fe5b9060005260206000200160009054906101000a900473ffffffffffffffffffffffffffffffffffffffff1673ffffffffffffffffffffffffffffffffffffffff1673ffffffffffffffffffffffffffffffffffffffff16815260200190815260200160002060405180610120016040529081600082018054600181600116156101000203166002900480601f0160208091040260200160405190810160405280929190818152602001828054600181600116156101000203166002900480156110c15780601f10611096576101008083540402835291602001916110c1565b820191906000526020600020905b8154815290600101906020018083116110a457829003601f168201915b50505050508152602001600182018054600181600116156101000203166002900480601f0160208091040260200160405190810160405280929190818152602001828054600181600116156101000203166002900480156111635780601f1061113857610100808354040283529160200191611163565b820191906000526020600020905b81548152906001019060200180831161114657829003601f168201915b50505050508152602001600282018054600181600116156101000203166002900480601f0160208091040260200160405190810160405280929190818152602001828054600181600116156101000203166002900480156112055780601f106111da57610100808354040283529160200191611205565b820191906000526020600020905b8154815290600101906020018083116111e857829003601f168201915b50505050508152602001600382018054600181600116156101000203166002900480601f0160208091040260200160405190810160405280929190818152602001828054600181600116156101000203166002900480156112a75780601f1061127c576101008083540402835291602001916112a7565b820191906000526020600020905b81548152906001019060200180831161128a57829003601f168201915b50505050508152602001600482018054600181600116156101000203166002900480601f0160208091040260200160405190810160405280929190818152602001828054600181600116156101000203166002900480156113495780601f1061131e57610100808354040283529160200191611349565b820191906000526020600020905b81548152906001019060200180831161132c57829003601f168201915b505050505081526020016005820160009054906101000a900473ffffffffffffffffffffffffffffffffffffffff1673ffffffffffffffffffffffffffffffffffffffff1673ffffffffffffffffffffffffffffffffffffffff1681526020016005820160149054906101000a900460ff161515151581526020016005820160159054906101000a900460ff161515151581526020016005820160169054906101000a900460ff16151515158152505082828151811061140557fe5b60200260200101819052508080600101915050610f9c565b508091505090565b6000600360019054906101000a900460ff16905090565b6001600a60008573ffffffffffffffffffffffffffffffffffffffff1673ffffffffffffffffffffffffffffffffffffffff16815260200190815260200160002060050160166101000a81548160ff02191690831515021790555081600a60008573ffffffffffffffffffffffffffffffffffffffff1673ffffffffffffffffffffffffffffffffffffffff16815260200190815260200160002060030190805190602001906114ed929190611a9f565b5080600a60008573ffffffffffffffffffffffffffffffffffffffff1673ffffffffffffffffffffffffffffffffffffffff1681526020019081526020016000206004019080519060200190611544929190611a9f565b50505050565b6000600a60008373ffffffffffffffffffffffffffffffffffffffff1673ffffffffffffffffffffffffffffffffffffffff16815260200190815260200160002060050160166101000a81548160ff0219169083151502179055506001600a60008373ffffffffffffffffffffffffffffffffffffffff1673ffffffffffffffffffffffffffffffffffffffff16815260200190815260200160002060050160146101000a81548160ff02191690831515021790555050565b6000600360009054906101000a900460ff16905090565b600b818154811061162757fe5b906000526020600020016000915054906101000a900473ffffffffffffffffffffffffffffffffffffffff1681565b600080606080606080600360009054906101000a900460ff16600360019054906101000a900460ff166004600560066007838054600181600116156101000203166002900480601f01602080910402602001604051908101604052809291908181526020018280546001816001161561010002031660029004801561171c5780601f106116f15761010080835404028352916020019161171c565b820191906000526020600020905b8154815290600101906020018083116116ff57829003601f168201915b50505050509350828054600181600116156101000203166002900480601f0160208091040260200160405190810160405280929190818152602001828054600181600116156101000203166002900480156117b85780601f1061178d576101008083540402835291602001916117b8565b820191906000526020600020905b81548152906001019060200180831161179b57829003601f168201915b50505050509250818054600181600116156101000203166002900480601f0160208091040260200160405190810160405280929190818152602001828054600181600116156101000203166002900480156118545780601f1061182957610100808354040283529160200191611854565b820191906000526020600020905b81548152906001019060200180831161183757829003601f168201915b50505050509150808054600181600116156101000203166002900480601f0160208091040260200160405190810160405280929190818152602001828054600181600116156101000203166002900480156118f05780601f106118c5576101008083540402835291602001916118f0565b820191906000526020600020905b8154815290600101906020018083116118d357829003601f168201915b50505050509050955095509550955095509550909192939495565b6000809054906101000a900473ffffffffffffffffffffffffffffffffffffffff1681565b828054600181600116156101000203166002900490600052602060002090601f016020900481019282601f1061196957805485556119a6565b828001600101855582156119a657600052602060002091601f016020900482015b828111156119a557825482559160010191906001019061198a565b5b5090506119b39190611b87565b5090565b6040518061012001604052806060815260200160608152602001606081526020016060815260200160608152602001600073ffffffffffffffffffffffffffffffffffffffff1681526020016000151581526020016000151581526020016000151581525090565b828054600181600116156101000203166002900490600052602060002090601f016020900481019282601f10611a6057805160ff1916838001178555611a8e565b82800160010185558215611a8e579182015b82811115611a8d578251825591602001919060010190611a72565b5b509050611a9b9190611b87565b5090565b828054600181600116156101000203166002900490600052602060002090601f016020900481019282601f10611ae057805160ff1916838001178555611b0e565b82800160010185558215611b0e579182015b82811115611b0d578251825591602001919060010190611af2565b5b509050611b1b9190611b87565b5090565b6040518061012001604052806060815260200160608152602001606081526020016060815260200160608152602001600073ffffffffffffffffffffffffffffffffffffffff1681526020016000151581526020016000151581526020016000151581525090565b611ba991905b80821115611ba5576000816000905550600101611b8d565b5090565b90565b600081359050611bbb816123c3565b92915050565b600082601f830112611bd257600080fd5b8135611be5611be08261228b565b61225e565b91508082526020830160208301858383011115611c0157600080fd5b611c0c838284612370565b50505092915050565b600081359050611c24816123da565b92915050565b600060208284031215611c3c57600080fd5b6000611c4a84828501611bac565b91505092915050565b600080600060608486031215611c6857600080fd5b6000611c7686828701611bac565b935050602084013567ffffffffffffffff811115611c9357600080fd5b611c9f86828701611bc1565b925050604084013567ffffffffffffffff811115611cbc57600080fd5b611cc886828701611bc1565b9150509250925092565b60008060408385031215611ce557600080fd5b600083013567ffffffffffffffff811115611cff57600080fd5b611d0b85828601611bc1565b925050602083013567ffffffffffffffff811115611d2857600080fd5b611d3485828601611bc1565b9150509250929050565b600080600060608486031215611d5357600080fd5b600084013567ffffffffffffffff811115611d6d57600080fd5b611d7986828701611bc1565b935050602084013567ffffffffffffffff811115611d9657600080fd5b611da286828701611bc1565b925050604084013567ffffffffffffffff811115611dbf57600080fd5b611dcb86828701611bc1565b9150509250925092565b600060208284031215611de757600080fd5b6000611df584828501611c15565b91505092915050565b6000611e0a8383611f6e565b905092915050565b611e1b81612328565b82525050565b611e2a81612328565b82525050565b6000611e3b826122c7565b611e4581856122f5565b935083602082028501611e57856122b7565b8060005b85811015611e935784840389528151611e748582611dfe565b9450611e7f836122e8565b925060208a01995050600181019050611e5b565b50829750879550505050505092915050565b611eae8161233a565b82525050565b611ebd8161233a565b82525050565b6000611ece826122dd565b611ed88185612317565b9350611ee881856020860161237f565b611ef1816123b2565b840191505092915050565b6000611f07826122d2565b611f118185612306565b9350611f2181856020860161237f565b611f2a816123b2565b840191505092915050565b6000611f40826122d2565b611f4a8185612317565b9350611f5a81856020860161237f565b611f63816123b2565b840191505092915050565b6000610120830160008301518482036000860152611f8c8282611efc565b91505060208301518482036020860152611fa68282611efc565b91505060408301518482036040860152611fc08282611efc565b91505060608301518482036060860152611fda8282611efc565b91505060808301518482036080860152611ff48282611efc565b91505060a083015161200960a0860182611e12565b5060c083015161201c60c0860182611ea5565b5060e083015161202f60e0860182611ea5565b50610100830151612044610100860182611ea5565b508091505092915050565b60006020820190506120646000830184611e21565b92915050565b600060208201905081810360008301526120848184611e30565b905092915050565b60006020820190506120a16000830184611eb4565b92915050565b600060c0820190506120bc6000830189611eb4565b6120c96020830188611eb4565b81810360408301526120db8187611ec3565b905081810360608301526120ef8186611ec3565b905081810360808301526121038185611ec3565b905081810360a08301526121178184611ec3565b9050979650505050505050565b6000602082019050818103600083015261213e8184611f35565b905092915050565b600060a08201905081810360008301526121608188611ec3565b905081810360208301526121748187611ec3565b90506121836040830186611e21565b81810360608301526121958185611ec3565b90506121a46080830184611eb4565b9695505050505050565b60006101208201905081810360008301526121c9818c611f35565b905081810360208301526121dd818b611f35565b905081810360408301526121f1818a611f35565b905081810360608301526122058189611f35565b905081810360808301526122198188611f35565b905061222860a0830187611e21565b61223560c0830186611eb4565b61224260e0830185611eb4565b612250610100830184611eb4565b9a9950505050505050505050565b6000604051905081810181811067ffffffffffffffff8211171561228157600080fd5b8060405250919050565b600067ffffffffffffffff8211156122a257600080fd5b601f19601f8301169050602081019050919050565b6000819050602082019050919050565b600081519050919050565b600081519050919050565b600081519050919050565b6000602082019050919050565b600082825260208201905092915050565b600082825260208201905092915050565b600082825260208201905092915050565b600061233382612346565b9050919050565b60008115159050919050565b600073ffffffffffffffffffffffffffffffffffffffff82169050919050565b6000819050919050565b82818337600083830152505050565b60005b8381101561239d578082015181840152602081019050612382565b838111156123ac576000848401525b50505050565b6000601f19601f8301169050919050565b6123cc81612328565b81146123d757600080fd5b50565b6123e381612366565b81146123ee57600080fd5b5056fea365627a7a72315820122537bcb1dfe2d8ceeac252f68526d85c85ff1dfaea566e26573351905108d76c6578706572696d656e74616cf564736f6c63430005100040",
  "source": "// SPDX-License-Identifier: MIT\r\npragma solidity >=0.4.21 <0.9.0;\r\npragma experimental ABIEncoderV2;\r\n\r\ncontract Election {\r\n    address public admin;\r\n    uint256 candidateCount;\r\n    uint256 voterCount;\r\n    bool isElectionStarted;\r\n    bool isElectionEnded;\r\n    bool isVerified;\r\n    string electionTitle;\r\n    string electionOrganization;\r\n    string currentElectionPhase;\r\n    string nextElectionPhase;\r\n    uint256 electionPhaseIndex;\r\n    string[] public electionPhases;\r\n\r\n    constructor() public{\r\n        // Initilizing default values\r\n        admin = msg.sender;\r\n        candidateCount = 0;\r\n        voterCount = 0;\r\n        isElectionStarted = false;\r\n        isElectionEnded = false;\r\n        electionTitle = \"\";\r\n        electionOrganization = \"\";\r\n        electionPhaseIndex = 0;\r\n        electionPhases = [\r\n            \"None\",\r\n            \"Registration\",\r\n            \"Apply as a Candidate\",\r\n            \"Voting\",\r\n            \"Result\"\r\n        ];\r\n        currentElectionPhase = electionPhases[electionPhaseIndex];\r\n        nextElectionPhase = electionPhases[electionPhaseIndex + 1]; \r\n    }\r\n\r\n    struct voter {\r\n        string username;\r\n        string email;\r\n        string password;\r\n        string prn;\r\n        string mobile;\r\n        address voterAddress;\r\n        bool isVerified;\r\n        bool hasVoted;\r\n        bool hasApplied;\r\n    }\r\n\r\n    mapping(address => voter) public voterDetails;\r\n    address[] public voters; // Array of address to store address of voters\r\n\r\n    /*------------------------ Voter Verification --------------------------- */\r\n\r\n    // Update verification details\r\n    function addVerificationRequest(address pendingVoterAddress, string memory _prn, string memory _mobile) public{\r\n        voterDetails[pendingVoterAddress].hasApplied = true;\r\n        voterDetails[pendingVoterAddress].prn = _prn;\r\n        voterDetails[pendingVoterAddress].mobile = _mobile;\r\n    }\r\n\r\n    // Approve verification requests\r\n    function approveVerificationRequests(address pendingVoterAddress) public{\r\n        voterDetails[pendingVoterAddress].hasApplied = false;\r\n        voterDetails[pendingVoterAddress].isVerified = true;\r\n    }\r\n\r\n    // Get all voter details\r\n    function getAllVoterDetails() public view returns(voter[] memory){\r\n       voter[] memory allVoterDetails = new voter[](voterCount);\r\n       for(uint i = 0; i <voterCount; i++)\r\n       {\r\n           allVoterDetails[i] =  voterDetails[voters[i]];\r\n       }\r\n       return allVoterDetails;\r\n    }\r\n\r\n    function addVoterDetails(\r\n        string memory _username,\r\n        string memory _email,\r\n        string memory _password\r\n    ) public {\r\n        voter memory newVoter = voter({\r\n            username: _username,\r\n            email: _email,\r\n            password: _password,\r\n            voterAddress: msg.sender,\r\n            prn: \"\",\r\n            mobile: \"\",\r\n            isVerified: false,\r\n            hasVoted: false,\r\n            hasApplied: false\r\n        });\r\n        voterDetails[msg.sender] = newVoter;\r\n        voterCount++;\r\n        voters.push(msg.sender);\r\n    }\r\n\r\n    function isVoterExists(address voterAddress) public view returns (bool) {\r\n        //Loop through voters array\r\n        for (uint256 i = 0; i < voters.length; i++) {\r\n            if ((voterAddress) == voters[i]) {\r\n                return true;\r\n            }\r\n        }\r\n        return false;\r\n    }\r\n\r\n    function getLoginDetails(address loginAddress)\r\n        public\r\n        view\r\n        returns (\r\n            string memory,\r\n            string memory,\r\n            address,\r\n            string memory,\r\n            bool\r\n        )\r\n    {\r\n        return (\r\n            voterDetails[loginAddress].email,\r\n            voterDetails[loginAddress].password,\r\n            voterDetails[loginAddress].voterAddress,\r\n            voterDetails[loginAddress].username,\r\n            voterDetails[loginAddress].isVerified\r\n        );\r\n    }\r\n\r\n    function getAdmin() public view returns (address) {\r\n        // Returns account address used to deploy contract (i.e. admin)\r\n        return admin;\r\n    }\r\n\r\n    // Get election isElectionStarted and isElectionEnded values\r\n    function getStart() public view returns (bool) {\r\n        return isElectionStarted;\r\n    }\r\n\r\n    function getEnd() public view returns (bool) {\r\n        return isElectionEnded;\r\n    }\r\n\r\n    function changeElectionPhase() public {\r\n        electionPhaseIndex = (electionPhaseIndex + 1) % electionPhases.length;\r\n        currentElectionPhase = electionPhases[electionPhaseIndex];\r\n        nextElectionPhase = electionPhases[\r\n            (electionPhaseIndex + 1) % electionPhases.length\r\n        ];\r\n        if (electionPhaseIndex == electionPhases.length - 1) {\r\n            isElectionEnded = true;\r\n        }\r\n    }\r\n\r\n    function getElectionDetails()\r\n        public\r\n        view\r\n        returns (\r\n            bool,\r\n            bool,\r\n            string memory,\r\n            string memory,\r\n            string memory,\r\n            string memory\r\n        )\r\n    {\r\n        return (\r\n            isElectionStarted,\r\n            isElectionEnded,\r\n            electionTitle,\r\n            electionOrganization,\r\n            currentElectionPhase,\r\n            nextElectionPhase\r\n        );\r\n    }\r\n\r\n    function startElection(\r\n        string memory _electionTitle,\r\n        string memory _electionOrganization\r\n    ) public {\r\n        isElectionStarted = true;\r\n        electionTitle = _electionTitle;\r\n        electionOrganization = _electionOrganization;\r\n        changeElectionPhase();\r\n    }\r\n}\r\n",
  "sourcePath": "C:\\Users\\saura\\Voting-system-using-Blockchain\\contracts\\Election.sol",
  "compiler": {
    "name": "solc",
    "version": "0.5.16+commit.9c3226ce.Emscripten.clang"
  },
  "schemaVersion": "3.4.6",
  "updatedAt": "2022-05-02T15:27:28.543Z",
  "networkType": "ethereum",
  "devdoc": {
    "methods": {}
  },
  "userdoc": {
    "methods": {}
  }
}