{
  "contractName": "Election",
  "abi": [
    {
      "inputs": [],
      "payable": false,
      "stateMutability": "nonpayable",
      "type": "constructor"
    },
    {
      "constant": true,
      "inputs": [],
      "name": "admin",
      "outputs": [
        {
          "internalType": "address",
          "name": "",
          "type": "address"
        }
      ],
      "payable": false,
      "stateMutability": "view",
      "type": "function"
    },
    {
      "constant": true,
      "inputs": [
        {
          "internalType": "uint256",
          "name": "",
          "type": "uint256"
        }
      ],
      "name": "electionPhases",
      "outputs": [
        {
          "internalType": "string",
          "name": "",
          "type": "string"
        }
      ],
      "payable": false,
      "stateMutability": "view",
      "type": "function"
    },
    {
      "constant": true,
      "inputs": [
        {
          "internalType": "address",
          "name": "",
          "type": "address"
        }
      ],
      "name": "voterDetails",
      "outputs": [
        {
          "internalType": "string",
          "name": "username",
          "type": "string"
        },
        {
          "internalType": "string",
          "name": "email",
          "type": "string"
        },
        {
          "internalType": "string",
          "name": "password",
          "type": "string"
        },
        {
          "internalType": "address",
          "name": "voterAddress",
          "type": "address"
        }
      ],
      "payable": false,
      "stateMutability": "view",
      "type": "function"
    },
    {
      "constant": true,
      "inputs": [
        {
          "internalType": "uint256",
          "name": "",
          "type": "uint256"
        }
      ],
      "name": "voters",
      "outputs": [
        {
          "internalType": "address",
          "name": "",
          "type": "address"
        }
      ],
      "payable": false,
      "stateMutability": "view",
      "type": "function"
    },
    {
      "constant": false,
      "inputs": [
        {
          "internalType": "string",
          "name": "_username",
          "type": "string"
        },
        {
          "internalType": "string",
          "name": "_email",
          "type": "string"
        },
        {
          "internalType": "string",
          "name": "_password",
          "type": "string"
        }
      ],
      "name": "addVoterDetails",
      "outputs": [],
      "payable": false,
      "stateMutability": "nonpayable",
      "type": "function"
    },
    {
      "constant": true,
      "inputs": [
        {
          "internalType": "address",
          "name": "voterAddress",
          "type": "address"
        }
      ],
      "name": "isVoterExists",
      "outputs": [
        {
          "internalType": "bool",
          "name": "",
          "type": "bool"
        }
      ],
      "payable": false,
      "stateMutability": "view",
      "type": "function"
    },
    {
      "constant": true,
      "inputs": [
        {
          "internalType": "address",
          "name": "loginAddress",
          "type": "address"
        }
      ],
      "name": "getLoginDetails",
      "outputs": [
        {
          "internalType": "string",
          "name": "",
          "type": "string"
        },
        {
          "internalType": "string",
          "name": "",
          "type": "string"
        },
        {
          "internalType": "address",
          "name": "",
          "type": "address"
        },
        {
          "internalType": "string",
          "name": "",
          "type": "string"
        }
      ],
      "payable": false,
      "stateMutability": "view",
      "type": "function"
    },
    {
      "constant": true,
      "inputs": [],
      "name": "getAdmin",
      "outputs": [
        {
          "internalType": "address",
          "name": "",
          "type": "address"
        }
      ],
      "payable": false,
      "stateMutability": "view",
      "type": "function"
    },
    {
      "constant": true,
      "inputs": [],
      "name": "getStart",
      "outputs": [
        {
          "internalType": "bool",
          "name": "",
          "type": "bool"
        }
      ],
      "payable": false,
      "stateMutability": "view",
      "type": "function"
    },
    {
      "constant": true,
      "inputs": [],
      "name": "getEnd",
      "outputs": [
        {
          "internalType": "bool",
          "name": "",
          "type": "bool"
        }
      ],
      "payable": false,
      "stateMutability": "view",
      "type": "function"
    },
    {
      "constant": true,
      "inputs": [],
      "name": "getElectionPhasesCount",
      "outputs": [
        {
          "internalType": "uint256",
          "name": "count",
          "type": "uint256"
        }
      ],
      "payable": false,
      "stateMutability": "view",
      "type": "function"
    },
    {
      "constant": false,
      "inputs": [],
      "name": "changeElectionPhase",
      "outputs": [],
      "payable": false,
      "stateMutability": "nonpayable",
      "type": "function"
    },
    {
      "constant": true,
      "inputs": [],
      "name": "getElectionDetails",
      "outputs": [
        {
          "internalType": "bool",
          "name": "",
          "type": "bool"
        },
        {
          "internalType": "bool",
          "name": "",
          "type": "bool"
        },
        {
          "internalType": "string",
          "name": "",
          "type": "string"
        },
        {
          "internalType": "string",
          "name": "",
          "type": "string"
        },
        {
          "internalType": "string",
          "name": "",
          "type": "string"
        }
      ],
      "payable": false,
      "stateMutability": "view",
      "type": "function"
    },
    {
      "constant": false,
      "inputs": [
        {
          "internalType": "string",
          "name": "_electionTitle",
          "type": "string"
        },
        {
          "internalType": "string",
          "name": "_electionOrganization",
          "type": "string"
        }
      ],
      "name": "startElection",
      "outputs": [],
      "payable": false,
      "stateMutability": "nonpayable",
      "type": "function"
    }
  ],
  "bytecode": "0x60806040523480156200001157600080fd5b50336000806101000a81548173ffffffffffffffffffffffffffffffffffffffff021916908373ffffffffffffffffffffffffffffffffffffffff160217905550600060018190555060006002819055506000600360006101000a81548160ff0219169083151502179055506000600360016101000a81548160ff0219169083151502179055506040518060200160405280600081525060049080519060200190620000bf92919062000277565b506040518060200160405280600081525060059080519060200190620000e792919062000277565b5060006007819055506040518060a001604052806040518060400160405280600481526020017f4e6f6e650000000000000000000000000000000000000000000000000000000081525081526020016040518060400160405280600c81526020017f526567697374726174696f6e000000000000000000000000000000000000000081525081526020016040518060400160405280601481526020017f4170706c7920617320612043616e64696461746500000000000000000000000081525081526020016040518060400160405280600681526020017f566f74696e67000000000000000000000000000000000000000000000000000081525081526020016040518060400160405280600681526020017f526573756c740000000000000000000000000000000000000000000000000000815250815250600890600562000232929190620002fe565b506008600754815481106200024357fe5b90600052602060002001600690805460018160011615610100020316600290046200027092919062000365565b506200051f565b828054600181600116156101000203166002900490600052602060002090601f016020900481019282601f10620002ba57805160ff1916838001178555620002eb565b82800160010185558215620002eb579182015b82811115620002ea578251825591602001919060010190620002cd565b5b509050620002fa9190620003f3565b5090565b82805482825590600052602060002090810192821562000352579160200282015b8281111562000351578251829080519060200190620003409291906200041b565b50916020019190600101906200031f565b5b509050620003619190620004a2565b5090565b828054600181600116156101000203166002900490600052602060002090601f016020900481019282601f10620003a05780548555620003e0565b82800160010185558215620003e057600052602060002091601f016020900482015b82811115620003df578254825591600101919060010190620003c2565b5b509050620003ef9190620003f3565b5090565b6200041891905b8082111562000414576000816000905550600101620003fa565b5090565b90565b828054600181600116156101000203166002900490600052602060002090601f016020900481019282601f106200045e57805160ff19168380011785556200048f565b828001600101855582156200048f579182015b828111156200048e57825182559160200191906001019062000471565b5b5090506200049e9190620003f3565b5090565b620004d091905b80821115620004cc5760008181620004c29190620004d3565b50600101620004a9565b5090565b90565b50805460018160011615610100020316600290046000825580601f10620004fb57506200051c565b601f0160209004906000526020600020908101906200051b9190620003f3565b5b50565b61197d806200052f6000396000f3fe608060405234801561001057600080fd5b50600436106100ea5760003560e01c80637691e9901161008c578063c5292c6711610066578063c5292c6714610951578063da58c7d914610973578063ed836bc3146109e1578063f851a44014610b52576100ea565b80637691e99014610615578063917addbd146107dd5780639f05a36d1461092f576100ea565b8063316b018d116100c8578063316b018d146102105780635938750d1461021a5780635cc2d13f146103e25780636e9960c3146105cb576100ea565b806319f017b7146100ef57806328dc4182146101965780632f28205b146101f2575b600080fd5b61011b6004803603602081101561010557600080fd5b8101908080359060200190929190505050610b9c565b6040518080602001828103825283818151815260200191508051906020019080838360005b8381101561015b578082015181840152602081019050610140565b50505050905090810190601f1680156101885780820380516001836020036101000a031916815260200191505b509250505060405180910390f35b6101d8600480360360208110156101ac57600080fd5b81019080803573ffffffffffffffffffffffffffffffffffffffff169060200190929190505050610c55565b604051808215151515815260200191505060405180910390f35b6101fa610cf7565b6040518082815260200191505060405180910390f35b610218610d04565b005b61025c6004803603602081101561023057600080fd5b81019080803573ffffffffffffffffffffffffffffffffffffffff169060200190929190505050610d8d565b604051808060200180602001806020018573ffffffffffffffffffffffffffffffffffffffff1673ffffffffffffffffffffffffffffffffffffffff168152602001848103845288818151815260200191508051906020019080838360005b838110156102d65780820151818401526020810190506102bb565b50505050905090810190601f1680156103035780820380516001836020036101000a031916815260200191505b50848103835287818151815260200191508051906020019080838360005b8381101561033c578082015181840152602081019050610321565b50505050905090810190601f1680156103695780820380516001836020036101000a031916815260200191505b50848103825286818151815260200191508051906020019080838360005b838110156103a2578082015181840152602081019050610387565b50505050905090810190601f1680156103cf5780820380516001836020036101000a031916815260200191505b5097505050505050505060405180910390f35b6105c9600480360360608110156103f857600080fd5b810190808035906020019064010000000081111561041557600080fd5b82018360208201111561042757600080fd5b8035906020019184600183028401116401000000008311171561044957600080fd5b91908080601f016020809104026020016040519081016040528093929190818152602001838380828437600081840152601f19601f820116905080830192505050505050509192919290803590602001906401000000008111156104ac57600080fd5b8201836020820111156104be57600080fd5b803590602001918460018302840111640100000000831117156104e057600080fd5b91908080601f016020809104026020016040519081016040528093929190818152602001838380828437600081840152601f19601f8201169050808301925050505050505091929192908035906020019064010000000081111561054357600080fd5b82018360208201111561055557600080fd5b8035906020019184600183028401116401000000008311171561057757600080fd5b91908080601f016020809104026020016040519081016040528093929190818152602001838380828437600081840152601f19601f820116905080830192505050505050509192919290505050610fa5565b005b6105d3611133565b604051808273ffffffffffffffffffffffffffffffffffffffff1673ffffffffffffffffffffffffffffffffffffffff16815260200191505060405180910390f35b6106576004803603602081101561062b57600080fd5b81019080803573ffffffffffffffffffffffffffffffffffffffff16906020019092919050505061115c565b6040518080602001806020018573ffffffffffffffffffffffffffffffffffffffff1673ffffffffffffffffffffffffffffffffffffffff16815260200180602001848103845288818151815260200191508051906020019080838360005b838110156106d15780820151818401526020810190506106b6565b50505050905090810190601f1680156106fe5780820380516001836020036101000a031916815260200191505b50848103835287818151815260200191508051906020019080838360005b8381101561073757808201518184015260208101905061071c565b50505050905090810190601f1680156107645780820380516001836020036101000a031916815260200191505b50848103825285818151815260200191508051906020019080838360005b8381101561079d578082015181840152602081019050610782565b50505050905090810190601f1680156107ca5780820380516001836020036101000a031916815260200191505b5097505050505050505060405180910390f35b61092d600480360360408110156107f357600080fd5b810190808035906020019064010000000081111561081057600080fd5b82018360208201111561082257600080fd5b8035906020019184600183028401116401000000008311171561084457600080fd5b91908080601f016020809104026020016040519081016040528093929190818152602001838380828437600081840152601f19601f820116905080830192505050505050509192919290803590602001906401000000008111156108a757600080fd5b8201836020820111156108b957600080fd5b803590602001918460018302840111640100000000831117156108db57600080fd5b91908080601f016020809104026020016040519081016040528093929190818152602001838380828437600081840152601f19601f82011690508083019250505050505050919291929050505061146f565b005b6109376114bc565b604051808215151515815260200191505060405180910390f35b6109596114d3565b604051808215151515815260200191505060405180910390f35b61099f6004803603602081101561098957600080fd5b81019080803590602001909291905050506114ea565b604051808273ffffffffffffffffffffffffffffffffffffffff1673ffffffffffffffffffffffffffffffffffffffff16815260200191505060405180910390f35b6109e9611526565b604051808615151515815260200185151515158152602001806020018060200180602001848103845287818151815260200191508051906020019080838360005b83811015610a45578082015181840152602081019050610a2a565b50505050905090810190601f168015610a725780820380516001836020036101000a031916815260200191505b50848103835286818151815260200191508051906020019080838360005b83811015610aab578082015181840152602081019050610a90565b50505050905090810190601f168015610ad85780820380516001836020036101000a031916815260200191505b50848103825285818151815260200191508051906020019080838360005b83811015610b11578082015181840152602081019050610af6565b50505050905090810190601f168015610b3e5780820380516001836020036101000a031916815260200191505b509850505050505050505060405180910390f35b610b5a611739565b604051808273ffffffffffffffffffffffffffffffffffffffff1673ffffffffffffffffffffffffffffffffffffffff16815260200191505060405180910390f35b60088181548110610ba957fe5b906000526020600020016000915090508054600181600116156101000203166002900480601f016020809104026020016040519081016040528092919081815260200182805460018160011615610100020316600290048015610c4d5780601f10610c2257610100808354040283529160200191610c4d565b820191906000526020600020905b815481529060010190602001808311610c3057829003601f168201915b505050505081565b600080600090505b600a80549050811015610cec57600a8181548110610c7757fe5b9060005260206000200160009054906101000a900473ffffffffffffffffffffffffffffffffffffffff1673ffffffffffffffffffffffffffffffffffffffff168373ffffffffffffffffffffffffffffffffffffffff161415610cdf576001915050610cf2565b8080600101915050610c5d565b50600090505b919050565b6000600880549050905090565b610d0c610cf7565b60016007540181610d1957fe5b06600781905550600860075481548110610d2f57fe5b9060005260206000200160069080546001816001161561010002031660029004610d5a92919061175e565b506001610d65610cf7565b036007541415610d8b576001600360016101000a81548160ff0219169083151502179055505b565b6009602052806000526040600020600091509050806000018054600181600116156101000203166002900480601f016020809104026020016040519081016040528092919081815260200182805460018160011615610100020316600290048015610e395780601f10610e0e57610100808354040283529160200191610e39565b820191906000526020600020905b815481529060010190602001808311610e1c57829003601f168201915b505050505090806001018054600181600116156101000203166002900480601f016020809104026020016040519081016040528092919081815260200182805460018160011615610100020316600290048015610ed75780601f10610eac57610100808354040283529160200191610ed7565b820191906000526020600020905b815481529060010190602001808311610eba57829003601f168201915b505050505090806002018054600181600116156101000203166002900480601f016020809104026020016040519081016040528092919081815260200182805460018160011615610100020316600290048015610f755780601f10610f4a57610100808354040283529160200191610f75565b820191906000526020600020905b815481529060010190602001808311610f5857829003601f168201915b5050505050908060030160009054906101000a900473ffffffffffffffffffffffffffffffffffffffff16905084565b610fad6117e5565b60405180608001604052808581526020018481526020018381526020013373ffffffffffffffffffffffffffffffffffffffff16815250905080600960003373ffffffffffffffffffffffffffffffffffffffff1673ffffffffffffffffffffffffffffffffffffffff1681526020019081526020016000206000820151816000019080519060200190611042929190611823565b50602082015181600101908051906020019061105f929190611823565b50604082015181600201908051906020019061107c929190611823565b5060608201518160030160006101000a81548173ffffffffffffffffffffffffffffffffffffffff021916908373ffffffffffffffffffffffffffffffffffffffff160217905550905050600a3390806001815401808255809150509060018203906000526020600020016000909192909190916101000a81548173ffffffffffffffffffffffffffffffffffffffff021916908373ffffffffffffffffffffffffffffffffffffffff1602179055505050505050565b60008060009054906101000a900473ffffffffffffffffffffffffffffffffffffffff16905090565b60608060006060600960008673ffffffffffffffffffffffffffffffffffffffff1673ffffffffffffffffffffffffffffffffffffffff168152602001908152602001600020600101600960008773ffffffffffffffffffffffffffffffffffffffff1673ffffffffffffffffffffffffffffffffffffffff168152602001908152602001600020600201600960008873ffffffffffffffffffffffffffffffffffffffff1673ffffffffffffffffffffffffffffffffffffffff16815260200190815260200160002060030160009054906101000a900473ffffffffffffffffffffffffffffffffffffffff16600960008973ffffffffffffffffffffffffffffffffffffffff1673ffffffffffffffffffffffffffffffffffffffff168152602001908152602001600020600001838054600181600116156101000203166002900480601f0160208091040260200160405190810160405280929190818152602001828054600181600116156101000203166002900480156113215780601f106112f657610100808354040283529160200191611321565b820191906000526020600020905b81548152906001019060200180831161130457829003601f168201915b50505050509350828054600181600116156101000203166002900480601f0160208091040260200160405190810160405280929190818152602001828054600181600116156101000203166002900480156113bd5780601f10611392576101008083540402835291602001916113bd565b820191906000526020600020905b8154815290600101906020018083116113a057829003601f168201915b50505050509250808054600181600116156101000203166002900480601f0160208091040260200160405190810160405280929190818152602001828054600181600116156101000203166002900480156114595780601f1061142e57610100808354040283529160200191611459565b820191906000526020600020905b81548152906001019060200180831161143c57829003601f168201915b5050505050905093509350935093509193509193565b6001600360006101000a81548160ff02191690831515021790555081600490805190602001906114a09291906118a3565b5080600590805190602001906114b79291906118a3565b505050565b6000600360019054906101000a900460ff16905090565b6000600360009054906101000a900460ff16905090565b600a81815481106114f757fe5b906000526020600020016000915054906101000a900473ffffffffffffffffffffffffffffffffffffffff1681565b6000806060806060600360009054906101000a900460ff16600360019054906101000a900460ff16600460056006828054600181600116156101000203166002900480601f0160208091040260200160405190810160405280929190818152602001828054600181600116156101000203166002900480156115e95780601f106115be576101008083540402835291602001916115e9565b820191906000526020600020905b8154815290600101906020018083116115cc57829003601f168201915b50505050509250818054600181600116156101000203166002900480601f0160208091040260200160405190810160405280929190818152602001828054600181600116156101000203166002900480156116855780601f1061165a57610100808354040283529160200191611685565b820191906000526020600020905b81548152906001019060200180831161166857829003601f168201915b50505050509150808054600181600116156101000203166002900480601f0160208091040260200160405190810160405280929190818152602001828054600181600116156101000203166002900480156117215780601f106116f657610100808354040283529160200191611721565b820191906000526020600020905b81548152906001019060200180831161170457829003601f168201915b50505050509050945094509450945094509091929394565b6000809054906101000a900473ffffffffffffffffffffffffffffffffffffffff1681565b828054600181600116156101000203166002900490600052602060002090601f016020900481019282601f1061179757805485556117d4565b828001600101855582156117d457600052602060002091601f016020900482015b828111156117d35782548255916001019190600101906117b8565b5b5090506117e19190611923565b5090565b6040518060800160405280606081526020016060815260200160608152602001600073ffffffffffffffffffffffffffffffffffffffff1681525090565b828054600181600116156101000203166002900490600052602060002090601f016020900481019282601f1061186457805160ff1916838001178555611892565b82800160010185558215611892579182015b82811115611891578251825591602001919060010190611876565b5b50905061189f9190611923565b5090565b828054600181600116156101000203166002900490600052602060002090601f016020900481019282601f106118e457805160ff1916838001178555611912565b82800160010185558215611912579182015b828111156119115782518255916020019190600101906118f6565b5b50905061191f9190611923565b5090565b61194591905b80821115611941576000816000905550600101611929565b5090565b9056fea265627a7a723158203d7e64c48c475368687d171c6da79f22c4c8572ccba34128e3c65836d290ea0264736f6c63430005100032",
  "source": "// SPDX-License-Identifier: MIT\r\npragma solidity >=0.4.21 <0.9.0;\r\n\r\ncontract Election {\r\n    address public admin;\r\n    uint256 candidateCount;\r\n    uint256 voterCount;\r\n    bool isElectionStarted;\r\n    bool isElectionEnded;\r\n    string electionTitle;\r\n    string electionOrganization;\r\n    string currentElectionPhase;\r\n    uint256 electionPhaseIndex;\r\n    string[] public electionPhases;\r\n\r\n    constructor() public {\r\n        // Initilizing default values\r\n        admin = msg.sender;\r\n        candidateCount = 0;\r\n        voterCount = 0;\r\n        isElectionStarted = false;\r\n        isElectionEnded = false;\r\n        electionTitle = \"\";\r\n        electionOrganization = \"\";\r\n        electionPhaseIndex = 0;\r\n        electionPhases = [\r\n            \"None\",\r\n            \"Registration\",\r\n            \"Apply as a Candidate\",\r\n            \"Voting\",\r\n            \"Result\"\r\n        ];\r\n        currentElectionPhase = electionPhases[electionPhaseIndex];\r\n    }\r\n\r\n    struct voter {\r\n        string username;\r\n        string email;\r\n        string password;\r\n        address voterAddress;\r\n    }\r\n    mapping(address => voter) public voterDetails;\r\n    address[] public voters; // Array of address to store address of voters\r\n\r\n    function addVoterDetails(\r\n        string memory _username,\r\n        string memory _email,\r\n        string memory _password\r\n    ) public {\r\n        voter memory newVoter = voter({\r\n            username: _username,\r\n            email: _email,\r\n            password: _password,\r\n            voterAddress: msg.sender\r\n        });\r\n        voterDetails[msg.sender] = newVoter;\r\n        voters.push(msg.sender);\r\n    }\r\n\r\n    function isVoterExists(address voterAddress) public view returns (bool) {\r\n        //Loop through voters array\r\n        for (uint256 i = 0; i < voters.length; i++) {\r\n            if ((voterAddress) == voters[i]) {\r\n                return true;\r\n            }\r\n        }\r\n        return false;\r\n    }\r\n\r\n    function getLoginDetails(address loginAddress)\r\n        public\r\n        view\r\n        returns (\r\n            string memory,\r\n            string memory,\r\n            address,\r\n            string memory\r\n        )\r\n    {\r\n        return (\r\n            voterDetails[loginAddress].email,\r\n            voterDetails[loginAddress].password,\r\n            voterDetails[loginAddress].voterAddress,\r\n            voterDetails[loginAddress].username\r\n        );\r\n    }\r\n\r\n    function getAdmin() public view returns (address) {\r\n        // Returns account address used to deploy contract (i.e. admin)\r\n        return admin;\r\n    }\r\n\r\n    // Get election isElectionStarted and isElectionEnded values\r\n    function getStart() public view returns (bool) {\r\n        return isElectionStarted;\r\n    }\r\n\r\n    function getEnd() public view returns (bool) {\r\n        return isElectionEnded;\r\n    }\r\n\r\n    function getElectionPhasesCount() public view returns (uint256 count) {\r\n        return electionPhases.length;\r\n    }\r\n\r\n    function changeElectionPhase() public {\r\n        electionPhaseIndex =\r\n            (electionPhaseIndex + 1) %\r\n            getElectionPhasesCount();\r\n        currentElectionPhase = electionPhases[electionPhaseIndex];\r\n        if (electionPhaseIndex == getElectionPhasesCount() - 1) {\r\n            isElectionEnded = true;\r\n        }\r\n    }\r\n\r\n    function getElectionDetails()\r\n        public\r\n        view\r\n        returns (\r\n            bool,\r\n            bool,\r\n            string memory,\r\n            string memory,\r\n            string memory\r\n        )\r\n    {\r\n        return (\r\n            isElectionStarted,\r\n            isElectionEnded,\r\n            electionTitle,\r\n            electionOrganization,\r\n            currentElectionPhase\r\n        );\r\n    }\r\n\r\n    function startElection(\r\n        string memory _electionTitle,\r\n        string memory _electionOrganization\r\n    ) public {\r\n        isElectionStarted = true;\r\n        electionTitle = _electionTitle;\r\n        electionOrganization = _electionOrganization;\r\n        // changeElectionPhase();\r\n    }\r\n}\r\n",
  "sourcePath": "D:\\MyBooks\\BlockChain\\Bluepineapple_Project\\evote\\contracts\\Election.sol",
  "compiler": {
    "name": "solc",
    "version": "0.5.16+commit.9c3226ce.Emscripten.clang"
  },
  "schemaVersion": "3.4.6",
  "updatedAt": "2022-05-01T10:05:02.279Z",
  "networkType": "ethereum",
  "devdoc": {
    "methods": {}
  },
  "userdoc": {
    "methods": {}
  }
}