{
  "contractName": "Election",
  "abi": [
    {
      "inputs": [],
      "payable": false,
      "stateMutability": "nonpayable",
      "type": "constructor"
    },
    {
      "constant": true,
      "inputs": [],
      "name": "admin",
      "outputs": [
        {
          "internalType": "address",
          "name": "",
          "type": "address"
        }
      ],
      "payable": false,
      "stateMutability": "view",
      "type": "function"
    },
    {
      "constant": true,
      "inputs": [],
      "name": "electionInstance",
      "outputs": [
        {
          "internalType": "bool",
          "name": "isElectionStarted",
          "type": "bool"
        },
        {
          "internalType": "string",
          "name": "electionTitle",
          "type": "string"
        },
        {
          "internalType": "string",
          "name": "electionOrganization",
          "type": "string"
        },
        {
          "internalType": "string",
          "name": "currentElectionPhase",
          "type": "string"
        },
        {
          "internalType": "string",
          "name": "nextElectionPhase",
          "type": "string"
        },
        {
          "internalType": "uint256",
          "name": "electionPhaseIndex",
          "type": "uint256"
        }
      ],
      "payable": false,
      "stateMutability": "view",
      "type": "function"
    },
    {
      "constant": true,
      "inputs": [
        {
          "internalType": "address",
          "name": "",
          "type": "address"
        }
      ],
      "name": "voterDetails",
      "outputs": [
        {
          "internalType": "string",
          "name": "username",
          "type": "string"
        },
        {
          "internalType": "string",
          "name": "email",
          "type": "string"
        },
        {
          "internalType": "string",
          "name": "password",
          "type": "string"
        },
        {
          "internalType": "address",
          "name": "voterAddress",
          "type": "address"
        },
        {
          "components": [
            {
              "internalType": "string",
              "name": "prn",
              "type": "string"
            },
            {
              "internalType": "string",
              "name": "mobile",
              "type": "string"
            },
            {
              "internalType": "uint256",
              "name": "votesCount",
              "type": "uint256"
            },
            {
              "internalType": "bool",
              "name": "isVerified",
              "type": "bool"
            },
            {
              "internalType": "bool",
              "name": "hasVoted",
              "type": "bool"
            },
            {
              "internalType": "bool",
              "name": "hasApplied",
              "type": "bool"
            },
            {
              "internalType": "bool",
              "name": "isCandidate",
              "type": "bool"
            },
            {
              "internalType": "bool",
              "name": "isDenied",
              "type": "bool"
            },
            {
              "internalType": "string",
              "name": "tagLine",
              "type": "string"
            }
          ],
          "internalType": "struct Election.voterElectionData",
          "name": "voterElectionDetails",
          "type": "tuple"
        }
      ],
      "payable": false,
      "stateMutability": "view",
      "type": "function"
    },
    {
      "constant": true,
      "inputs": [
        {
          "internalType": "uint256",
          "name": "",
          "type": "uint256"
        }
      ],
      "name": "voters",
      "outputs": [
        {
          "internalType": "address",
          "name": "",
          "type": "address"
        }
      ],
      "payable": false,
      "stateMutability": "view",
      "type": "function"
    },
    {
      "constant": false,
      "inputs": [
        {
          "internalType": "address",
          "name": "pendingVoterAddress",
          "type": "address"
        },
        {
          "internalType": "string",
          "name": "_prn",
          "type": "string"
        },
        {
          "internalType": "string",
          "name": "_mobile",
          "type": "string"
        }
      ],
      "name": "addVerificationRequest",
      "outputs": [],
      "payable": false,
      "stateMutability": "nonpayable",
      "type": "function"
    },
    {
      "constant": false,
      "inputs": [
        {
          "internalType": "address",
          "name": "pendingVoterAddress",
          "type": "address"
        }
      ],
      "name": "approveVerificationRequests",
      "outputs": [],
      "payable": false,
      "stateMutability": "nonpayable",
      "type": "function"
    },
    {
      "constant": false,
      "inputs": [
        {
          "internalType": "address",
          "name": "pendingVoterAddress",
          "type": "address"
        }
      ],
      "name": "denyVerificationRequests",
      "outputs": [],
      "payable": false,
      "stateMutability": "nonpayable",
      "type": "function"
    },
    {
      "constant": false,
      "inputs": [
        {
          "internalType": "address",
          "name": "pendingVoterAddress",
          "type": "address"
        },
        {
          "internalType": "string",
          "name": "_tagLine",
          "type": "string"
        }
      ],
      "name": "addCandidateRequest",
      "outputs": [],
      "payable": false,
      "stateMutability": "nonpayable",
      "type": "function"
    },
    {
      "constant": false,
      "inputs": [
        {
          "internalType": "address",
          "name": "pendingVoterAddress",
          "type": "address"
        }
      ],
      "name": "approveCandidateRequests",
      "outputs": [],
      "payable": false,
      "stateMutability": "nonpayable",
      "type": "function"
    },
    {
      "constant": true,
      "inputs": [],
      "name": "isPendingRequest",
      "outputs": [
        {
          "internalType": "bool",
          "name": "",
          "type": "bool"
        }
      ],
      "payable": false,
      "stateMutability": "view",
      "type": "function"
    },
    {
      "constant": true,
      "inputs": [],
      "name": "getAllVoterDetails",
      "outputs": [
        {
          "components": [
            {
              "internalType": "string",
              "name": "username",
              "type": "string"
            },
            {
              "internalType": "string",
              "name": "email",
              "type": "string"
            },
            {
              "internalType": "string",
              "name": "password",
              "type": "string"
            },
            {
              "internalType": "address",
              "name": "voterAddress",
              "type": "address"
            },
            {
              "components": [
                {
                  "internalType": "string",
                  "name": "prn",
                  "type": "string"
                },
                {
                  "internalType": "string",
                  "name": "mobile",
                  "type": "string"
                },
                {
                  "internalType": "uint256",
                  "name": "votesCount",
                  "type": "uint256"
                },
                {
                  "internalType": "bool",
                  "name": "isVerified",
                  "type": "bool"
                },
                {
                  "internalType": "bool",
                  "name": "hasVoted",
                  "type": "bool"
                },
                {
                  "internalType": "bool",
                  "name": "hasApplied",
                  "type": "bool"
                },
                {
                  "internalType": "bool",
                  "name": "isCandidate",
                  "type": "bool"
                },
                {
                  "internalType": "bool",
                  "name": "isDenied",
                  "type": "bool"
                },
                {
                  "internalType": "string",
                  "name": "tagLine",
                  "type": "string"
                }
              ],
              "internalType": "struct Election.voterElectionData",
              "name": "voterElectionDetails",
              "type": "tuple"
            }
          ],
          "internalType": "struct Election.voter[]",
          "name": "",
          "type": "tuple[]"
        }
      ],
      "payable": false,
      "stateMutability": "view",
      "type": "function"
    },
    {
      "constant": true,
      "inputs": [
        {
          "internalType": "address",
          "name": "voterAddress",
          "type": "address"
        }
      ],
      "name": "getVoterDetails",
      "outputs": [
        {
          "components": [
            {
              "internalType": "string",
              "name": "username",
              "type": "string"
            },
            {
              "internalType": "string",
              "name": "email",
              "type": "string"
            },
            {
              "internalType": "string",
              "name": "password",
              "type": "string"
            },
            {
              "internalType": "address",
              "name": "voterAddress",
              "type": "address"
            },
            {
              "components": [
                {
                  "internalType": "string",
                  "name": "prn",
                  "type": "string"
                },
                {
                  "internalType": "string",
                  "name": "mobile",
                  "type": "string"
                },
                {
                  "internalType": "uint256",
                  "name": "votesCount",
                  "type": "uint256"
                },
                {
                  "internalType": "bool",
                  "name": "isVerified",
                  "type": "bool"
                },
                {
                  "internalType": "bool",
                  "name": "hasVoted",
                  "type": "bool"
                },
                {
                  "internalType": "bool",
                  "name": "hasApplied",
                  "type": "bool"
                },
                {
                  "internalType": "bool",
                  "name": "isCandidate",
                  "type": "bool"
                },
                {
                  "internalType": "bool",
                  "name": "isDenied",
                  "type": "bool"
                },
                {
                  "internalType": "string",
                  "name": "tagLine",
                  "type": "string"
                }
              ],
              "internalType": "struct Election.voterElectionData",
              "name": "voterElectionDetails",
              "type": "tuple"
            }
          ],
          "internalType": "struct Election.voter",
          "name": "",
          "type": "tuple"
        }
      ],
      "payable": false,
      "stateMutability": "view",
      "type": "function"
    },
    {
      "constant": false,
      "inputs": [
        {
          "internalType": "string",
          "name": "_username",
          "type": "string"
        },
        {
          "internalType": "string",
          "name": "_email",
          "type": "string"
        },
        {
          "internalType": "string",
          "name": "_password",
          "type": "string"
        }
      ],
      "name": "addVoterDetails",
      "outputs": [],
      "payable": false,
      "stateMutability": "nonpayable",
      "type": "function"
    },
    {
      "constant": true,
      "inputs": [
        {
          "internalType": "address",
          "name": "voterAddress",
          "type": "address"
        },
        {
          "internalType": "string",
          "name": "mail",
          "type": "string"
        }
      ],
      "name": "isVoterExists",
      "outputs": [
        {
          "internalType": "bool",
          "name": "",
          "type": "bool"
        }
      ],
      "payable": false,
      "stateMutability": "view",
      "type": "function"
    },
    {
      "constant": true,
      "inputs": [],
      "name": "getAdmin",
      "outputs": [
        {
          "internalType": "address",
          "name": "",
          "type": "address"
        }
      ],
      "payable": false,
      "stateMutability": "view",
      "type": "function"
    },
    {
      "constant": false,
      "inputs": [],
      "name": "changeElectionPhase",
      "outputs": [],
      "payable": false,
      "stateMutability": "nonpayable",
      "type": "function"
    },
    {
      "constant": true,
      "inputs": [],
      "name": "getElectionDetails",
      "outputs": [
        {
          "internalType": "bool",
          "name": "",
          "type": "bool"
        },
        {
          "internalType": "string",
          "name": "",
          "type": "string"
        },
        {
          "internalType": "string",
          "name": "",
          "type": "string"
        },
        {
          "internalType": "string",
          "name": "",
          "type": "string"
        },
        {
          "internalType": "string",
          "name": "",
          "type": "string"
        }
      ],
      "payable": false,
      "stateMutability": "view",
      "type": "function"
    },
    {
      "constant": false,
      "inputs": [
        {
          "internalType": "string",
          "name": "_electionTitle",
          "type": "string"
        },
        {
          "internalType": "string",
          "name": "_electionOrganization",
          "type": "string"
        }
      ],
      "name": "startElection",
      "outputs": [],
      "payable": false,
      "stateMutability": "nonpayable",
      "type": "function"
    },
    {
      "constant": false,
      "inputs": [
        {
          "internalType": "address",
          "name": "voterAddress",
          "type": "address"
        },
        {
          "internalType": "address",
          "name": "candidateAddress",
          "type": "address"
        }
      ],
      "name": "addVote",
      "outputs": [],
      "payable": false,
      "stateMutability": "nonpayable",
      "type": "function"
    },
    {
      "constant": true,
      "inputs": [
        {
          "internalType": "address",
          "name": "voterAddress",
          "type": "address"
        }
      ],
      "name": "hasVoted",
      "outputs": [
        {
          "internalType": "bool",
          "name": "",
          "type": "bool"
        }
      ],
      "payable": false,
      "stateMutability": "view",
      "type": "function"
    },
    {
      "constant": false,
      "inputs": [],
      "name": "resetElection",
      "outputs": [],
      "payable": false,
      "stateMutability": "nonpayable",
      "type": "function"
    }
  ],
  "bytecode": "0x60806040523480156200001157600080fd5b50336000806101000a81548173ffffffffffffffffffffffffffffffffffffffff021916908373ffffffffffffffffffffffffffffffffffffffff1602179055506000600181905550600060028190555060006003819055506040518060e001604052806000151581526020016040518060200160405280600081525081526020016040518060200160405280600081525081526020016006800160066005015460058110620000bd57fe5b018054600181600116156101000203166002900480601f016020809104026020016040519081016040528092919081815260200182805460018160011615610100020316600290048015620001565780601f106200012a5761010080835404028352916020019162000156565b820191906000526020600020905b8154815290600101906020018083116200013857829003601f168201915b5050505050815260200160068001600160066005015401600581106200017857fe5b018054600181600116156101000203166002900480601f016020809104026020016040519081016040528092919081815260200182805460018160011615610100020316600290048015620002115780601f10620001e55761010080835404028352916020019162000211565b820191906000526020600020905b815481529060010190602001808311620001f357829003601f168201915b50505050508152602001600081526020016040518060a001604052806040518060400160405280600e81526020017f536574757020456c656374696f6e00000000000000000000000000000000000081525081526020016040518060400160405280601281526020017f566f74657220566572696669636174696f6e000000000000000000000000000081525081526020016040518060400160405280601581526020017f43616e646964617465204170706c69636174696f6e000000000000000000000081525081526020016040518060400160405280600681526020017f566f74696e67000000000000000000000000000000000000000000000000000081525081526020016040518060400160405280600681526020017f526573756c740000000000000000000000000000000000000000000000000000815250815250815250600660008201518160000160006101000a81548160ff02191690831515021790555060208201518160010190805190602001906200039592919062000420565b506040820151816002019080519060200190620003b492919062000420565b506060820151816003019080519060200190620003d392919062000420565b506080820151816004019080519060200190620003f292919062000420565b5060a0820151816005015560c08201518160060190600562000416929190620004a7565b50905050620005a6565b828054600181600116156101000203166002900490600052602060002090601f016020900481019282601f106200046357805160ff191683800117855562000494565b8280016001018555821562000494579182015b828111156200049357825182559160200191906001019062000476565b5b509050620004a3919062000501565b5090565b8260058101928215620004ee579160200282015b82811115620004ed578251829080519060200190620004dc92919062000420565b5091602001919060010190620004bb565b5b509050620004fd919062000529565b5090565b6200052691905b808211156200052257600081600090555060010162000508565b5090565b90565b6200055791905b808211156200055357600081816200054991906200055a565b5060010162000530565b5090565b90565b50805460018160011615610100020316600290046000825580601f10620005825750620005a3565b601f016020900490600052602060002090810190620005a2919062000501565b5b50565b6138f380620005b66000396000f3fe608060405234801561001057600080fd5b50600436106101375760003560e01c806392bcab34116100b8578063c8eb9ef11161007c578063c8eb9ef11461032d578063c97c395814610349578063da58c7d914610367578063e8f3052314610397578063ed836bc3146103a1578063f851a440146103c357610137565b806392bcab3414610277578063a65b8f3b14610295578063ba51d32b146102b1578063ba71bef0146102cd578063c604f5b4146102fd57610137565b806341103455116100ff57806341103455146101ca5780635938750d146101ed5780635cc2d13f146102215780636e9960c31461023d578063917addbd1461025b57610137565b806303087c391461013c578063082571681461015857806309eef43e14610174578063316b018d146101a45780633d09c2a8146101ae575b600080fd5b61015660048036036101519190810190612e3a565b6103e1565b005b610172600480360361016d9190810190612dd5565b6104af565b005b61018e60048036036101899190810190612dd5565b610581565b60405161019b9190613565565b60405180910390f35b6101ac6105dd565b005b6101c860048036036101c39190810190612dfe565b61067c565b005b6101d2610733565b6040516101e4969594939291906135ef565b60405180910390f35b61020760048036036102029190810190612dd5565b6109ca565b60405161021895949392919061366c565b60405180910390f35b61023b60048036036102369190810190612f79565b610e6a565b005b6102456111a5565b6040516102529190613528565b60405180910390f35b61027560048036036102709190810190612f0d565b6111ce565b005b61027f61122c565b60405161028c9190613543565b60405180910390f35b6102af60048036036102aa9190810190612e8e565b6117f3565b005b6102cb60048036036102c69190810190612dd5565b61191c565b005b6102e760048036036102e29190810190612dd5565b611aa5565b6040516102f491906136db565b60405180910390f35b61031760048036036103129190810190612e3a565b611fc6565b6040516103249190613565565b60405180910390f35b61034760048036036103429190810190612dd5565b612107565b005b610351612290565b60405161035e9190613565565b60405180910390f35b610381600480360361037c9190810190613010565b6122aa565b60405161038e9190613528565b60405180910390f35b61039f6122e6565b005b6103a9612794565b6040516103ba959493929190613580565b60405180910390f35b6103cb612a44565b6040516103d89190613528565b60405180910390f35b6001600460008473ffffffffffffffffffffffffffffffffffffffff1673ffffffffffffffffffffffffffffffffffffffff16815260200190815260200160002060040160030160026101000a81548160ff02191690831515021790555080600460008473ffffffffffffffffffffffffffffffffffffffff1673ffffffffffffffffffffffffffffffffffffffff1681526020019081526020016000206004016004019080519060200190610498929190612a69565b506003600081548092919060010191905055505050565b6000600460008373ffffffffffffffffffffffffffffffffffffffff1673ffffffffffffffffffffffffffffffffffffffff16815260200190815260200160002060040160030160026101000a81548160ff0219169083151502179055506001600460008373ffffffffffffffffffffffffffffffffffffffff1673ffffffffffffffffffffffffffffffffffffffff16815260200190815260200160002060040160030160046101000a81548160ff0219169083151502179055506003600081548092919060019003919050555050565b6000600460008373ffffffffffffffffffffffffffffffffffffffff1673ffffffffffffffffffffffffffffffffffffffff16815260200190815260200160002060040160030160019054906101000a900460ff169050919050565b6005600160066005015401816105ef57fe5b06600660050181905550600680016006600501546005811061060d57fe5b0160066003019080546001816001161561010002031660029004610632929190612ae9565b506006800160056001600660050154018161064957fe5b066005811061065457fe5b0160066004019080546001816001161561010002031660029004610679929190612ae9565b50565b6001600460008473ffffffffffffffffffffffffffffffffffffffff1673ffffffffffffffffffffffffffffffffffffffff16815260200190815260200160002060040160030160016101000a81548160ff021916908315150217905550600460008273ffffffffffffffffffffffffffffffffffffffff1673ffffffffffffffffffffffffffffffffffffffff168152602001908152602001600020600401600201600081548092919060010191905055505050565b60068060000160009054906101000a900460ff1690806001018054600181600116156101000203166002900480601f0160208091040260200160405190810160405280929190818152602001828054600181600116156101000203166002900480156107e05780601f106107b5576101008083540402835291602001916107e0565b820191906000526020600020905b8154815290600101906020018083116107c357829003601f168201915b505050505090806002018054600181600116156101000203166002900480601f01602080910402602001604051908101604052809291908181526020018280546001816001161561010002031660029004801561087e5780601f106108535761010080835404028352916020019161087e565b820191906000526020600020905b81548152906001019060200180831161086157829003601f168201915b505050505090806003018054600181600116156101000203166002900480601f01602080910402602001604051908101604052809291908181526020018280546001816001161561010002031660029004801561091c5780601f106108f15761010080835404028352916020019161091c565b820191906000526020600020905b8154815290600101906020018083116108ff57829003601f168201915b505050505090806004018054600181600116156101000203166002900480601f0160208091040260200160405190810160405280929190818152602001828054600181600116156101000203166002900480156109ba5780601f1061098f576101008083540402835291602001916109ba565b820191906000526020600020905b81548152906001019060200180831161099d57829003601f168201915b5050505050908060050154905086565b6004602052806000526040600020600091509050806000018054600181600116156101000203166002900480601f016020809104026020016040519081016040528092919081815260200182805460018160011615610100020316600290048015610a765780601f10610a4b57610100808354040283529160200191610a76565b820191906000526020600020905b815481529060010190602001808311610a5957829003601f168201915b505050505090806001018054600181600116156101000203166002900480601f016020809104026020016040519081016040528092919081815260200182805460018160011615610100020316600290048015610b145780601f10610ae957610100808354040283529160200191610b14565b820191906000526020600020905b815481529060010190602001808311610af757829003601f168201915b505050505090806002018054600181600116156101000203166002900480601f016020809104026020016040519081016040528092919081815260200182805460018160011615610100020316600290048015610bb25780601f10610b8757610100808354040283529160200191610bb2565b820191906000526020600020905b815481529060010190602001808311610b9557829003601f168201915b5050505050908060030160009054906101000a900473ffffffffffffffffffffffffffffffffffffffff16908060040160405180610120016040529081600082018054600181600116156101000203166002900480601f016020809104026020016040519081016040528092919081815260200182805460018160011615610100020316600290048015610c875780601f10610c5c57610100808354040283529160200191610c87565b820191906000526020600020905b815481529060010190602001808311610c6a57829003601f168201915b50505050508152602001600182018054600181600116156101000203166002900480601f016020809104026020016040519081016040528092919081815260200182805460018160011615610100020316600290048015610d295780601f10610cfe57610100808354040283529160200191610d29565b820191906000526020600020905b815481529060010190602001808311610d0c57829003601f168201915b50505050508152602001600282015481526020016003820160009054906101000a900460ff161515151581526020016003820160019054906101000a900460ff161515151581526020016003820160029054906101000a900460ff161515151581526020016003820160039054906101000a900460ff161515151581526020016003820160049054906101000a900460ff16151515158152602001600482018054600181600116156101000203166002900480601f016020809104026020016040519081016040528092919081815260200182805460018160011615610100020316600290048015610e5c5780601f10610e3157610100808354040283529160200191610e5c565b820191906000526020600020905b815481529060010190602001808311610e3f57829003601f168201915b505050505081525050905085565b610e72612b70565b60405180610120016040528060405180602001604052806000815250815260200160405180602001604052806000815250815260200160008152602001600015158152602001600015158152602001600015158152602001600015158152602001600015158152602001604051806020016040528060008152508152509050610ef9612bc6565b6040518060a001604052808681526020018581526020018481526020013373ffffffffffffffffffffffffffffffffffffffff16815260200183815250905080600460003373ffffffffffffffffffffffffffffffffffffffff1673ffffffffffffffffffffffffffffffffffffffff1681526020019081526020016000206000820151816000019080519060200190610f94929190612c11565b506020820151816001019080519060200190610fb1929190612c11565b506040820151816002019080519060200190610fce929190612c11565b5060608201518160030160006101000a81548173ffffffffffffffffffffffffffffffffffffffff021916908373ffffffffffffffffffffffffffffffffffffffff160217905550608082015181600401600082015181600001908051906020019061103b929190612c11565b506020820151816001019080519060200190611058929190612c11565b506040820151816002015560608201518160030160006101000a81548160ff02191690831515021790555060808201518160030160016101000a81548160ff02191690831515021790555060a08201518160030160026101000a81548160ff02191690831515021790555060c08201518160030160036101000a81548160ff02191690831515021790555060e08201518160030160046101000a81548160ff021916908315150217905550610100820151816004019080519060200190611120929190612c11565b50505090505060026000815480929190600101919050555060053390806001815401808255809150509060018203906000526020600020016000909192909190916101000a81548173ffffffffffffffffffffffffffffffffffffffff021916908373ffffffffffffffffffffffffffffffffffffffff160217905550505050505050565b60008060009054906101000a900473ffffffffffffffffffffffffffffffffffffffff16905090565b6001600660000160006101000a81548160ff0219169083151502179055508160066001019080519060200190611205929190612a69565b50806006600201908051906020019061121f929190612a69565b506112286105dd565b5050565b60608060025460405190808252806020026020018201604052801561126b57816020015b611258612c91565b8152602001906001900390816112505790505b50905060008090505b6002548110156117eb57600460006005838154811061128f57fe5b9060005260206000200160009054906101000a900473ffffffffffffffffffffffffffffffffffffffff1673ffffffffffffffffffffffffffffffffffffffff1673ffffffffffffffffffffffffffffffffffffffff1681526020019081526020016000206040518060a0016040529081600082018054600181600116156101000203166002900480601f0160208091040260200160405190810160405280929190818152602001828054600181600116156101000203166002900480156113985780601f1061136d57610100808354040283529160200191611398565b820191906000526020600020905b81548152906001019060200180831161137b57829003601f168201915b50505050508152602001600182018054600181600116156101000203166002900480601f01602080910402602001604051908101604052809291908181526020018280546001816001161561010002031660029004801561143a5780601f1061140f5761010080835404028352916020019161143a565b820191906000526020600020905b81548152906001019060200180831161141d57829003601f168201915b50505050508152602001600282018054600181600116156101000203166002900480601f0160208091040260200160405190810160405280929190818152602001828054600181600116156101000203166002900480156114dc5780601f106114b1576101008083540402835291602001916114dc565b820191906000526020600020905b8154815290600101906020018083116114bf57829003601f168201915b505050505081526020016003820160009054906101000a900473ffffffffffffffffffffffffffffffffffffffff1673ffffffffffffffffffffffffffffffffffffffff1673ffffffffffffffffffffffffffffffffffffffff1681526020016004820160405180610120016040529081600082018054600181600116156101000203166002900480601f0160208091040260200160405190810160405280929190818152602001828054600181600116156101000203166002900480156115e55780601f106115ba576101008083540402835291602001916115e5565b820191906000526020600020905b8154815290600101906020018083116115c857829003601f168201915b50505050508152602001600182018054600181600116156101000203166002900480601f0160208091040260200160405190810160405280929190818152602001828054600181600116156101000203166002900480156116875780601f1061165c57610100808354040283529160200191611687565b820191906000526020600020905b81548152906001019060200180831161166a57829003601f168201915b50505050508152602001600282015481526020016003820160009054906101000a900460ff161515151581526020016003820160019054906101000a900460ff161515151581526020016003820160029054906101000a900460ff161515151581526020016003820160039054906101000a900460ff161515151581526020016003820160049054906101000a900460ff16151515158152602001600482018054600181600116156101000203166002900480601f0160208091040260200160405190810160405280929190818152602001828054600181600116156101000203166002900480156117ba5780601f1061178f576101008083540402835291602001916117ba565b820191906000526020600020905b81548152906001019060200180831161179d57829003601f168201915b505050505081525050815250508282815181106117d357fe5b60200260200101819052508080600101915050611274565b508091505090565b6001600460008573ffffffffffffffffffffffffffffffffffffffff1673ffffffffffffffffffffffffffffffffffffffff16815260200190815260200160002060040160030160026101000a81548160ff02191690831515021790555081600460008573ffffffffffffffffffffffffffffffffffffffff1673ffffffffffffffffffffffffffffffffffffffff16815260200190815260200160002060040160000190805190602001906118aa929190612a69565b5080600460008573ffffffffffffffffffffffffffffffffffffffff1673ffffffffffffffffffffffffffffffffffffffff1681526020019081526020016000206004016001019080519060200190611904929190612a69565b50600360008154809291906001019190505550505050565b6000600460008373ffffffffffffffffffffffffffffffffffffffff1673ffffffffffffffffffffffffffffffffffffffff16815260200190815260200160002060040160030160026101000a81548160ff0219169083151502179055506001600460008373ffffffffffffffffffffffffffffffffffffffff1673ffffffffffffffffffffffffffffffffffffffff16815260200190815260200160002060040160030160006101000a81548160ff02191690831515021790555060036000815480929190600190039190505550600460008273ffffffffffffffffffffffffffffffffffffffff1673ffffffffffffffffffffffffffffffffffffffff16815260200190815260200160002060040160030160049054906101000a900460ff1615611aa2576000600460008373ffffffffffffffffffffffffffffffffffffffff1673ffffffffffffffffffffffffffffffffffffffff16815260200190815260200160002060040160030160046101000a81548160ff0219169083151502179055505b50565b611aad612bc6565b600460008373ffffffffffffffffffffffffffffffffffffffff1673ffffffffffffffffffffffffffffffffffffffff1681526020019081526020016000206040518060a0016040529081600082018054600181600116156101000203166002900480601f016020809104026020016040519081016040528092919081815260200182805460018160011615610100020316600290048015611b905780601f10611b6557610100808354040283529160200191611b90565b820191906000526020600020905b815481529060010190602001808311611b7357829003601f168201915b50505050508152602001600182018054600181600116156101000203166002900480601f016020809104026020016040519081016040528092919081815260200182805460018160011615610100020316600290048015611c325780601f10611c0757610100808354040283529160200191611c32565b820191906000526020600020905b815481529060010190602001808311611c1557829003601f168201915b50505050508152602001600282018054600181600116156101000203166002900480601f016020809104026020016040519081016040528092919081815260200182805460018160011615610100020316600290048015611cd45780601f10611ca957610100808354040283529160200191611cd4565b820191906000526020600020905b815481529060010190602001808311611cb757829003601f168201915b505050505081526020016003820160009054906101000a900473ffffffffffffffffffffffffffffffffffffffff1673ffffffffffffffffffffffffffffffffffffffff1673ffffffffffffffffffffffffffffffffffffffff1681526020016004820160405180610120016040529081600082018054600181600116156101000203166002900480601f016020809104026020016040519081016040528092919081815260200182805460018160011615610100020316600290048015611ddd5780601f10611db257610100808354040283529160200191611ddd565b820191906000526020600020905b815481529060010190602001808311611dc057829003601f168201915b50505050508152602001600182018054600181600116156101000203166002900480601f016020809104026020016040519081016040528092919081815260200182805460018160011615610100020316600290048015611e7f5780601f10611e5457610100808354040283529160200191611e7f565b820191906000526020600020905b815481529060010190602001808311611e6257829003601f168201915b50505050508152602001600282015481526020016003820160009054906101000a900460ff161515151581526020016003820160019054906101000a900460ff161515151581526020016003820160029054906101000a900460ff161515151581526020016003820160039054906101000a900460ff161515151581526020016003820160049054906101000a900460ff16151515158152602001600482018054600181600116156101000203166002900480601f016020809104026020016040519081016040528092919081815260200182805460018160011615610100020316600290048015611fb25780601f10611f8757610100808354040283529160200191611fb2565b820191906000526020600020905b815481529060010190602001808311611f9557829003601f168201915b505050505081525050815250509050919050565b600080600090505b6005805490508110156120fb5760058181548110611fe857fe5b9060005260206000200160009054906101000a900473ffffffffffffffffffffffffffffffffffffffff1673ffffffffffffffffffffffffffffffffffffffff168473ffffffffffffffffffffffffffffffffffffffff1614806120df5750600460006005838154811061205857fe5b9060005260206000200160009054906101000a900473ffffffffffffffffffffffffffffffffffffffff1673ffffffffffffffffffffffffffffffffffffffff1673ffffffffffffffffffffffffffffffffffffffff1681526020019081526020016000206001016040516120cd9190613511565b60405180910390208380519060200120145b156120ee576001915050612101565b8080600101915050611fce565b50600090505b92915050565b6000600460008373ffffffffffffffffffffffffffffffffffffffff1673ffffffffffffffffffffffffffffffffffffffff16815260200190815260200160002060040160030160026101000a81548160ff0219169083151502179055506001600460008373ffffffffffffffffffffffffffffffffffffffff1673ffffffffffffffffffffffffffffffffffffffff16815260200190815260200160002060040160030160036101000a81548160ff02191690831515021790555060036000815480929190600190039190505550600460008273ffffffffffffffffffffffffffffffffffffffff1673ffffffffffffffffffffffffffffffffffffffff16815260200190815260200160002060040160030160049054906101000a900460ff161561228d576000600460008373ffffffffffffffffffffffffffffffffffffffff1673ffffffffffffffffffffffffffffffffffffffff16815260200190815260200160002060040160030160046101000a81548160ff0219169083151502179055505b50565b600080600354146122a25760016122a5565b60005b905090565b600581815481106122b757fe5b906000526020600020016000915054906101000a900473ffffffffffffffffffffffffffffffffffffffff1681565b6000600660000160006101000a81548160ff021916908315150217905550604051806020016040528060008152506006600101908051906020019061232c929190612a69565b506040518060200160405280600081525060066002019080519060200190612355929190612a69565b506000600660050181905550600680016006600501546005811061237557fe5b016006600301908054600181600116156101000203166002900461239a929190612ae9565b5060068001600160066005015401600581106123b257fe5b01600660040190805460018160011615610100020316600290046123d7929190612ae9565b5060008090505b600580549050811015612791576000600582815481106123fa57fe5b9060005260206000200160009054906101000a900473ffffffffffffffffffffffffffffffffffffffff16905060405180602001604052806000815250600460008373ffffffffffffffffffffffffffffffffffffffff1673ffffffffffffffffffffffffffffffffffffffff168152602001908152602001600020600401600001908051906020019061248f929190612a69565b5060405180602001604052806000815250600460008373ffffffffffffffffffffffffffffffffffffffff1673ffffffffffffffffffffffffffffffffffffffff16815260200190815260200160002060040160010190805190602001906124f8929190612a69565b506000600460008373ffffffffffffffffffffffffffffffffffffffff1673ffffffffffffffffffffffffffffffffffffffff168152602001908152602001600020600401600201819055506000600460008373ffffffffffffffffffffffffffffffffffffffff1673ffffffffffffffffffffffffffffffffffffffff16815260200190815260200160002060040160030160006101000a81548160ff0219169083151502179055506000600460008373ffffffffffffffffffffffffffffffffffffffff1673ffffffffffffffffffffffffffffffffffffffff16815260200190815260200160002060040160030160016101000a81548160ff0219169083151502179055506000600460008373ffffffffffffffffffffffffffffffffffffffff1673ffffffffffffffffffffffffffffffffffffffff16815260200190815260200160002060040160030160026101000a81548160ff0219169083151502179055506000600460008373ffffffffffffffffffffffffffffffffffffffff1673ffffffffffffffffffffffffffffffffffffffff16815260200190815260200160002060040160030160036101000a81548160ff0219169083151502179055506000600460008373ffffffffffffffffffffffffffffffffffffffff1673ffffffffffffffffffffffffffffffffffffffff16815260200190815260200160002060040160030160046101000a81548160ff02191690831515021790555060405180602001604052806000815250600460008373ffffffffffffffffffffffffffffffffffffffff1673ffffffffffffffffffffffffffffffffffffffff1681526020019081526020016000206004016004019080519060200190612782929190612a69565b505080806001019150506123de565b50565b6000606080606080600660000160009054906101000a900460ff166006600101600660020160066003016006600401838054600181600116156101000203166002900480601f0160208091040260200160405190810160405280929190818152602001828054600181600116156101000203166002900480156128585780601f1061282d57610100808354040283529160200191612858565b820191906000526020600020905b81548152906001019060200180831161283b57829003601f168201915b50505050509350828054600181600116156101000203166002900480601f0160208091040260200160405190810160405280929190818152602001828054600181600116156101000203166002900480156128f45780601f106128c9576101008083540402835291602001916128f4565b820191906000526020600020905b8154815290600101906020018083116128d757829003601f168201915b50505050509250818054600181600116156101000203166002900480601f0160208091040260200160405190810160405280929190818152602001828054600181600116156101000203166002900480156129905780601f1061296557610100808354040283529160200191612990565b820191906000526020600020905b81548152906001019060200180831161297357829003601f168201915b50505050509150808054600181600116156101000203166002900480601f016020809104026020016040519081016040528092919081815260200182805460018160011615610100020316600290048015612a2c5780601f10612a0157610100808354040283529160200191612a2c565b820191906000526020600020905b815481529060010190602001808311612a0f57829003601f168201915b50505050509050945094509450945094509091929394565b6000809054906101000a900473ffffffffffffffffffffffffffffffffffffffff1681565b828054600181600116156101000203166002900490600052602060002090601f016020900481019282601f10612aaa57805160ff1916838001178555612ad8565b82800160010185558215612ad8579182015b82811115612ad7578251825591602001919060010190612abc565b5b509050612ae59190612cdc565b5090565b828054600181600116156101000203166002900490600052602060002090601f016020900481019282601f10612b225780548555612b5f565b82800160010185558215612b5f57600052602060002091601f016020900482015b82811115612b5e578254825591600101919060010190612b43565b5b509050612b6c9190612cdc565b5090565b604051806101200160405280606081526020016060815260200160008152602001600015158152602001600015158152602001600015158152602001600015158152602001600015158152602001606081525090565b6040518060a00160405280606081526020016060815260200160608152602001600073ffffffffffffffffffffffffffffffffffffffff168152602001612c0b612d01565b81525090565b828054600181600116156101000203166002900490600052602060002090601f016020900481019282601f10612c5257805160ff1916838001178555612c80565b82800160010185558215612c80579182015b82811115612c7f578251825591602001919060010190612c64565b5b509050612c8d9190612cdc565b5090565b6040518060a00160405280606081526020016060815260200160608152602001600073ffffffffffffffffffffffffffffffffffffffff168152602001612cd6612d01565b81525090565b612cfe91905b80821115612cfa576000816000905550600101612ce2565b5090565b90565b604051806101200160405280606081526020016060815260200160008152602001600015158152602001600015158152602001600015158152602001600015158152602001600015158152602001606081525090565b600081359050612d6681613882565b92915050565b600082601f830112612d7d57600080fd5b8135612d90612d8b8261372a565b6136fd565b91508082526020830160208301858383011115612dac57600080fd5b612db783828461382f565b50505092915050565b600081359050612dcf81613899565b92915050565b600060208284031215612de757600080fd5b6000612df584828501612d57565b91505092915050565b60008060408385031215612e1157600080fd5b6000612e1f85828601612d57565b9250506020612e3085828601612d57565b9150509250929050565b60008060408385031215612e4d57600080fd5b6000612e5b85828601612d57565b925050602083013567ffffffffffffffff811115612e7857600080fd5b612e8485828601612d6c565b9150509250929050565b600080600060608486031215612ea357600080fd5b6000612eb186828701612d57565b935050602084013567ffffffffffffffff811115612ece57600080fd5b612eda86828701612d6c565b925050604084013567ffffffffffffffff811115612ef757600080fd5b612f0386828701612d6c565b9150509250925092565b60008060408385031215612f2057600080fd5b600083013567ffffffffffffffff811115612f3a57600080fd5b612f4685828601612d6c565b925050602083013567ffffffffffffffff811115612f6357600080fd5b612f6f85828601612d6c565b9150509250929050565b600080600060608486031215612f8e57600080fd5b600084013567ffffffffffffffff811115612fa857600080fd5b612fb486828701612d6c565b935050602084013567ffffffffffffffff811115612fd157600080fd5b612fdd86828701612d6c565b925050604084013567ffffffffffffffff811115612ffa57600080fd5b61300686828701612d6c565b9150509250925092565b60006020828403121561302257600080fd5b600061303084828501612dc0565b91505092915050565b60006130458383613468565b905092915050565b613056816137e7565b82525050565b613065816137e7565b82525050565b60006130768261377b565b61308081856137a9565b93508360208202850161309285613756565b8060005b858110156130ce57848403895281516130af8582613039565b94506130ba8361379c565b925060208a01995050600181019050613096565b50829750879550505050505092915050565b6130e9816137f9565b82525050565b6130f8816137f9565b82525050565b60008154600181166000811461311b576001811461314057613184565b607f600283041661312c81876137ba565b955060ff1983168652808601935050613184565b6002820461314e81876137ba565b955061315985613766565b60005b8281101561317b5781548189015260018201915060208101905061315c565b82880195505050505b505092915050565b600061319782613791565b6131a181856137d6565b93506131b181856020860161383e565b6131ba81613871565b840191505092915050565b60006131d082613786565b6131da81856137c5565b93506131ea81856020860161383e565b6131f381613871565b840191505092915050565b600061320982613786565b61321381856137d6565b935061322381856020860161383e565b61322c81613871565b840191505092915050565b600061012083016000830151848203600086015261325582826131c5565b9150506020830151848203602086015261326f82826131c5565b915050604083015161328460408601826134f3565b50606083015161329760608601826130e0565b5060808301516132aa60808601826130e0565b5060a08301516132bd60a08601826130e0565b5060c08301516132d060c08601826130e0565b5060e08301516132e360e08601826130e0565b506101008301518482036101008601526132fd82826131c5565b9150508091505092915050565b600061012083016000830151848203600086015261332882826131c5565b9150506020830151848203602086015261334282826131c5565b915050604083015161335760408601826134f3565b50606083015161336a60608601826130e0565b50608083015161337d60808601826130e0565b5060a083015161339060a08601826130e0565b5060c08301516133a360c08601826130e0565b5060e08301516133b660e08601826130e0565b506101008301518482036101008601526133d082826131c5565b9150508091505092915050565b600060a08301600083015184820360008601526133fa82826131c5565b9150506020830151848203602086015261341482826131c5565b9150506040830151848203604086015261342e82826131c5565b9150506060830151613443606086018261304d565b506080830151848203608086015261345b8282613237565b9150508091505092915050565b600060a083016000830151848203600086015261348582826131c5565b9150506020830151848203602086015261349f82826131c5565b915050604083015184820360408601526134b982826131c5565b91505060608301516134ce606086018261304d565b50608083015184820360808601526134e68282613237565b9150508091505092915050565b6134fc81613825565b82525050565b61350b81613825565b82525050565b600061351d82846130fe565b915081905092915050565b600060208201905061353d600083018461305c565b92915050565b6000602082019050818103600083015261355d818461306b565b905092915050565b600060208201905061357a60008301846130ef565b92915050565b600060a08201905061359560008301886130ef565b81810360208301526135a7818761318c565b905081810360408301526135bb818661318c565b905081810360608301526135cf818561318c565b905081810360808301526135e3818461318c565b90509695505050505050565b600060c08201905061360460008301896130ef565b818103602083015261361681886131fe565b9050818103604083015261362a81876131fe565b9050818103606083015261363e81866131fe565b9050818103608083015261365281856131fe565b905061366160a0830184613502565b979650505050505050565b600060a082019050818103600083015261368681886131fe565b9050818103602083015261369a81876131fe565b905081810360408301526136ae81866131fe565b90506136bd606083018561305c565b81810360808301526136cf818461330a565b90509695505050505050565b600060208201905081810360008301526136f581846133dd565b905092915050565b6000604051905081810181811067ffffffffffffffff8211171561372057600080fd5b8060405250919050565b600067ffffffffffffffff82111561374157600080fd5b601f19601f8301169050602081019050919050565b6000819050602082019050919050565b60008190508160005260206000209050919050565b600081519050919050565b600081519050919050565b600081519050919050565b6000602082019050919050565b600082825260208201905092915050565b600081905092915050565b600082825260208201905092915050565b600082825260208201905092915050565b60006137f282613805565b9050919050565b60008115159050919050565b600073ffffffffffffffffffffffffffffffffffffffff82169050919050565b6000819050919050565b82818337600083830152505050565b60005b8381101561385c578082015181840152602081019050613841565b8381111561386b576000848401525b50505050565b6000601f19601f8301169050919050565b61388b816137e7565b811461389657600080fd5b50565b6138a281613825565b81146138ad57600080fd5b5056fea365627a7a72315820e9e4728fb1bf76cb2baf84b92b9fcdaea5180b86a684eafbb5a3d284fc7d43766c6578706572696d656e74616cf564736f6c63430005100040",
  "source": "// SPDX-License-Identifier: MIT\r\npragma solidity >=0.4.21 <0.9.0;\r\npragma experimental ABIEncoderV2;\r\n\r\ncontract Election {\r\n    address public admin;\r\n    uint256 candidateCount;\r\n    uint256 voterCount;\r\n    uint256 pendingRequests;\r\n\r\n    struct electionSetup {\r\n        bool isElectionStarted;\r\n        string electionTitle;\r\n        string electionOrganization;\r\n        string currentElectionPhase;\r\n        string nextElectionPhase;\r\n        uint256 electionPhaseIndex;\r\n        string[5] electionPhases;\r\n    }\r\n\r\n    struct voter {\r\n        string username;\r\n        string email;\r\n        string password;\r\n        address voterAddress;\r\n        voterElectionData voterElectionDetails;\r\n    }\r\n\r\n    struct voterElectionData {\r\n        string prn;\r\n        string mobile;\r\n        uint256 votesCount;\r\n        bool isVerified;\r\n        bool hasVoted;\r\n        bool hasApplied;\r\n        bool isCandidate;\r\n        bool isDenied;\r\n        string tagLine;\r\n    }\r\n\r\n    mapping(address => voter) public voterDetails;\r\n    address[] public voters; // Array of address to store address of voters\r\n    electionSetup public electionInstance;\r\n\r\n    constructor() public {\r\n        // Initilizing default values\r\n        admin = msg.sender;\r\n        candidateCount = 0;\r\n        voterCount = 0;\r\n        pendingRequests = 0;\r\n\r\n        electionInstance = electionSetup({\r\n            isElectionStarted: false,\r\n            electionTitle: \"\",\r\n            electionOrganization: \"\",\r\n            electionPhaseIndex: 0,\r\n            electionPhases: [\r\n                \"Setup Election\",\r\n                \"Voter Verification\",\r\n                \"Candidate Application\",\r\n                \"Voting\",\r\n                \"Result\"\r\n            ],\r\n            currentElectionPhase: electionInstance.electionPhases[\r\n                electionInstance.electionPhaseIndex\r\n            ],\r\n            nextElectionPhase: electionInstance.electionPhases[\r\n                electionInstance.electionPhaseIndex + 1\r\n            ]\r\n        });\r\n    }\r\n\r\n    /*------------------------ Voter Verification --------------------------- */\r\n\r\n    // Update verification details\r\n    function addVerificationRequest(\r\n        address pendingVoterAddress,\r\n        string memory _prn,\r\n        string memory _mobile\r\n    ) public {\r\n        voterDetails[pendingVoterAddress]\r\n            .voterElectionDetails\r\n            .hasApplied = true;\r\n        voterDetails[pendingVoterAddress].voterElectionDetails.prn = _prn;\r\n        voterDetails[pendingVoterAddress].voterElectionDetails.mobile = _mobile;\r\n        pendingRequests++;\r\n    }\r\n\r\n    // Approve verification requests\r\n    function approveVerificationRequests(address pendingVoterAddress) public {\r\n        voterDetails[pendingVoterAddress]\r\n            .voterElectionDetails\r\n            .hasApplied = false;\r\n        voterDetails[pendingVoterAddress]\r\n            .voterElectionDetails\r\n            .isVerified = true;\r\n        pendingRequests--;\r\n        if (voterDetails[pendingVoterAddress].voterElectionDetails.isDenied) {\r\n            voterDetails[pendingVoterAddress]\r\n                .voterElectionDetails\r\n                .isDenied = false;\r\n        }\r\n    }\r\n\r\n    // Deny verification requests\r\n    function denyVerificationRequests(address pendingVoterAddress) public {\r\n        voterDetails[pendingVoterAddress]\r\n            .voterElectionDetails\r\n            .hasApplied = false;\r\n        voterDetails[pendingVoterAddress].voterElectionDetails.isDenied = true;\r\n\r\n        pendingRequests--;\r\n    }\r\n\r\n    // sending candidate request\r\n\r\n    function addCandidateRequest(\r\n        address pendingVoterAddress,\r\n        string memory _tagLine\r\n    ) public {\r\n        voterDetails[pendingVoterAddress]\r\n            .voterElectionDetails\r\n            .hasApplied = true;\r\n        voterDetails[pendingVoterAddress]\r\n            .voterElectionDetails\r\n            .tagLine = _tagLine;\r\n        pendingRequests++;\r\n    }\r\n\r\n    // Approve candidate requests\r\n    function approveCandidateRequests(address pendingVoterAddress) public {\r\n        voterDetails[pendingVoterAddress]\r\n            .voterElectionDetails\r\n            .hasApplied = false;\r\n        voterDetails[pendingVoterAddress]\r\n            .voterElectionDetails\r\n            .isCandidate = true;\r\n        pendingRequests--;\r\n\r\n        if (voterDetails[pendingVoterAddress].voterElectionDetails.isDenied) {\r\n            voterDetails[pendingVoterAddress]\r\n                .voterElectionDetails\r\n                .isDenied = false;\r\n        }\r\n    }\r\n\r\n    function isPendingRequest() public view returns (bool) {\r\n        return (pendingRequests == 0) ? false : true ;\r\n    }\r\n\r\n    // Get all voter details\r\n    function getAllVoterDetails() public view returns (voter[] memory) {\r\n        voter[] memory allVoterDetails = new voter[](voterCount);\r\n        for (uint256 i = 0; i < voterCount; i++) {\r\n            allVoterDetails[i] = voterDetails[voters[i]];\r\n        }\r\n        return allVoterDetails;\r\n    }\r\n\r\n    function getVoterDetails(address voterAddress)\r\n        public\r\n        view\r\n        returns (voter memory)\r\n    {\r\n        return voterDetails[voterAddress];\r\n    }\r\n\r\n    /*------------------------ Voter Handlers --------------------------- */\r\n\r\n    function addVoterDetails(\r\n        string memory _username,\r\n        string memory _email,\r\n        string memory _password\r\n    ) public {\r\n        voterElectionData memory newvoterElectionData = voterElectionData({\r\n            prn: \"\",\r\n            mobile: \"\",\r\n            votesCount: 0,\r\n            isVerified: false,\r\n            hasVoted: false,\r\n            hasApplied: false,\r\n            isCandidate: false,\r\n            isDenied: false,\r\n            tagLine: \"\"\r\n        });\r\n\r\n        voter memory newVoter = voter({\r\n            username: _username,\r\n            email: _email,\r\n            password: _password,\r\n            voterAddress: msg.sender,\r\n            voterElectionDetails: newvoterElectionData\r\n        });\r\n        voterDetails[msg.sender] = newVoter;\r\n        voterCount++;\r\n        voters.push(msg.sender);\r\n    }\r\n\r\n    function isVoterExists(address voterAddress, string memory mail)\r\n        public\r\n        view\r\n        returns (bool)\r\n    {\r\n        //Loop through voters array\r\n        for (uint256 i = 0; i < voters.length; i++) {\r\n            if (\r\n                (voterAddress) == voters[i] ||\r\n                (keccak256(bytes(mail)) ==\r\n                    keccak256(bytes(voterDetails[voters[i]].email)))\r\n            ) {\r\n                return true;\r\n            }\r\n        }\r\n        return false;\r\n    }\r\n\r\n    /*------------------------ Election Handlers --------------------------- */\r\n\r\n    function getAdmin() public view returns (address) {\r\n        // Returns account address used to deploy contract (i.e. admin)\r\n        return admin;\r\n    }\r\n\r\n    function changeElectionPhase() public {\r\n        electionInstance.electionPhaseIndex =\r\n            (electionInstance.electionPhaseIndex + 1) %\r\n            electionInstance.electionPhases.length;\r\n        electionInstance.currentElectionPhase = electionInstance.electionPhases[\r\n            electionInstance.electionPhaseIndex\r\n        ];\r\n        electionInstance.nextElectionPhase = electionInstance.electionPhases[\r\n            (electionInstance.electionPhaseIndex + 1) %\r\n                electionInstance.electionPhases.length\r\n        ];\r\n    }\r\n\r\n    function getElectionDetails()\r\n        public\r\n        view\r\n        returns (\r\n            bool,\r\n            string memory,\r\n            string memory,\r\n            string memory,\r\n            string memory\r\n        )\r\n    {\r\n        return (\r\n            electionInstance.isElectionStarted,\r\n            electionInstance.electionTitle,\r\n            electionInstance.electionOrganization,\r\n            electionInstance.currentElectionPhase,\r\n            electionInstance.nextElectionPhase\r\n        );\r\n    }\r\n\r\n    function startElection(\r\n        string memory _electionTitle,\r\n        string memory _electionOrganization\r\n    ) public {\r\n        electionInstance.isElectionStarted = true;\r\n        electionInstance.electionTitle = _electionTitle;\r\n        electionInstance.electionOrganization = _electionOrganization;\r\n        changeElectionPhase();\r\n    }\r\n\r\n    /*------------------------ Voting Handlers --------------------------- */\r\n\r\n    function addVote(address voterAddress, address candidateAddress) public {\r\n        voterDetails[voterAddress].voterElectionDetails.hasVoted = true;\r\n        voterDetails[candidateAddress].voterElectionDetails.votesCount++;\r\n    }\r\n\r\n    function hasVoted(address voterAddress) public view returns (bool) {\r\n        return voterDetails[voterAddress].voterElectionDetails.hasVoted;\r\n    }\r\n\r\n    /*------------------------ Reset Voter & Elections Details --------------------------- */\r\n\r\n    function resetElection() public {\r\n        \r\n        //Reset Election Details\r\n        electionInstance.isElectionStarted = false;\r\n        electionInstance.electionTitle = \"\";\r\n        electionInstance.electionOrganization = \"\";\r\n        electionInstance.electionPhaseIndex = 0;\r\n        electionInstance.currentElectionPhase = electionInstance.electionPhases[\r\n            electionInstance.electionPhaseIndex\r\n        ];\r\n        electionInstance.nextElectionPhase = electionInstance.electionPhases[\r\n            electionInstance.electionPhaseIndex + 1\r\n        ];\r\n\r\n        //Reset Voter Election Details\r\n        for (uint256 i = 0; i < voters.length; i++) {\r\n        address voterAddress = voters[i];\r\n        voterDetails[voterAddress].voterElectionDetails.prn= \"\";\r\n        voterDetails[voterAddress].voterElectionDetails.mobile= \"\";\r\n        voterDetails[voterAddress].voterElectionDetails.votesCount= 0;\r\n        voterDetails[voterAddress].voterElectionDetails.isVerified= false;\r\n        voterDetails[voterAddress].voterElectionDetails.hasVoted= false;\r\n        voterDetails[voterAddress].voterElectionDetails.hasApplied= false;\r\n        voterDetails[voterAddress].voterElectionDetails.isCandidate= false;\r\n        voterDetails[voterAddress].voterElectionDetails.isDenied= false;\r\n        voterDetails[voterAddress].voterElectionDetails.tagLine= \"\";\r\n        }\r\n    }\r\n}\r\n",
  "sourcePath": "C:\\Users\\91774\\OneDrive\\Desktop\\Voting-system-using-Blockchain\\contracts\\Election.sol",
  "compiler": {
    "name": "solc",
    "version": "0.5.16+commit.9c3226ce.Emscripten.clang"
  },
  "schemaVersion": "3.4.6",
  "updatedAt": "2022-05-17T06:49:56.517Z",
  "networkType": "ethereum",
  "devdoc": {
    "methods": {}
  },
  "userdoc": {
    "methods": {}
  }
}