{
  "contractName": "Election",
  "abi": [
    {
      "inputs": [],
      "payable": false,
      "stateMutability": "nonpayable",
      "type": "constructor"
    },
    {
      "constant": true,
      "inputs": [],
      "name": "admin",
      "outputs": [
        {
          "internalType": "address",
          "name": "",
          "type": "address"
        }
      ],
      "payable": false,
      "stateMutability": "view",
      "type": "function"
    },
    {
      "constant": true,
      "inputs": [
        {
          "internalType": "uint256",
          "name": "",
          "type": "uint256"
        }
      ],
      "name": "electionPhases",
      "outputs": [
        {
          "internalType": "string",
          "name": "",
          "type": "string"
        }
      ],
      "payable": false,
      "stateMutability": "view",
      "type": "function"
    },
    {
      "constant": true,
      "inputs": [
        {
          "internalType": "address",
          "name": "",
          "type": "address"
        }
      ],
      "name": "voterDetails",
      "outputs": [
        {
          "internalType": "string",
          "name": "username",
          "type": "string"
        },
        {
          "internalType": "string",
          "name": "email",
          "type": "string"
        },
        {
          "internalType": "string",
          "name": "password",
          "type": "string"
        },
        {
          "internalType": "string",
          "name": "prn",
          "type": "string"
        },
        {
          "internalType": "string",
          "name": "mobile",
          "type": "string"
        },
        {
          "internalType": "address",
          "name": "voterAddress",
          "type": "address"
        },
        {
          "internalType": "bool",
          "name": "isVerified",
          "type": "bool"
        },
        {
          "internalType": "bool",
          "name": "hasVoted",
          "type": "bool"
        },
        {
          "internalType": "bool",
          "name": "hasApplied",
          "type": "bool"
        },
        {
          "internalType": "bool",
          "name": "isCandidate",
          "type": "bool"
        },
        {
          "internalType": "string",
          "name": "tagLine",
          "type": "string"
        }
      ],
      "payable": false,
      "stateMutability": "view",
      "type": "function"
    },
    {
      "constant": true,
      "inputs": [
        {
          "internalType": "uint256",
          "name": "",
          "type": "uint256"
        }
      ],
      "name": "voters",
      "outputs": [
        {
          "internalType": "address",
          "name": "",
          "type": "address"
        }
      ],
      "payable": false,
      "stateMutability": "view",
      "type": "function"
    },
    {
      "constant": false,
      "inputs": [
        {
          "internalType": "address",
          "name": "pendingVoterAddress",
          "type": "address"
        },
        {
          "internalType": "string",
          "name": "_prn",
          "type": "string"
        },
        {
          "internalType": "string",
          "name": "_mobile",
          "type": "string"
        }
      ],
      "name": "addVerificationRequest",
      "outputs": [],
      "payable": false,
      "stateMutability": "nonpayable",
      "type": "function"
    },
    {
      "constant": false,
      "inputs": [
        {
          "internalType": "address",
          "name": "pendingVoterAddress",
          "type": "address"
        }
      ],
      "name": "approveVerificationRequests",
      "outputs": [],
      "payable": false,
      "stateMutability": "nonpayable",
      "type": "function"
    },
    {
      "constant": false,
      "inputs": [
        {
          "internalType": "address",
          "name": "pendingVoterAddress",
          "type": "address"
        },
        {
          "internalType": "string",
          "name": "_tagLine",
          "type": "string"
        }
      ],
      "name": "addCandidateRequest",
      "outputs": [],
      "payable": false,
      "stateMutability": "nonpayable",
      "type": "function"
    },
    {
      "constant": false,
      "inputs": [
        {
          "internalType": "address",
          "name": "pendingVoterAddress",
          "type": "address"
        }
      ],
      "name": "approveCandidateRequests",
      "outputs": [],
      "payable": false,
      "stateMutability": "nonpayable",
      "type": "function"
    },
    {
      "constant": true,
      "inputs": [],
      "name": "getAllVoterDetails",
      "outputs": [
        {
          "components": [
            {
              "internalType": "string",
              "name": "username",
              "type": "string"
            },
            {
              "internalType": "string",
              "name": "email",
              "type": "string"
            },
            {
              "internalType": "string",
              "name": "password",
              "type": "string"
            },
            {
              "internalType": "string",
              "name": "prn",
              "type": "string"
            },
            {
              "internalType": "string",
              "name": "mobile",
              "type": "string"
            },
            {
              "internalType": "address",
              "name": "voterAddress",
              "type": "address"
            },
            {
              "internalType": "bool",
              "name": "isVerified",
              "type": "bool"
            },
            {
              "internalType": "bool",
              "name": "hasVoted",
              "type": "bool"
            },
            {
              "internalType": "bool",
              "name": "hasApplied",
              "type": "bool"
            },
            {
              "internalType": "bool",
              "name": "isCandidate",
              "type": "bool"
            },
            {
              "internalType": "string",
              "name": "tagLine",
              "type": "string"
            }
          ],
          "internalType": "struct Election.voter[]",
          "name": "",
          "type": "tuple[]"
        }
      ],
      "payable": false,
      "stateMutability": "view",
      "type": "function"
    },
    {
      "constant": false,
      "inputs": [
        {
          "internalType": "string",
          "name": "_username",
          "type": "string"
        },
        {
          "internalType": "string",
          "name": "_email",
          "type": "string"
        },
        {
          "internalType": "string",
          "name": "_password",
          "type": "string"
        }
      ],
      "name": "addVoterDetails",
      "outputs": [],
      "payable": false,
      "stateMutability": "nonpayable",
      "type": "function"
    },
    {
      "constant": true,
      "inputs": [
        {
          "internalType": "address",
          "name": "voterAddress",
          "type": "address"
        }
      ],
      "name": "isVoterExists",
      "outputs": [
        {
          "internalType": "bool",
          "name": "",
          "type": "bool"
        }
      ],
      "payable": false,
      "stateMutability": "view",
      "type": "function"
    },
    {
      "constant": true,
      "inputs": [
        {
          "internalType": "address",
          "name": "loginAddress",
          "type": "address"
        }
      ],
      "name": "getLoginDetails",
      "outputs": [
        {
          "internalType": "string",
          "name": "",
          "type": "string"
        },
        {
          "internalType": "string",
          "name": "",
          "type": "string"
        },
        {
          "internalType": "address",
          "name": "",
          "type": "address"
        },
        {
          "internalType": "string",
          "name": "",
          "type": "string"
        },
        {
          "internalType": "bool",
          "name": "",
          "type": "bool"
        }
      ],
      "payable": false,
      "stateMutability": "view",
      "type": "function"
    },
    {
      "constant": true,
      "inputs": [],
      "name": "getAdmin",
      "outputs": [
        {
          "internalType": "address",
          "name": "",
          "type": "address"
        }
      ],
      "payable": false,
      "stateMutability": "view",
      "type": "function"
    },
    {
      "constant": true,
      "inputs": [],
      "name": "getStart",
      "outputs": [
        {
          "internalType": "bool",
          "name": "",
          "type": "bool"
        }
      ],
      "payable": false,
      "stateMutability": "view",
      "type": "function"
    },
    {
      "constant": true,
      "inputs": [],
      "name": "getEnd",
      "outputs": [
        {
          "internalType": "bool",
          "name": "",
          "type": "bool"
        }
      ],
      "payable": false,
      "stateMutability": "view",
      "type": "function"
    },
    {
      "constant": false,
      "inputs": [],
      "name": "changeElectionPhase",
      "outputs": [],
      "payable": false,
      "stateMutability": "nonpayable",
      "type": "function"
    },
    {
      "constant": true,
      "inputs": [],
      "name": "getElectionDetails",
      "outputs": [
        {
          "internalType": "bool",
          "name": "",
          "type": "bool"
        },
        {
          "internalType": "bool",
          "name": "",
          "type": "bool"
        },
        {
          "internalType": "string",
          "name": "",
          "type": "string"
        },
        {
          "internalType": "string",
          "name": "",
          "type": "string"
        },
        {
          "internalType": "string",
          "name": "",
          "type": "string"
        },
        {
          "internalType": "string",
          "name": "",
          "type": "string"
        }
      ],
      "payable": false,
      "stateMutability": "view",
      "type": "function"
    },
    {
      "constant": false,
      "inputs": [
        {
          "internalType": "string",
          "name": "_electionTitle",
          "type": "string"
        },
        {
          "internalType": "string",
          "name": "_electionOrganization",
          "type": "string"
        }
      ],
      "name": "startElection",
      "outputs": [],
      "payable": false,
      "stateMutability": "nonpayable",
      "type": "function"
    }
  ],
  "bytecode": "0x60806040523480156200001157600080fd5b50336000806101000a81548173ffffffffffffffffffffffffffffffffffffffff021916908373ffffffffffffffffffffffffffffffffffffffff160217905550600060018190555060006002819055506000600360006101000a81548160ff0219169083151502179055506000600360016101000a81548160ff0219169083151502179055506040518060200160405280600081525060049080519060200190620000bf929190620002b8565b506040518060200160405280600081525060059080519060200190620000e7929190620002b8565b5060006008819055506040518060a001604052806040518060400160405280600481526020017f4e6f6e650000000000000000000000000000000000000000000000000000000081525081526020016040518060400160405280600c81526020017f526567697374726174696f6e000000000000000000000000000000000000000081525081526020016040518060400160405280601481526020017f4170706c7920617320612043616e64696461746500000000000000000000000081525081526020016040518060400160405280600681526020017f566f74696e67000000000000000000000000000000000000000000000000000081525081526020016040518060400160405280600681526020017f526573756c7400000000000000000000000000000000000000000000000000008152508152506009906005620002329291906200033f565b506009600854815481106200024357fe5b906000526020600020016006908054600181600116156101000203166002900462000270929190620003a6565b506009600160085401815481106200028457fe5b9060005260206000200160079080546001816001161561010002031660029004620002b1929190620003a6565b5062000560565b828054600181600116156101000203166002900490600052602060002090601f016020900481019282601f10620002fb57805160ff19168380011785556200032c565b828001600101855582156200032c579182015b828111156200032b5782518255916020019190600101906200030e565b5b5090506200033b919062000434565b5090565b82805482825590600052602060002090810192821562000393579160200282015b8281111562000392578251829080519060200190620003819291906200045c565b509160200191906001019062000360565b5b509050620003a29190620004e3565b5090565b828054600181600116156101000203166002900490600052602060002090601f016020900481019282601f10620003e1578054855562000421565b828001600101855582156200042157600052602060002091601f016020900482015b828111156200042057825482559160010191906001019062000403565b5b50905062000430919062000434565b5090565b6200045991905b80821115620004555760008160009055506001016200043b565b5090565b90565b828054600181600116156101000203166002900490600052602060002090601f016020900481019282601f106200049f57805160ff1916838001178555620004d0565b82800160010185558215620004d0579182015b82811115620004cf578251825591602001919060010190620004b2565b5b509050620004df919062000434565b5090565b6200051191905b808211156200050d576000818162000503919062000514565b50600101620004ea565b5090565b90565b50805460018160011615610100020316600290046000825580601f106200053c57506200055d565b601f0160209004906000526020600020908101906200055c919062000434565b5b50565b61288880620005706000396000f3fe608060405234801561001057600080fd5b50600436106101165760003560e01c806392bcab34116100a2578063c5292c6711610071578063c5292c67146102d9578063c8eb9ef1146102f7578063da58c7d914610313578063ed836bc314610343578063f851a4401461036657610116565b806392bcab34146102655780639f05a36d14610283578063a65b8f3b146102a1578063ba51d32b146102bd57610116565b80635938750d116100e95780635938750d146101a15780635cc2d13f146101db5780636e9960c3146101f75780637691e99014610215578063917addbd1461024957610116565b806303087c391461011b57806319f017b71461013757806328dc418214610167578063316b018d14610197575b600080fd5b61013560048036036101309190810190611ffd565b610384565b005b610151600480360361014c91908101906121d3565b61043a565b60405161015e9190612553565b60405180910390f35b610181600480360361017c9190810190611fd4565b6104f3565b60405161018e91906124bb565b60405180910390f35b61019f610595565b005b6101bb60048036036101b69190810190611fd4565b610665565b6040516101d29b9a999897969594939291906125dd565b60405180910390f35b6101f560048036036101f0919081019061213c565b610aa3565b005b6101ff610d81565b60405161020c919061247e565b60405180910390f35b61022f600480360361022a9190810190611fd4565b610daa565b604051610240959493929190612575565b60405180910390f35b610263600480360361025e91908101906120d0565b611113565b005b61026d611168565b60405161027a9190612499565b60405180910390f35b61028b6116f6565b60405161029891906124bb565b60405180910390f35b6102bb60048036036102b69190810190612051565b61170d565b005b6102d760048036036102d29190810190611fd4565b61181b565b005b6102e16118d4565b6040516102ee91906124bb565b60405180910390f35b610311600480360361030c9190810190611fd4565b6118eb565b005b61032d600480360361032891908101906121d3565b6119a4565b60405161033a919061247e565b60405180910390f35b61034b6119e0565b60405161035d969594939291906124d6565b60405180910390f35b61036e611c95565b60405161037b919061247e565b60405180910390f35b6001600a60008473ffffffffffffffffffffffffffffffffffffffff1673ffffffffffffffffffffffffffffffffffffffff16815260200190815260200160002060050160166101000a81548160ff02191690831515021790555080600a60008473ffffffffffffffffffffffffffffffffffffffff1673ffffffffffffffffffffffffffffffffffffffff1681526020019081526020016000206006019080519060200190610435929190611cba565b505050565b6009818154811061044757fe5b906000526020600020016000915090508054600181600116156101000203166002900480601f0160208091040260200160405190810160405280929190818152602001828054600181600116156101000203166002900480156104eb5780601f106104c0576101008083540402835291602001916104eb565b820191906000526020600020905b8154815290600101906020018083116104ce57829003601f168201915b505050505081565b600080600090505b600b8054905081101561058a57600b818154811061051557fe5b9060005260206000200160009054906101000a900473ffffffffffffffffffffffffffffffffffffffff1673ffffffffffffffffffffffffffffffffffffffff168373ffffffffffffffffffffffffffffffffffffffff16141561057d576001915050610590565b80806001019150506104fb565b50600090505b919050565b600980549050600160085401816105a857fe5b066008819055506009600854815481106105be57fe5b90600052602060002001600690805460018160011615610100020316600290046105e9929190611d3a565b5060098080549050600160085401816105fe57fe5b068154811061060957fe5b9060005260206000200160079080546001816001161561010002031660029004610634929190611d3a565b506001600980549050036008541415610663576001600360016101000a81548160ff0219169083151502179055505b565b600a602052806000526040600020600091509050806000018054600181600116156101000203166002900480601f0160208091040260200160405190810160405280929190818152602001828054600181600116156101000203166002900480156107115780601f106106e657610100808354040283529160200191610711565b820191906000526020600020905b8154815290600101906020018083116106f457829003601f168201915b505050505090806001018054600181600116156101000203166002900480601f0160208091040260200160405190810160405280929190818152602001828054600181600116156101000203166002900480156107af5780601f10610784576101008083540402835291602001916107af565b820191906000526020600020905b81548152906001019060200180831161079257829003601f168201915b505050505090806002018054600181600116156101000203166002900480601f01602080910402602001604051908101604052809291908181526020018280546001816001161561010002031660029004801561084d5780601f106108225761010080835404028352916020019161084d565b820191906000526020600020905b81548152906001019060200180831161083057829003601f168201915b505050505090806003018054600181600116156101000203166002900480601f0160208091040260200160405190810160405280929190818152602001828054600181600116156101000203166002900480156108eb5780601f106108c0576101008083540402835291602001916108eb565b820191906000526020600020905b8154815290600101906020018083116108ce57829003601f168201915b505050505090806004018054600181600116156101000203166002900480601f0160208091040260200160405190810160405280929190818152602001828054600181600116156101000203166002900480156109895780601f1061095e57610100808354040283529160200191610989565b820191906000526020600020905b81548152906001019060200180831161096c57829003601f168201915b5050505050908060050160009054906101000a900473ffffffffffffffffffffffffffffffffffffffff16908060050160149054906101000a900460ff16908060050160159054906101000a900460ff16908060050160169054906101000a900460ff16908060050160179054906101000a900460ff1690806006018054600181600116156101000203166002900480601f016020809104026020016040519081016040528092919081815260200182805460018160011615610100020316600290048015610a995780601f10610a6e57610100808354040283529160200191610a99565b820191906000526020600020905b815481529060010190602001808311610a7c57829003601f168201915b505050505090508b565b610aab611dc1565b6040518061016001604052808581526020018481526020018381526020016040518060200160405280600081525081526020016040518060200160405280600081525081526020013373ffffffffffffffffffffffffffffffffffffffff16815260200160001515815260200160001515815260200160001515815260200160001515815260200160405180602001604052806000815250815250905080600a60003373ffffffffffffffffffffffffffffffffffffffff1673ffffffffffffffffffffffffffffffffffffffff1681526020019081526020016000206000820151816000019080519060200190610ba4929190611e39565b506020820151816001019080519060200190610bc1929190611e39565b506040820151816002019080519060200190610bde929190611e39565b506060820151816003019080519060200190610bfb929190611e39565b506080820151816004019080519060200190610c18929190611e39565b5060a08201518160050160006101000a81548173ffffffffffffffffffffffffffffffffffffffff021916908373ffffffffffffffffffffffffffffffffffffffff16021790555060c08201518160050160146101000a81548160ff02191690831515021790555060e08201518160050160156101000a81548160ff0219169083151502179055506101008201518160050160166101000a81548160ff0219169083151502179055506101208201518160050160176101000a81548160ff021916908315150217905550610140820151816006019080519060200190610cff929190611e39565b50905050600260008154809291906001019190505550600b3390806001815401808255809150509060018203906000526020600020016000909192909190916101000a81548173ffffffffffffffffffffffffffffffffffffffff021916908373ffffffffffffffffffffffffffffffffffffffff1602179055505050505050565b60008060009054906101000a900473ffffffffffffffffffffffffffffffffffffffff16905090565b606080600060606000600a60008773ffffffffffffffffffffffffffffffffffffffff1673ffffffffffffffffffffffffffffffffffffffff168152602001908152602001600020600101600a60008873ffffffffffffffffffffffffffffffffffffffff1673ffffffffffffffffffffffffffffffffffffffff168152602001908152602001600020600201600a60008973ffffffffffffffffffffffffffffffffffffffff1673ffffffffffffffffffffffffffffffffffffffff16815260200190815260200160002060050160009054906101000a900473ffffffffffffffffffffffffffffffffffffffff16600a60008a73ffffffffffffffffffffffffffffffffffffffff1673ffffffffffffffffffffffffffffffffffffffff168152602001908152602001600020600001600a60008b73ffffffffffffffffffffffffffffffffffffffff1673ffffffffffffffffffffffffffffffffffffffff16815260200190815260200160002060050160149054906101000a900460ff16848054600181600116156101000203166002900480601f016020809104026020016040519081016040528092919081815260200182805460018160011615610100020316600290048015610fc15780601f10610f9657610100808354040283529160200191610fc1565b820191906000526020600020905b815481529060010190602001808311610fa457829003601f168201915b50505050509450838054600181600116156101000203166002900480601f01602080910402602001604051908101604052809291908181526020018280546001816001161561010002031660029004801561105d5780601f106110325761010080835404028352916020019161105d565b820191906000526020600020905b81548152906001019060200180831161104057829003601f168201915b50505050509350818054600181600116156101000203166002900480601f0160208091040260200160405190810160405280929190818152602001828054600181600116156101000203166002900480156110f95780601f106110ce576101008083540402835291602001916110f9565b820191906000526020600020905b8154815290600101906020018083116110dc57829003601f168201915b505050505091509450945094509450945091939590929450565b6001600360006101000a81548160ff0219169083151502179055508160049080519060200190611144929190611cba565b50806005908051906020019061115b929190611cba565b50611164610595565b5050565b6060806002546040519080825280602002602001820160405280156111a757816020015b611194611eb9565b81526020019060019003908161118c5790505b50905060008090505b6002548110156116ee57600a6000600b83815481106111cb57fe5b9060005260206000200160009054906101000a900473ffffffffffffffffffffffffffffffffffffffff1673ffffffffffffffffffffffffffffffffffffffff1673ffffffffffffffffffffffffffffffffffffffff16815260200190815260200160002060405180610160016040529081600082018054600181600116156101000203166002900480601f0160208091040260200160405190810160405280929190818152602001828054600181600116156101000203166002900480156112d55780601f106112aa576101008083540402835291602001916112d5565b820191906000526020600020905b8154815290600101906020018083116112b857829003601f168201915b50505050508152602001600182018054600181600116156101000203166002900480601f0160208091040260200160405190810160405280929190818152602001828054600181600116156101000203166002900480156113775780601f1061134c57610100808354040283529160200191611377565b820191906000526020600020905b81548152906001019060200180831161135a57829003601f168201915b50505050508152602001600282018054600181600116156101000203166002900480601f0160208091040260200160405190810160405280929190818152602001828054600181600116156101000203166002900480156114195780601f106113ee57610100808354040283529160200191611419565b820191906000526020600020905b8154815290600101906020018083116113fc57829003601f168201915b50505050508152602001600382018054600181600116156101000203166002900480601f0160208091040260200160405190810160405280929190818152602001828054600181600116156101000203166002900480156114bb5780601f10611490576101008083540402835291602001916114bb565b820191906000526020600020905b81548152906001019060200180831161149e57829003601f168201915b50505050508152602001600482018054600181600116156101000203166002900480601f01602080910402602001604051908101604052809291908181526020018280546001816001161561010002031660029004801561155d5780601f106115325761010080835404028352916020019161155d565b820191906000526020600020905b81548152906001019060200180831161154057829003601f168201915b505050505081526020016005820160009054906101000a900473ffffffffffffffffffffffffffffffffffffffff1673ffffffffffffffffffffffffffffffffffffffff1673ffffffffffffffffffffffffffffffffffffffff1681526020016005820160149054906101000a900460ff161515151581526020016005820160159054906101000a900460ff161515151581526020016005820160169054906101000a900460ff161515151581526020016005820160179054906101000a900460ff16151515158152602001600682018054600181600116156101000203166002900480601f0160208091040260200160405190810160405280929190818152602001828054600181600116156101000203166002900480156116c15780601f10611696576101008083540402835291602001916116c1565b820191906000526020600020905b8154815290600101906020018083116116a457829003601f168201915b5050505050815250508282815181106116d657fe5b602002602001018190525080806001019150506111b0565b508091505090565b6000600360019054906101000a900460ff16905090565b6001600a60008573ffffffffffffffffffffffffffffffffffffffff1673ffffffffffffffffffffffffffffffffffffffff16815260200190815260200160002060050160166101000a81548160ff02191690831515021790555081600a60008573ffffffffffffffffffffffffffffffffffffffff1673ffffffffffffffffffffffffffffffffffffffff16815260200190815260200160002060030190805190602001906117be929190611cba565b5080600a60008573ffffffffffffffffffffffffffffffffffffffff1673ffffffffffffffffffffffffffffffffffffffff1681526020019081526020016000206004019080519060200190611815929190611cba565b50505050565b6000600a60008373ffffffffffffffffffffffffffffffffffffffff1673ffffffffffffffffffffffffffffffffffffffff16815260200190815260200160002060050160166101000a81548160ff0219169083151502179055506001600a60008373ffffffffffffffffffffffffffffffffffffffff1673ffffffffffffffffffffffffffffffffffffffff16815260200190815260200160002060050160146101000a81548160ff02191690831515021790555050565b6000600360009054906101000a900460ff16905090565b6000600a60008373ffffffffffffffffffffffffffffffffffffffff1673ffffffffffffffffffffffffffffffffffffffff16815260200190815260200160002060050160166101000a81548160ff0219169083151502179055506001600a60008373ffffffffffffffffffffffffffffffffffffffff1673ffffffffffffffffffffffffffffffffffffffff16815260200190815260200160002060050160176101000a81548160ff02191690831515021790555050565b600b81815481106119b157fe5b906000526020600020016000915054906101000a900473ffffffffffffffffffffffffffffffffffffffff1681565b600080606080606080600360009054906101000a900460ff16600360019054906101000a900460ff166004600560066007838054600181600116156101000203166002900480601f016020809104026020016040519081016040528092919081815260200182805460018160011615610100020316600290048015611aa65780601f10611a7b57610100808354040283529160200191611aa6565b820191906000526020600020905b815481529060010190602001808311611a8957829003601f168201915b50505050509350828054600181600116156101000203166002900480601f016020809104026020016040519081016040528092919081815260200182805460018160011615610100020316600290048015611b425780601f10611b1757610100808354040283529160200191611b42565b820191906000526020600020905b815481529060010190602001808311611b2557829003601f168201915b50505050509250818054600181600116156101000203166002900480601f016020809104026020016040519081016040528092919081815260200182805460018160011615610100020316600290048015611bde5780601f10611bb357610100808354040283529160200191611bde565b820191906000526020600020905b815481529060010190602001808311611bc157829003601f168201915b50505050509150808054600181600116156101000203166002900480601f016020809104026020016040519081016040528092919081815260200182805460018160011615610100020316600290048015611c7a5780601f10611c4f57610100808354040283529160200191611c7a565b820191906000526020600020905b815481529060010190602001808311611c5d57829003601f168201915b50505050509050955095509550955095509550909192939495565b6000809054906101000a900473ffffffffffffffffffffffffffffffffffffffff1681565b828054600181600116156101000203166002900490600052602060002090601f016020900481019282601f10611cfb57805160ff1916838001178555611d29565b82800160010185558215611d29579182015b82811115611d28578251825591602001919060010190611d0d565b5b509050611d369190611f31565b5090565b828054600181600116156101000203166002900490600052602060002090601f016020900481019282601f10611d735780548555611db0565b82800160010185558215611db057600052602060002091601f016020900482015b82811115611daf578254825591600101919060010190611d94565b5b509050611dbd9190611f31565b5090565b6040518061016001604052806060815260200160608152602001606081526020016060815260200160608152602001600073ffffffffffffffffffffffffffffffffffffffff168152602001600015158152602001600015158152602001600015158152602001600015158152602001606081525090565b828054600181600116156101000203166002900490600052602060002090601f016020900481019282601f10611e7a57805160ff1916838001178555611ea8565b82800160010185558215611ea8579182015b82811115611ea7578251825591602001919060010190611e8c565b5b509050611eb59190611f31565b5090565b6040518061016001604052806060815260200160608152602001606081526020016060815260200160608152602001600073ffffffffffffffffffffffffffffffffffffffff168152602001600015158152602001600015158152602001600015158152602001600015158152602001606081525090565b611f5391905b80821115611f4f576000816000905550600101611f37565b5090565b90565b600081359050611f6581612817565b92915050565b600082601f830112611f7c57600080fd5b8135611f8f611f8a826126df565b6126b2565b91508082526020830160208301858383011115611fab57600080fd5b611fb68382846127c4565b50505092915050565b600081359050611fce8161282e565b92915050565b600060208284031215611fe657600080fd5b6000611ff484828501611f56565b91505092915050565b6000806040838503121561201057600080fd5b600061201e85828601611f56565b925050602083013567ffffffffffffffff81111561203b57600080fd5b61204785828601611f6b565b9150509250929050565b60008060006060848603121561206657600080fd5b600061207486828701611f56565b935050602084013567ffffffffffffffff81111561209157600080fd5b61209d86828701611f6b565b925050604084013567ffffffffffffffff8111156120ba57600080fd5b6120c686828701611f6b565b9150509250925092565b600080604083850312156120e357600080fd5b600083013567ffffffffffffffff8111156120fd57600080fd5b61210985828601611f6b565b925050602083013567ffffffffffffffff81111561212657600080fd5b61213285828601611f6b565b9150509250929050565b60008060006060848603121561215157600080fd5b600084013567ffffffffffffffff81111561216b57600080fd5b61217786828701611f6b565b935050602084013567ffffffffffffffff81111561219457600080fd5b6121a086828701611f6b565b925050604084013567ffffffffffffffff8111156121bd57600080fd5b6121c986828701611f6b565b9150509250925092565b6000602082840312156121e557600080fd5b60006121f384828501611fbf565b91505092915050565b6000612208838361236c565b905092915050565b6122198161277c565b82525050565b6122288161277c565b82525050565b60006122398261271b565b6122438185612749565b9350836020820285016122558561270b565b8060005b85811015612291578484038952815161227285826121fc565b945061227d8361273c565b925060208a01995050600181019050612259565b50829750879550505050505092915050565b6122ac8161278e565b82525050565b6122bb8161278e565b82525050565b60006122cc82612731565b6122d6818561276b565b93506122e68185602086016127d3565b6122ef81612806565b840191505092915050565b600061230582612726565b61230f818561275a565b935061231f8185602086016127d3565b61232881612806565b840191505092915050565b600061233e82612726565b612348818561276b565b93506123588185602086016127d3565b61236181612806565b840191505092915050565b600061016083016000830151848203600086015261238a82826122fa565b915050602083015184820360208601526123a482826122fa565b915050604083015184820360408601526123be82826122fa565b915050606083015184820360608601526123d882826122fa565b915050608083015184820360808601526123f282826122fa565b91505060a083015161240760a0860182612210565b5060c083015161241a60c08601826122a3565b5060e083015161242d60e08601826122a3565b506101008301516124426101008601826122a3565b506101208301516124576101208601826122a3565b5061014083015184820361014086015261247182826122fa565b9150508091505092915050565b6000602082019050612493600083018461221f565b92915050565b600060208201905081810360008301526124b3818461222e565b905092915050565b60006020820190506124d060008301846122b2565b92915050565b600060c0820190506124eb60008301896122b2565b6124f860208301886122b2565b818103604083015261250a81876122c1565b9050818103606083015261251e81866122c1565b9050818103608083015261253281856122c1565b905081810360a083015261254681846122c1565b9050979650505050505050565b6000602082019050818103600083015261256d8184612333565b905092915050565b600060a082019050818103600083015261258f81886122c1565b905081810360208301526125a381876122c1565b90506125b2604083018661221f565b81810360608301526125c481856122c1565b90506125d360808301846122b2565b9695505050505050565b60006101608201905081810360008301526125f8818e612333565b9050818103602083015261260c818d612333565b90508181036040830152612620818c612333565b90508181036060830152612634818b612333565b90508181036080830152612648818a612333565b905061265760a083018961221f565b61266460c08301886122b2565b61267160e08301876122b2565b61267f6101008301866122b2565b61268d6101208301856122b2565b8181036101408301526126a08184612333565b90509c9b505050505050505050505050565b6000604051905081810181811067ffffffffffffffff821117156126d557600080fd5b8060405250919050565b600067ffffffffffffffff8211156126f657600080fd5b601f19601f8301169050602081019050919050565b6000819050602082019050919050565b600081519050919050565b600081519050919050565b600081519050919050565b6000602082019050919050565b600082825260208201905092915050565b600082825260208201905092915050565b600082825260208201905092915050565b60006127878261279a565b9050919050565b60008115159050919050565b600073ffffffffffffffffffffffffffffffffffffffff82169050919050565b6000819050919050565b82818337600083830152505050565b60005b838110156127f15780820151818401526020810190506127d6565b83811115612800576000848401525b50505050565b6000601f19601f8301169050919050565b6128208161277c565b811461282b57600080fd5b50565b612837816127ba565b811461284257600080fd5b5056fea365627a7a723158208e0f58871932742b5ba7de4f43cac504730738c22ae36977fceeb43e0b9df5846c6578706572696d656e74616cf564736f6c63430005100040",
  "source": "// SPDX-License-Identifier: MIT\r\npragma solidity >=0.4.21 <0.9.0;\r\npragma experimental ABIEncoderV2;\r\n\r\ncontract Election {\r\n    address public admin;\r\n    uint256 candidateCount;\r\n    uint256 voterCount;\r\n    bool isElectionStarted;\r\n    bool isElectionEnded;\r\n    bool isVerified;\r\n    string electionTitle;\r\n    string electionOrganization;\r\n    string currentElectionPhase;\r\n    string nextElectionPhase;\r\n    uint256 electionPhaseIndex;\r\n    string[] public electionPhases;\r\n\r\n    constructor() public{\r\n        // Initilizing default values\r\n        admin = msg.sender;\r\n        candidateCount = 0;\r\n        voterCount = 0;\r\n        isElectionStarted = false;\r\n        isElectionEnded = false;\r\n        electionTitle = \"\";\r\n        electionOrganization = \"\";\r\n        electionPhaseIndex = 0;\r\n        electionPhases = [\r\n            \"None\",\r\n            \"Registration\",\r\n            \"Apply as a Candidate\",\r\n            \"Voting\",\r\n            \"Result\"\r\n        ];\r\n        currentElectionPhase = electionPhases[electionPhaseIndex];\r\n        nextElectionPhase = electionPhases[electionPhaseIndex + 1]; \r\n    }\r\n\r\n    struct voter {\r\n        string username;\r\n        string email;\r\n        string password;\r\n        string prn;\r\n        string mobile;\r\n        address voterAddress;\r\n        bool isVerified;\r\n        bool hasVoted;\r\n        bool hasApplied;\r\n        bool isCandidate;\r\n        string tagLine;\r\n    }\r\n\r\n    mapping(address => voter) public voterDetails;\r\n    address[] public voters; // Array of address to store address of voters\r\n\r\n    /*------------------------ Voter Verification --------------------------- */\r\n\r\n    // Update verification details\r\n    function addVerificationRequest(address pendingVoterAddress, string memory _prn, string memory _mobile) public{\r\n        voterDetails[pendingVoterAddress].hasApplied = true;\r\n        voterDetails[pendingVoterAddress].prn = _prn;\r\n        voterDetails[pendingVoterAddress].mobile = _mobile;\r\n    }\r\n\r\n    // Approve verification requests\r\n    function approveVerificationRequests(address pendingVoterAddress) public{\r\n        voterDetails[pendingVoterAddress].hasApplied = false;\r\n        voterDetails[pendingVoterAddress].isVerified = true;\r\n    }\r\n\r\n    // sending candidate request\r\n\r\n    function addCandidateRequest(address pendingVoterAddress, string memory _tagLine) public{\r\n        voterDetails[pendingVoterAddress].hasApplied = true;\r\n        voterDetails[pendingVoterAddress].tagLine = _tagLine;\r\n    }\r\n\r\n    // Approve candidate requests\r\n    function approveCandidateRequests(address pendingVoterAddress) public{\r\n        voterDetails[pendingVoterAddress].hasApplied = false;\r\n        voterDetails[pendingVoterAddress].isCandidate = true;\r\n    }\r\n\r\n    // Get all voter details\r\n    function getAllVoterDetails() public view returns(voter[] memory){\r\n       voter[] memory allVoterDetails = new voter[](voterCount);\r\n       for(uint i = 0; i <voterCount; i++)\r\n       {\r\n           allVoterDetails[i] =  voterDetails[voters[i]];\r\n       }\r\n       return allVoterDetails;\r\n    }\r\n\r\n    function addVoterDetails(\r\n        string memory _username,\r\n        string memory _email,\r\n        string memory _password\r\n    ) public {\r\n        voter memory newVoter = voter({\r\n            username: _username,\r\n            email: _email,\r\n            password: _password,\r\n            voterAddress: msg.sender,\r\n            prn: \"\",\r\n            mobile: \"\",\r\n            isVerified: false,\r\n            hasVoted: false,\r\n            hasApplied: false,\r\n            isCandidate : false,\r\n            tagLine : \"\"\r\n        });\r\n        voterDetails[msg.sender] = newVoter;\r\n        voterCount++;\r\n        voters.push(msg.sender);\r\n    }\r\n\r\n    function isVoterExists(address voterAddress) public view returns (bool) {\r\n        //Loop through voters array\r\n        for (uint256 i = 0; i < voters.length; i++) {\r\n            if ((voterAddress) == voters[i]) {\r\n                return true;\r\n            }\r\n        }\r\n        return false;\r\n    }\r\n\r\n    function getLoginDetails(address loginAddress)\r\n        public\r\n        view\r\n        returns (\r\n            string memory,\r\n            string memory,\r\n            address,\r\n            string memory,\r\n            bool\r\n        )\r\n    {\r\n        return (\r\n            voterDetails[loginAddress].email,\r\n            voterDetails[loginAddress].password,\r\n            voterDetails[loginAddress].voterAddress,\r\n            voterDetails[loginAddress].username,\r\n            voterDetails[loginAddress].isVerified\r\n        );\r\n    }\r\n\r\n    function getAdmin() public view returns (address) {\r\n        // Returns account address used to deploy contract (i.e. admin)\r\n        return admin;\r\n    }\r\n\r\n    // Get election isElectionStarted and isElectionEnded values\r\n    function getStart() public view returns (bool) {\r\n        return isElectionStarted;\r\n    }\r\n\r\n    function getEnd() public view returns (bool) {\r\n        return isElectionEnded;\r\n    }\r\n\r\n    function changeElectionPhase() public {\r\n        electionPhaseIndex = (electionPhaseIndex + 1) % electionPhases.length;\r\n        currentElectionPhase = electionPhases[electionPhaseIndex];\r\n        nextElectionPhase = electionPhases[\r\n            (electionPhaseIndex + 1) % electionPhases.length\r\n        ];\r\n        if (electionPhaseIndex == electionPhases.length - 1) {\r\n            isElectionEnded = true;\r\n        }\r\n    }\r\n\r\n    function getElectionDetails()\r\n        public\r\n        view\r\n        returns (\r\n            bool,\r\n            bool,\r\n            string memory,\r\n            string memory,\r\n            string memory,\r\n            string memory\r\n        )\r\n    {\r\n        return (\r\n            isElectionStarted,\r\n            isElectionEnded,\r\n            electionTitle,\r\n            electionOrganization,\r\n            currentElectionPhase,\r\n            nextElectionPhase\r\n        );\r\n    }\r\n\r\n    function startElection(\r\n        string memory _electionTitle,\r\n        string memory _electionOrganization\r\n    ) public {\r\n        isElectionStarted = true;\r\n        electionTitle = _electionTitle;\r\n        electionOrganization = _electionOrganization;\r\n        changeElectionPhase();\r\n    }\r\n}\r\n",
  "sourcePath": "C:\\Users\\91774\\OneDrive\\Desktop\\Voting-system-using-Blockchain\\contracts\\Election.sol",
  "compiler": {
    "name": "solc",
    "version": "0.5.16+commit.9c3226ce.Emscripten.clang"
  },
  "schemaVersion": "3.4.6",
  "updatedAt": "2022-05-03T08:03:16.683Z",
  "networkType": "ethereum",
  "devdoc": {
    "methods": {}
  },
  "userdoc": {
    "methods": {}
  }
}