{
  "contractName": "Election",
  "abi": [
    {
      "inputs": [],
      "payable": false,
      "stateMutability": "nonpayable",
      "type": "constructor"
    },
    {
      "constant": true,
      "inputs": [],
      "name": "admin",
      "outputs": [
        {
          "internalType": "address",
          "name": "",
          "type": "address"
        }
      ],
      "payable": false,
      "stateMutability": "view",
      "type": "function"
    },
    {
      "constant": true,
      "inputs": [
        {
          "internalType": "uint256",
          "name": "",
          "type": "uint256"
        }
      ],
      "name": "electionPhases",
      "outputs": [
        {
          "internalType": "string",
          "name": "",
          "type": "string"
        }
      ],
      "payable": false,
      "stateMutability": "view",
      "type": "function"
    },
    {
      "constant": true,
      "inputs": [
        {
          "internalType": "address",
          "name": "",
          "type": "address"
        }
      ],
      "name": "voterDetails",
      "outputs": [
        {
          "internalType": "string",
          "name": "username",
          "type": "string"
        },
        {
          "internalType": "string",
          "name": "email",
          "type": "string"
        },
        {
          "internalType": "string",
          "name": "password",
          "type": "string"
        },
        {
          "internalType": "address",
          "name": "voterAddress",
          "type": "address"
        }
      ],
      "payable": false,
      "stateMutability": "view",
      "type": "function"
    },
    {
      "constant": true,
      "inputs": [
        {
          "internalType": "uint256",
          "name": "",
          "type": "uint256"
        }
      ],
      "name": "voters",
      "outputs": [
        {
          "internalType": "address",
          "name": "",
          "type": "address"
        }
      ],
      "payable": false,
      "stateMutability": "view",
      "type": "function"
    },
    {
      "constant": false,
      "inputs": [
        {
          "internalType": "string",
          "name": "_username",
          "type": "string"
        },
        {
          "internalType": "string",
          "name": "_email",
          "type": "string"
        },
        {
          "internalType": "string",
          "name": "_password",
          "type": "string"
        }
      ],
      "name": "addVoterDetails",
      "outputs": [],
      "payable": false,
      "stateMutability": "nonpayable",
      "type": "function"
    },
    {
      "constant": true,
      "inputs": [
        {
          "internalType": "address",
          "name": "voterAddress",
          "type": "address"
        }
      ],
      "name": "isVoterExists",
      "outputs": [
        {
          "internalType": "bool",
          "name": "",
          "type": "bool"
        }
      ],
      "payable": false,
      "stateMutability": "view",
      "type": "function"
    },
    {
      "constant": true,
      "inputs": [
        {
          "internalType": "address",
          "name": "loginAddress",
          "type": "address"
        }
      ],
      "name": "getLoginDetails",
      "outputs": [
        {
          "internalType": "string",
          "name": "",
          "type": "string"
        },
        {
          "internalType": "string",
          "name": "",
          "type": "string"
        },
        {
          "internalType": "address",
          "name": "",
          "type": "address"
        },
        {
          "internalType": "string",
          "name": "",
          "type": "string"
        }
      ],
      "payable": false,
      "stateMutability": "view",
      "type": "function"
    },
    {
      "constant": true,
      "inputs": [],
      "name": "getAdmin",
      "outputs": [
        {
          "internalType": "address",
          "name": "",
          "type": "address"
        }
      ],
      "payable": false,
      "stateMutability": "view",
      "type": "function"
    },
    {
      "constant": true,
      "inputs": [],
      "name": "getStart",
      "outputs": [
        {
          "internalType": "bool",
          "name": "",
          "type": "bool"
        }
      ],
      "payable": false,
      "stateMutability": "view",
      "type": "function"
    },
    {
      "constant": true,
      "inputs": [],
      "name": "getEnd",
      "outputs": [
        {
          "internalType": "bool",
          "name": "",
          "type": "bool"
        }
      ],
      "payable": false,
      "stateMutability": "view",
      "type": "function"
    },
    {
      "constant": false,
      "inputs": [],
      "name": "changeElectionPhase",
      "outputs": [],
      "payable": false,
      "stateMutability": "nonpayable",
      "type": "function"
    },
    {
      "constant": true,
      "inputs": [],
      "name": "getElectionDetails",
      "outputs": [
        {
          "internalType": "bool",
          "name": "",
          "type": "bool"
        },
        {
          "internalType": "bool",
          "name": "",
          "type": "bool"
        },
        {
          "internalType": "string",
          "name": "",
          "type": "string"
        },
        {
          "internalType": "string",
          "name": "",
          "type": "string"
        },
        {
          "internalType": "string",
          "name": "",
          "type": "string"
        },
        {
          "internalType": "string",
          "name": "",
          "type": "string"
        }
      ],
      "payable": false,
      "stateMutability": "view",
      "type": "function"
    },
    {
      "constant": false,
      "inputs": [
        {
          "internalType": "string",
          "name": "_electionTitle",
          "type": "string"
        },
        {
          "internalType": "string",
          "name": "_electionOrganization",
          "type": "string"
        }
      ],
      "name": "startElection",
      "outputs": [],
      "payable": false,
      "stateMutability": "nonpayable",
      "type": "function"
    }
  ],
  "bytecode": "0x60806040523480156200001157600080fd5b50336000806101000a81548173ffffffffffffffffffffffffffffffffffffffff021916908373ffffffffffffffffffffffffffffffffffffffff160217905550600060018190555060006002819055506000600360006101000a81548160ff0219169083151502179055506000600360016101000a81548160ff0219169083151502179055506040518060200160405280600081525060049080519060200190620000bf92919062000277565b506040518060200160405280600081525060059080519060200190620000e792919062000277565b5060006008819055506040518060a001604052806040518060400160405280600481526020017f4e6f6e650000000000000000000000000000000000000000000000000000000081525081526020016040518060400160405280600c81526020017f526567697374726174696f6e000000000000000000000000000000000000000081525081526020016040518060400160405280601481526020017f4170706c7920617320612043616e64696461746500000000000000000000000081525081526020016040518060400160405280600681526020017f566f74696e67000000000000000000000000000000000000000000000000000081525081526020016040518060400160405280600681526020017f526573756c740000000000000000000000000000000000000000000000000000815250815250600990600562000232929190620002fe565b506009600854815481106200024357fe5b90600052602060002001600690805460018160011615610100020316600290046200027092919062000365565b506200051f565b828054600181600116156101000203166002900490600052602060002090601f016020900481019282601f10620002ba57805160ff1916838001178555620002eb565b82800160010185558215620002eb579182015b82811115620002ea578251825591602001919060010190620002cd565b5b509050620002fa9190620003f3565b5090565b82805482825590600052602060002090810192821562000352579160200282015b8281111562000351578251829080519060200190620003409291906200041b565b50916020019190600101906200031f565b5b509050620003619190620004a2565b5090565b828054600181600116156101000203166002900490600052602060002090601f016020900481019282601f10620003a05780548555620003e0565b82800160010185558215620003e057600052602060002091601f016020900482015b82811115620003df578254825591600101919060010190620003c2565b5b509050620003ef9190620003f3565b5090565b6200041891905b8082111562000414576000816000905550600101620003fa565b5090565b90565b828054600181600116156101000203166002900490600052602060002090601f016020900481019282601f106200045e57805160ff19168380011785556200048f565b828001600101855582156200048f579182015b828111156200048e57825182559160200191906001019062000471565b5b5090506200049e9190620003f3565b5090565b620004d091905b80821115620004cc5760008181620004c29190620004d3565b50600101620004a9565b5090565b90565b50805460018160011615610100020316600290046000825580601f10620004fb57506200051c565b601f0160209004906000526020600020908101906200051b9190620003f3565b5b50565b611a94806200052f6000396000f3fe608060405234801561001057600080fd5b50600436106100cf5760003560e01c80637691e9901161008c578063c5292c6711610066578063c5292c6714610918578063da58c7d91461093a578063ed836bc3146109a8578063f851a44014610b85576100cf565b80637691e990146105dc578063917addbd146107a45780639f05a36d146108f6576100cf565b806319f017b7146100d457806328dc41821461017b578063316b018d146101d75780635938750d146101e15780635cc2d13f146103a95780636e9960c314610592575b600080fd5b610100600480360360208110156100ea57600080fd5b8101908080359060200190929190505050610bcf565b6040518080602001828103825283818151815260200191508051906020019080838360005b83811015610140578082015181840152602081019050610125565b50505050905090810190601f16801561016d5780820380516001836020036101000a031916815260200191505b509250505060405180910390f35b6101bd6004803603602081101561019157600080fd5b81019080803573ffffffffffffffffffffffffffffffffffffffff169060200190929190505050610c88565b604051808215151515815260200191505060405180910390f35b6101df610d2a565b005b610223600480360360208110156101f757600080fd5b81019080803573ffffffffffffffffffffffffffffffffffffffff169060200190929190505050610dfa565b604051808060200180602001806020018573ffffffffffffffffffffffffffffffffffffffff1673ffffffffffffffffffffffffffffffffffffffff168152602001848103845288818151815260200191508051906020019080838360005b8381101561029d578082015181840152602081019050610282565b50505050905090810190601f1680156102ca5780820380516001836020036101000a031916815260200191505b50848103835287818151815260200191508051906020019080838360005b838110156103035780820151818401526020810190506102e8565b50505050905090810190601f1680156103305780820380516001836020036101000a031916815260200191505b50848103825286818151815260200191508051906020019080838360005b8381101561036957808201518184015260208101905061034e565b50505050905090810190601f1680156103965780820380516001836020036101000a031916815260200191505b5097505050505050505060405180910390f35b610590600480360360608110156103bf57600080fd5b81019080803590602001906401000000008111156103dc57600080fd5b8201836020820111156103ee57600080fd5b8035906020019184600183028401116401000000008311171561041057600080fd5b91908080601f016020809104026020016040519081016040528093929190818152602001838380828437600081840152601f19601f8201169050808301925050505050505091929192908035906020019064010000000081111561047357600080fd5b82018360208201111561048557600080fd5b803590602001918460018302840111640100000000831117156104a757600080fd5b91908080601f016020809104026020016040519081016040528093929190818152602001838380828437600081840152601f19601f8201169050808301925050505050505091929192908035906020019064010000000081111561050a57600080fd5b82018360208201111561051c57600080fd5b8035906020019184600183028401116401000000008311171561053e57600080fd5b91908080601f016020809104026020016040519081016040528093929190818152602001838380828437600081840152601f19601f820116905080830192505050505050509192919290505050611012565b005b61059a6111a0565b604051808273ffffffffffffffffffffffffffffffffffffffff1673ffffffffffffffffffffffffffffffffffffffff16815260200191505060405180910390f35b61061e600480360360208110156105f257600080fd5b81019080803573ffffffffffffffffffffffffffffffffffffffff1690602001909291905050506111c9565b6040518080602001806020018573ffffffffffffffffffffffffffffffffffffffff1673ffffffffffffffffffffffffffffffffffffffff16815260200180602001848103845288818151815260200191508051906020019080838360005b8381101561069857808201518184015260208101905061067d565b50505050905090810190601f1680156106c55780820380516001836020036101000a031916815260200191505b50848103835287818151815260200191508051906020019080838360005b838110156106fe5780820151818401526020810190506106e3565b50505050905090810190601f16801561072b5780820380516001836020036101000a031916815260200191505b50848103825285818151815260200191508051906020019080838360005b83811015610764578082015181840152602081019050610749565b50505050905090810190601f1680156107915780820380516001836020036101000a031916815260200191505b5097505050505050505060405180910390f35b6108f4600480360360408110156107ba57600080fd5b81019080803590602001906401000000008111156107d757600080fd5b8201836020820111156107e957600080fd5b8035906020019184600183028401116401000000008311171561080b57600080fd5b91908080601f016020809104026020016040519081016040528093929190818152602001838380828437600081840152601f19601f8201169050808301925050505050505091929192908035906020019064010000000081111561086e57600080fd5b82018360208201111561088057600080fd5b803590602001918460018302840111640100000000831117156108a257600080fd5b91908080601f016020809104026020016040519081016040528093929190818152602001838380828437600081840152601f19601f8201169050808301925050505050505091929192905050506114dc565b005b6108fe611531565b604051808215151515815260200191505060405180910390f35b610920611548565b604051808215151515815260200191505060405180910390f35b6109666004803603602081101561095057600080fd5b810190808035906020019092919050505061155f565b604051808273ffffffffffffffffffffffffffffffffffffffff1673ffffffffffffffffffffffffffffffffffffffff16815260200191505060405180910390f35b6109b061159b565b60405180871515151581526020018615151515815260200180602001806020018060200180602001858103855289818151815260200191508051906020019080838360005b83811015610a105780820151818401526020810190506109f5565b50505050905090810190601f168015610a3d5780820380516001836020036101000a031916815260200191505b50858103845288818151815260200191508051906020019080838360005b83811015610a76578082015181840152602081019050610a5b565b50505050905090810190601f168015610aa35780820380516001836020036101000a031916815260200191505b50858103835287818151815260200191508051906020019080838360005b83811015610adc578082015181840152602081019050610ac1565b50505050905090810190601f168015610b095780820380516001836020036101000a031916815260200191505b50858103825286818151815260200191508051906020019080838360005b83811015610b42578082015181840152602081019050610b27565b50505050905090810190601f168015610b6f5780820380516001836020036101000a031916815260200191505b509a505050505050505050505060405180910390f35b610b8d611850565b604051808273ffffffffffffffffffffffffffffffffffffffff1673ffffffffffffffffffffffffffffffffffffffff16815260200191505060405180910390f35b60098181548110610bdc57fe5b906000526020600020016000915090508054600181600116156101000203166002900480601f016020809104026020016040519081016040528092919081815260200182805460018160011615610100020316600290048015610c805780601f10610c5557610100808354040283529160200191610c80565b820191906000526020600020905b815481529060010190602001808311610c6357829003601f168201915b505050505081565b600080600090505b600b80549050811015610d1f57600b8181548110610caa57fe5b9060005260206000200160009054906101000a900473ffffffffffffffffffffffffffffffffffffffff1673ffffffffffffffffffffffffffffffffffffffff168373ffffffffffffffffffffffffffffffffffffffff161415610d12576001915050610d25565b8080600101915050610c90565b50600090505b919050565b60098054905060016008540181610d3d57fe5b06600881905550600960085481548110610d5357fe5b9060005260206000200160069080546001816001161561010002031660029004610d7e929190611875565b506009808054905060016008540181610d9357fe5b0681548110610d9e57fe5b9060005260206000200160079080546001816001161561010002031660029004610dc9929190611875565b506001600980549050036008541415610df8576001600360016101000a81548160ff0219169083151502179055505b565b600a602052806000526040600020600091509050806000018054600181600116156101000203166002900480601f016020809104026020016040519081016040528092919081815260200182805460018160011615610100020316600290048015610ea65780601f10610e7b57610100808354040283529160200191610ea6565b820191906000526020600020905b815481529060010190602001808311610e8957829003601f168201915b505050505090806001018054600181600116156101000203166002900480601f016020809104026020016040519081016040528092919081815260200182805460018160011615610100020316600290048015610f445780601f10610f1957610100808354040283529160200191610f44565b820191906000526020600020905b815481529060010190602001808311610f2757829003601f168201915b505050505090806002018054600181600116156101000203166002900480601f016020809104026020016040519081016040528092919081815260200182805460018160011615610100020316600290048015610fe25780601f10610fb757610100808354040283529160200191610fe2565b820191906000526020600020905b815481529060010190602001808311610fc557829003601f168201915b5050505050908060030160009054906101000a900473ffffffffffffffffffffffffffffffffffffffff16905084565b61101a6118fc565b60405180608001604052808581526020018481526020018381526020013373ffffffffffffffffffffffffffffffffffffffff16815250905080600a60003373ffffffffffffffffffffffffffffffffffffffff1673ffffffffffffffffffffffffffffffffffffffff16815260200190815260200160002060008201518160000190805190602001906110af92919061193a565b5060208201518160010190805190602001906110cc92919061193a565b5060408201518160020190805190602001906110e992919061193a565b5060608201518160030160006101000a81548173ffffffffffffffffffffffffffffffffffffffff021916908373ffffffffffffffffffffffffffffffffffffffff160217905550905050600b3390806001815401808255809150509060018203906000526020600020016000909192909190916101000a81548173ffffffffffffffffffffffffffffffffffffffff021916908373ffffffffffffffffffffffffffffffffffffffff1602179055505050505050565b60008060009054906101000a900473ffffffffffffffffffffffffffffffffffffffff16905090565b60608060006060600a60008673ffffffffffffffffffffffffffffffffffffffff1673ffffffffffffffffffffffffffffffffffffffff168152602001908152602001600020600101600a60008773ffffffffffffffffffffffffffffffffffffffff1673ffffffffffffffffffffffffffffffffffffffff168152602001908152602001600020600201600a60008873ffffffffffffffffffffffffffffffffffffffff1673ffffffffffffffffffffffffffffffffffffffff16815260200190815260200160002060030160009054906101000a900473ffffffffffffffffffffffffffffffffffffffff16600a60008973ffffffffffffffffffffffffffffffffffffffff1673ffffffffffffffffffffffffffffffffffffffff168152602001908152602001600020600001838054600181600116156101000203166002900480601f01602080910402602001604051908101604052809291908181526020018280546001816001161561010002031660029004801561138e5780601f106113635761010080835404028352916020019161138e565b820191906000526020600020905b81548152906001019060200180831161137157829003601f168201915b50505050509350828054600181600116156101000203166002900480601f01602080910402602001604051908101604052809291908181526020018280546001816001161561010002031660029004801561142a5780601f106113ff5761010080835404028352916020019161142a565b820191906000526020600020905b81548152906001019060200180831161140d57829003601f168201915b50505050509250808054600181600116156101000203166002900480601f0160208091040260200160405190810160405280929190818152602001828054600181600116156101000203166002900480156114c65780601f1061149b576101008083540402835291602001916114c6565b820191906000526020600020905b8154815290600101906020018083116114a957829003601f168201915b5050505050905093509350935093509193509193565b6001600360006101000a81548160ff021916908315150217905550816004908051906020019061150d9291906119ba565b5080600590805190602001906115249291906119ba565b5061152d610d2a565b5050565b6000600360019054906101000a900460ff16905090565b6000600360009054906101000a900460ff16905090565b600b818154811061156c57fe5b906000526020600020016000915054906101000a900473ffffffffffffffffffffffffffffffffffffffff1681565b600080606080606080600360009054906101000a900460ff16600360019054906101000a900460ff166004600560066007838054600181600116156101000203166002900480601f0160208091040260200160405190810160405280929190818152602001828054600181600116156101000203166002900480156116615780601f1061163657610100808354040283529160200191611661565b820191906000526020600020905b81548152906001019060200180831161164457829003601f168201915b50505050509350828054600181600116156101000203166002900480601f0160208091040260200160405190810160405280929190818152602001828054600181600116156101000203166002900480156116fd5780601f106116d2576101008083540402835291602001916116fd565b820191906000526020600020905b8154815290600101906020018083116116e057829003601f168201915b50505050509250818054600181600116156101000203166002900480601f0160208091040260200160405190810160405280929190818152602001828054600181600116156101000203166002900480156117995780601f1061176e57610100808354040283529160200191611799565b820191906000526020600020905b81548152906001019060200180831161177c57829003601f168201915b50505050509150808054600181600116156101000203166002900480601f0160208091040260200160405190810160405280929190818152602001828054600181600116156101000203166002900480156118355780601f1061180a57610100808354040283529160200191611835565b820191906000526020600020905b81548152906001019060200180831161181857829003601f168201915b50505050509050955095509550955095509550909192939495565b6000809054906101000a900473ffffffffffffffffffffffffffffffffffffffff1681565b828054600181600116156101000203166002900490600052602060002090601f016020900481019282601f106118ae57805485556118eb565b828001600101855582156118eb57600052602060002091601f016020900482015b828111156118ea5782548255916001019190600101906118cf565b5b5090506118f89190611a3a565b5090565b6040518060800160405280606081526020016060815260200160608152602001600073ffffffffffffffffffffffffffffffffffffffff1681525090565b828054600181600116156101000203166002900490600052602060002090601f016020900481019282601f1061197b57805160ff19168380011785556119a9565b828001600101855582156119a9579182015b828111156119a857825182559160200191906001019061198d565b5b5090506119b69190611a3a565b5090565b828054600181600116156101000203166002900490600052602060002090601f016020900481019282601f106119fb57805160ff1916838001178555611a29565b82800160010185558215611a29579182015b82811115611a28578251825591602001919060010190611a0d565b5b509050611a369190611a3a565b5090565b611a5c91905b80821115611a58576000816000905550600101611a40565b5090565b9056fea265627a7a7231582002fa44eb91d7a9314a4d320f36fa0956560ca13f74fa98b6497451ffc35631e464736f6c63430005100032",
  "source": "// SPDX-License-Identifier: MIT\r\npragma solidity >=0.4.21 <0.9.0;\r\n\r\ncontract Election {\r\n    address public admin;\r\n    uint256 candidateCount;\r\n    uint256 voterCount;\r\n    bool isElectionStarted;\r\n    bool isElectionEnded;\r\n    string electionTitle;\r\n    string electionOrganization;\r\n    string currentElectionPhase;\r\n    string nextElectionPhase;\r\n    uint256 electionPhaseIndex;\r\n    string[] public electionPhases;\r\n\r\n    constructor() public {\r\n        // Initilizing default values\r\n        admin = msg.sender;\r\n        candidateCount = 0;\r\n        voterCount = 0;\r\n        isElectionStarted = false;\r\n        isElectionEnded = false;\r\n        electionTitle = \"\";\r\n        electionOrganization = \"\";\r\n        electionPhaseIndex = 0;\r\n        electionPhases = [\r\n            \"None\",\r\n            \"Registration\",\r\n            \"Apply as a Candidate\",\r\n            \"Voting\",\r\n            \"Result\"\r\n        ];\r\n        currentElectionPhase = electionPhases[electionPhaseIndex];\r\n    }\r\n\r\n    struct voter {\r\n        string username;\r\n        string email;\r\n        string password;\r\n        address voterAddress;\r\n    }\r\n    mapping(address => voter) public voterDetails;\r\n    address[] public voters; // Array of address to store address of voters\r\n\r\n    function addVoterDetails(\r\n        string memory _username,\r\n        string memory _email,\r\n        string memory _password\r\n    ) public {\r\n        voter memory newVoter = voter({\r\n            username: _username,\r\n            email: _email,\r\n            password: _password,\r\n            voterAddress: msg.sender\r\n        });\r\n        voterDetails[msg.sender] = newVoter;\r\n        voters.push(msg.sender);\r\n    }\r\n\r\n    function isVoterExists(address voterAddress) public view returns (bool) {\r\n        //Loop through voters array\r\n        for (uint256 i = 0; i < voters.length; i++) {\r\n            if ((voterAddress) == voters[i]) {\r\n                return true;\r\n            }\r\n        }\r\n        return false;\r\n    }\r\n\r\n    function getLoginDetails(address loginAddress)\r\n        public\r\n        view\r\n        returns (\r\n            string memory,\r\n            string memory,\r\n            address,\r\n            string memory\r\n        )\r\n    {\r\n        return (\r\n            voterDetails[loginAddress].email,\r\n            voterDetails[loginAddress].password,\r\n            voterDetails[loginAddress].voterAddress,\r\n            voterDetails[loginAddress].username\r\n        );\r\n    }\r\n\r\n    function getAdmin() public view returns (address) {\r\n        // Returns account address used to deploy contract (i.e. admin)\r\n        return admin;\r\n    }\r\n\r\n    // Get election isElectionStarted and isElectionEnded values\r\n    function getStart() public view returns (bool) {\r\n        return isElectionStarted;\r\n    }\r\n\r\n    function getEnd() public view returns (bool) {\r\n        return isElectionEnded;\r\n    }\r\n\r\n    function changeElectionPhase() public {\r\n        electionPhaseIndex = (electionPhaseIndex + 1) % electionPhases.length;\r\n        currentElectionPhase = electionPhases[electionPhaseIndex];\r\n        nextElectionPhase = electionPhases[\r\n            (electionPhaseIndex + 1) % electionPhases.length\r\n        ];\r\n        if (electionPhaseIndex == electionPhases.length - 1) {\r\n            isElectionEnded = true;\r\n        }\r\n    }\r\n\r\n    function getElectionDetails()\r\n        public\r\n        view\r\n        returns (\r\n            bool,\r\n            bool,\r\n            string memory,\r\n            string memory,\r\n            string memory,\r\n            string memory\r\n        )\r\n    {\r\n        return (\r\n            isElectionStarted,\r\n            isElectionEnded,\r\n            electionTitle,\r\n            electionOrganization,\r\n            currentElectionPhase,\r\n            nextElectionPhase\r\n        );\r\n    }\r\n\r\n    function startElection(\r\n        string memory _electionTitle,\r\n        string memory _electionOrganization\r\n    ) public {\r\n        isElectionStarted = true;\r\n        electionTitle = _electionTitle;\r\n        electionOrganization = _electionOrganization;\r\n        changeElectionPhase();\r\n    }\r\n}\r\n",
  "sourcePath": "D:\\MyBooks\\BlockChain\\Bluepineapple_Project\\evote\\contracts\\Election.sol",
  "compiler": {
    "name": "solc",
    "version": "0.5.16+commit.9c3226ce.Emscripten.clang"
  },
  "schemaVersion": "3.4.6",
  "updatedAt": "2022-05-01T12:02:58.973Z",
  "networkType": "ethereum",
  "devdoc": {
    "methods": {}
  },
  "userdoc": {
    "methods": {}
  }
}