{
  "contractName": "Election",
  "abi": [
    {
      "inputs": [],
      "payable": false,
      "stateMutability": "nonpayable",
      "type": "constructor"
    },
    {
      "constant": true,
      "inputs": [],
      "name": "admin",
      "outputs": [
        {
          "internalType": "address",
          "name": "",
          "type": "address"
        }
      ],
      "payable": false,
      "stateMutability": "view",
      "type": "function"
    },
    {
      "constant": true,
      "inputs": [],
      "name": "getAdmin",
      "outputs": [
        {
          "internalType": "address",
          "name": "",
          "type": "address"
        }
      ],
      "payable": false,
      "stateMutability": "view",
      "type": "function"
    },
    {
      "constant": true,
      "inputs": [],
      "name": "getStart",
      "outputs": [
        {
          "internalType": "bool",
          "name": "",
          "type": "bool"
        }
      ],
      "payable": false,
      "stateMutability": "view",
      "type": "function"
    },
    {
      "constant": true,
      "inputs": [],
      "name": "getEnd",
      "outputs": [
        {
          "internalType": "bool",
          "name": "",
          "type": "bool"
        }
      ],
      "payable": false,
      "stateMutability": "view",
      "type": "function"
    },
    {
      "constant": true,
      "inputs": [],
      "name": "getElectionName",
      "outputs": [
        {
          "internalType": "string",
          "name": "",
          "type": "string"
        }
      ],
      "payable": false,
      "stateMutability": "view",
      "type": "function"
    },
    {
      "constant": false,
      "inputs": [],
      "name": "startElection",
      "outputs": [
        {
          "internalType": "bool",
          "name": "",
          "type": "bool"
        }
      ],
      "payable": false,
      "stateMutability": "nonpayable",
      "type": "function"
    }
  ],
  "bytecode": "0x608060405234801561001057600080fd5b50336000806101000a81548173ffffffffffffffffffffffffffffffffffffffff021916908373ffffffffffffffffffffffffffffffffffffffff160217905550600060018190555060006002819055506000600360006101000a81548160ff0219169083151502179055506000600360016101000a81548160ff0219169083151502179055506040518060400160405280600281526020017f4352000000000000000000000000000000000000000000000000000000000000815250600490805190602001906100e29291906100e8565b5061018d565b828054600181600116156101000203166002900490600052602060002090601f016020900481019282601f1061012957805160ff1916838001178555610157565b82800160010185558215610157579182015b8281111561015657825182559160200191906001019061013b565b5b5090506101649190610168565b5090565b61018a91905b8082111561018657600081600090555060010161016e565b5090565b90565b6104758061019c6000396000f3fe608060405234801561001057600080fd5b50600436106100625760003560e01c806330e7a79c1461006757806362d73eb8146100ea5780636e9960c31461010c5780639f05a36d14610156578063c5292c6714610178578063f851a4401461019a575b600080fd5b61006f6101e4565b6040518080602001828103825283818151815260200191508051906020019080838360005b838110156100af578082015181840152602081019050610094565b50505050905090810190601f1680156100dc5780820380516001836020036101000a031916815260200191505b509250505060405180910390f35b6100f2610286565b604051808215151515815260200191505060405180910390f35b61011461031f565b604051808273ffffffffffffffffffffffffffffffffffffffff1673ffffffffffffffffffffffffffffffffffffffff16815260200191505060405180910390f35b61015e610348565b604051808215151515815260200191505060405180910390f35b61018061035f565b604051808215151515815260200191505060405180910390f35b6101a2610376565b604051808273ffffffffffffffffffffffffffffffffffffffff1673ffffffffffffffffffffffffffffffffffffffff16815260200191505060405180910390f35b606060048054600181600116156101000203166002900480601f01602080910402602001604051908101604052809291908181526020018280546001816001161561010002031660029004801561027c5780601f106102515761010080835404028352916020019161027c565b820191906000526020600020905b81548152906001019060200180831161025f57829003601f168201915b5050505050905090565b60006040518060400160405280600381526020017f5043520000000000000000000000000000000000000000000000000000000000815250600490805190602001906102d392919061039b565b506001600360006101000a81548160ff0219169083151502179055506000600360016101000a81548160ff021916908315150217905550600360009054906101000a900460ff16905090565b60008060009054906101000a900473ffffffffffffffffffffffffffffffffffffffff16905090565b6000600360019054906101000a900460ff16905090565b6000600360009054906101000a900460ff16905090565b6000809054906101000a900473ffffffffffffffffffffffffffffffffffffffff1681565b828054600181600116156101000203166002900490600052602060002090601f016020900481019282601f106103dc57805160ff191683800117855561040a565b8280016001018555821561040a579182015b828111156104095782518255916020019190600101906103ee565b5b509050610417919061041b565b5090565b61043d91905b80821115610439576000816000905550600101610421565b5090565b9056fea265627a7a72315820a08fda7eaf1e8dd12a094a1248910e39476450da8392f62501ffe5b87afe478e64736f6c63430005100032",
  "source": "// SPDX-License-Identifier: MIT\r\npragma solidity >=0.4.21 <0.9.0;\r\n\r\ncontract Election {\r\n    address public admin;\r\n    uint256 candidateCount;\r\n    uint256 voterCount;\r\n    bool start;\r\n    bool end;\r\n    string electionName;\r\n\r\n    constructor() public {\r\n        // Initilizing default values\r\n        admin = msg.sender;\r\n        candidateCount = 0;\r\n        voterCount = 0;\r\n        start = false;\r\n        end = false;\r\n        electionName = \"CR\";\r\n    }\r\n    \r\n    function getAdmin() public view returns (address) {\r\n        // Returns account address used to deploy contract (i.e. admin)\r\n        return admin;\r\n    }\r\n\r\n    // Get election start and end values\r\n    function getStart() public view returns (bool) {\r\n        return start;\r\n    }\r\n\r\n    function getEnd() public view returns (bool) {\r\n        return end;\r\n    }\r\n\r\n    function getElectionName() public view returns (string memory) {\r\n        return electionName;\r\n    }\r\n    \r\n    function startElection() public returns (bool){\r\n        electionName = \"PCR\";\r\n        start = true;\r\n        end = false;\r\n        return start;\r\n    }\r\n\r\n    \r\n}",
  "sourcePath": "C:\\Users\\saura\\Desktop\\Bluepineapple Project\\Voting-app-using-Blockchain\\contracts\\Election.sol",
  "compiler": {
    "name": "solc",
    "version": "0.5.16+commit.9c3226ce.Emscripten.clang"
  },
  "schemaVersion": "3.4.6",
  "updatedAt": "2022-04-28T05:13:03.180Z",
  "networkType": "ethereum",
  "devdoc": {
    "methods": {}
  },
  "userdoc": {
    "methods": {}
  }
}